{
  "_format": "hh-sol-artifact-1",
  "contractName": "RoutingV2",
  "sourceName": "contracts/mocks/RoutingV2.sol",
  "abi": [
    {
      "inputs": [],
      "name": "InvalidVersion",
      "type": "error"
    },
    {
      "inputs": [
        {
          "internalType": "string",
          "name": "message",
          "type": "string"
        }
      ],
      "name": "Routing__ErrorMessage",
      "type": "error"
    },
    {
      "inputs": [
        {
          "internalType": "bytes20",
          "name": "addressOrTokenNumber",
          "type": "bytes20"
        }
      ],
      "name": "Routing__TokenNotRegistered",
      "type": "error"
    },
    {
      "inputs": [],
      "name": "TooShort",
      "type": "error"
    },
    {
      "anonymous": false,
      "inputs": [
        {
          "indexed": false,
          "internalType": "address",
          "name": "previousAdmin",
          "type": "address"
        },
        {
          "indexed": false,
          "internalType": "address",
          "name": "newAdmin",
          "type": "address"
        }
      ],
      "name": "AdminChanged",
      "type": "event"
    },
    {
      "anonymous": false,
      "inputs": [
        {
          "indexed": true,
          "internalType": "address",
          "name": "beacon",
          "type": "address"
        }
      ],
      "name": "BeaconUpgraded",
      "type": "event"
    },
    {
      "anonymous": false,
      "inputs": [
        {
          "indexed": false,
          "internalType": "uint8",
          "name": "version",
          "type": "uint8"
        }
      ],
      "name": "Initialized",
      "type": "event"
    },
    {
      "anonymous": false,
      "inputs": [
        {
          "indexed": true,
          "internalType": "address",
          "name": "to",
          "type": "address"
        },
        {
          "indexed": true,
          "internalType": "address",
          "name": "fromToken",
          "type": "address"
        },
        {
          "indexed": true,
          "internalType": "address",
          "name": "toToken",
          "type": "address"
        },
        {
          "indexed": false,
          "internalType": "uint256",
          "name": "outputAmount",
          "type": "uint256"
        }
      ],
      "name": "OnChainSwap",
      "type": "event"
    },
    {
      "anonymous": false,
      "inputs": [
        {
          "indexed": true,
          "internalType": "address",
          "name": "previousOwner",
          "type": "address"
        },
        {
          "indexed": true,
          "internalType": "address",
          "name": "newOwner",
          "type": "address"
        }
      ],
      "name": "OwnershipTransferred",
      "type": "event"
    },
    {
      "anonymous": false,
      "inputs": [
        {
          "indexed": false,
          "internalType": "address",
          "name": "account",
          "type": "address"
        }
      ],
      "name": "Paused",
      "type": "event"
    },
    {
      "anonymous": false,
      "inputs": [
        {
          "indexed": true,
          "internalType": "address",
          "name": "from",
          "type": "address"
        },
        {
          "indexed": false,
          "internalType": "uint64",
          "name": "wormholeSequence",
          "type": "uint64"
        },
        {
          "indexed": false,
          "internalType": "address",
          "name": "token",
          "type": "address"
        },
        {
          "indexed": false,
          "internalType": "uint256",
          "name": "amount",
          "type": "uint256"
        }
      ],
      "name": "ReceiveAndSwap",
      "type": "event"
    },
    {
      "anonymous": false,
      "inputs": [
        {
          "indexed": true,
          "internalType": "address",
          "name": "from",
          "type": "address"
        },
        {
          "indexed": false,
          "internalType": "uint64",
          "name": "wormholeSequence",
          "type": "uint64"
        },
        {
          "indexed": false,
          "internalType": "address",
          "name": "token",
          "type": "address"
        },
        {
          "indexed": false,
          "internalType": "uint256",
          "name": "inputAmount",
          "type": "uint256"
        }
      ],
      "name": "SwapAndTransfer",
      "type": "event"
    },
    {
      "anonymous": false,
      "inputs": [
        {
          "indexed": true,
          "internalType": "uint16",
          "name": "tokenId",
          "type": "uint16"
        },
        {
          "indexed": true,
          "internalType": "address",
          "name": "tokenContract",
          "type": "address"
        },
        {
          "indexed": false,
          "internalType": "address",
          "name": "chainPool",
          "type": "address"
        }
      ],
      "name": "TokenRegistered",
      "type": "event"
    },
    {
      "anonymous": false,
      "inputs": [
        {
          "indexed": false,
          "internalType": "address",
          "name": "account",
          "type": "address"
        }
      ],
      "name": "Unpaused",
      "type": "event"
    },
    {
      "anonymous": false,
      "inputs": [
        {
          "indexed": true,
          "internalType": "address",
          "name": "implementation",
          "type": "address"
        }
      ],
      "name": "Upgraded",
      "type": "event"
    },
    {
      "inputs": [
        {
          "internalType": "address",
          "name": "tokenBridgeAdr",
          "type": "address"
        }
      ],
      "name": "changeTokenBridge",
      "outputs": [],
      "stateMutability": "nonpayable",
      "type": "function"
    },
    {
      "inputs": [
        {
          "internalType": "address[]",
          "name": "poolAddresses",
          "type": "address[]"
        }
      ],
      "name": "getPoolStates",
      "outputs": [
        {
          "components": [
            {
              "internalType": "bool",
              "name": "paused",
              "type": "bool"
            },
            {
              "components": [
                {
                  "internalType": "address",
                  "name": "tokenAddres",
                  "type": "address"
                },
                {
                  "internalType": "uint256",
                  "name": "balance",
                  "type": "uint256"
                }
              ],
              "internalType": "struct TokenBalance[]",
              "name": "balances",
              "type": "tuple[]"
            },
            {
              "components": [
                {
                  "internalType": "address",
                  "name": "tokenAddres",
                  "type": "address"
                },
                {
                  "internalType": "uint256",
                  "name": "balance",
                  "type": "uint256"
                }
              ],
              "internalType": "struct TokenBalance",
              "name": "totalLPSupply",
              "type": "tuple"
            },
            {
              "components": [
                {
                  "internalType": "uint256",
                  "name": "value",
                  "type": "uint256"
                },
                {
                  "internalType": "uint8",
                  "name": "decimals",
                  "type": "uint8"
                }
              ],
              "internalType": "struct Decimal",
              "name": "ampFactor",
              "type": "tuple"
            },
            {
              "components": [
                {
                  "internalType": "uint256",
                  "name": "value",
                  "type": "uint256"
                },
                {
                  "internalType": "uint8",
                  "name": "decimals",
                  "type": "uint8"
                }
              ],
              "internalType": "struct Decimal",
              "name": "lpFee",
              "type": "tuple"
            },
            {
              "components": [
                {
                  "internalType": "uint256",
                  "name": "value",
                  "type": "uint256"
                },
                {
                  "internalType": "uint8",
                  "name": "decimals",
                  "type": "uint8"
                }
              ],
              "internalType": "struct Decimal",
              "name": "governanceFee",
              "type": "tuple"
            }
          ],
          "internalType": "struct PoolState[]",
          "name": "",
          "type": "tuple[]"
        }
      ],
      "stateMutability": "view",
      "type": "function"
    },
    {
      "inputs": [
        {
          "internalType": "address",
          "name": "tokenBridgeAddress",
          "type": "address"
        }
      ],
      "name": "initialize",
      "outputs": [],
      "stateMutability": "nonpayable",
      "type": "function"
    },
    {
      "inputs": [
        {
          "internalType": "address",
          "name": "fromToken",
          "type": "address"
        },
        {
          "internalType": "uint256",
          "name": "inputAmount",
          "type": "uint256"
        },
        {
          "internalType": "address",
          "name": "toOwner",
          "type": "address"
        },
        {
          "internalType": "address",
          "name": "toToken",
          "type": "address"
        },
        {
          "internalType": "uint256",
          "name": "minimumOutputAmount",
          "type": "uint256"
        }
      ],
      "name": "onChainSwap",
      "outputs": [
        {
          "internalType": "uint256",
          "name": "outputAmount",
          "type": "uint256"
        }
      ],
      "stateMutability": "payable",
      "type": "function"
    },
    {
      "inputs": [],
      "name": "owner",
      "outputs": [
        {
          "internalType": "address",
          "name": "",
          "type": "address"
        }
      ],
      "stateMutability": "view",
      "type": "function"
    },
    {
      "inputs": [],
      "name": "pause",
      "outputs": [],
      "stateMutability": "nonpayable",
      "type": "function"
    },
    {
      "inputs": [],
      "name": "paused",
      "outputs": [
        {
          "internalType": "bool",
          "name": "",
          "type": "bool"
        }
      ],
      "stateMutability": "view",
      "type": "function"
    },
    {
      "inputs": [],
      "name": "proxiableUUID",
      "outputs": [
        {
          "internalType": "bytes32",
          "name": "",
          "type": "bytes32"
        }
      ],
      "stateMutability": "view",
      "type": "function"
    },
    {
      "inputs": [
        {
          "internalType": "bytes",
          "name": "encodedVm",
          "type": "bytes"
        },
        {
          "internalType": "address",
          "name": "toToken",
          "type": "address"
        },
        {
          "internalType": "uint256",
          "name": "minimumOutputAmount",
          "type": "uint256"
        }
      ],
      "name": "receiveAndSwap",
      "outputs": [
        {
          "internalType": "uint256",
          "name": "outputAmount",
          "type": "uint256"
        },
        {
          "internalType": "address",
          "name": "outputToken",
          "type": "address"
        }
      ],
      "stateMutability": "nonpayable",
      "type": "function"
    },
    {
      "inputs": [
        {
          "internalType": "bytes",
          "name": "encodedVm",
          "type": "bytes"
        }
      ],
      "name": "receiveAndSwap",
      "outputs": [
        {
          "internalType": "uint256",
          "name": "outputAmount",
          "type": "uint256"
        },
        {
          "internalType": "address",
          "name": "outputToken",
          "type": "address"
        }
      ],
      "stateMutability": "nonpayable",
      "type": "function"
    },
    {
      "inputs": [
        {
          "internalType": "uint16",
          "name": "tokenNumber",
          "type": "uint16"
        },
        {
          "internalType": "address",
          "name": "tokenAddress",
          "type": "address"
        },
        {
          "internalType": "address",
          "name": "poolAddress",
          "type": "address"
        },
        {
          "internalType": "uint8",
          "name": "tokenIndexInPool",
          "type": "uint8"
        }
      ],
      "name": "registerToken",
      "outputs": [],
      "stateMutability": "nonpayable",
      "type": "function"
    },
    {
      "inputs": [],
      "name": "renounceOwnership",
      "outputs": [],
      "stateMutability": "nonpayable",
      "type": "function"
    },
    {
      "inputs": [
        {
          "internalType": "address",
          "name": "fromToken",
          "type": "address"
        },
        {
          "internalType": "uint256",
          "name": "inputAmount",
          "type": "uint256"
        },
        {
          "internalType": "uint256",
          "name": "firstMinimumOutputAmount",
          "type": "uint256"
        },
        {
          "internalType": "uint16",
          "name": "wormholeRecipientChain",
          "type": "uint16"
        },
        {
          "internalType": "bytes32",
          "name": "toOwner",
          "type": "bytes32"
        }
      ],
      "name": "swapAndTransfer",
      "outputs": [
        {
          "internalType": "uint64",
          "name": "wormholeSequence",
          "type": "uint64"
        }
      ],
      "stateMutability": "payable",
      "type": "function"
    },
    {
      "inputs": [],
      "name": "swimUsdAddress",
      "outputs": [
        {
          "internalType": "address",
          "name": "",
          "type": "address"
        }
      ],
      "stateMutability": "view",
      "type": "function"
    },
    {
      "inputs": [],
      "name": "tokenBridge",
      "outputs": [
        {
          "internalType": "contract ITokenBridge",
          "name": "",
          "type": "address"
        }
      ],
      "stateMutability": "view",
      "type": "function"
    },
    {
      "inputs": [
        {
          "internalType": "address",
          "name": "newOwner",
          "type": "address"
        }
      ],
      "name": "transferOwnership",
      "outputs": [],
      "stateMutability": "nonpayable",
      "type": "function"
    },
    {
      "inputs": [],
      "name": "unpause",
      "outputs": [],
      "stateMutability": "nonpayable",
      "type": "function"
    },
    {
      "inputs": [
        {
          "internalType": "address",
          "name": "newImplementation",
          "type": "address"
        }
      ],
      "name": "upgradeTo",
      "outputs": [],
      "stateMutability": "nonpayable",
      "type": "function"
    },
    {
      "inputs": [
        {
          "internalType": "address",
          "name": "newImplementation",
          "type": "address"
        },
        {
          "internalType": "bytes",
          "name": "data",
          "type": "bytes"
        }
      ],
      "name": "upgradeToAndCall",
      "outputs": [],
      "stateMutability": "payable",
      "type": "function"
    },
    {
      "inputs": [],
      "name": "wormhole",
      "outputs": [
        {
          "internalType": "contract IWormhole",
          "name": "",
          "type": "address"
        }
      ],
      "stateMutability": "view",
      "type": "function"
    }
  ],
  "bytecode": "0x60a06040523060805234801561001457600080fd5b5060805161370c61004c60003960008181610418015281816104a2015281816108bd015281816109420152610a2c015261370c6000f3fe60806040526004361061015f5760003560e01c80638da5cb5b116100c0578063cd5af9ae11610074578063f6bf28b511610059578063f6bf28b5146103ba578063f7069180146103da578063fe4bc67a146103fa57600080fd5b8063cd5af9ae1461035d578063f2fde38b1461039a57600080fd5b8063b1719a57116100a5578063b1719a57146102f0578063c4d66de81461031c578063c6328a461461033c57600080fd5b80638da5cb5b146102a9578063a174e5b7146102c757600080fd5b80635c975abb11610117578063715018a6116100fc578063715018a6146102465780638456cb591461025b57806384acd1bb1461027057600080fd5b80635c975abb146101f65780636bde354a1461021957600080fd5b80633f4ba83a116101485780633f4ba83a146101a65780634f1ef286146101bb57806352d1902d146101ce57600080fd5b80633659cfe6146101645780633954802a14610186575b600080fd5b34801561017057600080fd5b5061018461017f366004612b48565b61040d565b005b34801561019257600080fd5b506101846101a1366004612b84565b61058e565b3480156101b257600080fd5b506101846108a0565b6101846101c9366004612d38565b6108b2565b3480156101da57600080fd5b506101e3610a1f565b6040519081526020015b60405180910390f35b34801561020257600080fd5b5060335460ff1660405190151581526020016101ed565b34801561022557600080fd5b50610239610234366004612dac565b610ae4565b6040516101ed9190612e3b565b34801561025257600080fd5b50610184610c11565b34801561026757600080fd5b50610184610c23565b34801561027c57600080fd5b5061012f54610291906001600160a01b031681565b6040516001600160a01b0390911681526020016101ed565b3480156102b557600080fd5b506065546001600160a01b0316610291565b3480156102d357600080fd5b5061012d546102919064010000000090046001600160a01b031681565b6103036102fe366004612f75565b610c33565b60405167ffffffffffffffff90911681526020016101ed565b34801561032857600080fd5b50610184610337366004612b48565b610fde565b34801561034857600080fd5b5061012e54610291906001600160a01b031681565b34801561036957600080fd5b5061037d610378366004612fc7565b6112c1565b604080519283526001600160a01b039091166020830152016101ed565b3480156103a657600080fd5b506101846103b5366004612b48565b6113fb565b3480156103c657600080fd5b5061037d6103d5366004613021565b611488565b3480156103e657600080fd5b506101846103f5366004612b48565b61156a565b6101e361040836600461305e565b611595565b306001600160a01b037f00000000000000000000000000000000000000000000000000000000000000001614156104a05760405162461bcd60e51b815260206004820152602c60248201527f46756e6374696f6e206d7573742062652063616c6c6564207468726f7567682060448201526b19195b1959d85d1958d85b1b60a21b60648201526084015b60405180910390fd5b7f00000000000000000000000000000000000000000000000000000000000000006001600160a01b03166104fb7f360894a13ba1a3210667c828492db98dca3e2076cc3735a920a3ca505d382bbc546001600160a01b031690565b6001600160a01b0316146105665760405162461bcd60e51b815260206004820152602c60248201527f46756e6374696f6e206d7573742062652063616c6c6564207468726f7567682060448201526b6163746976652070726f787960a01b6064820152608401610497565b61056f816117e8565b6040805160008082526020820190925261058b918391906117f0565b50565b6105966119a4565b600061013060008661ffff1661ffff1681526020019081526020016000206040518060800160405290816000820160009054906101000a900461ffff1661ffff1661ffff1681526020016000820160029054906101000a90046001600160a01b03166001600160a01b03166001600160a01b031681526020016001820160009054906101000a90046001600160a01b03166001600160a01b03166001600160a01b031681526020016001820160149054906101000a900460ff1660ff1660ff1681525050905084816000019061ffff16908161ffff16815250508381602001906001600160a01b031690816001600160a01b0316815250508281604001906001600160a01b031690816001600160a01b03168152505081816060019060ff16908160ff16815250508061013060008761ffff1661ffff16815260200190815260200160002060008201518160000160006101000a81548161ffff021916908361ffff16021790555060208201518160000160026101000a8154816001600160a01b0302191690836001600160a01b0316021790555060408201518160010160006101000a8154816001600160a01b0302191690836001600160a01b0316021790555060608201518160010160146101000a81548160ff021916908360ff160217905550905050806101316000866001600160a01b03166001600160a01b0316815260200190815260200160002060008201518160000160006101000a81548161ffff021916908361ffff16021790555060208201518160000160026101000a8154816001600160a01b0302191690836001600160a01b0316021790555060408201518160010160006101000a8154816001600160a01b0302191690836001600160a01b0316021790555060608201518160010160146101000a81548160ff021916908360ff160217905550905050836001600160a01b03168561ffff167f639dd7678d262a54d13718f5d54a4cf4c9289b611fee8ea5cc905c1518157e068560405161089191906001600160a01b0391909116815260200190565b60405180910390a35050505050565b6108a86119a4565b6108b06119fe565b565b306001600160a01b037f00000000000000000000000000000000000000000000000000000000000000001614156109405760405162461bcd60e51b815260206004820152602c60248201527f46756e6374696f6e206d7573742062652063616c6c6564207468726f7567682060448201526b19195b1959d85d1958d85b1b60a21b6064820152608401610497565b7f00000000000000000000000000000000000000000000000000000000000000006001600160a01b031661099b7f360894a13ba1a3210667c828492db98dca3e2076cc3735a920a3ca505d382bbc546001600160a01b031690565b6001600160a01b031614610a065760405162461bcd60e51b815260206004820152602c60248201527f46756e6374696f6e206d7573742062652063616c6c6564207468726f7567682060448201526b6163746976652070726f787960a01b6064820152608401610497565b610a0f826117e8565b610a1b828260016117f0565b5050565b6000306001600160a01b037f00000000000000000000000000000000000000000000000000000000000000001614610abf5760405162461bcd60e51b815260206004820152603860248201527f555550535570677261646561626c653a206d757374206e6f742062652063616c60448201527f6c6564207468726f7567682064656c656761746563616c6c00000000000000006064820152608401610497565b507f360894a13ba1a3210667c828492db98dca3e2076cc3735a920a3ca505d382bbc90565b805160609060008167ffffffffffffffff811115610b0457610b04612be0565b604051908082528060200260200182016040528015610b3d57816020015b610b2a612a7e565b815260200190600190039081610b225790505b50905060005b82811015610c0957848181518110610b5d57610b5d6130a8565b60200260200101516001600160a01b0316631865c57d6040518163ffffffff1660e01b815260040160006040518083038186803b158015610b9d57600080fd5b505afa158015610bb1573d6000803e3d6000fd5b505050506040513d6000823e601f3d908101601f19168201604052610bd99190810190613152565b828281518110610beb57610beb6130a8565b60200260200101819052508080610c019061328f565b915050610b43565b509392505050565b610c196119a4565b6108b06000611a50565b610c2b6119a4565b6108b0611aa2565b6000610c3d611adf565b600080610c4988611b32565b9092509050610c636001600160a01b03891633308a611bb5565b61012d5487906001600160a01b038a81166401000000009092041614610d2b57610c976001600160a01b038a16848a611c6c565b604051636e0b1ea760e11b81526004810189905260ff8316602482015260006044820152606481018890526001600160a01b0384169063dc163d4e90608401602060405180830381600087803b158015610cf057600080fd5b505af1158015610d04573d6000803e3d6000fd5b505050506040513d601f19601f82011682018060405250810190610d2891906132aa565b90505b61012e5461012d54610d52916001600160a01b036401000000009092048216911683611c6c565b61ffff861660011415610e395761012e5461012d546040517f0f5287b00000000000000000000000000000000000000000000000000000000081526001600160a01b0364010000000083048116600483015260248201859052600160448301526064820189905260006084830181905263ffffffff90931660a483015291929190911690630f5287b09060c401602060405180830381600087803b158015610df957600080fd5b505af1158015610e0d573d6000803e3d6000fd5b505050506040513d601f19601f82011682018060405250810190610e3191906132db565b945050610f47565b6000610e8486604080517f0100000000000000000000000000000000000000000000000000000000000000602082015260218082019390935281518082039093018352604101905290565b61012e5461012d546040517fc5a5ebda00000000000000000000000000000000000000000000000000000000815292935030926001600160a01b039283169263c5a5ebda92610ef09264010000000082049092169188918e91889163ffffffff16908a9060040161334e565b602060405180830381600087803b158015610f0a57600080fd5b505af1158015610f1e573d6000803e3d6000fd5b505050506040513d601f19601f82011682018060405250810190610f4291906132db565b955050505b61012d8054600090610f5e9063ffffffff1661339e565b825463ffffffff9182166101009390930a92830291909202199091161790556040805167ffffffffffffffff861681526001600160a01b038b16602082015290810189905233907f3d75c465c33301aa387417fd1ee8a2d936ac3157c21ac3eccbd830b1a4609faa9060600160405180910390a250505095945050505050565b600054610100900460ff1615808015610ffe5750600054600160ff909116105b806110185750303b158015611018575060005460ff166001145b61108a5760405162461bcd60e51b815260206004820152602e60248201527f496e697469616c697a61626c653a20636f6e747261637420697320616c72656160448201527f647920696e697469616c697a65640000000000000000000000000000000000006064820152608401610497565b6000805460ff1916600117905580156110ad576000805461ff0019166101001790555b6110b5611dc9565b6110bd611e3c565b6110c5611eaf565b6110cd611f1a565b61012d805463ffffffff1916905561012e80546001600160a01b0319166001600160a01b038416908117909155604080517f84acd1bb00000000000000000000000000000000000000000000000000000000815290516384acd1bb91600480820192602092909190829003018186803b15801561114957600080fd5b505afa15801561115d573d6000803e3d6000fd5b505050506040513d601f19601f8201168201806040525081019061118191906133c2565b61012f80546001600160a01b0319166001600160a01b0392831617905561012e546040517f1ff1e286000000000000000000000000000000000000000000000000000000008152600160048201527f44a0a063099540e87e0163a6e27266a364c35930208cfaded5b79377713906e96024820152911690631ff1e2869060440160206040518083038186803b15801561121957600080fd5b505afa15801561122d573d6000803e3d6000fd5b505050506040513d601f19601f8201168201806040525081019061125191906133c2565b61012d60046101000a8154816001600160a01b0302191690836001600160a01b031602179055508015610a1b576000805461ff0019169055604051600181527f7f26b83ff96e1f2b6a682f133852f6798a09c465da95921460cefb38474024989060200160405180910390a15050565b6000806112cc611adf565b61012e5460405163c3f511c160e01b81526000916001600160a01b03169063c3f511c1906112fe9089906004016133df565b600060405180830381600087803b15801561131857600080fd5b505af115801561132c573d6000803e3d6000fd5b505050506040513d6000823e601f3d908101601f191682016040526113549190810190613437565b905061135f81611f8d565b61136881611ff9565b6001600160a01b0316336001600160a01b0316146113e2576040517fa2bd777200000000000000000000000000000000000000000000000000000000815260206004820152601860248201527f53656e646572206973206e6f7420746865206f776e65722100000000000000006044820152606401610497565b6113ee8633878761200e565b9250925050935093915050565b6114036119a4565b6001600160a01b03811661147f5760405162461bcd60e51b815260206004820152602660248201527f4f776e61626c653a206e6577206f776e657220697320746865207a65726f206160448201527f64647265737300000000000000000000000000000000000000000000000000006064820152608401610497565b61058b81611a50565b600080611493611adf565b61012e5460405163c3f511c160e01b81526000916001600160a01b03169063c3f511c1906114c59087906004016133df565b600060405180830381600087803b1580156114df57600080fd5b505af11580156114f3573d6000803e3d6000fd5b505050506040513d6000823e601f3d908101601f1916820160405261151b9190810190613437565b905061152681611f8d565b600061153182611ff9565b905060008061153f846122da565b91509150600061154e83612340565b905061155c8885838561200e565b965096505050505050915091565b6115726119a4565b61012e80546001600160a01b0319166001600160a01b0392909216919091179055565b600061159f611adf565b6000806115ab88611b32565b915091506000806115bb87611b32565b90925090506115d56001600160a01b038b1633308c611bb5565b61012d548995506001600160a01b038b8116640100000000909204161461169e5761160a6001600160a01b038b16858b611c6c565b604051636e0b1ea760e11b8152600481018a905260ff8416602482015260006044820181905260648201526001600160a01b0385169063dc163d4e90608401602060405180830381600087803b15801561166357600080fd5b505af1158015611677573d6000803e3d6000fd5b505050506040513d601f19601f8201168201806040525081019061169b91906132aa565b94505b61012d546001600160a01b0388811664010000000090920416146117705761012d546116dc9064010000000090046001600160a01b03168387611c6c565b604051636e0b1ea760e11b8152600481018690526000602482015260ff82166044820152606481018790526001600160a01b0383169063dc163d4e90608401602060405180830381600087803b15801561173557600080fd5b505af1158015611749573d6000803e3d6000fd5b505050506040513d601f19601f8201168201806040525081019061176d91906132aa565b94505b6117846001600160a01b038816898761239e565b866001600160a01b03168a6001600160a01b0316896001600160a01b03167ff2e2a58c01dc9b89916a15f9d426d4df34390782f1fc1786a7ae826bc414abd9886040516117d391815260200190565b60405180910390a45050505095945050505050565b61058b6119a4565b7f4910fdfa16fed3260ed0e7147f7cc6da11a60208b5b9406d12a635614ffd91435460ff161561182857611823836123e7565b505050565b826001600160a01b03166352d1902d6040518163ffffffff1660e01b815260040160206040518083038186803b15801561186157600080fd5b505afa925050508015611891575060408051601f3d908101601f1916820190925261188e918101906132aa565b60015b6119035760405162461bcd60e51b815260206004820152602e60248201527f45524331393637557067726164653a206e657720696d706c656d656e7461746960448201527f6f6e206973206e6f7420555550530000000000000000000000000000000000006064820152608401610497565b7f360894a13ba1a3210667c828492db98dca3e2076cc3735a920a3ca505d382bbc81146119985760405162461bcd60e51b815260206004820152602960248201527f45524331393637557067726164653a20756e737570706f727465642070726f7860448201527f6961626c655555494400000000000000000000000000000000000000000000006064820152608401610497565b506118238383836124a5565b6065546001600160a01b031633146108b05760405162461bcd60e51b815260206004820181905260248201527f4f776e61626c653a2063616c6c6572206973206e6f7420746865206f776e65726044820152606401610497565b611a066124ca565b6033805460ff191690557f5db9ee0a495bf2e6ff9c91a7834c1ba4fdd244a5e8aa4e537bd38aeae4b073aa335b6040516001600160a01b03909116815260200160405180910390a1565b606580546001600160a01b038381166001600160a01b0319831681179093556040519116919082907f8be0079c531659141344cd1fd0a4f28419497f9722a3daafe3b4186f6b6457e090600090a35050565b611aaa611adf565b6033805460ff191660011790557f62e78cea01bee320cd4e420270b5ea74000d11b0c9f74754ebdbfc544b05a258611a333390565b60335460ff16156108b05760405162461bcd60e51b815260206004820152601060248201527f5061757361626c653a20706175736564000000000000000000000000000000006044820152606401610497565b6001600160a01b038082166000908152610131602052604081206001810154919283921680611b895760405163237851e160e21b81526bffffffffffffffffffffffff19606087901b166004820152602401610497565b6001919091015490947401000000000000000000000000000000000000000090910460ff169350915050565b6040516001600160a01b0380851660248301528316604482015260648101829052611c669085907f23b872dd00000000000000000000000000000000000000000000000000000000906084015b60408051601f198184030181529190526020810180517bffffffffffffffffffffffffffffffffffffffffffffffffffffffff167fffffffff000000000000000000000000000000000000000000000000000000009093169290921790915261251c565b50505050565b801580611d0e57506040517fdd62ed3e0000000000000000000000000000000000000000000000000000000081523060048201526001600160a01b03838116602483015284169063dd62ed3e9060440160206040518083038186803b158015611cd457600080fd5b505afa158015611ce8573d6000803e3d6000fd5b505050506040513d601f19601f82011682018060405250810190611d0c91906132aa565b155b611d805760405162461bcd60e51b815260206004820152603660248201527f5361666545524332303a20617070726f76652066726f6d206e6f6e2d7a65726f60448201527f20746f206e6f6e2d7a65726f20616c6c6f77616e6365000000000000000000006064820152608401610497565b6040516001600160a01b0383166024820152604481018290526118239084907f095ea7b30000000000000000000000000000000000000000000000000000000090606401611c02565b600054610100900460ff16611e345760405162461bcd60e51b815260206004820152602b60248201527f496e697469616c697a61626c653a20636f6e7472616374206973206e6f74206960448201526a6e697469616c697a696e6760a81b6064820152608401610497565b6108b0612601565b600054610100900460ff16611ea75760405162461bcd60e51b815260206004820152602b60248201527f496e697469616c697a61626c653a20636f6e7472616374206973206e6f74206960448201526a6e697469616c697a696e6760a81b6064820152608401610497565b6108b0612678565b600054610100900460ff166108b05760405162461bcd60e51b815260206004820152602b60248201527f496e697469616c697a61626c653a20636f6e7472616374206973206e6f74206960448201526a6e697469616c697a696e6760a81b6064820152608401610497565b600054610100900460ff16611f855760405162461bcd60e51b815260206004820152602b60248201527f496e697469616c697a61626c653a20636f6e7472616374206973206e6f74206960448201526a6e697469616c697a696e6760a81b6064820152608401610497565b6108b06126ec565b611fa281611f9d6001600061346c565b61275e565b600160ff1681600081518110611fba57611fba6130a8565b016020015160f81c1461058b576040517fa9146eeb00000000000000000000000000000000000000000000000000000000815260040160405180910390fd5b600061200682602161275e565b506021015190565b60008060008061201d86611b32565b61012d546040517f70a082310000000000000000000000000000000000000000000000000000000081523060048201529294509092506000916401000000009091046001600160a01b0316906370a082319060240160206040518083038186803b15801561208a57600080fd5b505afa15801561209e573d6000803e3d6000fd5b505050506040513d601f19601f820116820180604052508101906120c291906132aa565b61012d548796508895509091506001600160a01b0380861664010000000090920416146121bc5761012d546121099064010000000090046001600160a01b03168483611c6c565b604051636e0b1ea760e11b8152600481018290526000602482015260ff83166044820152606481018790526001600160a01b0384169063dc163d4e90608401602060405180830381600087803b15801561216257600080fd5b505af1925050508015612192575060408051601f3d908101601f1916820190925261218f918101906132aa565b60015b6121b65761012d5490945064010000000090046001600160a01b03169250836121bc565b94508693505b6121d06001600160a01b038816898761239e565b61012f546040517fa9e118930000000000000000000000000000000000000000000000000000000081526000916001600160a01b03169063a9e118939061221b908d906004016133df565b60006040518083038186803b15801561223357600080fd5b505afa158015612247573d6000803e3d6000fd5b505050506040513d6000823e601f3d908101601f1916820160405261226f9190810190613553565b60a001516040805167ffffffffffffffff831681526001600160a01b0388811660208301529181018990529192508a16907f9634e0407482c730e10f73eecc33308988a787cbb548b5585ff97fdebf9fd3cd9060600160405180910390a25050505094509492505050565b6000806122e883604361275e565b825160009084906022908110612300576123006130a8565b0160200151845160f89190911c9060089086906021908110612324576123246130a8565b01602001516043969096015160f89690961c901b019492505050565b61ffff8116600090815261013060205260408120546201000090046001600160a01b0316806123985760405163237851e160e21b81526dffff000000000000000000000000606085901b166004820152602401610497565b92915050565b6040516001600160a01b0383166024820152604481018290526118239084907fa9059cbb0000000000000000000000000000000000000000000000000000000090606401611c02565b6001600160a01b0381163b6124645760405162461bcd60e51b815260206004820152602d60248201527f455243313936373a206e657720696d706c656d656e746174696f6e206973206e60448201527f6f74206120636f6e7472616374000000000000000000000000000000000000006064820152608401610497565b7f360894a13ba1a3210667c828492db98dca3e2076cc3735a920a3ca505d382bbc80546001600160a01b0319166001600160a01b0392909216919091179055565b6124ae83612799565b6000825111806124bb5750805b1561182357611c6683836127d9565b60335460ff166108b05760405162461bcd60e51b815260206004820152601460248201527f5061757361626c653a206e6f74207061757365640000000000000000000000006044820152606401610497565b6000612571826040518060400160405280602081526020017f5361666545524332303a206c6f772d6c6576656c2063616c6c206661696c6564815250856001600160a01b03166128e49092919063ffffffff16565b805190915015611823578080602001905181019061258f9190613678565b6118235760405162461bcd60e51b815260206004820152602a60248201527f5361666545524332303a204552433230206f7065726174696f6e20646964206e60448201527f6f742073756363656564000000000000000000000000000000000000000000006064820152608401610497565b600054610100900460ff1661266c5760405162461bcd60e51b815260206004820152602b60248201527f496e697469616c697a61626c653a20636f6e7472616374206973206e6f74206960448201526a6e697469616c697a696e6760a81b6064820152608401610497565b6033805460ff19169055565b600054610100900460ff166126e35760405162461bcd60e51b815260206004820152602b60248201527f496e697469616c697a61626c653a20636f6e7472616374206973206e6f74206960448201526a6e697469616c697a696e6760a81b6064820152608401610497565b6108b033611a50565b600054610100900460ff166127575760405162461bcd60e51b815260206004820152602b60248201527f496e697469616c697a61626c653a20636f6e7472616374206973206e6f74206960448201526a6e697469616c697a696e6760a81b6064820152608401610497565b6001609755565b8082511015610a1b576040517f82e6504400000000000000000000000000000000000000000000000000000000815260040160405180910390fd5b6127a2816123e7565b6040516001600160a01b038216907fbc7cd75a20ee27fd9adebab32041f755214dbc6bffa90cc0225b39da2e5c2d3b90600090a250565b60606001600160a01b0383163b6128585760405162461bcd60e51b815260206004820152602660248201527f416464726573733a2064656c65676174652063616c6c20746f206e6f6e2d636f60448201527f6e747261637400000000000000000000000000000000000000000000000000006064820152608401610497565b600080846001600160a01b0316846040516128739190613693565b600060405180830381855af49150503d80600081146128ae576040519150601f19603f3d011682016040523d82523d6000602084013e6128b3565b606091505b50915091506128db82826040518060600160405280602781526020016136b0602791396128fd565b95945050505050565b60606128f38484600085612936565b90505b9392505050565b6060831561290c5750816128f6565b82511561291c5782518084602001fd5b8160405162461bcd60e51b815260040161049791906133df565b6060824710156129ae5760405162461bcd60e51b815260206004820152602660248201527f416464726573733a20696e73756666696369656e742062616c616e636520666f60448201527f722063616c6c00000000000000000000000000000000000000000000000000006064820152608401610497565b6001600160a01b0385163b612a055760405162461bcd60e51b815260206004820152601d60248201527f416464726573733a2063616c6c20746f206e6f6e2d636f6e74726163740000006044820152606401610497565b600080866001600160a01b03168587604051612a219190613693565b60006040518083038185875af1925050503d8060008114612a5e576040519150601f19603f3d011682016040523d82523d6000602084013e612a63565b606091505b5091509150612a738282866128fd565b979650505050505050565b6040518060c0016040528060001515815260200160608152602001612abf604051806040016040528060006001600160a01b03168152602001600081525090565b8152602001612ae4604051806040016040528060008152602001600060ff1681525090565b8152602001612b09604051806040016040528060008152602001600060ff1681525090565b8152602001612b2e604051806040016040528060008152602001600060ff1681525090565b905290565b6001600160a01b038116811461058b57600080fd5b600060208284031215612b5a57600080fd5b81356128f681612b33565b61ffff8116811461058b57600080fd5b60ff8116811461058b57600080fd5b60008060008060808587031215612b9a57600080fd5b8435612ba581612b65565b93506020850135612bb581612b33565b92506040850135612bc581612b33565b91506060850135612bd581612b75565b939692955090935050565b634e487b7160e01b600052604160045260246000fd5b6040805190810167ffffffffffffffff81118282101715612c1957612c19612be0565b60405290565b60405160c0810167ffffffffffffffff81118282101715612c1957612c19612be0565b6040516080810167ffffffffffffffff81118282101715612c1957612c19612be0565b604051610160810167ffffffffffffffff81118282101715612c1957612c19612be0565b604051601f8201601f1916810167ffffffffffffffff81118282101715612cb257612cb2612be0565b604052919050565b600067ffffffffffffffff821115612cd457612cd4612be0565b50601f01601f191660200190565b600082601f830112612cf357600080fd5b8135612d06612d0182612cba565b612c89565b818152846020838601011115612d1b57600080fd5b816020850160208301376000918101602001919091529392505050565b60008060408385031215612d4b57600080fd5b8235612d5681612b33565b9150602083013567ffffffffffffffff811115612d7257600080fd5b612d7e85828601612ce2565b9150509250929050565b600067ffffffffffffffff821115612da257612da2612be0565b5060051b60200190565b60006020808385031215612dbf57600080fd5b823567ffffffffffffffff811115612dd657600080fd5b8301601f81018513612de757600080fd5b8035612df5612d0182612d88565b81815260059190911b82018301908381019087831115612e1457600080fd5b928401925b82841015612a73578335612e2c81612b33565b82529284019290840190612e19565b60006020808301818452808551808352604092508286019150828160051b8701018488016000805b84811015612f6657898403603f190186528251805115158552888101516101408a870181905281519087018190526101608701918b019085905b80821015612ed757612ec384845180516001600160a01b03168252602090810151910152565b928b0192918c019160019190910190612e9d565b50505088820151612efd8a88018280516001600160a01b03168252602090810151910152565b5060608201516080612f1e818901838051825260209081015160ff16910152565b830151805160c089015260209081015160ff90811660e08a015260a09094015180516101008a0152015190921661012090960195909552509487019491870191600101612e63565b50919998505050505050505050565b600080600080600060a08688031215612f8d57600080fd5b8535612f9881612b33565b945060208601359350604086013592506060860135612fb681612b65565b949793965091946080013592915050565b600080600060608486031215612fdc57600080fd5b833567ffffffffffffffff811115612ff357600080fd5b612fff86828701612ce2565b935050602084013561301081612b33565b929592945050506040919091013590565b60006020828403121561303357600080fd5b813567ffffffffffffffff81111561304a57600080fd5b61305684828501612ce2565b949350505050565b600080600080600060a0868803121561307657600080fd5b853561308181612b33565b945060208601359350604086013561309881612b33565b92506060860135612fb681612b33565b634e487b7160e01b600052603260045260246000fd5b805180151581146130ce57600080fd5b919050565b6000604082840312156130e557600080fd5b6130ed612bf6565b905081516130fa81612b33565b808252506020820151602082015292915050565b80516130ce81612b75565b60006040828403121561312b57600080fd5b613133612bf6565b905081518152602082015161314781612b75565b602082015292915050565b6000602080838503121561316557600080fd5b825167ffffffffffffffff8082111561317d57600080fd5b90840190610140828703121561319257600080fd5b61319a612c1f565b6131a3836130be565b815283830151828111156131b657600080fd5b83019150601f820187136131c957600080fd5b81516131d7612d0182612d88565b81815260069190911b830185019085810190898311156131f657600080fd5b938601935b8285101561321f5761320d8a866130d3565b825286820191506040850194506131fb565b8387015250613233905087604085016130d3565b60408201526132458760808501613119565b60608201526132578760c08501613119565b608082015261326a876101008501613119565b60a08201529695505050505050565b634e487b7160e01b600052601160045260246000fd5b60006000198214156132a3576132a3613279565b5060010190565b6000602082840312156132bc57600080fd5b5051919050565b805167ffffffffffffffff811681146130ce57600080fd5b6000602082840312156132ed57600080fd5b6128f6826132c3565b60005b838110156133115781810151838201526020016132f9565b83811115611c665750506000910152565b6000815180845261333a8160208601602086016132f6565b601f01601f19169290920160200192915050565b6001600160a01b038716815285602082015261ffff8516604082015283606082015263ffffffff8316608082015260c060a0820152600061339260c0830184613322565b98975050505050505050565b600063ffffffff808316818114156133b8576133b8613279565b6001019392505050565b6000602082840312156133d457600080fd5b81516128f681612b33565b6020815260006128f66020830184613322565b600082601f83011261340357600080fd5b8151613411612d0182612cba565b81815284602083860101111561342657600080fd5b6130568260208301602087016132f6565b60006020828403121561344957600080fd5b815167ffffffffffffffff81111561346057600080fd5b613056848285016133f2565b6000821982111561347f5761347f613279565b500190565b805163ffffffff811681146130ce57600080fd5b80516130ce81612b65565b600082601f8301126134b457600080fd5b815160206134c4612d0183612d88565b82815260079290921b840181019181810190868411156134e357600080fd5b8286015b8481101561354857608081890312156135005760008081fd5b613508612c42565b81518152848201518582015260408083015161352381612b75565b9082015260608281015161353681612b75565b908201528352918301916080016134e7565b509695505050505050565b60006020828403121561356557600080fd5b815167ffffffffffffffff8082111561357d57600080fd5b90830190610160828603121561359257600080fd5b61359a612c65565b6135a38361310e565b81526135b160208401613484565b60208201526135c260408401613484565b60408201526135d360608401613498565b6060820152608083015160808201526135ee60a084016132c3565b60a08201526135ff60c0840161310e565b60c082015260e08301518281111561361657600080fd5b613622878286016133f2565b60e083015250610100613636818501613484565b90820152610120838101518381111561364e57600080fd5b61365a888287016134a3565b91830191909152506101409283015192810192909252509392505050565b60006020828403121561368a57600080fd5b6128f6826130be565b600082516136a58184602087016132f6565b919091019291505056fe416464726573733a206c6f772d6c6576656c2064656c65676174652063616c6c206661696c6564a26469706673582212207f91b7e9fd6282d04c4926577d8db9ad01229500950ab5e6605bd3c0109c522664736f6c63430008090033",
  "linkReferences": {},
  "deployedLinkReferences": {}
}