{
  "address": "0x3804BE1CeB87D2FD560560CA323FAd77FdB60258",
  "abi": [
    {
      "anonymous": false,
      "inputs": [
        {
          "indexed": false,
          "internalType": "address",
          "name": "previousAdmin",
          "type": "address"
        },
        {
          "indexed": false,
          "internalType": "address",
          "name": "newAdmin",
          "type": "address"
        }
      ],
      "name": "AdminChanged",
      "type": "event"
    },
    {
      "anonymous": false,
      "inputs": [
        {
          "indexed": true,
          "internalType": "address",
          "name": "owner",
          "type": "address"
        },
        {
          "indexed": true,
          "internalType": "address",
          "name": "spender",
          "type": "address"
        },
        {
          "indexed": false,
          "internalType": "uint256",
          "name": "value",
          "type": "uint256"
        }
      ],
      "name": "Approval",
      "type": "event"
    },
    {
      "anonymous": false,
      "inputs": [
        {
          "indexed": true,
          "internalType": "address",
          "name": "beacon",
          "type": "address"
        }
      ],
      "name": "BeaconUpgraded",
      "type": "event"
    },
    {
      "anonymous": false,
      "inputs": [
        {
          "indexed": false,
          "internalType": "uint8",
          "name": "version",
          "type": "uint8"
        }
      ],
      "name": "Initialized",
      "type": "event"
    },
    {
      "anonymous": false,
      "inputs": [
        {
          "indexed": true,
          "internalType": "address",
          "name": "previousOwner",
          "type": "address"
        },
        {
          "indexed": true,
          "internalType": "address",
          "name": "newOwner",
          "type": "address"
        }
      ],
      "name": "OwnershipTransferred",
      "type": "event"
    },
    {
      "anonymous": false,
      "inputs": [
        {
          "indexed": true,
          "internalType": "address",
          "name": "from",
          "type": "address"
        },
        {
          "indexed": true,
          "internalType": "address",
          "name": "to",
          "type": "address"
        },
        {
          "indexed": false,
          "internalType": "uint256",
          "name": "value",
          "type": "uint256"
        }
      ],
      "name": "Transfer",
      "type": "event"
    },
    {
      "anonymous": false,
      "inputs": [
        {
          "indexed": true,
          "internalType": "address",
          "name": "implementation",
          "type": "address"
        }
      ],
      "name": "Upgraded",
      "type": "event"
    },
    {
      "inputs": [
        {
          "internalType": "address",
          "name": "owner",
          "type": "address"
        },
        {
          "internalType": "address",
          "name": "spender",
          "type": "address"
        }
      ],
      "name": "allowance",
      "outputs": [
        {
          "internalType": "uint256",
          "name": "",
          "type": "uint256"
        }
      ],
      "stateMutability": "view",
      "type": "function"
    },
    {
      "inputs": [
        {
          "internalType": "address",
          "name": "spender",
          "type": "address"
        },
        {
          "internalType": "uint256",
          "name": "amount",
          "type": "uint256"
        }
      ],
      "name": "approve",
      "outputs": [
        {
          "internalType": "bool",
          "name": "",
          "type": "bool"
        }
      ],
      "stateMutability": "nonpayable",
      "type": "function"
    },
    {
      "inputs": [
        {
          "internalType": "address",
          "name": "account",
          "type": "address"
        }
      ],
      "name": "balanceOf",
      "outputs": [
        {
          "internalType": "uint256",
          "name": "",
          "type": "uint256"
        }
      ],
      "stateMutability": "view",
      "type": "function"
    },
    {
      "inputs": [
        {
          "internalType": "uint256",
          "name": "amount",
          "type": "uint256"
        }
      ],
      "name": "burn",
      "outputs": [],
      "stateMutability": "nonpayable",
      "type": "function"
    },
    {
      "inputs": [
        {
          "internalType": "address",
          "name": "account",
          "type": "address"
        },
        {
          "internalType": "uint256",
          "name": "amount",
          "type": "uint256"
        }
      ],
      "name": "burnFrom",
      "outputs": [],
      "stateMutability": "nonpayable",
      "type": "function"
    },
    {
      "inputs": [],
      "name": "decimals",
      "outputs": [
        {
          "internalType": "uint8",
          "name": "",
          "type": "uint8"
        }
      ],
      "stateMutability": "view",
      "type": "function"
    },
    {
      "inputs": [
        {
          "internalType": "address",
          "name": "spender",
          "type": "address"
        },
        {
          "internalType": "uint256",
          "name": "subtractedValue",
          "type": "uint256"
        }
      ],
      "name": "decreaseAllowance",
      "outputs": [
        {
          "internalType": "bool",
          "name": "",
          "type": "bool"
        }
      ],
      "stateMutability": "nonpayable",
      "type": "function"
    },
    {
      "inputs": [
        {
          "internalType": "address",
          "name": "spender",
          "type": "address"
        },
        {
          "internalType": "uint256",
          "name": "addedValue",
          "type": "uint256"
        }
      ],
      "name": "increaseAllowance",
      "outputs": [
        {
          "internalType": "bool",
          "name": "",
          "type": "bool"
        }
      ],
      "stateMutability": "nonpayable",
      "type": "function"
    },
    {
      "inputs": [
        {
          "internalType": "address",
          "name": "owner",
          "type": "address"
        },
        {
          "internalType": "string",
          "name": "name",
          "type": "string"
        },
        {
          "internalType": "string",
          "name": "symbol",
          "type": "string"
        }
      ],
      "name": "initialize",
      "outputs": [
        {
          "internalType": "bool",
          "name": "",
          "type": "bool"
        }
      ],
      "stateMutability": "nonpayable",
      "type": "function"
    },
    {
      "inputs": [
        {
          "internalType": "address",
          "name": "recipient",
          "type": "address"
        },
        {
          "internalType": "uint256",
          "name": "amount",
          "type": "uint256"
        }
      ],
      "name": "mint",
      "outputs": [],
      "stateMutability": "nonpayable",
      "type": "function"
    },
    {
      "inputs": [],
      "name": "name",
      "outputs": [
        {
          "internalType": "string",
          "name": "",
          "type": "string"
        }
      ],
      "stateMutability": "view",
      "type": "function"
    },
    {
      "inputs": [],
      "name": "owner",
      "outputs": [
        {
          "internalType": "address",
          "name": "",
          "type": "address"
        }
      ],
      "stateMutability": "view",
      "type": "function"
    },
    {
      "inputs": [],
      "name": "proxiableUUID",
      "outputs": [
        {
          "internalType": "bytes32",
          "name": "",
          "type": "bytes32"
        }
      ],
      "stateMutability": "view",
      "type": "function"
    },
    {
      "inputs": [],
      "name": "renounceOwnership",
      "outputs": [],
      "stateMutability": "nonpayable",
      "type": "function"
    },
    {
      "inputs": [],
      "name": "symbol",
      "outputs": [
        {
          "internalType": "string",
          "name": "",
          "type": "string"
        }
      ],
      "stateMutability": "view",
      "type": "function"
    },
    {
      "inputs": [],
      "name": "totalSupply",
      "outputs": [
        {
          "internalType": "uint256",
          "name": "",
          "type": "uint256"
        }
      ],
      "stateMutability": "view",
      "type": "function"
    },
    {
      "inputs": [
        {
          "internalType": "address",
          "name": "to",
          "type": "address"
        },
        {
          "internalType": "uint256",
          "name": "amount",
          "type": "uint256"
        }
      ],
      "name": "transfer",
      "outputs": [
        {
          "internalType": "bool",
          "name": "",
          "type": "bool"
        }
      ],
      "stateMutability": "nonpayable",
      "type": "function"
    },
    {
      "inputs": [
        {
          "internalType": "address",
          "name": "from",
          "type": "address"
        },
        {
          "internalType": "address",
          "name": "to",
          "type": "address"
        },
        {
          "internalType": "uint256",
          "name": "amount",
          "type": "uint256"
        }
      ],
      "name": "transferFrom",
      "outputs": [
        {
          "internalType": "bool",
          "name": "",
          "type": "bool"
        }
      ],
      "stateMutability": "nonpayable",
      "type": "function"
    },
    {
      "inputs": [
        {
          "internalType": "address",
          "name": "newOwner",
          "type": "address"
        }
      ],
      "name": "transferOwnership",
      "outputs": [],
      "stateMutability": "nonpayable",
      "type": "function"
    },
    {
      "inputs": [
        {
          "internalType": "address",
          "name": "newImplementation",
          "type": "address"
        }
      ],
      "name": "upgradeTo",
      "outputs": [],
      "stateMutability": "nonpayable",
      "type": "function"
    },
    {
      "inputs": [
        {
          "internalType": "address",
          "name": "newImplementation",
          "type": "address"
        },
        {
          "internalType": "bytes",
          "name": "data",
          "type": "bytes"
        }
      ],
      "name": "upgradeToAndCall",
      "outputs": [],
      "stateMutability": "payable",
      "type": "function"
    }
  ],
  "args": [
    "0x57305259a6fEB206fd58559AbC8a6A611001e15b",
    "Test Pool LP",
    "LP"
  ],
  "numDeployments": 1,
  "bytecode": "0x60a06040523060805234801561001457600080fd5b50608051611cfe61004c60003960008181610517015281816105a1015281816106f60152818161077b01526108610152611cfe6000f3fe60806040526004361061016a5760003560e01c806352d1902d116100cb578063906571471161007f578063a9059cbb11610059578063a9059cbb146103b7578063dd62ed3e146103d7578063f2fde38b1461041d57600080fd5b8063906571471461036257806395d89b4114610382578063a457c2d71461039757600080fd5b8063715018a6116100b0578063715018a61461030557806379cc67901461031a5780638da5cb5b1461033a57600080fd5b806352d1902d146102ba57806370a08231146102cf57600080fd5b80633659cfe61161012257806340c10f191161010757806340c10f191461026757806342966c68146102875780634f1ef286146102a757600080fd5b80633659cfe614610225578063395093511461024757600080fd5b806318160ddd1161015357806318160ddd146101ca57806323b872dd146101e9578063313ce5671461020957600080fd5b806306fdde031461016f578063095ea7b31461019a575b600080fd5b34801561017b57600080fd5b5061018461043d565b6040516101919190611841565b60405180910390f35b3480156101a657600080fd5b506101ba6101b5366004611890565b6104cf565b6040519015158152602001610191565b3480156101d657600080fd5b506099545b604051908152602001610191565b3480156101f557600080fd5b506101ba6102043660046118ba565b6104e7565b34801561021557600080fd5b5060405160128152602001610191565b34801561023157600080fd5b506102456102403660046118f6565b61050d565b005b34801561025357600080fd5b506101ba610262366004611890565b61068d565b34801561027357600080fd5b50610245610282366004611890565b6106cc565b34801561029357600080fd5b506102456102a2366004611911565b6106e2565b6102456102b53660046119b6565b6106ec565b3480156102c657600080fd5b506101db610854565b3480156102db57600080fd5b506101db6102ea3660046118f6565b6001600160a01b031660009081526097602052604090205490565b34801561031157600080fd5b50610245610919565b34801561032657600080fd5b50610245610335366004611890565b61092d565b34801561034657600080fd5b5060fb546040516001600160a01b039091168152602001610191565b34801561036e57600080fd5b506101ba61037d366004611a38565b610942565b34801561038e57600080fd5b50610184610a7f565b3480156103a357600080fd5b506101ba6103b2366004611890565b610a8e565b3480156103c357600080fd5b506101ba6103d2366004611890565b610b43565b3480156103e357600080fd5b506101db6103f2366004611aac565b6001600160a01b03918216600090815260986020908152604080832093909416825291909152205490565b34801561042957600080fd5b506102456104383660046118f6565b610b51565b6060609a805461044c90611adf565b80601f016020809104026020016040519081016040528092919081815260200182805461047890611adf565b80156104c55780601f1061049a576101008083540402835291602001916104c5565b820191906000526020600020905b8154815290600101906020018083116104a857829003601f168201915b5050505050905090565b6000336104dd818585610bde565b5060019392505050565b6000336104f5858285610d36565b610500858585610dc8565b60019150505b9392505050565b6001600160a01b037f000000000000000000000000000000000000000000000000000000000000000016300361059f5760405162461bcd60e51b815260206004820152602c60248201527f46756e6374696f6e206d7573742062652063616c6c6564207468726f7567682060448201526b19195b1959d85d1958d85b1b60a21b60648201526084015b60405180910390fd5b7f00000000000000000000000000000000000000000000000000000000000000006001600160a01b03166105fa7f360894a13ba1a3210667c828492db98dca3e2076cc3735a920a3ca505d382bbc546001600160a01b031690565b6001600160a01b0316146106655760405162461bcd60e51b815260206004820152602c60248201527f46756e6374696f6e206d7573742062652063616c6c6564207468726f7567682060448201526b6163746976652070726f787960a01b6064820152608401610596565b61066e81610fdf565b6040805160008082526020820190925261068a91839190610fe7565b50565b3360008181526098602090815260408083206001600160a01b03871684529091528120549091906104dd90829086906106c7908790611b2f565b610bde565b6106d461118c565b6106de82826111e6565b5050565b61068a33826112c5565b6001600160a01b037f00000000000000000000000000000000000000000000000000000000000000001630036107795760405162461bcd60e51b815260206004820152602c60248201527f46756e6374696f6e206d7573742062652063616c6c6564207468726f7567682060448201526b19195b1959d85d1958d85b1b60a21b6064820152608401610596565b7f00000000000000000000000000000000000000000000000000000000000000006001600160a01b03166107d47f360894a13ba1a3210667c828492db98dca3e2076cc3735a920a3ca505d382bbc546001600160a01b031690565b6001600160a01b03161461083f5760405162461bcd60e51b815260206004820152602c60248201527f46756e6374696f6e206d7573742062652063616c6c6564207468726f7567682060448201526b6163746976652070726f787960a01b6064820152608401610596565b61084882610fdf565b6106de82826001610fe7565b6000306001600160a01b037f000000000000000000000000000000000000000000000000000000000000000016146108f45760405162461bcd60e51b815260206004820152603860248201527f555550535570677261646561626c653a206d757374206e6f742062652063616c60448201527f6c6564207468726f7567682064656c656761746563616c6c00000000000000006064820152608401610596565b507f360894a13ba1a3210667c828492db98dca3e2076cc3735a920a3ca505d382bbc90565b61092161118c565b61092b600061144a565b565b610938823383610d36565b6106de82826112c5565b60008054610100900460ff16158080156109635750600054600160ff909116105b8061097d5750303b15801561097d575060005460ff166001145b6109ef5760405162461bcd60e51b815260206004820152602e60248201527f496e697469616c697a61626c653a20636f6e747261637420697320616c72656160448201527f647920696e697469616c697a65640000000000000000000000000000000000006064820152608401610596565b6000805460ff191660011790558015610a12576000805461ff0019166101001790555b610a1c84846114a9565b610a2461152d565b610a2d8561144a565b600191508015610a77576000805461ff0019169055604051600181527f7f26b83ff96e1f2b6a682f133852f6798a09c465da95921460cefb38474024989060200160405180910390a15b509392505050565b6060609b805461044c90611adf565b3360008181526098602090815260408083206001600160a01b038716845290915281205490919083811015610b2b5760405162461bcd60e51b815260206004820152602560248201527f45524332303a2064656372656173656420616c6c6f77616e63652062656c6f7760448201527f207a65726f0000000000000000000000000000000000000000000000000000006064820152608401610596565b610b388286868403610bde565b506001949350505050565b6000336104dd818585610dc8565b610b5961118c565b6001600160a01b038116610bd55760405162461bcd60e51b815260206004820152602660248201527f4f776e61626c653a206e6577206f776e657220697320746865207a65726f206160448201527f64647265737300000000000000000000000000000000000000000000000000006064820152608401610596565b61068a8161144a565b6001600160a01b038316610c595760405162461bcd60e51b8152602060048201526024808201527f45524332303a20617070726f76652066726f6d20746865207a65726f2061646460448201527f72657373000000000000000000000000000000000000000000000000000000006064820152608401610596565b6001600160a01b038216610cd55760405162461bcd60e51b815260206004820152602260248201527f45524332303a20617070726f766520746f20746865207a65726f20616464726560448201527f73730000000000000000000000000000000000000000000000000000000000006064820152608401610596565b6001600160a01b0383811660008181526098602090815260408083209487168084529482529182902085905590518481527f8c5be1e5ebec7d5bd14f71427d1e84f3dd0314c0f7b2291e5b200ac8c7c3b925910160405180910390a3505050565b6001600160a01b038381166000908152609860209081526040808320938616835292905220546000198114610dc25781811015610db55760405162461bcd60e51b815260206004820152601d60248201527f45524332303a20696e73756666696369656e7420616c6c6f77616e63650000006044820152606401610596565b610dc28484848403610bde565b50505050565b6001600160a01b038316610e445760405162461bcd60e51b815260206004820152602560248201527f45524332303a207472616e736665722066726f6d20746865207a65726f20616460448201527f64726573730000000000000000000000000000000000000000000000000000006064820152608401610596565b6001600160a01b038216610ec05760405162461bcd60e51b815260206004820152602360248201527f45524332303a207472616e7366657220746f20746865207a65726f206164647260448201527f65737300000000000000000000000000000000000000000000000000000000006064820152608401610596565b6001600160a01b03831660009081526097602052604090205481811015610f4f5760405162461bcd60e51b815260206004820152602660248201527f45524332303a207472616e7366657220616d6f756e742065786365656473206260448201527f616c616e636500000000000000000000000000000000000000000000000000006064820152608401610596565b6001600160a01b03808516600090815260976020526040808220858503905591851681529081208054849290610f86908490611b2f565b92505081905550826001600160a01b0316846001600160a01b03167fddf252ad1be2c89b69c2b068fc378daa952ba7f163c4a11628f55a4df523b3ef84604051610fd291815260200190565b60405180910390a3610dc2565b61068a61118c565b7f4910fdfa16fed3260ed0e7147f7cc6da11a60208b5b9406d12a635614ffd91435460ff161561101f5761101a836115a1565b505050565b826001600160a01b03166352d1902d6040518163ffffffff1660e01b8152600401602060405180830381865afa925050508015611079575060408051601f3d908101601f1916820190925261107691810190611b47565b60015b6110eb5760405162461bcd60e51b815260206004820152602e60248201527f45524331393637557067726164653a206e657720696d706c656d656e7461746960448201527f6f6e206973206e6f7420555550530000000000000000000000000000000000006064820152608401610596565b7f360894a13ba1a3210667c828492db98dca3e2076cc3735a920a3ca505d382bbc81146111805760405162461bcd60e51b815260206004820152602960248201527f45524331393637557067726164653a20756e737570706f727465642070726f7860448201527f6961626c655555494400000000000000000000000000000000000000000000006064820152608401610596565b5061101a83838361166c565b60fb546001600160a01b0316331461092b5760405162461bcd60e51b815260206004820181905260248201527f4f776e61626c653a2063616c6c6572206973206e6f7420746865206f776e65726044820152606401610596565b6001600160a01b03821661123c5760405162461bcd60e51b815260206004820152601f60248201527f45524332303a206d696e7420746f20746865207a65726f2061646472657373006044820152606401610596565b806099600082825461124e9190611b2f565b90915550506001600160a01b0382166000908152609760205260408120805483929061127b908490611b2f565b90915550506040518181526001600160a01b038316906000907fddf252ad1be2c89b69c2b068fc378daa952ba7f163c4a11628f55a4df523b3ef9060200160405180910390a35050565b6001600160a01b0382166113415760405162461bcd60e51b815260206004820152602160248201527f45524332303a206275726e2066726f6d20746865207a65726f2061646472657360448201527f73000000000000000000000000000000000000000000000000000000000000006064820152608401610596565b6001600160a01b038216600090815260976020526040902054818110156113d05760405162461bcd60e51b815260206004820152602260248201527f45524332303a206275726e20616d6f756e7420657863656564732062616c616e60448201527f63650000000000000000000000000000000000000000000000000000000000006064820152608401610596565b6001600160a01b03831660009081526097602052604081208383039055609980548492906113ff908490611b60565b90915550506040518281526000906001600160a01b038516907fddf252ad1be2c89b69c2b068fc378daa952ba7f163c4a11628f55a4df523b3ef9060200160405180910390a3505050565b60fb80546001600160a01b0383811673ffffffffffffffffffffffffffffffffffffffff19831681179093556040519116919082907f8be0079c531659141344cd1fd0a4f28419497f9722a3daafe3b4186f6b6457e090600090a35050565b600054610100900460ff166115145760405162461bcd60e51b815260206004820152602b60248201527f496e697469616c697a61626c653a20636f6e7472616374206973206e6f74206960448201526a6e697469616c697a696e6760a81b6064820152608401610596565b609a6115208382611bc5565b50609b61101a8282611bc5565b600054610100900460ff166115985760405162461bcd60e51b815260206004820152602b60248201527f496e697469616c697a61626c653a20636f6e7472616374206973206e6f74206960448201526a6e697469616c697a696e6760a81b6064820152608401610596565b61092b3361144a565b6001600160a01b0381163b61161e5760405162461bcd60e51b815260206004820152602d60248201527f455243313936373a206e657720696d706c656d656e746174696f6e206973206e60448201527f6f74206120636f6e7472616374000000000000000000000000000000000000006064820152608401610596565b7f360894a13ba1a3210667c828492db98dca3e2076cc3735a920a3ca505d382bbc805473ffffffffffffffffffffffffffffffffffffffff19166001600160a01b0392909216919091179055565b61167583611691565b6000825111806116825750805b1561101a57610dc283836116d1565b61169a816115a1565b6040516001600160a01b038216907fbc7cd75a20ee27fd9adebab32041f755214dbc6bffa90cc0225b39da2e5c2d3b90600090a250565b60606001600160a01b0383163b6117505760405162461bcd60e51b815260206004820152602660248201527f416464726573733a2064656c65676174652063616c6c20746f206e6f6e2d636f60448201527f6e747261637400000000000000000000000000000000000000000000000000006064820152608401610596565b600080846001600160a01b03168460405161176b9190611c85565b600060405180830381855af49150503d80600081146117a6576040519150601f19603f3d011682016040523d82523d6000602084013e6117ab565b606091505b50915091506117d38282604051806060016040528060278152602001611ca2602791396117dc565b95945050505050565b606083156117eb575081610506565b8251156117fb5782518084602001fd5b8160405162461bcd60e51b81526004016105969190611841565b60005b83811015611830578181015183820152602001611818565b83811115610dc25750506000910152565b6020815260008251806020840152611860816040850160208701611815565b601f01601f19169190910160400192915050565b80356001600160a01b038116811461188b57600080fd5b919050565b600080604083850312156118a357600080fd5b6118ac83611874565b946020939093013593505050565b6000806000606084860312156118cf57600080fd5b6118d884611874565b92506118e660208501611874565b9150604084013590509250925092565b60006020828403121561190857600080fd5b61050682611874565b60006020828403121561192357600080fd5b5035919050565b634e487b7160e01b600052604160045260246000fd5b600067ffffffffffffffff8084111561195b5761195b61192a565b604051601f8501601f19908116603f011681019082821181831017156119835761198361192a565b8160405280935085815286868601111561199c57600080fd5b858560208301376000602087830101525050509392505050565b600080604083850312156119c957600080fd5b6119d283611874565b9150602083013567ffffffffffffffff8111156119ee57600080fd5b8301601f810185136119ff57600080fd5b611a0e85823560208401611940565b9150509250929050565b600082601f830112611a2957600080fd5b61050683833560208501611940565b600080600060608486031215611a4d57600080fd5b611a5684611874565b9250602084013567ffffffffffffffff80821115611a7357600080fd5b611a7f87838801611a18565b93506040860135915080821115611a9557600080fd5b50611aa286828701611a18565b9150509250925092565b60008060408385031215611abf57600080fd5b611ac883611874565b9150611ad660208401611874565b90509250929050565b600181811c90821680611af357607f821691505b602082108103611b1357634e487b7160e01b600052602260045260246000fd5b50919050565b634e487b7160e01b600052601160045260246000fd5b60008219821115611b4257611b42611b19565b500190565b600060208284031215611b5957600080fd5b5051919050565b600082821015611b7257611b72611b19565b500390565b601f82111561101a57600081815260208120601f850160051c81016020861015611b9e5750805b601f850160051c820191505b81811015611bbd57828155600101611baa565b505050505050565b815167ffffffffffffffff811115611bdf57611bdf61192a565b611bf381611bed8454611adf565b84611b77565b602080601f831160018114611c285760008415611c105750858301515b600019600386901b1c1916600185901b178555611bbd565b600085815260208120601f198616915b82811015611c5757888601518255948401946001909101908401611c38565b5085821015611c755787850151600019600388901b60f8161c191681555b5050505050600190811b01905550565b60008251611c97818460208701611815565b919091019291505056fe416464726573733a206c6f772d6c6576656c2064656c65676174652063616c6c206661696c6564a26469706673582212204ff9c33e9c79c16c32dbb22a6c0fb7f0a23d8bdfd7035cfde4807dae01abc7d564736f6c634300080f0033"
}