{
  "address": "0x57305259a6fEB206fd58559AbC8a6A611001e15b",
  "abi": [
    {
      "inputs": [],
      "name": "CenterAlignment_NumericOverflow",
      "type": "error"
    },
    {
      "inputs": [
        {
          "internalType": "uint256",
          "name": "value",
          "type": "uint256"
        },
        {
          "internalType": "int8",
          "name": "equalizer",
          "type": "int8"
        }
      ],
      "name": "Equalize_LosingAllPrecision",
      "type": "error"
    },
    {
      "inputs": [
        {
          "internalType": "uint256",
          "name": "amount",
          "type": "uint256"
        },
        {
          "internalType": "int8",
          "name": "equalizer",
          "type": "int8"
        }
      ],
      "name": "Equalize_MaxAmountExceeded",
      "type": "error"
    },
    {
      "inputs": [
        {
          "internalType": "uint256",
          "name": "unknownBalance",
          "type": "uint256"
        }
      ],
      "name": "Invariant_UnknownBalanceTooLarge",
      "type": "error"
    },
    {
      "inputs": [],
      "name": "PoolMath_ImpossibleRemove",
      "type": "error"
    },
    {
      "inputs": [
        {
          "internalType": "uint8",
          "name": "count",
          "type": "uint8"
        },
        {
          "internalType": "uint8",
          "name": "expected",
          "type": "uint8"
        }
      ],
      "name": "Pool_AmountCountMismatch",
      "type": "error"
    },
    {
      "inputs": [
        {
          "internalType": "address",
          "name": "token",
          "type": "address"
        },
        {
          "internalType": "uint256",
          "name": "amount",
          "type": "uint256"
        },
        {
          "internalType": "uint256",
          "name": "poolbalance",
          "type": "uint256"
        }
      ],
      "name": "Pool_AmountExceedsSupply",
      "type": "error"
    },
    {
      "inputs": [],
      "name": "Pool_AmpFactorIsFixedForConstantProductPools",
      "type": "error"
    },
    {
      "inputs": [
        {
          "internalType": "uint32",
          "name": "current",
          "type": "uint32"
        },
        {
          "internalType": "uint32",
          "name": "target",
          "type": "uint32"
        },
        {
          "internalType": "uint32",
          "name": "threshold",
          "type": "uint32"
        }
      ],
      "name": "Pool_AmpFactorRelativeAdjustmentTooLarge",
      "type": "error"
    },
    {
      "inputs": [
        {
          "internalType": "uint32",
          "name": "target",
          "type": "uint32"
        },
        {
          "internalType": "uint32",
          "name": "minimum",
          "type": "uint32"
        }
      ],
      "name": "Pool_AmpFactorTargetTimestampTooSmall",
      "type": "error"
    },
    {
      "inputs": [
        {
          "internalType": "uint32",
          "name": "ampFactor",
          "type": "uint32"
        },
        {
          "internalType": "uint32",
          "name": "maximum",
          "type": "uint32"
        }
      ],
      "name": "Pool_AmpFactorTooLarge",
      "type": "error"
    },
    {
      "inputs": [
        {
          "internalType": "uint32",
          "name": "ampFactor",
          "type": "uint32"
        },
        {
          "internalType": "uint32",
          "name": "minimum",
          "type": "uint32"
        }
      ],
      "name": "Pool_AmpFactorTooSmall",
      "type": "error"
    },
    {
      "inputs": [
        {
          "internalType": "uint8",
          "name": "tokenCount",
          "type": "uint8"
        }
      ],
      "name": "Pool_ConstantProductNotSupportedForTokenCount",
      "type": "error"
    },
    {
      "inputs": [],
      "name": "Pool_GovernanceOnly",
      "type": "error"
    },
    {
      "inputs": [
        {
          "internalType": "uint8",
          "name": "missingAmountIndex",
          "type": "uint8"
        }
      ],
      "name": "Pool_InitialAddMustIncludeAllTokens",
      "type": "error"
    },
    {
      "inputs": [
        {
          "internalType": "uint8",
          "name": "tokenIndex",
          "type": "uint8"
        },
        {
          "internalType": "uint8",
          "name": "tokenCount",
          "type": "uint8"
        }
      ],
      "name": "Pool_InvalidTokenIndex",
      "type": "error"
    },
    {
      "inputs": [],
      "name": "Pool_IsPaused",
      "type": "error"
    },
    {
      "inputs": [],
      "name": "Pool_LpTokenInitializationFailed",
      "type": "error"
    },
    {
      "inputs": [
        {
          "internalType": "uint8",
          "name": "value",
          "type": "uint8"
        },
        {
          "internalType": "uint8",
          "name": "maximum",
          "type": "uint8"
        }
      ],
      "name": "Pool_MaxTokenCountExceeded",
      "type": "error"
    },
    {
      "inputs": [],
      "name": "Pool_NonZeroGovernanceFeeButNoRecipient",
      "type": "error"
    },
    {
      "inputs": [
        {
          "internalType": "uint8",
          "name": "tokenIndex",
          "type": "uint8"
        },
        {
          "internalType": "uint256",
          "name": "amount",
          "type": "uint256"
        }
      ],
      "name": "Pool_RequestedTokenAmountNotZero",
      "type": "error"
    },
    {
      "inputs": [
        {
          "internalType": "address",
          "name": "token",
          "type": "address"
        },
        {
          "internalType": "uint256",
          "name": "amount",
          "type": "uint256"
        },
        {
          "internalType": "uint256",
          "name": "threshold",
          "type": "uint256"
        }
      ],
      "name": "Pool_SlippageExceeded",
      "type": "error"
    },
    {
      "inputs": [
        {
          "internalType": "uint8",
          "name": "count",
          "type": "uint8"
        },
        {
          "internalType": "uint8",
          "name": "expected",
          "type": "uint8"
        }
      ],
      "name": "Pool_TokenEqualizerCountMismatch",
      "type": "error"
    },
    {
      "inputs": [
        {
          "internalType": "int8",
          "name": "equalizer",
          "type": "int8"
        },
        {
          "internalType": "int8",
          "name": "maximum",
          "type": "int8"
        }
      ],
      "name": "Pool_TokenEqualizerTooLarge",
      "type": "error"
    },
    {
      "inputs": [
        {
          "internalType": "int8",
          "name": "equalizer",
          "type": "int8"
        },
        {
          "internalType": "int8",
          "name": "minimum",
          "type": "int8"
        }
      ],
      "name": "Pool_TokenEqualizerTooSmall",
      "type": "error"
    },
    {
      "inputs": [
        {
          "internalType": "uint32",
          "name": "totalFee",
          "type": "uint32"
        },
        {
          "internalType": "uint32",
          "name": "maximum",
          "type": "uint32"
        }
      ],
      "name": "Pool_TotalFeeTooLarge",
      "type": "error"
    },
    {
      "anonymous": false,
      "inputs": [
        {
          "indexed": false,
          "internalType": "address",
          "name": "previousAdmin",
          "type": "address"
        },
        {
          "indexed": false,
          "internalType": "address",
          "name": "newAdmin",
          "type": "address"
        }
      ],
      "name": "AdminChanged",
      "type": "event"
    },
    {
      "anonymous": false,
      "inputs": [
        {
          "indexed": true,
          "internalType": "address",
          "name": "beacon",
          "type": "address"
        }
      ],
      "name": "BeaconUpgraded",
      "type": "event"
    },
    {
      "anonymous": false,
      "inputs": [
        {
          "indexed": false,
          "internalType": "uint8",
          "name": "version",
          "type": "uint8"
        }
      ],
      "name": "Initialized",
      "type": "event"
    },
    {
      "anonymous": false,
      "inputs": [
        {
          "indexed": true,
          "internalType": "address",
          "name": "implementation",
          "type": "address"
        }
      ],
      "name": "Upgraded",
      "type": "event"
    },
    {
      "inputs": [
        {
          "internalType": "uint256[]",
          "name": "inputAmounts",
          "type": "uint256[]"
        },
        {
          "internalType": "uint256",
          "name": "minimumMintAmount",
          "type": "uint256"
        }
      ],
      "name": "add",
      "outputs": [
        {
          "internalType": "uint256",
          "name": "mintAmount",
          "type": "uint256"
        }
      ],
      "stateMutability": "nonpayable",
      "type": "function"
    },
    {
      "inputs": [
        {
          "internalType": "uint32",
          "name": "targetValue",
          "type": "uint32"
        },
        {
          "internalType": "uint32",
          "name": "targetTimestamp",
          "type": "uint32"
        }
      ],
      "name": "adjustAmpFactor",
      "outputs": [],
      "stateMutability": "nonpayable",
      "type": "function"
    },
    {
      "inputs": [],
      "name": "ampInitialTimestamp",
      "outputs": [
        {
          "internalType": "uint32",
          "name": "",
          "type": "uint32"
        }
      ],
      "stateMutability": "view",
      "type": "function"
    },
    {
      "inputs": [],
      "name": "ampTargetTimestamp",
      "outputs": [
        {
          "internalType": "uint32",
          "name": "",
          "type": "uint32"
        }
      ],
      "stateMutability": "view",
      "type": "function"
    },
    {
      "inputs": [
        {
          "internalType": "address",
          "name": "_governanceFeeRecipient",
          "type": "address"
        }
      ],
      "name": "changeGovernanceFeeRecipient",
      "outputs": [],
      "stateMutability": "nonpayable",
      "type": "function"
    },
    {
      "inputs": [],
      "name": "getMarginalPrices",
      "outputs": [
        {
          "internalType": "uint256[]",
          "name": "",
          "type": "uint256[]"
        }
      ],
      "stateMutability": "view",
      "type": "function"
    },
    {
      "inputs": [],
      "name": "getState",
      "outputs": [
        {
          "components": [
            {
              "internalType": "bool",
              "name": "paused",
              "type": "bool"
            },
            {
              "components": [
                {
                  "internalType": "address",
                  "name": "tokenAddress",
                  "type": "address"
                },
                {
                  "internalType": "uint256",
                  "name": "balance",
                  "type": "uint256"
                }
              ],
              "internalType": "struct TokenBalance[]",
              "name": "balances",
              "type": "tuple[]"
            },
            {
              "components": [
                {
                  "internalType": "address",
                  "name": "tokenAddress",
                  "type": "address"
                },
                {
                  "internalType": "uint256",
                  "name": "balance",
                  "type": "uint256"
                }
              ],
              "internalType": "struct TokenBalance",
              "name": "totalLPSupply",
              "type": "tuple"
            },
            {
              "components": [
                {
                  "internalType": "uint256",
                  "name": "value",
                  "type": "uint256"
                },
                {
                  "internalType": "uint8",
                  "name": "decimals",
                  "type": "uint8"
                }
              ],
              "internalType": "struct Decimal",
              "name": "ampFactor",
              "type": "tuple"
            },
            {
              "components": [
                {
                  "internalType": "uint256",
                  "name": "value",
                  "type": "uint256"
                },
                {
                  "internalType": "uint8",
                  "name": "decimals",
                  "type": "uint8"
                }
              ],
              "internalType": "struct Decimal",
              "name": "lpFee",
              "type": "tuple"
            },
            {
              "components": [
                {
                  "internalType": "uint256",
                  "name": "value",
                  "type": "uint256"
                },
                {
                  "internalType": "uint8",
                  "name": "decimals",
                  "type": "uint8"
                }
              ],
              "internalType": "struct Decimal",
              "name": "governanceFee",
              "type": "tuple"
            }
          ],
          "internalType": "struct PoolState",
          "name": "",
          "type": "tuple"
        }
      ],
      "stateMutability": "view",
      "type": "function"
    },
    {
      "inputs": [],
      "name": "governance",
      "outputs": [
        {
          "internalType": "address",
          "name": "",
          "type": "address"
        }
      ],
      "stateMutability": "view",
      "type": "function"
    },
    {
      "inputs": [],
      "name": "governanceFee",
      "outputs": [
        {
          "internalType": "uint32",
          "name": "",
          "type": "uint32"
        }
      ],
      "stateMutability": "view",
      "type": "function"
    },
    {
      "inputs": [],
      "name": "governanceFeeRecipient",
      "outputs": [
        {
          "internalType": "address",
          "name": "",
          "type": "address"
        }
      ],
      "stateMutability": "view",
      "type": "function"
    },
    {
      "inputs": [
        {
          "internalType": "string",
          "name": "lpTokenName",
          "type": "string"
        },
        {
          "internalType": "string",
          "name": "lpTokenSymbol",
          "type": "string"
        },
        {
          "internalType": "bytes32",
          "name": "lpSalt",
          "type": "bytes32"
        },
        {
          "internalType": "int8",
          "name": "lpTokenEqualizer",
          "type": "int8"
        },
        {
          "internalType": "address[]",
          "name": "poolTokenAddresses",
          "type": "address[]"
        },
        {
          "internalType": "int8[]",
          "name": "poolTokenEqualizers",
          "type": "int8[]"
        },
        {
          "internalType": "uint32",
          "name": "ampFactor",
          "type": "uint32"
        },
        {
          "internalType": "uint32",
          "name": "lpFee",
          "type": "uint32"
        },
        {
          "internalType": "uint32",
          "name": "_governanceFee",
          "type": "uint32"
        },
        {
          "internalType": "address",
          "name": "_governance",
          "type": "address"
        },
        {
          "internalType": "address",
          "name": "_governanceFeeRecipient",
          "type": "address"
        }
      ],
      "name": "initialize",
      "outputs": [],
      "stateMutability": "nonpayable",
      "type": "function"
    },
    {
      "inputs": [],
      "name": "lpTokenData",
      "outputs": [
        {
          "internalType": "address",
          "name": "addr",
          "type": "address"
        },
        {
          "internalType": "int8",
          "name": "equalizer",
          "type": "int8"
        }
      ],
      "stateMutability": "view",
      "type": "function"
    },
    {
      "inputs": [],
      "name": "paused",
      "outputs": [
        {
          "internalType": "bool",
          "name": "",
          "type": "bool"
        }
      ],
      "stateMutability": "view",
      "type": "function"
    },
    {
      "inputs": [
        {
          "internalType": "uint256",
          "name": "",
          "type": "uint256"
        }
      ],
      "name": "poolTokensData",
      "outputs": [
        {
          "internalType": "address",
          "name": "addr",
          "type": "address"
        },
        {
          "internalType": "int8",
          "name": "equalizer",
          "type": "int8"
        }
      ],
      "stateMutability": "view",
      "type": "function"
    },
    {
      "inputs": [],
      "name": "proxiableUUID",
      "outputs": [
        {
          "internalType": "bytes32",
          "name": "",
          "type": "bytes32"
        }
      ],
      "stateMutability": "view",
      "type": "function"
    },
    {
      "inputs": [
        {
          "internalType": "uint256",
          "name": "burnAmount",
          "type": "uint256"
        },
        {
          "internalType": "uint8",
          "name": "outputTokenIndex",
          "type": "uint8"
        },
        {
          "internalType": "uint256",
          "name": "minimumOutputAmount",
          "type": "uint256"
        }
      ],
      "name": "removeExactBurn",
      "outputs": [
        {
          "internalType": "uint256",
          "name": "outputAmount",
          "type": "uint256"
        }
      ],
      "stateMutability": "nonpayable",
      "type": "function"
    },
    {
      "inputs": [
        {
          "internalType": "uint256[]",
          "name": "outputAmounts",
          "type": "uint256[]"
        },
        {
          "internalType": "uint256",
          "name": "maximumBurnAmount",
          "type": "uint256"
        }
      ],
      "name": "removeExactOutput",
      "outputs": [
        {
          "internalType": "uint256",
          "name": "burnAmount",
          "type": "uint256"
        }
      ],
      "stateMutability": "nonpayable",
      "type": "function"
    },
    {
      "inputs": [
        {
          "internalType": "uint256",
          "name": "burnAmount",
          "type": "uint256"
        },
        {
          "internalType": "uint256[]",
          "name": "minimumOutputAmounts",
          "type": "uint256[]"
        }
      ],
      "name": "removeUniform",
      "outputs": [
        {
          "internalType": "uint256[]",
          "name": "outputAmounts",
          "type": "uint256[]"
        }
      ],
      "stateMutability": "nonpayable",
      "type": "function"
    },
    {
      "inputs": [
        {
          "internalType": "uint32",
          "name": "lpFee",
          "type": "uint32"
        },
        {
          "internalType": "uint32",
          "name": "_governanceFee",
          "type": "uint32"
        }
      ],
      "name": "setFees",
      "outputs": [],
      "stateMutability": "nonpayable",
      "type": "function"
    },
    {
      "inputs": [
        {
          "internalType": "bool",
          "name": "_paused",
          "type": "bool"
        }
      ],
      "name": "setPaused",
      "outputs": [],
      "stateMutability": "nonpayable",
      "type": "function"
    },
    {
      "inputs": [
        {
          "internalType": "uint256",
          "name": "inputAmount",
          "type": "uint256"
        },
        {
          "internalType": "uint8",
          "name": "inputTokenIndex",
          "type": "uint8"
        },
        {
          "internalType": "uint8",
          "name": "outputTokenIndex",
          "type": "uint8"
        },
        {
          "internalType": "uint256",
          "name": "minimumOutputAmount",
          "type": "uint256"
        }
      ],
      "name": "swap",
      "outputs": [
        {
          "internalType": "uint256",
          "name": "outputAmount",
          "type": "uint256"
        }
      ],
      "stateMutability": "nonpayable",
      "type": "function"
    },
    {
      "inputs": [
        {
          "internalType": "uint256[]",
          "name": "inputAmounts",
          "type": "uint256[]"
        },
        {
          "internalType": "uint8",
          "name": "outputTokenIndex",
          "type": "uint8"
        },
        {
          "internalType": "uint256",
          "name": "minimumOutputAmount",
          "type": "uint256"
        }
      ],
      "name": "swapExactInput",
      "outputs": [
        {
          "internalType": "uint256",
          "name": "outputAmount",
          "type": "uint256"
        }
      ],
      "stateMutability": "nonpayable",
      "type": "function"
    },
    {
      "inputs": [
        {
          "internalType": "uint256",
          "name": "maximumInputAmount",
          "type": "uint256"
        },
        {
          "internalType": "uint8",
          "name": "inputTokenIndex",
          "type": "uint8"
        },
        {
          "internalType": "uint256[]",
          "name": "outputAmounts",
          "type": "uint256[]"
        }
      ],
      "name": "swapExactOutput",
      "outputs": [
        {
          "internalType": "uint256",
          "name": "inputAmount",
          "type": "uint256"
        }
      ],
      "stateMutability": "nonpayable",
      "type": "function"
    },
    {
      "inputs": [],
      "name": "tokenCount",
      "outputs": [
        {
          "internalType": "uint8",
          "name": "",
          "type": "uint8"
        }
      ],
      "stateMutability": "view",
      "type": "function"
    },
    {
      "inputs": [],
      "name": "totalFee",
      "outputs": [
        {
          "internalType": "uint32",
          "name": "",
          "type": "uint32"
        }
      ],
      "stateMutability": "view",
      "type": "function"
    },
    {
      "inputs": [
        {
          "internalType": "address",
          "name": "_governance",
          "type": "address"
        }
      ],
      "name": "transferGovernance",
      "outputs": [],
      "stateMutability": "nonpayable",
      "type": "function"
    },
    {
      "inputs": [
        {
          "internalType": "address",
          "name": "newImplementation",
          "type": "address"
        },
        {
          "internalType": "bytes",
          "name": "data",
          "type": "bytes"
        }
      ],
      "name": "upgradeLpToken",
      "outputs": [],
      "stateMutability": "nonpayable",
      "type": "function"
    },
    {
      "inputs": [
        {
          "internalType": "address",
          "name": "newImplementation",
          "type": "address"
        }
      ],
      "name": "upgradeLpToken",
      "outputs": [],
      "stateMutability": "nonpayable",
      "type": "function"
    },
    {
      "inputs": [
        {
          "internalType": "address",
          "name": "newImplementation",
          "type": "address"
        }
      ],
      "name": "upgradeTo",
      "outputs": [],
      "stateMutability": "nonpayable",
      "type": "function"
    },
    {
      "inputs": [
        {
          "internalType": "address",
          "name": "newImplementation",
          "type": "address"
        },
        {
          "internalType": "bytes",
          "name": "data",
          "type": "bytes"
        }
      ],
      "name": "upgradeToAndCall",
      "outputs": [],
      "stateMutability": "payable",
      "type": "function"
    }
  ],
  "args": [
    "0xe07f39cd000000000000000000000000000000000000000000000000000000000000016000000000000000000000000000000000000000000000000000000000000001a00000000000000000000000000000000000000000000000000000000000000011fffffffffffffffffffffffffffffffffffffffffffffffffffffffffffffffe00000000000000000000000000000000000000000000000000000000000001e0000000000000000000000000000000000000000000000000000000000000024000000000000000000000000000000000000000000000000000000000000003e8000000000000000000000000000000000000000000000000000000000000012c0000000000000000000000000000000000000000000000000000000000000064000000000000000000000000ffcf8fdee72ac11b5c542428b35eef5769c409f000000000000000000000000022d491bde2303f2f43325b2108d26f1eaba1e32b000000000000000000000000000000000000000000000000000000000000000c5465737420506f6f6c204c50000000000000000000000000000000000000000000000000000000000000000000000000000000000000000000000000000000024c50000000000000000000000000000000000000000000000000000000000000000000000000000000000000000000000000000000000000000000000000000200000000000000000000000092934a8b10ddf85e81b65be1d6810544744700dc00000000000000000000000098529e942fd121d9c470c3d4431a008257e0e7140000000000000000000000000000000000000000000000000000000000000002fffffffffffffffffffffffffffffffffffffffffffffffffffffffffffffff4fffffffffffffffffffffffffffffffffffffffffffffffffffffffffffffff4"
  ],
  "numDeployments": 1,
  "bytecode": "0x60a06040523060805234801561001457600080fd5b506080516155cd6200004d60003960008181610c6101528181610ce601528181611050015281816110d501526111bb01526155cd6000f3fe6080604052600436106101cd5760003560e01c80637e726dde116100f7578063d4b93ad211610095578063e7744e7511610064578063e7744e751461059b578063ee763c58146105bb578063eec21d49146105db578063fa4d3918146105fb57600080fd5b8063d4b93ad214610526578063dbbc281a1461053b578063dc163d4e1461055b578063e07f39cd1461057b57600080fd5b8063851c428d116100d1578063851c428d146104965780639f181b5e146104ba578063d1bba74d146104e6578063d38bfff41461050657600080fd5b80637e726dde146104325780637ea598531461045257806384435de31461047657600080fd5b80632d94f8671161016f57806352d1902d1161013e57806352d1902d146103895780635aa6e6751461039e5780635c975abb146103d65780637cb726a61461040557600080fd5b80632d94f8671461030a5780633659cfe6146103365780634d98123c146103565780634f1ef2861461037657600080fd5b806316c38b3c116101ab57806316c38b3c146102835780631865c57d146102a55780631df4ccfc146102c7578063259fc998146102ea57600080fd5b806309773522146101d25780630ea90a121461021957806312f6113714610255575b600080fd5b3480156101de57600080fd5b506101f26101ed366004614a83565b61061b565b604080516001600160a01b03909316835260009190910b6020830152015b60405180910390f35b34801561022557600080fd5b50606554610240906601000000000000900463ffffffff1681565b60405163ffffffff9091168152602001610210565b34801561026157600080fd5b50610275610270366004614b88565b610646565b604051908152602001610210565b34801561028f57600080fd5b506102a361029e366004614bed565b610925565b005b3480156102b157600080fd5b506102ba61096a565b6040516102109190614c0a565b3480156102d357600080fd5b506065546102409062010000900463ffffffff1681565b3480156102f657600080fd5b506102a3610305366004614d10565b610c1e565b34801561031657600080fd5b506066546101f2906001600160a01b03811690600160a01b900460000b82565b34801561034257600080fd5b506102a3610351366004614d63565b610c57565b34801561036257600080fd5b506102a3610371366004614d10565b610dd2565b6102a3610384366004614dd8565b611046565b34801561039557600080fd5b506102756111ae565b3480156103aa57600080fd5b50606d546103be906001600160a01b031681565b6040516001600160a01b039091168152602001610210565b3480156103e257600080fd5b506065546103f590610100900460ff1681565b6040519015158152602001610210565b34801561041157600080fd5b50610425610420366004614e3c565b611273565b6040516102109190614e79565b34801561043e57600080fd5b506102a361044d366004614dd8565b611504565b34801561045e57600080fd5b5060655461024090600160b01b900463ffffffff1681565b34801561048257600080fd5b50610275610491366004614ebd565b6115b0565b3480156104a257600080fd5b5060655461024090600160701b900463ffffffff1681565b3480156104c657600080fd5b506065546104d49060ff1681565b60405160ff9091168152602001610210565b3480156104f257600080fd5b506102a3610501366004614d63565b611716565b34801561051257600080fd5b506102a3610521366004614d63565b6117bc565b34801561053257600080fd5b50610425611809565b34801561054757600080fd5b506102a3610556366004614d63565b6118b2565b34801561056757600080fd5b50610275610576366004614f14565b611945565b34801561058757600080fd5b506102a3610596366004615050565b611a00565b3480156105a757600080fd5b506102756105b6366004615170565b611fb6565b3480156105c757600080fd5b506102756105d6366004615195565b6120e4565b3480156105e757600080fd5b506102756105f6366004615195565b6122b4565b34801561060757600080fd5b50606e546103be906001600160a01b031681565b6067816006811061062b57600080fd5b01546001600160a01b0381169150600160a01b900460000b82565b606554600090610100900460ff161561067257604051630b96dad560e21b815260040160405180910390fd5b600080600080610680612494565b935093509350935061069287856125ca565b858760ff16815181106106a7576106a76151da565b60200260200101516000146107195786868860ff16815181106106cc576106cc6151da565b60209081029190910101516040517fc2d79ffb00000000000000000000000000000000000000000000000000000000815260ff909216600483015260248201526044015b60405180910390fd5b60006107258786612613565b905060005b858110156108445782602001518181518110610748576107486151da565b6020026020010151828281518110610762576107626151da565b60200260200101511061083c5760678160068110610782576107826151da565b015488516001600160a01b03909116908990839081106107a4576107a46151da565b60200260200101516107f1856020015184815181106107c5576107c56151da565b6020026020010151606785600681106107e0576107e06151da565b0154600160a01b900460000b61271d565b6040517f199590760000000000000000000000000000000000000000000000000000000081526001600160a01b03909316600484015260248301919091526044820152606401610710565b60010161072a565b506000806108556000848c876127a8565b915091506108738260678c60ff16600681106107e0576107e06151da565b97508a8811156108c85760678a60ff1660068110610893576108936151da565b0154604051639e8eb45960e01b81526001600160a01b03909116600482015260248101899052604481018c9052606401610710565b6108d5888b60ff16612c21565b60005b8781101561090b576109038a82815181106108f5576108f56151da565b602002602001015182612c5a565b6001016108d8565b50610917818787612c8d565b505050505050509392505050565b606d546001600160a01b0316331461095057604051635bbf1d0360e01b815260040160405180910390fd5b606580549115156101000261ff0019909216919091179055565b6109726149ce565b6065546040805160c0810190915260ff610100830481161515825290911690600090602081018367ffffffffffffffff8111156109b1576109b1614ab2565b6040519080825280602002602001820160405280156109f657816020015b60408051808201909152600080825260208201528152602001906001900390816109cf5790505b5081526040805180820182526066546001600160a01b031680825282516318160ddd60e01b815292516020948501949293848401936318160ddd926004808401938290030181865afa158015610a50573d6000803e3d6000fd5b505050506040513d601f19601f82011682018060405250810190610a7491906151f0565b81525081526020016040518060400160405280610aa2610a92612d0d565b63ffffffff166103e802600a1c90565b63ffffffff9081168252600360209283015291835260408051808201909152606554939091019290918291610aea91660100000000000082048116916201000090041661521f565b63ffffffff90811682526006602092830181905292845260408051808201909152606554660100000000000090049091168152808201929092529190910152905060005b82811015610c1757604051806040016040528060678360068110610b5457610b546151da565b01546001600160a01b0316815260200160678360068110610b7757610b776151da565b01546040516370a0823160e01b81523060048201526001600160a01b03909116906370a0823190602401602060405180830381865afa158015610bbe573d6000803e3d6000fd5b505050506040513d601f19601f82011682018060405250810190610be291906151f0565b81525082602001518281518110610bfb57610bfb6151da565b602002602001018190525080610c1090615244565b9050610b2e565b5092915050565b606d546001600160a01b03163314610c4957604051635bbf1d0360e01b815260040160405180910390fd5b610c538282612d9d565b5050565b6001600160a01b037f0000000000000000000000000000000000000000000000000000000000000000163003610ce45760405162461bcd60e51b815260206004820152602c60248201527f46756e6374696f6e206d7573742062652063616c6c6564207468726f7567682060448201526b19195b1959d85d1958d85b1b60a21b6064820152608401610710565b7f00000000000000000000000000000000000000000000000000000000000000006001600160a01b0316610d3f7f360894a13ba1a3210667c828492db98dca3e2076cc3735a920a3ca505d382bbc546001600160a01b031690565b6001600160a01b031614610daa5760405162461bcd60e51b815260206004820152602c60248201527f46756e6374696f6e206d7573742062652063616c6c6564207468726f7567682060448201526b6163746976652070726f787960a01b6064820152608401610710565b610db381612eb4565b60408051600080825260208201909252610dcf91839190612edf565b50565b606d546001600160a01b03163314610dfd57604051635bbf1d0360e01b815260040160405180910390fd5b610e068261307f565b63ffffffff81166000610e1c620151804261525d565b905080821015610e68576040517f354b078f00000000000000000000000000000000000000000000000000000000815263ffffffff808516600483015282166024820152604401610710565b6000610e72612d0d565b63ffffffff16905080600003610eb4576040517f6863759300000000000000000000000000000000000000000000000000000000815260040160405180910390fd5b63ffffffff6103e8600a87901b6503fffffffc00160416808211610f53576000610edf600a84615275565b905080821115610f4d576103e863ffffffff841602600a1c5b6040517f63f6a46300000000000000000000000000000000000000000000000000000000815263ffffffff918216600482015281891660248201528282166103e802600a1c9091166044820152606401610710565b50610f7f565b6000610f60600a83615275565b905080821015610f7d576103e863ffffffff841602600a1c610ef8565b505b606580547fffffffffffffffffffffffffffff0000000000000000ffffffffffffffffffff166a01000000000000000000004263ffffffff908116919091027fffffffffffffffffffffffffffff00000000ffffffffffffffffffffffffffff1691909117600160701b94821694909402939093177fffffffffffff0000000000000000ffffffffffffffffffffffffffffffffffff16600160901b9284169290920263ffffffff60b01b191691909117600160b01b959092169490940217909255505050565b6001600160a01b037f00000000000000000000000000000000000000000000000000000000000000001630036110d35760405162461bcd60e51b815260206004820152602c60248201527f46756e6374696f6e206d7573742062652063616c6c6564207468726f7567682060448201526b19195b1959d85d1958d85b1b60a21b6064820152608401610710565b7f00000000000000000000000000000000000000000000000000000000000000006001600160a01b031661112e7f360894a13ba1a3210667c828492db98dca3e2076cc3735a920a3ca505d382bbc546001600160a01b031690565b6001600160a01b0316146111995760405162461bcd60e51b815260206004820152602c60248201527f46756e6374696f6e206d7573742062652063616c6c6564207468726f7567682060448201526b6163746976652070726f787960a01b6064820152608401610710565b6111a282612eb4565b610c5382826001612edf565b6000306001600160a01b037f0000000000000000000000000000000000000000000000000000000000000000161461124e5760405162461bcd60e51b815260206004820152603860248201527f555550535570677261646561626c653a206d757374206e6f742062652063616c60448201527f6c6564207468726f7567682064656c656761746563616c6c00000000000000006064820152608401610710565b507f360894a13ba1a3210667c828492db98dca3e2076cc3735a920a3ca505d382bbc90565b606554606654604080516318160ddd60e01b8152905160609360ff16926001600160a01b03169160009183916318160ddd9160048083019260209291908290030181865afa1580156112c9573d6000803e3d6000fd5b505050506040513d601f19601f820116820180604052508101906112ed91906151f0565b60405163079cc67960e41b8152336004820152602481018890529091506001600160a01b038316906379cc679090604401600060405180830381600087803b15801561133857600080fd5b505af115801561134c573d6000803e3d6000fd5b505050508267ffffffffffffffff81111561136957611369614ab2565b604051908082528060200260200182016040528015611392578160200160208202803683370190505b50935060005b838110156114fa576000606782600681106113b5576113b56151da565b01546040516370a0823160e01b81523060048201526001600160a01b03909116915060009082906370a0823190602401602060405180830381865afa158015611402573d6000803e3d6000fd5b505050506040513d601f19601f8201168201806040525081019061142691906151f0565b90506000846114358b84615275565b61143f91906152aa565b9050888481518110611453576114536151da565b60200260200101518110156114b35782818a8681518110611476576114766151da565b6020908102919091010151604051639e8eb45960e01b81526001600160a01b03909316600484015260248301919091526044820152606401610710565b6114c76001600160a01b038416338361316f565b808885815181106114da576114da6151da565b602002602001018181525050505050806114f390615244565b9050611398565b5050505092915050565b606d546001600160a01b0316331461152f57604051635bbf1d0360e01b815260040160405180910390fd5b6066546040517f4f1ef2860000000000000000000000000000000000000000000000000000000081526001600160a01b0390911690634f1ef2869061157a9085908590600401615324565b600060405180830381600087803b15801561159457600080fd5b505af11580156115a8573d6000803e3d6000fd5b505050505050565b606554600090610100900460ff16156115dc57604051630b96dad560e21b815260040160405180910390fd5b6000806000806115ea612494565b93509350935093506115fc87856125ca565b878760ff1681518110611611576116116151da565b60200260200101516000146116365786888860ff16815181106106cc576106cc6151da565b60006116428986612613565b90506000806116546001848c876127a8565b915091506116728260678c60ff16600681106107e0576107e06151da565b9750888810156116c75760678a60ff1660068110611692576116926151da565b0154604051639e8eb45960e01b81526001600160a01b03909116600482015260248101899052604481018a9052606401610710565b60005b878110156116fd576116f58c82815181106116e7576116e76151da565b602002602001015182612c21565b6001016116ca565b5061170b888b60ff16612c5a565b610917818787612c8d565b606d546001600160a01b0316331461174157604051635bbf1d0360e01b815260040160405180910390fd5b6066546040517f3659cfe60000000000000000000000000000000000000000000000000000000081526001600160a01b03838116600483015290911690633659cfe690602401600060405180830381600087803b1580156117a157600080fd5b505af11580156117b5573d6000803e3d6000fd5b5050505050565b606d546001600160a01b031633146117e757604051635bbf1d0360e01b815260040160405180910390fd5b606d80546001600160a01b0319166001600160a01b0392909216919091179055565b6065546060906118ad9061181f9060ff16613218565b611827612d0d565b606654604080516318160ddd60e01b815290516118a8926001600160a01b0316916318160ddd9160048083019260209291908290030181865afa158015611872573d6000803e3d6000fd5b505050506040513d601f19601f8201168201806040525081019061189691906151f0565b606654600160a01b900460000b61332f565b613401565b905090565b606d546001600160a01b031633146118dd57604051635bbf1d0360e01b815260040160405180910390fd5b6065546601000000000000900463ffffffff161580159061190557506001600160a01b038116155b1561192357604051630161bcd760e51b815260040160405180910390fd5b606e80546001600160a01b0319166001600160a01b0392909216919091179055565b606554600090610100900460ff161561197157604051630b96dad560e21b815260040160405180910390fd5b60655460ff1661198185826125ca565b60008167ffffffffffffffff81111561199c5761199c614ab2565b6040519080825280602002602001820160405280156119c5578160200160208202803683370190505b50905086818760ff16815181106119de576119de6151da565b6020026020010181815250506119f58186866115b0565b979650505050505050565b600054610100900460ff1615808015611a205750600054600160ff909116105b80611a3a5750303b158015611a3a575060005460ff166001145b611aac5760405162461bcd60e51b815260206004820152602e60248201527f496e697469616c697a61626c653a20636f6e747261637420697320616c72656160448201527f647920696e697469616c697a65640000000000000000000000000000000000006064820152608401610710565b6000805460ff191660011790558015611acf576000805461ff0019166101001790555b611ada8c8c8c613679565b606680546001600160a01b039290921674ffffffffffffffffffffffffffffffffffffffffff1990921691909117600160a01b60ff8c16021790558751600090611b2590600161525d565b90506006811115611b6e576040517f3823958e00000000000000000000000000000000000000000000000000000000815260ff8216600482015260066024820152604401610710565b8851885114611bb95787516040517feda2625300000000000000000000000000000000000000000000000000000000815260ff91821660048201529082166024820152604401610710565b6065805460ff191660ff8316179055604080517fa174e5b7000000000000000000000000000000000000000000000000000000008152905173591bf69e5daa731e26a87fe0c5b394263a8c33759163a174e5b79160048083019260209291908290030181865afa158015611c31573d6000803e3d6000fd5b505050506040513d601f19601f82011682018060405250810190611c559190615346565b6067805474ffffffffffffffffffffffffffffffffffffffffff19166001600160a01b03929092169190911774fe000000000000000000000000000000000000000017905560005b8951811015611e6e5760006067611cb583600161525d565b60068110611cc557611cc56151da565b0190508a8281518110611cda57611cda6151da565b602090810291909101015181546001600160a01b0319166001600160a01b039091161781558951601119908b9084908110611d1757611d176151da565b602002602001015160000b1215611d8657898281518110611d3a57611d3a6151da565b60209081029190910101516040517f498123bd00000000000000000000000000000000000000000000000000000000815260009190910b60048201526011196024820152604401610710565b600460000b8a8381518110611d9d57611d9d6151da565b602002602001015160000b1315611e0d57898281518110611dc057611dc06151da565b602002602001015160046040517f8f038f2c000000000000000000000000000000000000000000000000000000008152600401610710929190600092830b8152910b602082015260400190565b898281518110611e1f57611e1f6151da565b6020908102919091010151815460ff909116600160a01b027fffffffffffffffffffffff00ffffffffffffffffffffffffffffffffffffffff909116179055611e6781615244565b9050611c9d565b508663ffffffff16600003611ec15780600214611ebc576040517f9a1b0df600000000000000000000000000000000000000000000000000000000815260ff82166004820152602401610710565b611eca565b611eca8761307f565b606580547fffffffffffff00000000000000000000000000000000ffffffffffffffffffff16600160901b63ffffffff6103e8600a8c901b6503fffffffc001604160263ffffffff60b01b1916179055606d80546001600160a01b03199081166001600160a01b0387811691909117909255606e8054909116918516919091179055611f568686612d9d565b506065805461ff00191690558015611fa8576000805461ff0019169055604051600181527f7f26b83ff96e1f2b6a682f133852f6798a09c465da95921460cefb38474024989060200160405180910390a15b505050505050505050505050565b606554600090610100900460ff1615611fe257604051630b96dad560e21b815260040160405180910390fd5b600080600080611ff0612494565b935093509350935061200287856125ca565b600061200e898461332f565b90508160a00151811061202b5783896107f18460a001518661271d565b600080612039838b866137d2565b915091506120578260678c60ff16600681106107e0576107e06151da565b9750888810156120775760678a60ff1660068110611692576116926151da565b60405163079cc67960e41b8152336004820152602481018c90526001600160a01b038716906379cc679090604401600060405180830381600087803b1580156120bf57600080fd5b505af11580156120d3573d6000803e3d6000fd5b5050505061170b888b60ff16612c5a565b606554600090610100900460ff161561211057604051630b96dad560e21b815260040160405180910390fd5b60008060008061211e612494565b935093509350935060006121328886612613565b905060005b858110156121b95782602001518181518110612155576121556151da565b602002602001015182828151811061216f5761216f6151da565b6020026020010151106121b1576067816006811061218f5761218f6151da565b015489516001600160a01b03909116908a90839081106107a4576107a46151da565b600101612137565b506000806121c960008486613aa0565b915091506121d7828661271d565b97508888111561221357604051639e8eb45960e01b81526001600160a01b038716600482015260248101899052604481018a9052606401610710565b60405163079cc67960e41b8152336004820152602481018990526001600160a01b038716906379cc679090604401600060405180830381600087803b15801561225b57600080fd5b505af115801561226f573d6000803e3d6000fd5b5050505060005b8781101561229b576122938b82815181106108f5576108f56151da565b600101612276565b506122a7818787612c8d565b5050505050505092915050565b606554600090610100900460ff16156122e057604051630b96dad560e21b815260040160405180910390fd5b6000806000806122ee612494565b935093509350935060006123028886612613565b905060008260a001516000036123995760005b8681101561237d5789818151811061232f5761232f6151da565b6020026020010151600003612375576040517f90c8235d00000000000000000000000000000000000000000000000000000000815260ff82166004820152602401610710565b600101612315565b5060006123908385604001516000613e58565b91506123b99050565b60006123a760018486613aa0565b90925090506123b7818787612c8d565b505b6123c3818561271d565b9650878710156123ff57604051639e8eb45960e01b81526001600160a01b03861660048201526024810188905260448101899052606401610710565b60005b868110156124275761241f8a82815181106116e7576116e76151da565b600101612402565b506040516340c10f1960e01b8152336004820152602481018890526001600160a01b038616906340c10f1990604401600060405180830381600087803b15801561247057600080fd5b505af1158015612484573d6000803e3d6000fd5b5050505050505050505092915050565b6040805160c080820183526000808352606060208085018290528486018390529084018290526080840182905260a08401829052606554606654865194850190965260ff16808452946001600160a01b03811694600160a01b90910490920b9290810161250086613218565b815260200161250d612d0d565b63ffffffff168152602001606560029054906101000a900463ffffffff1663ffffffff168152602001606560069054906101000a900463ffffffff1663ffffffff1681526020016125bf856001600160a01b03166318160ddd6040518163ffffffff1660e01b8152600401602060405180830381865afa158015612595573d6000803e3d6000fd5b505050506040513d601f19601f820116820180604052508101906125b991906151f0565b8561332f565b815250905090919293565b808260ff1610610c53576040517f5d92669e00000000000000000000000000000000000000000000000000000000815260ff808416600483015282166024820152604401610710565b60608183511461265f5782516040517fd265d30500000000000000000000000000000000000000000000000000000000815260ff91821660048201529083166024820152604401610710565b8167ffffffffffffffff81111561267857612678614ab2565b6040519080825280602002602001820160405280156126a1578160200160208202803683370190505b50905060005b82811015610c17576126f08482815181106126c4576126c46151da565b6020026020010151606783600681106126df576126df6151da565b0154600160a01b900460000b61332f565b828281518110612702576127026151da565b602090810291909101015261271681615244565b90506126a7565b6000828082036127315760009150506127a2565b60008360000b1215612759576000838103900b600a0a6127518183615275565b91505061279f565b8260000b600a0a818161276e5761276e615294565b0490508060000361279f576040516311050b1f60e11b815260048101859052600084900b6024820152604401610710565b90505b92915050565b60008060006127c1846020015185604001516000613e58565b90506000846000015160ff1667ffffffffffffffff8111156127e5576127e5614ab2565b60405190808252806020026020018201604052801561280e578160200160208202803683370190505b50905060005b855160ff168110156128a257600086602001518281518110612838576128386151da565b602002602001015190506000898381518110612856576128566151da565b6020026020010151905060008b61286f57818303612873565b8183015b905080858581518110612888576128886151da565b602002602001018181525050505050806001019050612814565b506000600186600001510360ff1667ffffffffffffffff8111156128c8576128c8614ab2565b6040519080825280602002602001820160405280156128f1578160200160208202803683370190505b50905088801561290a5750606086015163ffffffff1615155b156129d05760005b81518110156129ca5760008860ff1682106129305781600101612932565b815b905060008a8281518110612948576129486151da565b602002602001015190506000858381518110612966576129666151da565b6020026020010151905060006006600a0a8b6060015163ffffffff1684028161299157612991615294565b04905060008183039050808787815181106129ae576129ae6151da565b6020026020010181815250505050505050806001019050612912565b50612a37565b60005b8151811015612a355760008860ff1682106129f157816001016129f3565b815b9050838181518110612a0757612a076151da565b6020026020010151838381518110612a2157612a216151da565b6020908102919091010152506001016129d3565b505b600089612a45576000612a67565b86602001518860ff1681518110612a5e57612a5e6151da565b60200260200101515b90506000612a7b83868a604001518561400f565b905060008b15612aef578189602001518b60ff1681518110612a9f57612a9f6151da565b602002602001015103905080858b60ff1681518110612ac057612ac06151da565b602002602001015103858b60ff1681518110612ade57612ade6151da565b602002602001018181525050612b8d565b88602001518a60ff1681518110612b0857612b086151da565b602002602001015182039050886060015163ffffffff16600014612b4c57606089015163ffffffff16620f424090810390820281612b4857612b48615294565b0490505b80858b60ff1681518110612b6257612b626151da565b602002602001015101858b60ff1681518110612b8057612b806151da565b6020026020010181815250505b809750886060015163ffffffff16600014612c12576000612bb78a602001518b6040015189613e58565b90506000878203905060008b6060015163ffffffff168c6080015163ffffffff16830281612be757612be7615294565b60a08e015191900491508184039060008282850281612c0857612c08615294565b049c505050505050505b50505050505094509492505050565b8115610c5357600060678260068110612c3c57612c3c6151da565b01546001600160a01b03169050612c55813330866141cc565b505050565b8115610c5357600060678260068110612c7557612c756151da565b01546001600160a01b03169050612c5581338561316f565b8215612c55576000612c9f848361271d565b606e546040516340c10f1960e01b81526001600160a01b039182166004820152602481018390529192508416906340c10f1990604401600060405180830381600087803b158015612cef57600080fd5b505af1158015612d03573d6000803e3d6000fd5b5050505050505050565b6065546000904290600160b01b900463ffffffff1680821215612d855760655463ffffffff600160701b82048116916a01000000000000000000008104821691600160901b9091041681810383860384860360008183850281612d7257612d72615294565b05959095019850612d9895505050505050565b606554600160901b900463ffffffff1692505b505090565b6000612da98284615363565b90506002612db96006600a61546f565b612dc391906152aa565b8163ffffffff1610612e36578060016002612de06006600a61546f565b612dea91906152aa565b612df4919061547b565b6040517f0157de9600000000000000000000000000000000000000000000000000000000815263ffffffff928316600482015291166024820152604401610710565b63ffffffff821615801590612e545750606e546001600160a01b0316155b15612e7257604051630161bcd760e51b815260040160405180910390fd5b6065805469ffffffffffffffff000019166201000063ffffffff9384160269ffffffff0000000000001916176601000000000000939092169290920217905550565b606d546001600160a01b03163314610dcf57604051635bbf1d0360e01b815260040160405180910390fd5b7f4910fdfa16fed3260ed0e7147f7cc6da11a60208b5b9406d12a635614ffd91435460ff1615612f1257612c5583614223565b826001600160a01b03166352d1902d6040518163ffffffff1660e01b8152600401602060405180830381865afa925050508015612f6c575060408051601f3d908101601f19168201909252612f69918101906151f0565b60015b612fde5760405162461bcd60e51b815260206004820152602e60248201527f45524331393637557067726164653a206e657720696d706c656d656e7461746960448201527f6f6e206973206e6f7420555550530000000000000000000000000000000000006064820152608401610710565b7f360894a13ba1a3210667c828492db98dca3e2076cc3735a920a3ca505d382bbc81146130735760405162461bcd60e51b815260206004820152602960248201527f45524331393637557067726164653a20756e737570706f727465642070726f7860448201527f6961626c655555494400000000000000000000000000000000000000000000006064820152608401610710565b50612c558383836142e1565b61308b6003600a61546f565b61309890620f4240615492565b63ffffffff168163ffffffff16111561310757806130b86003600a61546f565b6130c590620f4240615492565b6040517f1281907f00000000000000000000000000000000000000000000000000000000815263ffffffff928316600482015291166024820152604401610710565b6131136003600a61546f565b8163ffffffff161015610dcf578061312d6003600a61546f565b6040517fc88e096900000000000000000000000000000000000000000000000000000000815263ffffffff928316600482015291166024820152604401610710565b6040516001600160a01b038316602482015260448101829052612c559084907fa9059cbb00000000000000000000000000000000000000000000000000000000906064015b60408051601f198184030181529190526020810180517bffffffffffffffffffffffffffffffffffffffffffffffffffffffff167fffffffff0000000000000000000000000000000000000000000000000000000090931692909217909152614306565b60608167ffffffffffffffff81111561323357613233614ab2565b60405190808252806020026020018201604052801561325c578160200160208202803683370190505b50905060005b828110156133295760006067826006811061327f5761327f6151da565b01546040516370a0823160e01b81523060048201526001600160a01b03909116906370a0823190602401602060405180830381865afa1580156132c6573d6000803e3d6000fd5b505050506040513d601f19601f820116820180604052508101906132ea91906151f0565b905061330381606784600681106126df576126df6151da565b838381518110613315576133156151da565b602090810291909101015250600101613262565b50919050565b600082600003613341575060006127a2565b6000808360000b121561339c578260000360000b600a0a848161336657613366615294565b04905080600003613397576040516311050b1f60e11b815260048101859052600084900b6024820152604401610710565b6133b2565b50600082900b600a0a6133af8482615275565b90505b671fffffffffffffff81111561279f576040517f834de34100000000000000000000000000000000000000000000000000000000815260048101859052600084900b6024820152604401610710565b825160609060008167ffffffffffffffff81111561342157613421614ab2565b60405190808252806020026020018201604052801561344a578160200160208202803683370190505b5090508463ffffffff1660000361350e57836002670de0b6b3a7640000048760018151811061347b5761347b6151da565b6020026020010151028161349157613491615294565b04816000815181106134a5576134a56151da565b6020908102919091010152836002670de0b6b3a764000004876000815181106134d0576134d06151da565b602002602001015102816134e6576134e6615294565b04816001815181106134fa576134fa6151da565b602090810291909101015291506136729050565b600061351c87876000613e58565b9050600080613532670de0b6b3a76400006143eb565b9150915060005b8581101561358a578383029250858a8281518110613559576135596151da565b602002602001015102838161357057613570615294565b04925061357d838361445a565b9093509150600101613539565b5060006135b9600a8360000301600a6001901b8b63ffffffff16036012600a0a026144c390919063ffffffff16565b90506000670de0b6b3a7640000600188018502830104905083850260006135f963ffffffff8d8116670de0b6b3a76400000290600a88850301906144c316565b905060005b8981101561366557838e8281518110613619576136196151da565b6020026020010151848161362f5761362f615294565b0483018161363f5761363f615294565b04898281518110613652576136526151da565b60209081029190910101526001016135fe565b5096985050505050505050505b9392505050565b60007377c1f7813d79c8e6e37de1aa631b6f961fd456486001600160a01b031663dda39c08733804be1ceb87d2fd560560ca323fad77fdb60258843088886040516024016136c9939291906154be565b60408051601f198184030181529181526020820180517bffffffffffffffffffffffffffffffffffffffffffffffffffffffff167f90657147000000000000000000000000000000000000000000000000000000001790525160e085901b7fffffffff0000000000000000000000000000000000000000000000000000000016815261375a939291906004016154fc565b6020604051808303816000875af1925050508015613795575060408051601f3d908101601f1916820190925261379291810190615346565b60015b6137cb576040517f3d8c43d800000000000000000000000000000000000000000000000000000000815260040160405180910390fd5b9050613672565b6000806000858460a0015103905060008460a00151826137fc876020015188604001516000613e58565b028161380a5761380a615294565b0490506000600186600001510360ff1667ffffffffffffffff81111561383257613832614ab2565b60405190808252806020026020018201604052801561385b578160200160208202803683370190505b50905060005b81518110156138c75760008860ff16821061387f5781600101613881565b815b905087602001518181518110613899576138996151da565b60200260200101518383815181106138b3576138b36151da565b602090810291909101015250600101613861565b5060006138fa828489604001518a602001518c60ff16815181106138ed576138ed6151da565b602002602001015161400f565b87602001518960ff1681518110613913576139136151da565b6020026020010151039050866060015163ffffffff16600014613a9057600061393f8860200151614531565b905060008160408a602001518c60ff168151811061395f5761395f6151da565b60200260200101518403901b8161397857613978615294565b60608b01519190049150600090680100000000000000009063ffffffff16620f4240036a0f42400000000000000000816139b4576139b4615294565b0403905060408168010000000000000000848202831c01868502816139db576139db615294565b0402901c84039850888a602001518c60ff16815181106139fd576139fd6151da565b6020026020010151038a602001518c60ff1681518110613a1f57613a1f6151da565b602002602001018181525050600086613a418c602001518d604001518a613e58565b03905060008b6060015163ffffffff168c6080015163ffffffff16830281613a6b57613a6b615294565b049050808289010389820281613a8357613a83615294565b0499505050505050613a94565b8095505b50505050935093915050565b6000806000613ab9846020015185604001516000613e58565b90506000806000866000015160ff1667ffffffffffffffff811115613ae057613ae0614ab2565b604051908082528060200260200182016040528015613b09578160200160208202803683370190505b50905060005b875160ff16811015613ba157600088602001518281518110613b3357613b336151da565b6020026020010151905060008a8381518110613b5157613b516151da565b6020026020010151905060008c613b6a57818303613b6e565b8183015b905080858581518110613b8357613b836151da565b60209081029190910101529590910194939093019250600101613b0f565b506000613bc48289604001518686890281613bbe57613bbe615294565b04613e58565b9050876060015163ffffffff16600014613e2257875160009060ff1667ffffffffffffffff811115613bf857613bf8614ab2565b604051908082528060200260200182016040528015613c21578160200160208202803683370190505b50905060005b895160ff16811015613d6c576000848281518110613c4757613c476151da565b60200260200101519050600087878d602001518581518110613c6b57613c6b6151da565b60200260200101510281613c8157613c81615294565b04905060008e613ca157818310613c99576000613cb3565b828203613cb3565b818311613caf576000613cb3565b8183035b905060008f613ce75760608e0151829063ffffffff16620f424090810390820281613ce057613ce0615294565b0403613cfb565b60608e0151620f42409063ffffffff168302045b9050808411613d36576040517f1ce2e20400000000000000000000000000000000000000000000000000000000815260040160405180910390fd5b6000818503905080878781518110613d5057613d506151da565b6020026020010181815250505050505050806001019050613c27565b506000613d7e828b6040015185613e58565b9050868c613d8e57818803613d92565b8782035b8b60a001510281613da557613da5615294565b0498506000818403905060008b6060015163ffffffff168c6080015163ffffffff16830281613dd657613dd6615294565b04905060008e613dec578b8d60a0015103613df4565b8b8d60a00151015b9050818f613e025786613e04565b845b0381830281613e1557613e15615294565b049a505050505050613e4b565b848860a001518b613e3557828703613e39565b8683035b0281613e4757613e47615294565b0496505b5050505050935093915050565b60008263ffffffff16600003613eb3576004905083600081518110613e7f57613e7f6151da565b60200260200101518102905083600181518110613e9e57613e9e6151da565b6020026020010151810290506137cb81614567565b83516000613ec086614531565b905063ffffffff8516808202906103ff19016000869003613ee15782613ee3565b855b945060005b5084600080613ef760016143eb565b9150915060005b87811015613f4f578883029250878c8281518110613f1e57613f1e6151da565b6020026020010151028381613f3557613f35615294565b049250613f42838361445a565b9093509150600101613efe565b5060091901818702600080613f64838561445a565b908c0292509050828501848214613f7a578482031b5b60008060a1871215613fae576000969096039584613f988c896144c3565b01915082613fa68b896144c3565b019050613fcb565b613fb885886144c3565b8b019150613fc683886144c3565b8a0190505b808281613fda57613fda615294565b049d5050505050505050506001613ff182886146d1565b11613ee8576000861161400357600080fd5b50505050509392505050565b6000808363ffffffff1660000361405957848502905085600081518110614038576140386151da565b6020026020010151818161404e5761404e615294565b0460021c9050614167565b855160010160008061408663ffffffff88168402898002600a1b8161408057614080615294565b046143eb565b9150915060005b89518110156140df578883029250838a82815181106140ae576140ae6151da565b60200260200101510283816140c5576140c5615294565b0492506140d2838361445a565b909350915060010161408d565b506140ea82826144c3565b915060008763ffffffff16600a8a901b8161410757614107615294565b046141118b614531565b019050866000036141255760028904614127565b865b945060005b508480800284016002820283018b900380828161414b5761414b615294565b0497505050600161415c82886146d1565b1161412c5750505050505b6000811161417457600080fd5b671fffffffffffffff8111156141b9576040517f0b68fc2600000000000000000000000000000000000000000000000000000000815260048101829052602401610710565b67ffffffffffffffff1695945050505050565b6040516001600160a01b038085166024830152831660448201526064810182905261421d9085907f23b872dd00000000000000000000000000000000000000000000000000000000906084016131b4565b50505050565b6001600160a01b0381163b6142a05760405162461bcd60e51b815260206004820152602d60248201527f455243313936373a206e657720696d706c656d656e746174696f6e206973206e60448201527f6f74206120636f6e7472616374000000000000000000000000000000000000006064820152608401610710565b7f360894a13ba1a3210667c828492db98dca3e2076cc3735a920a3ca505d382bbc80546001600160a01b0319166001600160a01b0392909216919091179055565b6142ea836146e8565b6000825111806142f75750805b15612c555761421d8383614728565b600061435b826040518060400160405280602081526020017f5361666545524332303a206c6f772d6c6576656c2063616c6c206661696c6564815250856001600160a01b03166148339092919063ffffffff16565b805190915015612c5557808060200190518101906143799190615524565b612c555760405162461bcd60e51b815260206004820152602a60248201527f5361666545524332303a204552433230206f7065726174696f6e20646964206e60448201527f6f742073756363656564000000000000000000000000000000000000000000006064820152608401610710565b60008060026143fd60046101006152aa565b61440791906152aa565b61441460046101006152aa565b61441e919061525d565b83901b600261443060046101006152aa565b61443a91906152aa565b61444760046101006152aa565b614451919061525d565b91509150915091565b60008077ffffffffffffffffffffffffffffffffffffffffffffffff84111561448e575050604082901c603f1982016144bc565b7001000000000000000000000000000000008410156144b6575050604082811b9082016144bc565b50829050815b9250929050565b60008082121561452c576000829003610100811015806144eb575080610100036001901b8410155b15614522576040517f4f4afe7f00000000000000000000000000000000000000000000000000000000815260040160405180910390fd5b83901b90506127a2565b501c90565b6000805b825181101561332957828181518110614550576145506151da565b602002602001015182019150806001019050614535565b60008160000361457957506000919050565b816001608082901c156145915760809190911c9060401b5b604082901c156145a65760409190911c9060201b5b602082901c156145bb5760209190911c9060101b5b601082901c156145d05760109190911c9060081b5b600882901c156145e55760089190911c9060041b5b600482901c156145fa5760049190911c9060021b5b600282901c156146085760011b5b600181858161461957614619615294565b048201901c9050600181858161463157614631615294565b048201901c9050600181858161464957614649615294565b048201901c9050600181858161466157614661615294565b048201901c9050600181858161467957614679615294565b048201901c9050600181858161469157614691615294565b048201901c905060018185816146a9576146a9615294565b048201901c90506146c9818286816146c3576146c3615294565b04614842565b949350505050565b60008183116146e25782820361279f565b50900390565b6146f181614223565b6040516001600160a01b038216907fbc7cd75a20ee27fd9adebab32041f755214dbc6bffa90cc0225b39da2e5c2d3b90600090a250565b60606001600160a01b0383163b6147a75760405162461bcd60e51b815260206004820152602660248201527f416464726573733a2064656c65676174652063616c6c20746f206e6f6e2d636f60448201527f6e747261637400000000000000000000000000000000000000000000000000006064820152608401610710565b600080846001600160a01b0316846040516147c29190615541565b600060405180830381855af49150503d80600081146147fd576040519150601f19603f3d011682016040523d82523d6000602084013e614802565b606091505b509150915061482a828260405180606001604052806027815260200161557160279139614858565b95945050505050565b60606146c98484600085614891565b6000818310614851578161279f565b5090919050565b60608315614867575081613672565b8251156148775782518084602001fd5b8160405162461bcd60e51b8152600401610710919061555d565b6060824710156149095760405162461bcd60e51b815260206004820152602660248201527f416464726573733a20696e73756666696369656e742062616c616e636520666f60448201527f722063616c6c00000000000000000000000000000000000000000000000000006064820152608401610710565b6001600160a01b0385163b6149605760405162461bcd60e51b815260206004820152601d60248201527f416464726573733a2063616c6c20746f206e6f6e2d636f6e74726163740000006044820152606401610710565b600080866001600160a01b0316858760405161497c9190615541565b60006040518083038185875af1925050503d80600081146149b9576040519150601f19603f3d011682016040523d82523d6000602084013e6149be565b606091505b50915091506119f5828286614858565b6040518060c0016040528060001515815260200160608152602001614a0f604051806040016040528060006001600160a01b03168152602001600081525090565b8152602001614a34604051806040016040528060008152602001600060ff1681525090565b8152602001614a59604051806040016040528060008152602001600060ff1681525090565b8152602001614a7e604051806040016040528060008152602001600060ff1681525090565b905290565b600060208284031215614a9557600080fd5b5035919050565b803560ff81168114614aad57600080fd5b919050565b634e487b7160e01b600052604160045260246000fd5b604051601f8201601f1916810167ffffffffffffffff81118282101715614af157614af1614ab2565b604052919050565b600067ffffffffffffffff821115614b1357614b13614ab2565b5060051b60200190565b600082601f830112614b2e57600080fd5b81356020614b43614b3e83614af9565b614ac8565b82815260059290921b84018101918181019086841115614b6257600080fd5b8286015b84811015614b7d5780358352918301918301614b66565b509695505050505050565b600080600060608486031215614b9d57600080fd5b83359250614bad60208501614a9c565b9150604084013567ffffffffffffffff811115614bc957600080fd5b614bd586828701614b1d565b9150509250925092565b8015158114610dcf57600080fd5b600060208284031215614bff57600080fd5b813561279f81614bdf565b600060208083526101608301845115158285015281850151604061014081870152828251808552610180880191508584019450600093505b80841015614c7c57614c6882865180516001600160a01b03168252602090810151910152565b938501936001939093019290820190614c42565b508782015180516001600160a01b031660608901526020810151608089015294506060880151805160a0890152602081015160ff1660c089015294506080880151805160e0890152602081015160ff16610100890152945060a08801518051610120890152602081015160ff166101408901529450979650505050505050565b803563ffffffff81168114614aad57600080fd5b60008060408385031215614d2357600080fd5b614d2c83614cfc565b9150614d3a60208401614cfc565b90509250929050565b6001600160a01b0381168114610dcf57600080fd5b8035614aad81614d43565b600060208284031215614d7557600080fd5b813561279f81614d43565b600067ffffffffffffffff831115614d9a57614d9a614ab2565b614dad601f8401601f1916602001614ac8565b9050828152838383011115614dc157600080fd5b828260208301376000602084830101529392505050565b60008060408385031215614deb57600080fd5b8235614df681614d43565b9150602083013567ffffffffffffffff811115614e1257600080fd5b8301601f81018513614e2357600080fd5b614e3285823560208401614d80565b9150509250929050565b60008060408385031215614e4f57600080fd5b82359150602083013567ffffffffffffffff811115614e6d57600080fd5b614e3285828601614b1d565b6020808252825182820181905260009190848201906040850190845b81811015614eb157835183529284019291840191600101614e95565b50909695505050505050565b600080600060608486031215614ed257600080fd5b833567ffffffffffffffff811115614ee957600080fd5b614ef586828701614b1d565b935050614f0460208501614a9c565b9150604084013590509250925092565b60008060008060808587031215614f2a57600080fd5b84359350614f3a60208601614a9c565b9250614f4860408601614a9c565b9396929550929360600135925050565b600082601f830112614f6957600080fd5b61279f83833560208501614d80565b8035600081900b8114614aad57600080fd5b600082601f830112614f9b57600080fd5b81356020614fab614b3e83614af9565b82815260059290921b84018101918181019086841115614fca57600080fd5b8286015b84811015614b7d578035614fe181614d43565b8352918301918301614fce565b600082601f830112614fff57600080fd5b8135602061500f614b3e83614af9565b82815260059290921b8401810191818101908684111561502e57600080fd5b8286015b84811015614b7d5761504381614f78565b8352918301918301615032565b60008060008060008060008060008060006101608c8e03121561507257600080fd5b67ffffffffffffffff808d35111561508957600080fd5b6150968e8e358f01614f58565b9b508060208e013511156150a957600080fd5b6150b98e60208f01358f01614f58565b9a5060408d013599506150ce60608e01614f78565b98508060808e013511156150e157600080fd5b6150f18e60808f01358f01614f8a565b97508060a08e0135111561510457600080fd5b506151158d60a08e01358e01614fee565b955061512360c08d01614cfc565b945061513160e08d01614cfc565b93506151406101008d01614cfc565b925061514f6101208d01614d58565b915061515e6101408d01614d58565b90509295989b509295989b9093969950565b60008060006060848603121561518557600080fd5b83359250614f0460208501614a9c565b600080604083850312156151a857600080fd5b823567ffffffffffffffff8111156151bf57600080fd5b6151cb85828601614b1d565b95602094909401359450505050565b634e487b7160e01b600052603260045260246000fd5b60006020828403121561520257600080fd5b5051919050565b634e487b7160e01b600052601160045260246000fd5b600063ffffffff8381169083168181101561523c5761523c615209565b039392505050565b60006001820161525657615256615209565b5060010190565b6000821982111561527057615270615209565b500190565b600081600019048311821515161561528f5761528f615209565b500290565b634e487b7160e01b600052601260045260246000fd5b6000826152c757634e487b7160e01b600052601260045260246000fd5b500490565b60005b838110156152e75781810151838201526020016152cf565b8381111561421d5750506000910152565b600081518084526153108160208601602086016152cc565b601f01601f19169290920160200192915050565b6001600160a01b03831681526040602082015260006146c960408301846152f8565b60006020828403121561535857600080fd5b815161279f81614d43565b600063ffffffff80831681851680830382111561538257615382615209565b01949350505050565b600181815b808511156153c65781600019048211156153ac576153ac615209565b808516156153b957918102915b93841c9390800290615390565b509250929050565b6000826153dd575060016127a2565b816153ea575060006127a2565b8160018114615400576002811461540a57615426565b60019150506127a2565b60ff84111561541b5761541b615209565b50506001821b6127a2565b5060208310610133831016604e8410600b8410161715615449575081810a6127a2565b615453838361538b565b806000190482111561546757615467615209565b029392505050565b600061279f83836153ce565b60008282101561548d5761548d615209565b500390565b600063ffffffff808316818516818304811182151516156154b5576154b5615209565b02949350505050565b6001600160a01b03841681526060602082015260006154e060608301856152f8565b82810360408401526154f281856152f8565b9695505050505050565b6001600160a01b038416815282602082015260606040820152600061482a60608301846152f8565b60006020828403121561553657600080fd5b815161279f81614bdf565b600082516155538184602087016152cc565b9190910192915050565b60208152600061279f60208301846152f856fe416464726573733a206c6f772d6c6576656c2064656c65676174652063616c6c206661696c6564a26469706673582212206b8115512e497106e53af55e3176ecea3b8ed0007f6f9c56a9b94abc5460a09264736f6c634300080f0033"
}