{
  "address": "0xDCF192d434ad84EeB5F155238283d184995CAA2F",
  "abi": [
    {
      "inputs": [],
      "name": "InvalidVersion",
      "type": "error"
    },
    {
      "inputs": [
        {
          "internalType": "string",
          "name": "message",
          "type": "string"
        }
      ],
      "name": "Routing__ErrorMessage",
      "type": "error"
    },
    {
      "inputs": [
        {
          "internalType": "bytes20",
          "name": "addressOrTokenNumber",
          "type": "bytes20"
        }
      ],
      "name": "Routing__TokenNotRegistered",
      "type": "error"
    },
    {
      "inputs": [],
      "name": "TooShort",
      "type": "error"
    },
    {
      "anonymous": false,
      "inputs": [
        {
          "indexed": false,
          "internalType": "address",
          "name": "previousAdmin",
          "type": "address"
        },
        {
          "indexed": false,
          "internalType": "address",
          "name": "newAdmin",
          "type": "address"
        }
      ],
      "name": "AdminChanged",
      "type": "event"
    },
    {
      "anonymous": false,
      "inputs": [
        {
          "indexed": true,
          "internalType": "address",
          "name": "beacon",
          "type": "address"
        }
      ],
      "name": "BeaconUpgraded",
      "type": "event"
    },
    {
      "anonymous": false,
      "inputs": [
        {
          "indexed": false,
          "internalType": "uint8",
          "name": "version",
          "type": "uint8"
        }
      ],
      "name": "Initialized",
      "type": "event"
    },
    {
      "anonymous": false,
      "inputs": [
        {
          "indexed": true,
          "internalType": "address",
          "name": "to",
          "type": "address"
        },
        {
          "indexed": true,
          "internalType": "address",
          "name": "fromToken",
          "type": "address"
        },
        {
          "indexed": true,
          "internalType": "address",
          "name": "toToken",
          "type": "address"
        },
        {
          "indexed": false,
          "internalType": "uint256",
          "name": "outputAmount",
          "type": "uint256"
        }
      ],
      "name": "OnChainSwap",
      "type": "event"
    },
    {
      "anonymous": false,
      "inputs": [
        {
          "indexed": true,
          "internalType": "address",
          "name": "previousOwner",
          "type": "address"
        },
        {
          "indexed": true,
          "internalType": "address",
          "name": "newOwner",
          "type": "address"
        }
      ],
      "name": "OwnershipTransferred",
      "type": "event"
    },
    {
      "anonymous": false,
      "inputs": [
        {
          "indexed": false,
          "internalType": "address",
          "name": "account",
          "type": "address"
        }
      ],
      "name": "Paused",
      "type": "event"
    },
    {
      "anonymous": false,
      "inputs": [
        {
          "indexed": true,
          "internalType": "address",
          "name": "from",
          "type": "address"
        },
        {
          "indexed": false,
          "internalType": "uint64",
          "name": "wormholeSequence",
          "type": "uint64"
        },
        {
          "indexed": false,
          "internalType": "address",
          "name": "token",
          "type": "address"
        },
        {
          "indexed": false,
          "internalType": "uint256",
          "name": "amount",
          "type": "uint256"
        }
      ],
      "name": "ReceiveAndSwap",
      "type": "event"
    },
    {
      "anonymous": false,
      "inputs": [
        {
          "indexed": true,
          "internalType": "address",
          "name": "from",
          "type": "address"
        },
        {
          "indexed": false,
          "internalType": "uint64",
          "name": "wormholeSequence",
          "type": "uint64"
        },
        {
          "indexed": false,
          "internalType": "address",
          "name": "token",
          "type": "address"
        },
        {
          "indexed": false,
          "internalType": "uint256",
          "name": "inputAmount",
          "type": "uint256"
        }
      ],
      "name": "SwapAndTransfer",
      "type": "event"
    },
    {
      "anonymous": false,
      "inputs": [
        {
          "indexed": true,
          "internalType": "uint16",
          "name": "tokenId",
          "type": "uint16"
        },
        {
          "indexed": true,
          "internalType": "address",
          "name": "tokenContract",
          "type": "address"
        },
        {
          "indexed": false,
          "internalType": "address",
          "name": "chainPool",
          "type": "address"
        }
      ],
      "name": "TokenRegistered",
      "type": "event"
    },
    {
      "anonymous": false,
      "inputs": [
        {
          "indexed": false,
          "internalType": "address",
          "name": "account",
          "type": "address"
        }
      ],
      "name": "Unpaused",
      "type": "event"
    },
    {
      "anonymous": false,
      "inputs": [
        {
          "indexed": true,
          "internalType": "address",
          "name": "implementation",
          "type": "address"
        }
      ],
      "name": "Upgraded",
      "type": "event"
    },
    {
      "inputs": [
        {
          "internalType": "address[]",
          "name": "poolAddresses",
          "type": "address[]"
        }
      ],
      "name": "getPoolStates",
      "outputs": [
        {
          "components": [
            {
              "internalType": "bool",
              "name": "paused",
              "type": "bool"
            },
            {
              "components": [
                {
                  "internalType": "address",
                  "name": "tokenAddress",
                  "type": "address"
                },
                {
                  "internalType": "uint256",
                  "name": "balance",
                  "type": "uint256"
                }
              ],
              "internalType": "struct TokenBalance[]",
              "name": "balances",
              "type": "tuple[]"
            },
            {
              "components": [
                {
                  "internalType": "address",
                  "name": "tokenAddress",
                  "type": "address"
                },
                {
                  "internalType": "uint256",
                  "name": "balance",
                  "type": "uint256"
                }
              ],
              "internalType": "struct TokenBalance",
              "name": "totalLPSupply",
              "type": "tuple"
            },
            {
              "components": [
                {
                  "internalType": "uint256",
                  "name": "value",
                  "type": "uint256"
                },
                {
                  "internalType": "uint8",
                  "name": "decimals",
                  "type": "uint8"
                }
              ],
              "internalType": "struct Decimal",
              "name": "ampFactor",
              "type": "tuple"
            },
            {
              "components": [
                {
                  "internalType": "uint256",
                  "name": "value",
                  "type": "uint256"
                },
                {
                  "internalType": "uint8",
                  "name": "decimals",
                  "type": "uint8"
                }
              ],
              "internalType": "struct Decimal",
              "name": "lpFee",
              "type": "tuple"
            },
            {
              "components": [
                {
                  "internalType": "uint256",
                  "name": "value",
                  "type": "uint256"
                },
                {
                  "internalType": "uint8",
                  "name": "decimals",
                  "type": "uint8"
                }
              ],
              "internalType": "struct Decimal",
              "name": "governanceFee",
              "type": "tuple"
            }
          ],
          "internalType": "struct PoolState[]",
          "name": "",
          "type": "tuple[]"
        }
      ],
      "stateMutability": "view",
      "type": "function"
    },
    {
      "inputs": [
        {
          "internalType": "address",
          "name": "owner",
          "type": "address"
        },
        {
          "internalType": "address",
          "name": "tokenBridgeAddress",
          "type": "address"
        }
      ],
      "name": "initialize",
      "outputs": [],
      "stateMutability": "nonpayable",
      "type": "function"
    },
    {
      "inputs": [
        {
          "internalType": "address",
          "name": "fromToken",
          "type": "address"
        },
        {
          "internalType": "uint256",
          "name": "inputAmount",
          "type": "uint256"
        },
        {
          "internalType": "address",
          "name": "toOwner",
          "type": "address"
        },
        {
          "internalType": "address",
          "name": "toToken",
          "type": "address"
        },
        {
          "internalType": "uint256",
          "name": "minimumOutputAmount",
          "type": "uint256"
        }
      ],
      "name": "onChainSwap",
      "outputs": [
        {
          "internalType": "uint256",
          "name": "outputAmount",
          "type": "uint256"
        }
      ],
      "stateMutability": "payable",
      "type": "function"
    },
    {
      "inputs": [],
      "name": "owner",
      "outputs": [
        {
          "internalType": "address",
          "name": "",
          "type": "address"
        }
      ],
      "stateMutability": "view",
      "type": "function"
    },
    {
      "inputs": [],
      "name": "pause",
      "outputs": [],
      "stateMutability": "nonpayable",
      "type": "function"
    },
    {
      "inputs": [],
      "name": "paused",
      "outputs": [
        {
          "internalType": "bool",
          "name": "",
          "type": "bool"
        }
      ],
      "stateMutability": "view",
      "type": "function"
    },
    {
      "inputs": [],
      "name": "proxiableUUID",
      "outputs": [
        {
          "internalType": "bytes32",
          "name": "",
          "type": "bytes32"
        }
      ],
      "stateMutability": "view",
      "type": "function"
    },
    {
      "inputs": [
        {
          "internalType": "bytes",
          "name": "encodedVm",
          "type": "bytes"
        },
        {
          "internalType": "address",
          "name": "toToken",
          "type": "address"
        },
        {
          "internalType": "uint256",
          "name": "minimumOutputAmount",
          "type": "uint256"
        }
      ],
      "name": "receiveAndSwap",
      "outputs": [
        {
          "internalType": "uint256",
          "name": "outputAmount",
          "type": "uint256"
        },
        {
          "internalType": "address",
          "name": "outputToken",
          "type": "address"
        }
      ],
      "stateMutability": "nonpayable",
      "type": "function"
    },
    {
      "inputs": [
        {
          "internalType": "bytes",
          "name": "encodedVm",
          "type": "bytes"
        }
      ],
      "name": "receiveAndSwap",
      "outputs": [
        {
          "internalType": "uint256",
          "name": "outputAmount",
          "type": "uint256"
        },
        {
          "internalType": "address",
          "name": "outputToken",
          "type": "address"
        }
      ],
      "stateMutability": "nonpayable",
      "type": "function"
    },
    {
      "inputs": [
        {
          "internalType": "uint16",
          "name": "tokenNumber",
          "type": "uint16"
        },
        {
          "internalType": "address",
          "name": "tokenAddress",
          "type": "address"
        },
        {
          "internalType": "address",
          "name": "poolAddress",
          "type": "address"
        },
        {
          "internalType": "uint8",
          "name": "tokenIndexInPool",
          "type": "uint8"
        }
      ],
      "name": "registerToken",
      "outputs": [],
      "stateMutability": "nonpayable",
      "type": "function"
    },
    {
      "inputs": [],
      "name": "renounceOwnership",
      "outputs": [],
      "stateMutability": "nonpayable",
      "type": "function"
    },
    {
      "inputs": [
        {
          "internalType": "address",
          "name": "fromToken",
          "type": "address"
        },
        {
          "internalType": "uint256",
          "name": "inputAmount",
          "type": "uint256"
        },
        {
          "internalType": "uint256",
          "name": "firstMinimumOutputAmount",
          "type": "uint256"
        },
        {
          "internalType": "uint16",
          "name": "wormholeRecipientChain",
          "type": "uint16"
        },
        {
          "internalType": "bytes32",
          "name": "toOwner",
          "type": "bytes32"
        }
      ],
      "name": "swapAndTransfer",
      "outputs": [
        {
          "internalType": "uint64",
          "name": "wormholeSequence",
          "type": "uint64"
        }
      ],
      "stateMutability": "payable",
      "type": "function"
    },
    {
      "inputs": [],
      "name": "swimUsdAddress",
      "outputs": [
        {
          "internalType": "address",
          "name": "",
          "type": "address"
        }
      ],
      "stateMutability": "view",
      "type": "function"
    },
    {
      "inputs": [],
      "name": "tokenBridge",
      "outputs": [
        {
          "internalType": "contract ITokenBridge",
          "name": "",
          "type": "address"
        }
      ],
      "stateMutability": "view",
      "type": "function"
    },
    {
      "inputs": [
        {
          "internalType": "address",
          "name": "newOwner",
          "type": "address"
        }
      ],
      "name": "transferOwnership",
      "outputs": [],
      "stateMutability": "nonpayable",
      "type": "function"
    },
    {
      "inputs": [],
      "name": "unpause",
      "outputs": [],
      "stateMutability": "nonpayable",
      "type": "function"
    },
    {
      "inputs": [
        {
          "internalType": "address",
          "name": "newImplementation",
          "type": "address"
        }
      ],
      "name": "upgradeTo",
      "outputs": [],
      "stateMutability": "nonpayable",
      "type": "function"
    },
    {
      "inputs": [
        {
          "internalType": "address",
          "name": "newImplementation",
          "type": "address"
        },
        {
          "internalType": "bytes",
          "name": "data",
          "type": "bytes"
        }
      ],
      "name": "upgradeToAndCall",
      "outputs": [],
      "stateMutability": "payable",
      "type": "function"
    },
    {
      "inputs": [],
      "name": "wormhole",
      "outputs": [
        {
          "internalType": "contract IWormhole",
          "name": "",
          "type": "address"
        }
      ],
      "stateMutability": "view",
      "type": "function"
    }
  ],
  "args": [],
  "numDeployments": 1,
  "bytecode": "0x60a06040523060805234801561001457600080fd5b5060805161363361004c600039600081816103dc0152818161046601528181610b6a01528181610bef0152610cd901526136336000f3fe6080604052600436106101445760003560e01c80638456cb59116100c0578063c6328a4611610074578063f2fde38b11610059578063f2fde38b1461037f578063f6bf28b51461039f578063fe4bc67a146103bf57600080fd5b8063c6328a4614610321578063cd5af9ae1461034257600080fd5b80638da5cb5b116100a55780638da5cb5b146102ae578063a174e5b7146102cc578063b1719a57146102f557600080fd5b80638456cb591461026057806384acd1bb1461027557600080fd5b80634f1ef286116101175780635c975abb116100fc5780635c975abb146101fb5780636bde354a1461021e578063715018a61461024b57600080fd5b80634f1ef286146101c057806352d1902d146101d357600080fd5b80633659cfe6146101495780633954802a1461016b5780633f4ba83a1461018b578063485cc955146101a0575b600080fd5b34801561015557600080fd5b50610169610164366004612a39565b6103d2565b005b34801561017757600080fd5b50610169610186366004612a75565b610552565b34801561019757600080fd5b50610169610864565b3480156101ac57600080fd5b506101696101bb366004612ad1565b610876565b6101696101ce366004612c62565b610b60565b3480156101df57600080fd5b506101e8610ccc565b6040519081526020015b60405180910390f35b34801561020757600080fd5b5060335460ff1660405190151581526020016101f2565b34801561022a57600080fd5b5061023e610239366004612cd6565b610d91565b6040516101f29190612d65565b34801561025757600080fd5b50610169610eaf565b34801561026c57600080fd5b50610169610ec1565b34801561028157600080fd5b5061012f54610296906001600160a01b031681565b6040516001600160a01b0390911681526020016101f2565b3480156102ba57600080fd5b506065546001600160a01b0316610296565b3480156102d857600080fd5b5061012d546102969064010000000090046001600160a01b031681565b610308610303366004612e9f565b610ed1565b60405167ffffffffffffffff90911681526020016101f2565b34801561032d57600080fd5b5061012e54610296906001600160a01b031681565b34801561034e57600080fd5b5061036261035d366004612ef1565b61124f565b604080519283526001600160a01b039091166020830152016101f2565b34801561038b57600080fd5b5061016961039a366004612a39565b61137a565b3480156103ab57600080fd5b506103626103ba366004612f4b565b611407565b6101e86103cd366004612f88565b6114da565b6001600160a01b037f00000000000000000000000000000000000000000000000000000000000000001630036104645760405162461bcd60e51b815260206004820152602c60248201527f46756e6374696f6e206d7573742062652063616c6c6564207468726f7567682060448201526b19195b1959d85d1958d85b1b60a21b60648201526084015b60405180910390fd5b7f00000000000000000000000000000000000000000000000000000000000000006001600160a01b03166104bf7f360894a13ba1a3210667c828492db98dca3e2076cc3735a920a3ca505d382bbc546001600160a01b031690565b6001600160a01b03161461052a5760405162461bcd60e51b815260206004820152602c60248201527f46756e6374696f6e206d7573742062652063616c6c6564207468726f7567682060448201526b6163746976652070726f787960a01b606482015260840161045b565b6105338161170f565b6040805160008082526020820190925261054f91839190611717565b50565b61055a6118b7565b600061013060008661ffff1661ffff1681526020019081526020016000206040518060800160405290816000820160009054906101000a900461ffff1661ffff1661ffff1681526020016000820160029054906101000a90046001600160a01b03166001600160a01b03166001600160a01b031681526020016001820160009054906101000a90046001600160a01b03166001600160a01b03166001600160a01b031681526020016001820160149054906101000a900460ff1660ff1660ff1681525050905084816000019061ffff16908161ffff16815250508381602001906001600160a01b031690816001600160a01b0316815250508281604001906001600160a01b031690816001600160a01b03168152505081816060019060ff16908160ff16815250508061013060008761ffff1661ffff16815260200190815260200160002060008201518160000160006101000a81548161ffff021916908361ffff16021790555060208201518160000160026101000a8154816001600160a01b0302191690836001600160a01b0316021790555060408201518160010160006101000a8154816001600160a01b0302191690836001600160a01b0316021790555060608201518160010160146101000a81548160ff021916908360ff160217905550905050806101316000866001600160a01b03166001600160a01b0316815260200190815260200160002060008201518160000160006101000a81548161ffff021916908361ffff16021790555060208201518160000160026101000a8154816001600160a01b0302191690836001600160a01b0316021790555060408201518160010160006101000a8154816001600160a01b0302191690836001600160a01b0316021790555060608201518160010160146101000a81548160ff021916908360ff160217905550905050836001600160a01b03168561ffff167f639dd7678d262a54d13718f5d54a4cf4c9289b611fee8ea5cc905c1518157e068560405161085591906001600160a01b0391909116815260200190565b60405180910390a35050505050565b61086c6118b7565b610874611911565b565b600054610100900460ff16158080156108965750600054600160ff909116105b806108b05750303b1580156108b0575060005460ff166001145b6109225760405162461bcd60e51b815260206004820152602e60248201527f496e697469616c697a61626c653a20636f6e747261637420697320616c72656160448201527f647920696e697469616c697a6564000000000000000000000000000000000000606482015260840161045b565b6000805460ff191660011790558015610945576000805461ff0019166101001790555b61094d611963565b6109556119d6565b61095d611a49565b610965611ab4565b61096e83611b27565b61012d805463ffffffff1916905561012e805473ffffffffffffffffffffffffffffffffffffffff19166001600160a01b038416908117909155604080517f84acd1bb00000000000000000000000000000000000000000000000000000000815290516384acd1bb916004808201926020929091908290030181865afa1580156109fc573d6000803e3d6000fd5b505050506040513d601f19601f82011682018060405250810190610a209190612fd2565b61012f805473ffffffffffffffffffffffffffffffffffffffff19166001600160a01b0392831617905561012e546040517f1ff1e286000000000000000000000000000000000000000000000000000000008152600160048201527f44a0a063099540e87e0163a6e27266a364c35930208cfaded5b79377713906e96024820152911690631ff1e28690604401602060405180830381865afa158015610aca573d6000803e3d6000fd5b505050506040513d601f19601f82011682018060405250810190610aee9190612fd2565b61012d60046101000a8154816001600160a01b0302191690836001600160a01b031602179055508015610b5b576000805461ff0019169055604051600181527f7f26b83ff96e1f2b6a682f133852f6798a09c465da95921460cefb38474024989060200160405180910390a15b505050565b6001600160a01b037f0000000000000000000000000000000000000000000000000000000000000000163003610bed5760405162461bcd60e51b815260206004820152602c60248201527f46756e6374696f6e206d7573742062652063616c6c6564207468726f7567682060448201526b19195b1959d85d1958d85b1b60a21b606482015260840161045b565b7f00000000000000000000000000000000000000000000000000000000000000006001600160a01b0316610c487f360894a13ba1a3210667c828492db98dca3e2076cc3735a920a3ca505d382bbc546001600160a01b031690565b6001600160a01b031614610cb35760405162461bcd60e51b815260206004820152602c60248201527f46756e6374696f6e206d7573742062652063616c6c6564207468726f7567682060448201526b6163746976652070726f787960a01b606482015260840161045b565b610cbc8261170f565b610cc882826001611717565b5050565b6000306001600160a01b037f00000000000000000000000000000000000000000000000000000000000000001614610d6c5760405162461bcd60e51b815260206004820152603860248201527f555550535570677261646561626c653a206d757374206e6f742062652063616c60448201527f6c6564207468726f7567682064656c656761746563616c6c0000000000000000606482015260840161045b565b507f360894a13ba1a3210667c828492db98dca3e2076cc3735a920a3ca505d382bbc90565b805160609060008167ffffffffffffffff811115610db157610db1612b0a565b604051908082528060200260200182016040528015610dea57816020015b610dd761296f565b815260200190600190039081610dcf5790505b50905060005b82811015610ea757848181518110610e0a57610e0a612fef565b60200260200101516001600160a01b0316631865c57d6040518163ffffffff1660e01b8152600401600060405180830381865afa158015610e4f573d6000803e3d6000fd5b505050506040513d6000823e601f3d908101601f19168201604052610e779190810190613099565b828281518110610e8957610e89612fef565b60200260200101819052508080610e9f906131d6565b915050610df0565b509392505050565b610eb76118b7565b6108746000611b27565b610ec96118b7565b610874611b86565b6000610edb611bc3565b600080610ee788611c16565b9092509050610f016001600160a01b03891633308a611c99565b61012d5487906001600160a01b038a81166401000000009092041614610fba57610f356001600160a01b038a16848a611d50565b604051636e0b1ea760e11b81526004810189905260ff8316602482015260006044820152606481018890526001600160a01b0384169063dc163d4e906084016020604051808303816000875af1158015610f93573d6000803e3d6000fd5b505050506040513d601f19601f82011682018060405250810190610fb791906131ef565b90505b61012e5461012d54610fe1916001600160a01b036401000000009092048216911683611d50565b60001961ffff8716016110b95761012e5461012d546040517f0f5287b00000000000000000000000000000000000000000000000000000000081526001600160a01b0364010000000083048116600483015260248201859052600160448301526064820189905260006084830181905263ffffffff90931660a483015291929190911690630f5287b09060c4016020604051808303816000875af115801561108d573d6000803e3d6000fd5b505050506040513d601f19601f820116820180604052508101906110b19190613220565b9450506111b8565b600061110486604080517f0100000000000000000000000000000000000000000000000000000000000000602082015260218082019390935281518082039093018352604101905290565b61012e5461012d546040517fc5a5ebda00000000000000000000000000000000000000000000000000000000815292935030926001600160a01b039283169263c5a5ebda926111709264010000000082049092169188918e91889163ffffffff16908a90600401613293565b6020604051808303816000875af115801561118f573d6000803e3d6000fd5b505050506040513d601f19601f820116820180604052508101906111b39190613220565b955050505b61012d80546000906111cf9063ffffffff166132e3565b825463ffffffff9182166101009390930a92830291909202199091161790556040805167ffffffffffffffff861681526001600160a01b038b16602082015290810189905233907f3d75c465c33301aa387417fd1ee8a2d936ac3157c21ac3eccbd830b1a4609faa9060600160405180910390a250505095945050505050565b60008061125a611bc3565b61012e5460405163c3f511c160e01b81526000916001600160a01b03169063c3f511c19061128c908990600401613306565b6000604051808303816000875af11580156112ab573d6000803e3d6000fd5b505050506040513d6000823e601f3d908101601f191682016040526112d3919081019061335e565b90506112de81611e9e565b6112e781611f0a565b6001600160a01b0316336001600160a01b031614611361576040517fa2bd777200000000000000000000000000000000000000000000000000000000815260206004820152601860248201527f53656e646572206973206e6f7420746865206f776e6572210000000000000000604482015260640161045b565b61136d86338787611f1f565b9250925050935093915050565b6113826118b7565b6001600160a01b0381166113fe5760405162461bcd60e51b815260206004820152602660248201527f4f776e61626c653a206e6577206f776e657220697320746865207a65726f206160448201527f6464726573730000000000000000000000000000000000000000000000000000606482015260840161045b565b61054f81611b27565b600080611412611bc3565b61012e5460405163c3f511c160e01b81526000916001600160a01b03169063c3f511c190611444908790600401613306565b6000604051808303816000875af1158015611463573d6000803e3d6000fd5b505050506040513d6000823e601f3d908101601f1916820160405261148b919081019061335e565b905061149681611e9e565b60006114a182611f0a565b90506000806114af846121be565b9150915060006114be83612224565b90506114cc88858385611f1f565b965096505050505050915091565b60006114e4611bc3565b6000806114f088611c16565b9150915060008061150087611c16565b909250905061151a6001600160a01b038b1633308c611c99565b61012d548995506001600160a01b038b811664010000000090920416146115d45761154f6001600160a01b038b16858b611d50565b604051636e0b1ea760e11b8152600481018a905260ff8416602482015260006044820181905260648201526001600160a01b0385169063dc163d4e906084016020604051808303816000875af11580156115ad573d6000803e3d6000fd5b505050506040513d601f19601f820116820180604052508101906115d191906131ef565b94505b61012d546001600160a01b0388811664010000000090920416146116975761012d546116129064010000000090046001600160a01b03168387611d50565b604051636e0b1ea760e11b8152600481018690526000602482015260ff82166044820152606481018790526001600160a01b0383169063dc163d4e906084016020604051808303816000875af1158015611670573d6000803e3d6000fd5b505050506040513d601f19601f8201168201806040525081019061169491906131ef565b94505b6116ab6001600160a01b0388168987612282565b866001600160a01b03168a6001600160a01b0316896001600160a01b03167ff2e2a58c01dc9b89916a15f9d426d4df34390782f1fc1786a7ae826bc414abd9886040516116fa91815260200190565b60405180910390a45050505095945050505050565b61054f6118b7565b7f4910fdfa16fed3260ed0e7147f7cc6da11a60208b5b9406d12a635614ffd91435460ff161561174a57610b5b836122cb565b826001600160a01b03166352d1902d6040518163ffffffff1660e01b8152600401602060405180830381865afa9250505080156117a4575060408051601f3d908101601f191682019092526117a1918101906131ef565b60015b6118165760405162461bcd60e51b815260206004820152602e60248201527f45524331393637557067726164653a206e657720696d706c656d656e7461746960448201527f6f6e206973206e6f742055555053000000000000000000000000000000000000606482015260840161045b565b7f360894a13ba1a3210667c828492db98dca3e2076cc3735a920a3ca505d382bbc81146118ab5760405162461bcd60e51b815260206004820152602960248201527f45524331393637557067726164653a20756e737570706f727465642070726f7860448201527f6961626c65555549440000000000000000000000000000000000000000000000606482015260840161045b565b50610b5b838383612396565b6065546001600160a01b031633146108745760405162461bcd60e51b815260206004820181905260248201527f4f776e61626c653a2063616c6c6572206973206e6f7420746865206f776e6572604482015260640161045b565b6119196123bb565b6033805460ff191690557f5db9ee0a495bf2e6ff9c91a7834c1ba4fdd244a5e8aa4e537bd38aeae4b073aa335b6040516001600160a01b03909116815260200160405180910390a1565b600054610100900460ff166119ce5760405162461bcd60e51b815260206004820152602b60248201527f496e697469616c697a61626c653a20636f6e7472616374206973206e6f74206960448201526a6e697469616c697a696e6760a81b606482015260840161045b565b61087461240d565b600054610100900460ff16611a415760405162461bcd60e51b815260206004820152602b60248201527f496e697469616c697a61626c653a20636f6e7472616374206973206e6f74206960448201526a6e697469616c697a696e6760a81b606482015260840161045b565b610874612484565b600054610100900460ff166108745760405162461bcd60e51b815260206004820152602b60248201527f496e697469616c697a61626c653a20636f6e7472616374206973206e6f74206960448201526a6e697469616c697a696e6760a81b606482015260840161045b565b600054610100900460ff16611b1f5760405162461bcd60e51b815260206004820152602b60248201527f496e697469616c697a61626c653a20636f6e7472616374206973206e6f74206960448201526a6e697469616c697a696e6760a81b606482015260840161045b565b6108746124f8565b606580546001600160a01b0383811673ffffffffffffffffffffffffffffffffffffffff19831681179093556040519116919082907f8be0079c531659141344cd1fd0a4f28419497f9722a3daafe3b4186f6b6457e090600090a35050565b611b8e611bc3565b6033805460ff191660011790557f62e78cea01bee320cd4e420270b5ea74000d11b0c9f74754ebdbfc544b05a2586119463390565b60335460ff16156108745760405162461bcd60e51b815260206004820152601060248201527f5061757361626c653a2070617573656400000000000000000000000000000000604482015260640161045b565b6001600160a01b038082166000908152610131602052604081206001810154919283921680611c6d5760405163237851e160e21b81526bffffffffffffffffffffffff19606087901b16600482015260240161045b565b6001919091015490947401000000000000000000000000000000000000000090910460ff169350915050565b6040516001600160a01b0380851660248301528316604482015260648101829052611d4a9085907f23b872dd00000000000000000000000000000000000000000000000000000000906084015b60408051601f198184030181529190526020810180517bffffffffffffffffffffffffffffffffffffffffffffffffffffffff167fffffffff000000000000000000000000000000000000000000000000000000009093169290921790915261256a565b50505050565b801580611de357506040517fdd62ed3e0000000000000000000000000000000000000000000000000000000081523060048201526001600160a01b03838116602483015284169063dd62ed3e90604401602060405180830381865afa158015611dbd573d6000803e3d6000fd5b505050506040513d601f19601f82011682018060405250810190611de191906131ef565b155b611e555760405162461bcd60e51b815260206004820152603660248201527f5361666545524332303a20617070726f76652066726f6d206e6f6e2d7a65726f60448201527f20746f206e6f6e2d7a65726f20616c6c6f77616e636500000000000000000000606482015260840161045b565b6040516001600160a01b038316602482015260448101829052610b5b9084907f095ea7b30000000000000000000000000000000000000000000000000000000090606401611ce6565b611eb381611eae60016000613393565b61264f565b600160ff1681600081518110611ecb57611ecb612fef565b016020015160f81c1461054f576040517fa9146eeb00000000000000000000000000000000000000000000000000000000815260040160405180910390fd5b6000611f1782602161264f565b506021015190565b600080600080611f2e86611c16565b61012d546040517f70a082310000000000000000000000000000000000000000000000000000000081523060048201529294509092506000916401000000009091046001600160a01b0316906370a0823190602401602060405180830381865afa158015611fa0573d6000803e3d6000fd5b505050506040513d601f19601f82011682018060405250810190611fc491906131ef565b61012d548796508895509091506001600160a01b0380861664010000000090920416146120af5761012d5461200b9064010000000090046001600160a01b03168483611d50565b604051636e0b1ea760e11b8152600481018290526000602482015260ff83166044820152606481018790526001600160a01b0384169063dc163d4e906084016020604051808303816000875af1925050508015612085575060408051601f3d908101601f19168201909252612082918101906131ef565b60015b6120a95761012d5490945064010000000090046001600160a01b03169250836120af565b94508693505b6120c36001600160a01b0388168987612282565b61012f546040517fa9e118930000000000000000000000000000000000000000000000000000000081526000916001600160a01b03169063a9e118939061210e908d90600401613306565b600060405180830381865afa15801561212b573d6000803e3d6000fd5b505050506040513d6000823e601f3d908101601f19168201604052612153919081019061347a565b60a001516040805167ffffffffffffffff831681526001600160a01b0388811660208301529181018990529192508a16907f9634e0407482c730e10f73eecc33308988a787cbb548b5585ff97fdebf9fd3cd9060600160405180910390a25050505094509492505050565b6000806121cc83604361264f565b8251600090849060229081106121e4576121e4612fef565b0160200151845160f89190911c906008908690602190811061220857612208612fef565b01602001516043969096015160f89690961c901b019492505050565b61ffff8116600090815261013060205260408120546201000090046001600160a01b03168061227c5760405163237851e160e21b81526dffff000000000000000000000000606085901b16600482015260240161045b565b92915050565b6040516001600160a01b038316602482015260448101829052610b5b9084907fa9059cbb0000000000000000000000000000000000000000000000000000000090606401611ce6565b6001600160a01b0381163b6123485760405162461bcd60e51b815260206004820152602d60248201527f455243313936373a206e657720696d706c656d656e746174696f6e206973206e60448201527f6f74206120636f6e747261637400000000000000000000000000000000000000606482015260840161045b565b7f360894a13ba1a3210667c828492db98dca3e2076cc3735a920a3ca505d382bbc805473ffffffffffffffffffffffffffffffffffffffff19166001600160a01b0392909216919091179055565b61239f8361268a565b6000825111806123ac5750805b15610b5b57611d4a83836126ca565b60335460ff166108745760405162461bcd60e51b815260206004820152601460248201527f5061757361626c653a206e6f7420706175736564000000000000000000000000604482015260640161045b565b600054610100900460ff166124785760405162461bcd60e51b815260206004820152602b60248201527f496e697469616c697a61626c653a20636f6e7472616374206973206e6f74206960448201526a6e697469616c697a696e6760a81b606482015260840161045b565b6033805460ff19169055565b600054610100900460ff166124ef5760405162461bcd60e51b815260206004820152602b60248201527f496e697469616c697a61626c653a20636f6e7472616374206973206e6f74206960448201526a6e697469616c697a696e6760a81b606482015260840161045b565b61087433611b27565b600054610100900460ff166125635760405162461bcd60e51b815260206004820152602b60248201527f496e697469616c697a61626c653a20636f6e7472616374206973206e6f74206960448201526a6e697469616c697a696e6760a81b606482015260840161045b565b600160fb55565b60006125bf826040518060400160405280602081526020017f5361666545524332303a206c6f772d6c6576656c2063616c6c206661696c6564815250856001600160a01b03166127d59092919063ffffffff16565b805190915015610b5b57808060200190518101906125dd919061359f565b610b5b5760405162461bcd60e51b815260206004820152602a60248201527f5361666545524332303a204552433230206f7065726174696f6e20646964206e60448201527f6f74207375636365656400000000000000000000000000000000000000000000606482015260840161045b565b8082511015610cc8576040517f82e6504400000000000000000000000000000000000000000000000000000000815260040160405180910390fd5b612693816122cb565b6040516001600160a01b038216907fbc7cd75a20ee27fd9adebab32041f755214dbc6bffa90cc0225b39da2e5c2d3b90600090a250565b60606001600160a01b0383163b6127495760405162461bcd60e51b815260206004820152602660248201527f416464726573733a2064656c65676174652063616c6c20746f206e6f6e2d636f60448201527f6e74726163740000000000000000000000000000000000000000000000000000606482015260840161045b565b600080846001600160a01b03168460405161276491906135ba565b600060405180830381855af49150503d806000811461279f576040519150601f19603f3d011682016040523d82523d6000602084013e6127a4565b606091505b50915091506127cc82826040518060600160405280602781526020016135d7602791396127ee565b95945050505050565b60606127e48484600085612827565b90505b9392505050565b606083156127fd5750816127e7565b82511561280d5782518084602001fd5b8160405162461bcd60e51b815260040161045b9190613306565b60608247101561289f5760405162461bcd60e51b815260206004820152602660248201527f416464726573733a20696e73756666696369656e742062616c616e636520666f60448201527f722063616c6c0000000000000000000000000000000000000000000000000000606482015260840161045b565b6001600160a01b0385163b6128f65760405162461bcd60e51b815260206004820152601d60248201527f416464726573733a2063616c6c20746f206e6f6e2d636f6e7472616374000000604482015260640161045b565b600080866001600160a01b0316858760405161291291906135ba565b60006040518083038185875af1925050503d806000811461294f576040519150601f19603f3d011682016040523d82523d6000602084013e612954565b606091505b50915091506129648282866127ee565b979650505050505050565b6040518060c00160405280600015158152602001606081526020016129b0604051806040016040528060006001600160a01b03168152602001600081525090565b81526020016129d5604051806040016040528060008152602001600060ff1681525090565b81526020016129fa604051806040016040528060008152602001600060ff1681525090565b8152602001612a1f604051806040016040528060008152602001600060ff1681525090565b905290565b6001600160a01b038116811461054f57600080fd5b600060208284031215612a4b57600080fd5b81356127e781612a24565b61ffff8116811461054f57600080fd5b60ff8116811461054f57600080fd5b60008060008060808587031215612a8b57600080fd5b8435612a9681612a56565b93506020850135612aa681612a24565b92506040850135612ab681612a24565b91506060850135612ac681612a66565b939692955090935050565b60008060408385031215612ae457600080fd5b8235612aef81612a24565b91506020830135612aff81612a24565b809150509250929050565b634e487b7160e01b600052604160045260246000fd5b6040805190810167ffffffffffffffff81118282101715612b4357612b43612b0a565b60405290565b60405160c0810167ffffffffffffffff81118282101715612b4357612b43612b0a565b6040516080810167ffffffffffffffff81118282101715612b4357612b43612b0a565b604051610160810167ffffffffffffffff81118282101715612b4357612b43612b0a565b604051601f8201601f1916810167ffffffffffffffff81118282101715612bdc57612bdc612b0a565b604052919050565b600067ffffffffffffffff821115612bfe57612bfe612b0a565b50601f01601f191660200190565b600082601f830112612c1d57600080fd5b8135612c30612c2b82612be4565b612bb3565b818152846020838601011115612c4557600080fd5b816020850160208301376000918101602001919091529392505050565b60008060408385031215612c7557600080fd5b8235612c8081612a24565b9150602083013567ffffffffffffffff811115612c9c57600080fd5b612ca885828601612c0c565b9150509250929050565b600067ffffffffffffffff821115612ccc57612ccc612b0a565b5060051b60200190565b60006020808385031215612ce957600080fd5b823567ffffffffffffffff811115612d0057600080fd5b8301601f81018513612d1157600080fd5b8035612d1f612c2b82612cb2565b81815260059190911b82018301908381019087831115612d3e57600080fd5b928401925b82841015612964578335612d5681612a24565b82529284019290840190612d43565b60006020808301818452808551808352604092508286019150828160051b8701018488016000805b84811015612e9057898403603f190186528251805115158552888101516101408a870181905281519087018190526101608701918b019085905b80821015612e0157612ded84845180516001600160a01b03168252602090810151910152565b928b0192918c019160019190910190612dc7565b50505088820151612e278a88018280516001600160a01b03168252602090810151910152565b5060608201516080612e48818901838051825260209081015160ff16910152565b830151805160c089015260209081015160ff90811660e08a015260a09094015180516101008a0152015190921661012090960195909552509487019491870191600101612d8d565b50919998505050505050505050565b600080600080600060a08688031215612eb757600080fd5b8535612ec281612a24565b945060208601359350604086013592506060860135612ee081612a56565b949793965091946080013592915050565b600080600060608486031215612f0657600080fd5b833567ffffffffffffffff811115612f1d57600080fd5b612f2986828701612c0c565b9350506020840135612f3a81612a24565b929592945050506040919091013590565b600060208284031215612f5d57600080fd5b813567ffffffffffffffff811115612f7457600080fd5b612f8084828501612c0c565b949350505050565b600080600080600060a08688031215612fa057600080fd5b8535612fab81612a24565b9450602086013593506040860135612fc281612a24565b92506060860135612ee081612a24565b600060208284031215612fe457600080fd5b81516127e781612a24565b634e487b7160e01b600052603260045260246000fd5b8051801515811461301557600080fd5b919050565b60006040828403121561302c57600080fd5b613034612b20565b9050815161304181612a24565b808252506020820151602082015292915050565b805161301581612a66565b60006040828403121561307257600080fd5b61307a612b20565b905081518152602082015161308e81612a66565b602082015292915050565b600060208083850312156130ac57600080fd5b825167ffffffffffffffff808211156130c457600080fd5b9084019061014082870312156130d957600080fd5b6130e1612b49565b6130ea83613005565b815283830151828111156130fd57600080fd5b83019150601f8201871361311057600080fd5b815161311e612c2b82612cb2565b81815260069190911b8301850190858101908983111561313d57600080fd5b938601935b82851015613166576131548a8661301a565b82528682019150604085019450613142565b838701525061317a9050876040850161301a565b604082015261318c8760808501613060565b606082015261319e8760c08501613060565b60808201526131b1876101008501613060565b60a08201529695505050505050565b634e487b7160e01b600052601160045260246000fd5b6000600182016131e8576131e86131c0565b5060010190565b60006020828403121561320157600080fd5b5051919050565b805167ffffffffffffffff8116811461301557600080fd5b60006020828403121561323257600080fd5b6127e782613208565b60005b8381101561325657818101518382015260200161323e565b83811115611d4a5750506000910152565b6000815180845261327f81602086016020860161323b565b601f01601f19169290920160200192915050565b6001600160a01b038716815285602082015261ffff8516604082015283606082015263ffffffff8316608082015260c060a082015260006132d760c0830184613267565b98975050505050505050565b600063ffffffff8083168181036132fc576132fc6131c0565b6001019392505050565b6020815260006127e76020830184613267565b600082601f83011261332a57600080fd5b8151613338612c2b82612be4565b81815284602083860101111561334d57600080fd5b612f8082602083016020870161323b565b60006020828403121561337057600080fd5b815167ffffffffffffffff81111561338757600080fd5b612f8084828501613319565b600082198211156133a6576133a66131c0565b500190565b805163ffffffff8116811461301557600080fd5b805161301581612a56565b600082601f8301126133db57600080fd5b815160206133eb612c2b83612cb2565b82815260079290921b8401810191818101908684111561340a57600080fd5b8286015b8481101561346f57608081890312156134275760008081fd5b61342f612b6c565b81518152848201518582015260408083015161344a81612a66565b9082015260608281015161345d81612a66565b9082015283529183019160800161340e565b509695505050505050565b60006020828403121561348c57600080fd5b815167ffffffffffffffff808211156134a457600080fd5b9083019061016082860312156134b957600080fd5b6134c1612b8f565b6134ca83613055565b81526134d8602084016133ab565b60208201526134e9604084016133ab565b60408201526134fa606084016133bf565b60608201526080830151608082015261351560a08401613208565b60a082015261352660c08401613055565b60c082015260e08301518281111561353d57600080fd5b61354987828601613319565b60e08301525061010061355d8185016133ab565b90820152610120838101518381111561357557600080fd5b613581888287016133ca565b91830191909152506101409283015192810192909252509392505050565b6000602082840312156135b157600080fd5b6127e782613005565b600082516135cc81846020870161323b565b919091019291505056fe416464726573733a206c6f772d6c6576656c2064656c65676174652063616c6c206661696c6564a264697066735822122006f479fdceb0dfb988c16cc669a34393e7c1617b00a911234789fe9173e11cad64736f6c634300080f0033"
}