{
  "_format": "hh-sol-artifact-1",
  "contractName": "BlankLogic",
  "sourceName": "contracts/BlankLogic.sol",
  "abi": [
    {
      "anonymous": false,
      "inputs": [
        {
          "indexed": false,
          "internalType": "address",
          "name": "previousAdmin",
          "type": "address"
        },
        {
          "indexed": false,
          "internalType": "address",
          "name": "newAdmin",
          "type": "address"
        }
      ],
      "name": "AdminChanged",
      "type": "event"
    },
    {
      "anonymous": false,
      "inputs": [
        {
          "indexed": true,
          "internalType": "address",
          "name": "beacon",
          "type": "address"
        }
      ],
      "name": "BeaconUpgraded",
      "type": "event"
    },
    {
      "anonymous": false,
      "inputs": [
        {
          "indexed": true,
          "internalType": "address",
          "name": "implementation",
          "type": "address"
        }
      ],
      "name": "Upgraded",
      "type": "event"
    },
    {
      "inputs": [],
      "name": "proxiableUUID",
      "outputs": [
        {
          "internalType": "bytes32",
          "name": "",
          "type": "bytes32"
        }
      ],
      "stateMutability": "view",
      "type": "function"
    },
    {
      "inputs": [
        {
          "internalType": "address",
          "name": "newImplementation",
          "type": "address"
        }
      ],
      "name": "upgradeTo",
      "outputs": [],
      "stateMutability": "nonpayable",
      "type": "function"
    },
    {
      "inputs": [
        {
          "internalType": "address",
          "name": "newImplementation",
          "type": "address"
        },
        {
          "internalType": "bytes",
          "name": "data",
          "type": "bytes"
        }
      ],
      "name": "upgradeToAndCall",
      "outputs": [],
      "stateMutability": "payable",
      "type": "function"
    }
  ],
  "bytecode": "0x60a06040523060805234801561001457600080fd5b50608051610a9d61004b6000396000818160a00152818161012a015281816102180152818161029d015261037e0152610a9d6000f3fe6080604052600436106100345760003560e01c80633659cfe6146100395780634f1ef2861461005b57806352d1902d1461006e575b600080fd5b34801561004557600080fd5b506100596100543660046108a0565b610095565b005b6100596100693660046108ea565b61020d565b34801561007a57600080fd5b50610083610371565b60405190815260200160405180910390f35b306001600160a01b037f00000000000000000000000000000000000000000000000000000000000000001614156101285760405162461bcd60e51b815260206004820152602c60248201527f46756e6374696f6e206d7573742062652063616c6c6564207468726f7567682060448201526b19195b1959d85d1958d85b1b60a21b60648201526084015b60405180910390fd5b7f00000000000000000000000000000000000000000000000000000000000000006001600160a01b03166101837f360894a13ba1a3210667c828492db98dca3e2076cc3735a920a3ca505d382bbc546001600160a01b031690565b6001600160a01b0316146101ee5760405162461bcd60e51b815260206004820152602c60248201527f46756e6374696f6e206d7573742062652063616c6c6564207468726f7567682060448201526b6163746976652070726f787960a01b606482015260840161011f565b6040805160008082526020820190925261020a91839190610436565b50565b306001600160a01b037f000000000000000000000000000000000000000000000000000000000000000016141561029b5760405162461bcd60e51b815260206004820152602c60248201527f46756e6374696f6e206d7573742062652063616c6c6564207468726f7567682060448201526b19195b1959d85d1958d85b1b60a21b606482015260840161011f565b7f00000000000000000000000000000000000000000000000000000000000000006001600160a01b03166102f67f360894a13ba1a3210667c828492db98dca3e2076cc3735a920a3ca505d382bbc546001600160a01b031690565b6001600160a01b0316146103615760405162461bcd60e51b815260206004820152602c60248201527f46756e6374696f6e206d7573742062652063616c6c6564207468726f7567682060448201526b6163746976652070726f787960a01b606482015260840161011f565b61036d82826001610436565b5050565b6000306001600160a01b037f000000000000000000000000000000000000000000000000000000000000000016146104115760405162461bcd60e51b815260206004820152603860248201527f555550535570677261646561626c653a206d757374206e6f742062652063616c60448201527f6c6564207468726f7567682064656c656761746563616c6c0000000000000000606482015260840161011f565b507f360894a13ba1a3210667c828492db98dca3e2076cc3735a920a3ca505d382bbc90565b7f4910fdfa16fed3260ed0e7147f7cc6da11a60208b5b9406d12a635614ffd91435460ff161561046e57610469836105ea565b505050565b826001600160a01b03166352d1902d6040518163ffffffff1660e01b815260040160206040518083038186803b1580156104a757600080fd5b505afa9250505080156104d7575060408051601f3d908101601f191682019092526104d4918101906109ac565b60015b6105495760405162461bcd60e51b815260206004820152602e60248201527f45524331393637557067726164653a206e657720696d706c656d656e7461746960448201527f6f6e206973206e6f742055555053000000000000000000000000000000000000606482015260840161011f565b7f360894a13ba1a3210667c828492db98dca3e2076cc3735a920a3ca505d382bbc81146105de5760405162461bcd60e51b815260206004820152602960248201527f45524331393637557067726164653a20756e737570706f727465642070726f7860448201527f6961626c65555549440000000000000000000000000000000000000000000000606482015260840161011f565b506104698383836106c0565b6001600160a01b0381163b6106675760405162461bcd60e51b815260206004820152602d60248201527f455243313936373a206e657720696d706c656d656e746174696f6e206973206e60448201527f6f74206120636f6e747261637400000000000000000000000000000000000000606482015260840161011f565b7f360894a13ba1a3210667c828492db98dca3e2076cc3735a920a3ca505d382bbc80547fffffffffffffffffffffffff0000000000000000000000000000000000000000166001600160a01b0392909216919091179055565b6106c9836106eb565b6000825111806106d65750805b15610469576106e5838361072b565b50505050565b6106f4816105ea565b6040516001600160a01b038216907fbc7cd75a20ee27fd9adebab32041f755214dbc6bffa90cc0225b39da2e5c2d3b90600090a250565b60606107508383604051806060016040528060278152602001610a4160279139610757565b9392505050565b60606001600160a01b0384163b6107d65760405162461bcd60e51b815260206004820152602660248201527f416464726573733a2064656c65676174652063616c6c20746f206e6f6e2d636f60448201527f6e74726163740000000000000000000000000000000000000000000000000000606482015260840161011f565b600080856001600160a01b0316856040516107f191906109f1565b600060405180830381855af49150503d806000811461082c576040519150601f19603f3d011682016040523d82523d6000602084013e610831565b606091505b509150915061084182828661084b565b9695505050505050565b6060831561085a575081610750565b82511561086a5782518084602001fd5b8160405162461bcd60e51b815260040161011f9190610a0d565b80356001600160a01b038116811461089b57600080fd5b919050565b6000602082840312156108b257600080fd5b61075082610884565b7f4e487b7100000000000000000000000000000000000000000000000000000000600052604160045260246000fd5b600080604083850312156108fd57600080fd5b61090683610884565b9150602083013567ffffffffffffffff8082111561092357600080fd5b818501915085601f83011261093757600080fd5b813581811115610949576109496108bb565b604051601f8201601f19908116603f01168101908382118183101715610971576109716108bb565b8160405282815288602084870101111561098a57600080fd5b8260208601602083013760006020848301015280955050505050509250929050565b6000602082840312156109be57600080fd5b5051919050565b60005b838110156109e05781810151838201526020016109c8565b838111156106e55750506000910152565b60008251610a038184602087016109c5565b9190910192915050565b6020815260008251806020840152610a2c8160408501602087016109c5565b601f01601f1916919091016040019291505056fe416464726573733a206c6f772d6c6576656c2064656c65676174652063616c6c206661696c6564a2646970667358221220570b1cb83bff365199987f95f3adeb77cf4da4e61cf7ecbde2a5c2e314cfc5bd64736f6c63430008090033",
  "linkReferences": {},
  "deployedLinkReferences": {}
}