{
  "address": "0x9fE46736679d2D9a65F0992F2272dE9f3c7fa6e0",
  "abi": [
    {
      "inputs": [
        {
          "internalType": "bytes",
          "name": "encodedVm",
          "type": "bytes"
        }
      ],
      "name": "completeTransferWithPayload",
      "outputs": [
        {
          "internalType": "bytes",
          "name": "",
          "type": "bytes"
        }
      ],
      "stateMutability": "nonpayable",
      "type": "function"
    },
    {
      "inputs": [
        {
          "internalType": "address",
          "name": "token",
          "type": "address"
        },
        {
          "internalType": "uint256",
          "name": "amount",
          "type": "uint256"
        },
        {
          "internalType": "uint16",
          "name": "recipientChain",
          "type": "uint16"
        },
        {
          "internalType": "bytes32",
          "name": "recipient",
          "type": "bytes32"
        },
        {
          "internalType": "uint256",
          "name": "arbiterFee",
          "type": "uint256"
        },
        {
          "internalType": "uint32",
          "name": "nonce",
          "type": "uint32"
        }
      ],
      "name": "transferTokens",
      "outputs": [
        {
          "internalType": "uint64",
          "name": "sequence",
          "type": "uint64"
        }
      ],
      "stateMutability": "payable",
      "type": "function"
    },
    {
      "inputs": [
        {
          "internalType": "address",
          "name": "token",
          "type": "address"
        },
        {
          "internalType": "uint256",
          "name": "amount",
          "type": "uint256"
        },
        {
          "internalType": "uint16",
          "name": "recipientChain",
          "type": "uint16"
        },
        {
          "internalType": "bytes32",
          "name": "recipient",
          "type": "bytes32"
        },
        {
          "internalType": "uint32",
          "name": "nonce",
          "type": "uint32"
        },
        {
          "internalType": "bytes",
          "name": "payload",
          "type": "bytes"
        }
      ],
      "name": "transferTokensWithPayload",
      "outputs": [
        {
          "internalType": "uint64",
          "name": "",
          "type": "uint64"
        }
      ],
      "stateMutability": "payable",
      "type": "function"
    },
    {
      "inputs": [],
      "name": "wormhole",
      "outputs": [
        {
          "internalType": "contract IWormhole",
          "name": "",
          "type": "address"
        }
      ],
      "stateMutability": "view",
      "type": "function"
    },
    {
      "inputs": [
        {
          "internalType": "uint16",
          "name": "tokenChainId",
          "type": "uint16"
        },
        {
          "internalType": "bytes32",
          "name": "tokenAddress",
          "type": "bytes32"
        }
      ],
      "name": "wrappedAsset",
      "outputs": [
        {
          "internalType": "address",
          "name": "",
          "type": "address"
        }
      ],
      "stateMutability": "view",
      "type": "function"
    }
  ],
  "transactionHash": "0xb91b2e6846bb3f81c3da26524eb6e7ad7b6cdc8f9082dfaa08403dc584facb0e",
  "args": [],
  "numDeployments": 1,
  "solcInputHash": "62b001b8c55a294546ddda26ced5f212",
  "bytecode": "0x608060405234801561001057600080fd5b50610470806100206000396000f3fe60806040526004361061005a5760003560e01c806384acd1bb1161004357806384acd1bb146100f2578063c3f511c114610119578063c5a5ebda1461017957600080fd5b80630f5287b01461005f5780631ff1e28614610097575b600080fd5b61007961006d3660046101e2565b60409695505050505050565b60405167ffffffffffffffff90911681526020015b60405180910390f35b3480156100a357600080fd5b506100cd6100b2366004610241565b738626f6940e2eb28930efb4cef49b2d1f2c9c119992915050565b60405173ffffffffffffffffffffffffffffffffffffffff909116815260200161008e565b3480156100fe57600080fd5b5073c89ce4735882c9f0f0fe26686c53074e09b0d5506100cd565b34801561012557600080fd5b5061016c610134366004610327565b5060408051808201909152600481527f0102030400000000000000000000000000000000000000000000000000000000602082015290565b60405161008e9190610364565b6100796101873660046103b9565b60649695505050505050565b803573ffffffffffffffffffffffffffffffffffffffff811681146101b757600080fd5b919050565b803561ffff811681146101b757600080fd5b803563ffffffff811681146101b757600080fd5b60008060008060008060c087890312156101fb57600080fd5b61020487610193565b955060208701359450610219604088016101bc565b9350606087013592506080870135915061023560a088016101ce565b90509295509295509295565b6000806040838503121561025457600080fd5b61025d836101bc565b946020939093013593505050565b7f4e487b7100000000000000000000000000000000000000000000000000000000600052604160045260246000fd5b600082601f8301126102ab57600080fd5b813567ffffffffffffffff808211156102c6576102c661026b565b604051601f8301601f19908116603f011681019082821181831017156102ee576102ee61026b565b8160405283815286602085880101111561030757600080fd5b836020870160208301376000602085830101528094505050505092915050565b60006020828403121561033957600080fd5b813567ffffffffffffffff81111561035057600080fd5b61035c8482850161029a565b949350505050565b600060208083528351808285015260005b8181101561039157858101830151858201604001528201610375565b818111156103a3576000604083870101525b50601f01601f1916929092016040019392505050565b60008060008060008060c087890312156103d257600080fd5b6103db87610193565b9550602087013594506103f0604088016101bc565b935060608701359250610405608088016101ce565b915060a087013567ffffffffffffffff81111561042157600080fd5b61042d89828a0161029a565b915050929550929550929556fea264697066735822122080cd52e77e5b18512fcf8cd2167b9c502a5f26569f11e7e8f7c217c7562ebe2364736f6c63430008090033",
  "devdoc": {
    "kind": "dev",
    "methods": {},
    "version": 1
  },
  "userdoc": {
    "kind": "user",
    "methods": {},
    "version": 1
  },
  "storageLayout": {
    "storage": [],
    "types": null
  }
}