{
  "address": "0xe7f1725E7734CE288F8367e1Bb143E90bb3F0512",
  "abi": [
    {
      "inputs": [],
      "name": "CenterAlignment_NumericOverflow",
      "type": "error"
    },
    {
      "inputs": [
        {
          "internalType": "uint256",
          "name": "value",
          "type": "uint256"
        },
        {
          "internalType": "int8",
          "name": "equalizer",
          "type": "int8"
        }
      ],
      "name": "Equalize_LosingAllPrecision",
      "type": "error"
    },
    {
      "inputs": [
        {
          "internalType": "uint256",
          "name": "amount",
          "type": "uint256"
        },
        {
          "internalType": "int8",
          "name": "equalizer",
          "type": "int8"
        }
      ],
      "name": "Equalize_MaxAmountExceeded",
      "type": "error"
    },
    {
      "inputs": [
        {
          "internalType": "uint256",
          "name": "unknownBalance",
          "type": "uint256"
        }
      ],
      "name": "Invariant_UnknownBalanceTooLarge",
      "type": "error"
    },
    {
      "inputs": [],
      "name": "PoolMath_ImpossibleRemove",
      "type": "error"
    },
    {
      "inputs": [
        {
          "internalType": "uint8",
          "name": "count",
          "type": "uint8"
        },
        {
          "internalType": "uint8",
          "name": "expected",
          "type": "uint8"
        }
      ],
      "name": "Pool_AmountCountMismatch",
      "type": "error"
    },
    {
      "inputs": [
        {
          "internalType": "address",
          "name": "token",
          "type": "address"
        },
        {
          "internalType": "uint256",
          "name": "amount",
          "type": "uint256"
        },
        {
          "internalType": "uint256",
          "name": "poolbalance",
          "type": "uint256"
        }
      ],
      "name": "Pool_AmountExceedsSupply",
      "type": "error"
    },
    {
      "inputs": [],
      "name": "Pool_AmpFactorIsFixedForConstantProductPools",
      "type": "error"
    },
    {
      "inputs": [
        {
          "internalType": "uint32",
          "name": "current",
          "type": "uint32"
        },
        {
          "internalType": "uint32",
          "name": "target",
          "type": "uint32"
        },
        {
          "internalType": "uint32",
          "name": "threshold",
          "type": "uint32"
        }
      ],
      "name": "Pool_AmpFactorRelativeAdjustmentTooLarge",
      "type": "error"
    },
    {
      "inputs": [
        {
          "internalType": "uint32",
          "name": "target",
          "type": "uint32"
        },
        {
          "internalType": "uint32",
          "name": "minimum",
          "type": "uint32"
        }
      ],
      "name": "Pool_AmpFactorTargetTimestampTooSmall",
      "type": "error"
    },
    {
      "inputs": [
        {
          "internalType": "uint32",
          "name": "ampFactor",
          "type": "uint32"
        },
        {
          "internalType": "uint32",
          "name": "maximum",
          "type": "uint32"
        }
      ],
      "name": "Pool_AmpFactorTooLarge",
      "type": "error"
    },
    {
      "inputs": [
        {
          "internalType": "uint32",
          "name": "ampFactor",
          "type": "uint32"
        },
        {
          "internalType": "uint32",
          "name": "minimum",
          "type": "uint32"
        }
      ],
      "name": "Pool_AmpFactorTooSmall",
      "type": "error"
    },
    {
      "inputs": [
        {
          "internalType": "uint8",
          "name": "tokenCount",
          "type": "uint8"
        }
      ],
      "name": "Pool_ConstantProductNotSupportedForTokenCount",
      "type": "error"
    },
    {
      "inputs": [],
      "name": "Pool_GovernanceOnly",
      "type": "error"
    },
    {
      "inputs": [
        {
          "internalType": "uint8",
          "name": "missingAmountIndex",
          "type": "uint8"
        }
      ],
      "name": "Pool_InitialAddMustIncludeAllTokens",
      "type": "error"
    },
    {
      "inputs": [
        {
          "internalType": "uint8",
          "name": "tokenIndex",
          "type": "uint8"
        },
        {
          "internalType": "uint8",
          "name": "tokenCount",
          "type": "uint8"
        }
      ],
      "name": "Pool_InvalidTokenIndex",
      "type": "error"
    },
    {
      "inputs": [],
      "name": "Pool_IsPaused",
      "type": "error"
    },
    {
      "inputs": [],
      "name": "Pool_LpTokenInitializationFailed",
      "type": "error"
    },
    {
      "inputs": [
        {
          "internalType": "uint8",
          "name": "value",
          "type": "uint8"
        },
        {
          "internalType": "uint8",
          "name": "maximum",
          "type": "uint8"
        }
      ],
      "name": "Pool_MaxTokenCountExceeded",
      "type": "error"
    },
    {
      "inputs": [],
      "name": "Pool_NonZeroGovernanceFeeButNoRecipient",
      "type": "error"
    },
    {
      "inputs": [
        {
          "internalType": "uint8",
          "name": "tokenIndex",
          "type": "uint8"
        },
        {
          "internalType": "uint256",
          "name": "amount",
          "type": "uint256"
        }
      ],
      "name": "Pool_RequestedTokenAmountNotZero",
      "type": "error"
    },
    {
      "inputs": [
        {
          "internalType": "address",
          "name": "token",
          "type": "address"
        },
        {
          "internalType": "uint256",
          "name": "amount",
          "type": "uint256"
        },
        {
          "internalType": "uint256",
          "name": "threshold",
          "type": "uint256"
        }
      ],
      "name": "Pool_SlippageExceeded",
      "type": "error"
    },
    {
      "inputs": [
        {
          "internalType": "uint8",
          "name": "count",
          "type": "uint8"
        },
        {
          "internalType": "uint8",
          "name": "expected",
          "type": "uint8"
        }
      ],
      "name": "Pool_TokenEqualizerCountMismatch",
      "type": "error"
    },
    {
      "inputs": [
        {
          "internalType": "int8",
          "name": "equalizer",
          "type": "int8"
        },
        {
          "internalType": "int8",
          "name": "maximum",
          "type": "int8"
        }
      ],
      "name": "Pool_TokenEqualizerTooLarge",
      "type": "error"
    },
    {
      "inputs": [
        {
          "internalType": "int8",
          "name": "equalizer",
          "type": "int8"
        },
        {
          "internalType": "int8",
          "name": "minimum",
          "type": "int8"
        }
      ],
      "name": "Pool_TokenEqualizerTooSmall",
      "type": "error"
    },
    {
      "inputs": [
        {
          "internalType": "uint32",
          "name": "totalFee",
          "type": "uint32"
        },
        {
          "internalType": "uint32",
          "name": "maximum",
          "type": "uint32"
        }
      ],
      "name": "Pool_TotalFeeTooLarge",
      "type": "error"
    },
    {
      "anonymous": false,
      "inputs": [
        {
          "indexed": false,
          "internalType": "address",
          "name": "previousAdmin",
          "type": "address"
        },
        {
          "indexed": false,
          "internalType": "address",
          "name": "newAdmin",
          "type": "address"
        }
      ],
      "name": "AdminChanged",
      "type": "event"
    },
    {
      "anonymous": false,
      "inputs": [
        {
          "indexed": true,
          "internalType": "address",
          "name": "beacon",
          "type": "address"
        }
      ],
      "name": "BeaconUpgraded",
      "type": "event"
    },
    {
      "anonymous": false,
      "inputs": [
        {
          "indexed": false,
          "internalType": "uint8",
          "name": "version",
          "type": "uint8"
        }
      ],
      "name": "Initialized",
      "type": "event"
    },
    {
      "anonymous": false,
      "inputs": [
        {
          "indexed": true,
          "internalType": "address",
          "name": "implementation",
          "type": "address"
        }
      ],
      "name": "Upgraded",
      "type": "event"
    },
    {
      "inputs": [
        {
          "internalType": "uint256[]",
          "name": "inputAmounts",
          "type": "uint256[]"
        },
        {
          "internalType": "uint256",
          "name": "minimumMintAmount",
          "type": "uint256"
        }
      ],
      "name": "add",
      "outputs": [
        {
          "internalType": "uint256",
          "name": "mintAmount",
          "type": "uint256"
        }
      ],
      "stateMutability": "nonpayable",
      "type": "function"
    },
    {
      "inputs": [
        {
          "internalType": "uint32",
          "name": "targetValue",
          "type": "uint32"
        },
        {
          "internalType": "uint32",
          "name": "targetTimestamp",
          "type": "uint32"
        }
      ],
      "name": "adjustAmpFactor",
      "outputs": [],
      "stateMutability": "nonpayable",
      "type": "function"
    },
    {
      "inputs": [],
      "name": "ampInitialTimestamp",
      "outputs": [
        {
          "internalType": "uint32",
          "name": "",
          "type": "uint32"
        }
      ],
      "stateMutability": "view",
      "type": "function"
    },
    {
      "inputs": [],
      "name": "ampTargetTimestamp",
      "outputs": [
        {
          "internalType": "uint32",
          "name": "",
          "type": "uint32"
        }
      ],
      "stateMutability": "view",
      "type": "function"
    },
    {
      "inputs": [
        {
          "internalType": "address",
          "name": "_governanceFeeRecipient",
          "type": "address"
        }
      ],
      "name": "changeGovernanceFeeRecipient",
      "outputs": [],
      "stateMutability": "nonpayable",
      "type": "function"
    },
    {
      "inputs": [],
      "name": "getMarginalPrices",
      "outputs": [
        {
          "internalType": "uint256[]",
          "name": "",
          "type": "uint256[]"
        }
      ],
      "stateMutability": "view",
      "type": "function"
    },
    {
      "inputs": [],
      "name": "getState",
      "outputs": [
        {
          "components": [
            {
              "internalType": "bool",
              "name": "paused",
              "type": "bool"
            },
            {
              "components": [
                {
                  "internalType": "address",
                  "name": "tokenAddres",
                  "type": "address"
                },
                {
                  "internalType": "uint256",
                  "name": "balance",
                  "type": "uint256"
                }
              ],
              "internalType": "struct TokenBalance[]",
              "name": "balances",
              "type": "tuple[]"
            },
            {
              "components": [
                {
                  "internalType": "address",
                  "name": "tokenAddres",
                  "type": "address"
                },
                {
                  "internalType": "uint256",
                  "name": "balance",
                  "type": "uint256"
                }
              ],
              "internalType": "struct TokenBalance",
              "name": "totalLPSupply",
              "type": "tuple"
            },
            {
              "components": [
                {
                  "internalType": "uint256",
                  "name": "value",
                  "type": "uint256"
                },
                {
                  "internalType": "uint8",
                  "name": "decimals",
                  "type": "uint8"
                }
              ],
              "internalType": "struct Decimal",
              "name": "ampFactor",
              "type": "tuple"
            },
            {
              "components": [
                {
                  "internalType": "uint256",
                  "name": "value",
                  "type": "uint256"
                },
                {
                  "internalType": "uint8",
                  "name": "decimals",
                  "type": "uint8"
                }
              ],
              "internalType": "struct Decimal",
              "name": "lpFee",
              "type": "tuple"
            },
            {
              "components": [
                {
                  "internalType": "uint256",
                  "name": "value",
                  "type": "uint256"
                },
                {
                  "internalType": "uint8",
                  "name": "decimals",
                  "type": "uint8"
                }
              ],
              "internalType": "struct Decimal",
              "name": "governanceFee",
              "type": "tuple"
            }
          ],
          "internalType": "struct PoolState",
          "name": "",
          "type": "tuple"
        }
      ],
      "stateMutability": "view",
      "type": "function"
    },
    {
      "inputs": [],
      "name": "governance",
      "outputs": [
        {
          "internalType": "address",
          "name": "",
          "type": "address"
        }
      ],
      "stateMutability": "view",
      "type": "function"
    },
    {
      "inputs": [],
      "name": "governanceFee",
      "outputs": [
        {
          "internalType": "uint32",
          "name": "",
          "type": "uint32"
        }
      ],
      "stateMutability": "view",
      "type": "function"
    },
    {
      "inputs": [],
      "name": "governanceFeeRecipient",
      "outputs": [
        {
          "internalType": "address",
          "name": "",
          "type": "address"
        }
      ],
      "stateMutability": "view",
      "type": "function"
    },
    {
      "inputs": [
        {
          "internalType": "string",
          "name": "lpTokenName",
          "type": "string"
        },
        {
          "internalType": "string",
          "name": "lpTokenSymbol",
          "type": "string"
        },
        {
          "internalType": "address",
          "name": "lpTokenAddress",
          "type": "address"
        },
        {
          "internalType": "int8",
          "name": "lpTokenEqualizer",
          "type": "int8"
        },
        {
          "internalType": "address[]",
          "name": "poolTokenAddresses",
          "type": "address[]"
        },
        {
          "internalType": "int8[]",
          "name": "poolTokenEqualizers",
          "type": "int8[]"
        },
        {
          "internalType": "uint32",
          "name": "ampFactor",
          "type": "uint32"
        },
        {
          "internalType": "uint32",
          "name": "lpFee",
          "type": "uint32"
        },
        {
          "internalType": "uint32",
          "name": "_governanceFee",
          "type": "uint32"
        },
        {
          "internalType": "address",
          "name": "_governance",
          "type": "address"
        },
        {
          "internalType": "address",
          "name": "_governanceFeeRecipient",
          "type": "address"
        }
      ],
      "name": "initialize",
      "outputs": [],
      "stateMutability": "nonpayable",
      "type": "function"
    },
    {
      "inputs": [],
      "name": "lpTokenData",
      "outputs": [
        {
          "internalType": "address",
          "name": "addr",
          "type": "address"
        },
        {
          "internalType": "int8",
          "name": "equalizer",
          "type": "int8"
        }
      ],
      "stateMutability": "view",
      "type": "function"
    },
    {
      "inputs": [],
      "name": "paused",
      "outputs": [
        {
          "internalType": "bool",
          "name": "",
          "type": "bool"
        }
      ],
      "stateMutability": "view",
      "type": "function"
    },
    {
      "inputs": [
        {
          "internalType": "uint256",
          "name": "",
          "type": "uint256"
        }
      ],
      "name": "poolTokensData",
      "outputs": [
        {
          "internalType": "address",
          "name": "addr",
          "type": "address"
        },
        {
          "internalType": "int8",
          "name": "equalizer",
          "type": "int8"
        }
      ],
      "stateMutability": "view",
      "type": "function"
    },
    {
      "inputs": [],
      "name": "proxiableUUID",
      "outputs": [
        {
          "internalType": "bytes32",
          "name": "",
          "type": "bytes32"
        }
      ],
      "stateMutability": "view",
      "type": "function"
    },
    {
      "inputs": [
        {
          "internalType": "uint256",
          "name": "burnAmount",
          "type": "uint256"
        },
        {
          "internalType": "uint8",
          "name": "outputTokenIndex",
          "type": "uint8"
        },
        {
          "internalType": "uint256",
          "name": "minimumOutputAmount",
          "type": "uint256"
        }
      ],
      "name": "removeExactBurn",
      "outputs": [
        {
          "internalType": "uint256",
          "name": "outputAmount",
          "type": "uint256"
        }
      ],
      "stateMutability": "nonpayable",
      "type": "function"
    },
    {
      "inputs": [
        {
          "internalType": "uint256[]",
          "name": "outputAmounts",
          "type": "uint256[]"
        },
        {
          "internalType": "uint256",
          "name": "maximumBurnAmount",
          "type": "uint256"
        }
      ],
      "name": "removeExactOutput",
      "outputs": [
        {
          "internalType": "uint256",
          "name": "burnAmount",
          "type": "uint256"
        }
      ],
      "stateMutability": "nonpayable",
      "type": "function"
    },
    {
      "inputs": [
        {
          "internalType": "uint256",
          "name": "burnAmount",
          "type": "uint256"
        },
        {
          "internalType": "uint256[]",
          "name": "minimumOutputAmounts",
          "type": "uint256[]"
        }
      ],
      "name": "removeUniform",
      "outputs": [
        {
          "internalType": "uint256[]",
          "name": "outputAmounts",
          "type": "uint256[]"
        }
      ],
      "stateMutability": "nonpayable",
      "type": "function"
    },
    {
      "inputs": [
        {
          "internalType": "uint32",
          "name": "lpFee",
          "type": "uint32"
        },
        {
          "internalType": "uint32",
          "name": "_governanceFee",
          "type": "uint32"
        }
      ],
      "name": "setFees",
      "outputs": [],
      "stateMutability": "nonpayable",
      "type": "function"
    },
    {
      "inputs": [
        {
          "internalType": "bool",
          "name": "_paused",
          "type": "bool"
        }
      ],
      "name": "setPaused",
      "outputs": [],
      "stateMutability": "nonpayable",
      "type": "function"
    },
    {
      "inputs": [
        {
          "internalType": "uint256",
          "name": "inputAmount",
          "type": "uint256"
        },
        {
          "internalType": "uint8",
          "name": "inputTokenIndex",
          "type": "uint8"
        },
        {
          "internalType": "uint8",
          "name": "outputTokenIndex",
          "type": "uint8"
        },
        {
          "internalType": "uint256",
          "name": "minimumOutputAmount",
          "type": "uint256"
        }
      ],
      "name": "swap",
      "outputs": [
        {
          "internalType": "uint256",
          "name": "outputAmount",
          "type": "uint256"
        }
      ],
      "stateMutability": "nonpayable",
      "type": "function"
    },
    {
      "inputs": [
        {
          "internalType": "uint256[]",
          "name": "inputAmounts",
          "type": "uint256[]"
        },
        {
          "internalType": "uint8",
          "name": "outputTokenIndex",
          "type": "uint8"
        },
        {
          "internalType": "uint256",
          "name": "minimumOutputAmount",
          "type": "uint256"
        }
      ],
      "name": "swapExactInput",
      "outputs": [
        {
          "internalType": "uint256",
          "name": "outputAmount",
          "type": "uint256"
        }
      ],
      "stateMutability": "nonpayable",
      "type": "function"
    },
    {
      "inputs": [
        {
          "internalType": "uint256",
          "name": "maximumInputAmount",
          "type": "uint256"
        },
        {
          "internalType": "uint8",
          "name": "inputTokenIndex",
          "type": "uint8"
        },
        {
          "internalType": "uint256[]",
          "name": "outputAmounts",
          "type": "uint256[]"
        }
      ],
      "name": "swapExactOutput",
      "outputs": [
        {
          "internalType": "uint256",
          "name": "inputAmount",
          "type": "uint256"
        }
      ],
      "stateMutability": "nonpayable",
      "type": "function"
    },
    {
      "inputs": [],
      "name": "tokenCount",
      "outputs": [
        {
          "internalType": "uint8",
          "name": "",
          "type": "uint8"
        }
      ],
      "stateMutability": "view",
      "type": "function"
    },
    {
      "inputs": [],
      "name": "totalFee",
      "outputs": [
        {
          "internalType": "uint32",
          "name": "",
          "type": "uint32"
        }
      ],
      "stateMutability": "view",
      "type": "function"
    },
    {
      "inputs": [
        {
          "internalType": "address",
          "name": "_governance",
          "type": "address"
        }
      ],
      "name": "transferGovernance",
      "outputs": [],
      "stateMutability": "nonpayable",
      "type": "function"
    },
    {
      "inputs": [
        {
          "internalType": "address",
          "name": "newImplementation",
          "type": "address"
        },
        {
          "internalType": "bytes",
          "name": "data",
          "type": "bytes"
        }
      ],
      "name": "upgradeLpToken",
      "outputs": [],
      "stateMutability": "nonpayable",
      "type": "function"
    },
    {
      "inputs": [
        {
          "internalType": "address",
          "name": "newImplementation",
          "type": "address"
        }
      ],
      "name": "upgradeLpToken",
      "outputs": [],
      "stateMutability": "nonpayable",
      "type": "function"
    },
    {
      "inputs": [
        {
          "internalType": "address",
          "name": "newImplementation",
          "type": "address"
        }
      ],
      "name": "upgradeTo",
      "outputs": [],
      "stateMutability": "nonpayable",
      "type": "function"
    },
    {
      "inputs": [
        {
          "internalType": "address",
          "name": "newImplementation",
          "type": "address"
        },
        {
          "internalType": "bytes",
          "name": "data",
          "type": "bytes"
        }
      ],
      "name": "upgradeToAndCall",
      "outputs": [],
      "stateMutability": "payable",
      "type": "function"
    }
  ],
  "transactionHash": "0xff0faf49f1e0154b96d7327ae19ae07e4a1860716cc79bcfa7ff38acf60236b5",
  "args": [],
  "numDeployments": 1,
  "solcInputHash": "9610c2413bf0a3a83e5088ee14e279e5",
  "bytecode": "0x60a06040523060805234801561001457600080fd5b5060805161547961004c60003960008181611221015281816112a60152818161161001528181611695015261177b01526154796000f3fe6080604052600436106101cd5760003560e01c80637cb726a6116100f7578063d38bfff411610095578063e7744e7511610064578063e7744e75146105a2578063ee763c58146105c2578063eec21d49146105e2578063fa4d39181461060257600080fd5b8063d38bfff41461052d578063d4b93ad21461054d578063dbbc281a14610562578063dc163d4e1461058257600080fd5b806384435de3116100d157806384435de314610497578063851c428d146104b75780639f181b5e146104db578063d1bba74d1461050d57600080fd5b80637cb726a6146104265780637e726dde146104535780637ea598531461047357600080fd5b8063259fc9981161016f5780634f1ef2861161013e5780634f1ef2861461039557806352d1902d146103a85780635aa6e675146103bd5780635c975abb146103f557600080fd5b8063259fc998146103095780632d94f867146103295780633659cfe6146103555780634d98123c1461037557600080fd5b806316c38b3c116101ab57806316c38b3c1461028057806316dc2113146102a25780631865c57d146102c25780631df4ccfc146102e457600080fd5b806309773522146101d25780630ea90a121461021957806312f6113714610252575b600080fd5b3480156101de57600080fd5b506101f26101ed36600461498a565b610622565b604080516001600160a01b03909316835260009190910b6020830152015b60405180910390f35b34801561022557600080fd5b5060005461023d90600160401b900463ffffffff1681565b60405163ffffffff9091168152602001610210565b34801561025e57600080fd5b5061027261026d366004614a8f565b61064d565b604051908152602001610210565b34801561028c57600080fd5b506102a061029b366004614af4565b61092c565b005b3480156102ae57600080fd5b506102a06102bd366004614c8a565b610975565b3480156102ce57600080fd5b506102d7610f09565b6040516102109190614db1565b3480156102f057600080fd5b5060005461023d90640100000000900463ffffffff1681565b34801561031557600080fd5b506102a0610324366004614ea3565b6111dd565b34801561033557600080fd5b506001546101f2906001600160a01b03811690600160a01b900460000b82565b34801561036157600080fd5b506102a0610370366004614ed6565b611216565b34801561038157600080fd5b506102a0610390366004614ea3565b611392565b6102a06103a3366004614ef1565b611605565b3480156103b457600080fd5b5061027261176e565b3480156103c957600080fd5b506008546103dd906001600160a01b031681565b6040516001600160a01b039091168152602001610210565b34801561040157600080fd5b50600054610416906301000000900460ff1681565b6040519015158152602001610210565b34801561043257600080fd5b50610446610441366004614f53565b611833565b6040516102109190614f90565b34801561045f57600080fd5b506102a061046e366004614ef1565b611aeb565b34801561047f57600080fd5b5060005461023d90600160c01b900463ffffffff1681565b3480156104a357600080fd5b506102726104b2366004614fd4565b611b97565b3480156104c357600080fd5b5060005461023d90600160801b900463ffffffff1681565b3480156104e757600080fd5b506000546104fb9062010000900460ff1681565b60405160ff9091168152602001610210565b34801561051957600080fd5b506102a0610528366004614ed6565b611cfd565b34801561053957600080fd5b506102a0610548366004614ed6565b611da3565b34801561055957600080fd5b50610446611df0565b34801561056e57600080fd5b506102a061057d366004614ed6565b611eae565b34801561058e57600080fd5b5061027261059d36600461502b565b611f3e565b3480156105ae57600080fd5b506102726105bd36600461506f565b611fff565b3480156105ce57600080fd5b506102726105dd366004615094565b61212d565b3480156105ee57600080fd5b506102726105fd366004615094565b6122fd565b34801561060e57600080fd5b506009546103dd906001600160a01b031681565b6002816006811061063257600080fd5b01546001600160a01b0381169150600160a01b900460000b82565b600080546301000000900460ff161561067957604051630b96dad560e21b815260040160405180910390fd5b6000806000806106876124df565b93509350935093506106998785612629565b858760ff16815181106106ae576106ae6150d9565b60200260200101516000146107205786868860ff16815181106106d3576106d36150d9565b60209081029190910101516040517fc2d79ffb00000000000000000000000000000000000000000000000000000000815260ff909216600483015260248201526044015b60405180910390fd5b600061072c8786612672565b905060005b8581101561084b578260200151818151811061074f5761074f6150d9565b6020026020010151828281518110610769576107696150d9565b6020026020010151106108435760028160068110610789576107896150d9565b015488516001600160a01b03909116908990839081106107ab576107ab6150d9565b60200260200101516107f8856020015184815181106107cc576107cc6150d9565b6020026020010151600285600681106107e7576107e76150d9565b0154600160a01b900460000b61277c565b6040517f199590760000000000000000000000000000000000000000000000000000000081526001600160a01b03909316600484015260248301919091526044820152606401610717565b600101610731565b5060008061085c6000848c87612802565b9150915061087a8260028c60ff16600681106107e7576107e76150d9565b97508a8811156108cf5760028a60ff166006811061089a5761089a6150d9565b0154604051639e8eb45960e01b81526001600160a01b03909116600482015260248101899052604481018c9052606401610717565b6108dc888b60ff16612c7b565b60005b878110156109125761090a8a82815181106108fc576108fc6150d9565b602002602001015182612cb4565b6001016108df565b5061091e818787612ce7565b505050505050509392505050565b6008546001600160a01b0316331461095757604051635bbf1d0360e01b815260040160405180910390fd5b6000805491151563010000000263ff00000019909216919091179055565b600054610100900460ff16158080156109955750600054600160ff909116105b806109af5750303b1580156109af575060005460ff166001145b610a215760405162461bcd60e51b815260206004820152602e60248201527f496e697469616c697a61626c653a20636f6e747261637420697320616c72656160448201527f647920696e697469616c697a65640000000000000000000000000000000000006064820152608401610717565b6000805460ff191660011790558015610a44576000805461ff0019166101001790555b60008a9050806001600160a01b0316634cd88b768e8e6040518363ffffffff1660e01b8152600401610a77929190615147565b602060405180830381600087803b158015610a9157600080fd5b505af1158015610aa5573d6000803e3d6000fd5b505050506040513d601f19601f82011682018060405250810190610ac99190615175565b610aff576040517f3d8c43d800000000000000000000000000000000000000000000000000000000815260040160405180910390fd5b6001805460ff8c16600160a01b027fffffffffffffffffffffff0000000000000000000000000000000000000000009091166001600160a01b038e161717905588516006811115610b88576040517f3823958e00000000000000000000000000000000000000000000000000000000815260ff8216600482015260066024820152604401610717565b80895114610bd25788516040517feda2625300000000000000000000000000000000000000000000000000000000815260ff91821660048201529082166024820152604401610717565b6000805462ff000019166201000060ff8416021781555b81811015610dc1578a8181518110610c0357610c036150d9565b602002602001015160028260068110610c1e57610c1e6150d9565b0180546001600160a01b0319166001600160a01b03929092169190911790558951601119908b9083908110610c5557610c556150d9565b602002602001015160000b1215610cc457898181518110610c7857610c786150d9565b60209081029190910101516040517f498123bd00000000000000000000000000000000000000000000000000000000815260009190910b60048201526011196024820152604401610717565b600460000b8a8281518110610cdb57610cdb6150d9565b602002602001015160000b1315610d4b57898181518110610cfe57610cfe6150d9565b602002602001015160046040517f8f038f2c000000000000000000000000000000000000000000000000000000008152600401610717929190600092830b8152910b602082015260400190565b898181518110610d5d57610d5d6150d9565b602002602001015160028260068110610d7857610d786150d9565b01805460ff92909216600160a01b027fffffffffffffffffffffff00ffffffffffffffffffffffffffffffffffffffff909216919091179055610dba816151a8565b9050610be9565b5063ffffffff8816610e115780600214610e0c576040517f9a1b0df600000000000000000000000000000000000000000000000000000000815260ff82166004820152602401610717565b610e1a565b610e1a88612d67565b600080547fffffffff00000000000000000000000000000000ffffffffffffffffffffffff16600160a01b63ffffffff6103e8600a8d901b6503fffffffc001604160263ffffffff60c01b1916179055600880546001600160a01b03199081166001600160a01b038881169190911790925560098054909116918616919091179055610ea68787612e57565b50506000805463ff000000191690558015610efb576000805461ff0019169055604051600181527f7f26b83ff96e1f2b6a682f133852f6798a09c465da95921460cefb38474024989060200160405180910390a15b505050505050505050505050565b610f116148d5565b600080546040805160c0810190915260ff63010000008304811615158252620100009092049091169190602081018367ffffffffffffffff811115610f5857610f586149b9565b604051908082528060200260200182016040528015610f9d57816020015b6040805180820190915260008082526020820152815260200190600190039081610f765790505b5081526040805180820182526001546001600160a01b031680825282516318160ddd60e01b815292516020948501949293848401936318160ddd92600480840193829003018186803b158015610ff257600080fd5b505afa158015611006573d6000803e3d6000fd5b505050506040513d601f19601f8201168201806040525081019061102a91906151c3565b81525081526020016040518060400160405280611058611048612f71565b63ffffffff166103e802600a1c90565b63ffffffff908116825260036020928301529183526040805180820190915260005493909101929091829161109f91600160401b82048116916401000000009004166151dc565b63ffffffff9081168252600660209283018190529284526040805180820190915260008054600160401b90049092168152808301939093529201529091505b828110156111d657604051806040016040528060028360068110611104576111046150d9565b01546001600160a01b0316815260200160028360068110611127576111276150d9565b01546040516370a0823160e01b81523060048201526001600160a01b03909116906370a082319060240160206040518083038186803b15801561116957600080fd5b505afa15801561117d573d6000803e3d6000fd5b505050506040513d601f19601f820116820180604052508101906111a191906151c3565b815250826020015182815181106111ba576111ba6150d9565b6020026020010181905250806111cf906151a8565b90506110de565b5092915050565b6008546001600160a01b0316331461120857604051635bbf1d0360e01b815260040160405180910390fd5b6112128282612e57565b5050565b306001600160a01b037f00000000000000000000000000000000000000000000000000000000000000001614156112a45760405162461bcd60e51b815260206004820152602c60248201527f46756e6374696f6e206d7573742062652063616c6c6564207468726f7567682060448201526b19195b1959d85d1958d85b1b60a21b6064820152608401610717565b7f00000000000000000000000000000000000000000000000000000000000000006001600160a01b03166112ff7f360894a13ba1a3210667c828492db98dca3e2076cc3735a920a3ca505d382bbc546001600160a01b031690565b6001600160a01b03161461136a5760405162461bcd60e51b815260206004820152602c60248201527f46756e6374696f6e206d7573742062652063616c6c6564207468726f7567682060448201526b6163746976652070726f787960a01b6064820152608401610717565b61137381613005565b6040805160008082526020820190925261138f91839190613030565b50565b6008546001600160a01b031633146113bd57604051635bbf1d0360e01b815260040160405180910390fd5b6113c682612d67565b63ffffffff811660006113dc6201518042615201565b905080821015611428576040517f354b078f00000000000000000000000000000000000000000000000000000000815263ffffffff808516600483015282166024820152604401610717565b6000611432612f71565b63ffffffff16905080611471576040517f6863759300000000000000000000000000000000000000000000000000000000815260040160405180910390fd5b63ffffffff6103e8600a87901b6503fffffffc0016041680821161151057600061149c600a84615219565b90508082111561150a576103e863ffffffff841602600a1c5b6040517f63f6a46300000000000000000000000000000000000000000000000000000000815263ffffffff918216600482015281891660248201528282166103e802600a1c9091166044820152606401610717565b5061153c565b600061151d600a83615219565b90508082101561153a576103e863ffffffff841602600a1c6114b5565b505b600080547fffffffffffffffffffffffff0000000000000000ffffffffffffffffffffffff166c010000000000000000000000004263ffffffff908116919091027fffffffffffffffffffffffff00000000ffffffffffffffffffffffffffffffff1691909117600160801b94821694909402939093177fffffffff0000000000000000ffffffffffffffffffffffffffffffffffffffff16600160a01b9284169290920263ffffffff60c01b191691909117600160c01b959092169490940217909255505050565b306001600160a01b037f00000000000000000000000000000000000000000000000000000000000000001614156116935760405162461bcd60e51b815260206004820152602c60248201527f46756e6374696f6e206d7573742062652063616c6c6564207468726f7567682060448201526b19195b1959d85d1958d85b1b60a21b6064820152608401610717565b7f00000000000000000000000000000000000000000000000000000000000000006001600160a01b03166116ee7f360894a13ba1a3210667c828492db98dca3e2076cc3735a920a3ca505d382bbc546001600160a01b031690565b6001600160a01b0316146117595760405162461bcd60e51b815260206004820152602c60248201527f46756e6374696f6e206d7573742062652063616c6c6564207468726f7567682060448201526b6163746976652070726f787960a01b6064820152608401610717565b61176282613005565b61121282826001613030565b6000306001600160a01b037f0000000000000000000000000000000000000000000000000000000000000000161461180e5760405162461bcd60e51b815260206004820152603860248201527f555550535570677261646561626c653a206d757374206e6f742062652063616c60448201527f6c6564207468726f7567682064656c656761746563616c6c00000000000000006064820152608401610717565b507f360894a13ba1a3210667c828492db98dca3e2076cc3735a920a3ca505d382bbc90565b60008054600154604080516318160ddd60e01b815290516060946201000090940460ff16936001600160a01b03909316929183916318160ddd91600480820192602092909190829003018186803b15801561188d57600080fd5b505afa1580156118a1573d6000803e3d6000fd5b505050506040513d601f19601f820116820180604052508101906118c591906151c3565b60405163079cc67960e41b8152336004820152602481018890529091506001600160a01b038316906379cc679090604401600060405180830381600087803b15801561191057600080fd5b505af1158015611924573d6000803e3d6000fd5b505050508267ffffffffffffffff811115611941576119416149b9565b60405190808252806020026020018201604052801561196a578160200160208202803683370190505b50935060005b83811015611ae15760006002826006811061198d5761198d6150d9565b01546040516370a0823160e01b81523060048201526001600160a01b03909116915060009082906370a082319060240160206040518083038186803b1580156119d557600080fd5b505afa1580156119e9573d6000803e3d6000fd5b505050506040513d601f19601f82011682018060405250810190611a0d91906151c3565b9050600084611a1c8b84615219565b611a26919061524e565b9050888481518110611a3a57611a3a6150d9565b6020026020010151811015611a9a5782818a8681518110611a5d57611a5d6150d9565b6020908102919091010151604051639e8eb45960e01b81526001600160a01b03909316600484015260248301919091526044820152606401610717565b611aae6001600160a01b03841633836131df565b80888581518110611ac157611ac16150d9565b60200260200101818152505050505080611ada906151a8565b9050611970565b5050505092915050565b6008546001600160a01b03163314611b1657604051635bbf1d0360e01b815260040160405180910390fd5b6001546040517f4f1ef2860000000000000000000000000000000000000000000000000000000081526001600160a01b0390911690634f1ef28690611b619085908590600401615270565b600060405180830381600087803b158015611b7b57600080fd5b505af1158015611b8f573d6000803e3d6000fd5b505050505050565b600080546301000000900460ff1615611bc357604051630b96dad560e21b815260040160405180910390fd5b600080600080611bd16124df565b9350935093509350611be38785612629565b878760ff1681518110611bf857611bf86150d9565b6020026020010151600014611c1d5786888860ff16815181106106d3576106d36150d9565b6000611c298986612672565b9050600080611c3b6001848c87612802565b91509150611c598260028c60ff16600681106107e7576107e76150d9565b975088881015611cae5760028a60ff1660068110611c7957611c796150d9565b0154604051639e8eb45960e01b81526001600160a01b03909116600482015260248101899052604481018a9052606401610717565b60005b87811015611ce457611cdc8c8281518110611cce57611cce6150d9565b602002602001015182612c7b565b600101611cb1565b50611cf2888b60ff16612cb4565b61091e818787612ce7565b6008546001600160a01b03163314611d2857604051635bbf1d0360e01b815260040160405180910390fd5b6001546040517f3659cfe60000000000000000000000000000000000000000000000000000000081526001600160a01b03838116600483015290911690633659cfe690602401600060405180830381600087803b158015611d8857600080fd5b505af1158015611d9c573d6000803e3d6000fd5b5050505050565b6008546001600160a01b03163314611dce57604051635bbf1d0360e01b815260040160405180910390fd5b600880546001600160a01b0319166001600160a01b0392909216919091179055565b600054606090611ea990611e0c9062010000900460ff16613288565b611e14612f71565b600154604080516318160ddd60e01b81529051611ea4926001600160a01b0316916318160ddd916004808301926020929190829003018186803b158015611e5a57600080fd5b505afa158015611e6e573d6000803e3d6000fd5b505050506040513d601f19601f82011682018060405250810190611e9291906151c3565b600154600160a01b900460000b6133ae565b61347a565b905090565b6008546001600160a01b03163314611ed957604051635bbf1d0360e01b815260040160405180910390fd5b600054600160401b900463ffffffff1615801590611efe57506001600160a01b038116155b15611f1c57604051630161bcd760e51b815260040160405180910390fd5b600980546001600160a01b0319166001600160a01b0392909216919091179055565b600080546301000000900460ff1615611f6a57604051630b96dad560e21b815260040160405180910390fd5b60005462010000900460ff16611f808582612629565b60008167ffffffffffffffff811115611f9b57611f9b6149b9565b604051908082528060200260200182016040528015611fc4578160200160208202803683370190505b50905086818760ff1681518110611fdd57611fdd6150d9565b602002602001018181525050611ff4818686611b97565b979650505050505050565b600080546301000000900460ff161561202b57604051630b96dad560e21b815260040160405180910390fd5b6000806000806120396124df565b935093509350935061204b8785612629565b600061205789846133ae565b90508160a0015181106120745783896107f88460a001518661277c565b600080612082838b866136ef565b915091506120a08260028c60ff16600681106107e7576107e76150d9565b9750888810156120c05760028a60ff1660068110611c7957611c796150d9565b60405163079cc67960e41b8152336004820152602481018c90526001600160a01b038716906379cc679090604401600060405180830381600087803b15801561210857600080fd5b505af115801561211c573d6000803e3d6000fd5b50505050611cf2888b60ff16612cb4565b600080546301000000900460ff161561215957604051630b96dad560e21b815260040160405180910390fd5b6000806000806121676124df565b9350935093509350600061217b8886612672565b905060005b85811015612202578260200151818151811061219e5761219e6150d9565b60200260200101518282815181106121b8576121b86150d9565b6020026020010151106121fa57600281600681106121d8576121d86150d9565b015489516001600160a01b03909116908a90839081106107ab576107ab6150d9565b600101612180565b50600080612212600084866139b3565b91509150612220828661277c565b97508888111561225c57604051639e8eb45960e01b81526001600160a01b038716600482015260248101899052604481018a9052606401610717565b60405163079cc67960e41b8152336004820152602481018990526001600160a01b038716906379cc679090604401600060405180830381600087803b1580156122a457600080fd5b505af11580156122b8573d6000803e3d6000fd5b5050505060005b878110156122e4576122dc8b82815181106108fc576108fc6150d9565b6001016122bf565b506122f0818787612ce7565b5050505050505092915050565b600080546301000000900460ff161561232957604051630b96dad560e21b815260040160405180910390fd5b6000806000806123376124df565b9350935093509350600061234b8886612672565b905060008260a00151600014156123e45760005b868110156123c857898181518110612379576123796150d9565b6020026020010151600014156123c0576040517f90c8235d00000000000000000000000000000000000000000000000000000000815260ff82166004820152602401610717565b60010161235f565b5060006123db8385604001516000613d6b565b91506124049050565b60006123f2600184866139b3565b9092509050612402818787612ce7565b505b61240e818561277c565b96508787101561244a57604051639e8eb45960e01b81526001600160a01b03861660048201526024810188905260448101899052606401610717565b60005b868110156124725761246a8a8281518110611cce57611cce6150d9565b60010161244d565b506040516340c10f1960e01b8152336004820152602481018890526001600160a01b038616906340c10f1990604401600060405180830381600087803b1580156124bb57600080fd5b505af11580156124cf573d6000803e3d6000fd5b5050505050505050505092915050565b6040805160c080820183526000808352606060208085018290528486018390529084018290526080840182905260a084018290528154600154865194850190965262010000900460ff16808452946001600160a01b03811694600160a01b90910490920b9290810161255086613288565b815260200161255d612f71565b63ffffffff168152602001600060049054906101000a900463ffffffff1663ffffffff168152602001600060089054906101000a900463ffffffff1663ffffffff16815260200161261e856001600160a01b03166318160ddd6040518163ffffffff1660e01b815260040160206040518083038186803b1580156125e057600080fd5b505afa1580156125f4573d6000803e3d6000fd5b505050506040513d601f19601f8201168201806040525081019061261891906151c3565b856133ae565b815250905090919293565b808260ff1610611212576040517f5d92669e00000000000000000000000000000000000000000000000000000000815260ff808416600483015282166024820152604401610717565b6060818351146126be5782516040517fd265d30500000000000000000000000000000000000000000000000000000000815260ff91821660048201529083166024820152604401610717565b8167ffffffffffffffff8111156126d7576126d76149b9565b604051908082528060200260200182016040528015612700578160200160208202803683370190505b50905060005b828110156111d65761274f848281518110612723576127236150d9565b60200260200101516002836006811061273e5761273e6150d9565b0154600160a01b900460000b6133ae565b828281518110612761576127616150d9565b6020908102919091010152612775816151a8565b9050612706565b6000828061278e5760009150506127fc565b60008360000b12156127b6576000838103900b600a0a6127ae8183615219565b9150506127f9565b8260000b600a0a81816127cb576127cb615238565b049050806127f9576040516311050b1f60e11b815260048101859052600084900b6024820152604401610717565b90505b92915050565b600080600061281b846020015185604001516000613d6b565b90506000846000015160ff1667ffffffffffffffff81111561283f5761283f6149b9565b604051908082528060200260200182016040528015612868578160200160208202803683370190505b50905060005b855160ff168110156128fc57600086602001518281518110612892576128926150d9565b6020026020010151905060008983815181106128b0576128b06150d9565b6020026020010151905060008b6128c9578183036128cd565b8183015b9050808585815181106128e2576128e26150d9565b60200260200101818152505050505080600101905061286e565b506000600186600001510360ff1667ffffffffffffffff811115612922576129226149b9565b60405190808252806020026020018201604052801561294b578160200160208202803683370190505b5090508880156129645750606086015163ffffffff1615155b15612a2a5760005b8151811015612a245760008860ff16821061298a578160010161298c565b815b905060008a82815181106129a2576129a26150d9565b6020026020010151905060008583815181106129c0576129c06150d9565b6020026020010151905060006006600a0a8b6060015163ffffffff168402816129eb576129eb615238565b0490506000818303905080878781518110612a0857612a086150d9565b602002602001018181525050505050505080600101905061296c565b50612a91565b60005b8151811015612a8f5760008860ff168210612a4b5781600101612a4d565b815b9050838181518110612a6157612a616150d9565b6020026020010151838381518110612a7b57612a7b6150d9565b602090810291909101015250600101612a2d565b505b600089612a9f576000612ac1565b86602001518860ff1681518110612ab857612ab86150d9565b60200260200101515b90506000612ad583868a6040015185613f22565b905060008b15612b49578189602001518b60ff1681518110612af957612af96150d9565b602002602001015103905080858b60ff1681518110612b1a57612b1a6150d9565b602002602001015103858b60ff1681518110612b3857612b386150d9565b602002602001018181525050612be7565b88602001518a60ff1681518110612b6257612b626150d9565b602002602001015182039050886060015163ffffffff16600014612ba657606089015163ffffffff16620f424090810390820281612ba257612ba2615238565b0490505b80858b60ff1681518110612bbc57612bbc6150d9565b602002602001015101858b60ff1681518110612bda57612bda6150d9565b6020026020010181815250505b809750886060015163ffffffff16600014612c6c576000612c118a602001518b6040015189613d6b565b90506000878203905060008b6060015163ffffffff168c6080015163ffffffff16830281612c4157612c41615238565b60a08e015191900491508184039060008282850281612c6257612c62615238565b049c505050505050505b50505050505094509492505050565b811561121257600060028260068110612c9657612c966150d9565b01546001600160a01b03169050612caf813330866140d9565b505050565b811561121257600060028260068110612ccf57612ccf6150d9565b01546001600160a01b03169050612caf8133856131df565b8215612caf576000612cf9848361277c565b6009546040516340c10f1960e01b81526001600160a01b039182166004820152602481018390529192508416906340c10f1990604401600060405180830381600087803b158015612d4957600080fd5b505af1158015612d5d573d6000803e3d6000fd5b5050505050505050565b612d736003600a615376565b612d8090620f4240615382565b63ffffffff168163ffffffff161115612def5780612da06003600a615376565b612dad90620f4240615382565b6040517f1281907f00000000000000000000000000000000000000000000000000000000815263ffffffff928316600482015291166024820152604401610717565b612dfb6003600a615376565b8163ffffffff16101561138f5780612e156003600a615376565b6040517fc88e096900000000000000000000000000000000000000000000000000000000815263ffffffff928316600482015291166024820152604401610717565b6000612e6382846153ae565b90506002612e736006600a615376565b612e7d919061524e565b8163ffffffff1610612ef0578060016002612e9a6006600a615376565b612ea4919061524e565b612eae91906153d6565b6040517f0157de9600000000000000000000000000000000000000000000000000000000815263ffffffff928316600482015291166024820152604401610717565b63ffffffff821615801590612f0e57506009546001600160a01b0316155b15612f2c57604051630161bcd760e51b815260040160405180910390fd5b600080546bffffffffffffffff00000000191664010000000063ffffffff938416026bffffffff0000000000000000191617600160401b939092169290920217905550565b600080544290600160c01b900463ffffffff1680821215612fed576000805463ffffffff600160801b82048116926c010000000000000000000000008304821692600160a01b9004909116908282039084870390858703908183850281612fda57612fda615238565b0595909501985061300095505050505050565b600054600160a01b900463ffffffff1692505b505090565b6008546001600160a01b0316331461138f57604051635bbf1d0360e01b815260040160405180910390fd5b7f4910fdfa16fed3260ed0e7147f7cc6da11a60208b5b9406d12a635614ffd91435460ff161561306357612caf83614130565b826001600160a01b03166352d1902d6040518163ffffffff1660e01b815260040160206040518083038186803b15801561309c57600080fd5b505afa9250505080156130cc575060408051601f3d908101601f191682019092526130c9918101906151c3565b60015b61313e5760405162461bcd60e51b815260206004820152602e60248201527f45524331393637557067726164653a206e657720696d706c656d656e7461746960448201527f6f6e206973206e6f7420555550530000000000000000000000000000000000006064820152608401610717565b7f360894a13ba1a3210667c828492db98dca3e2076cc3735a920a3ca505d382bbc81146131d35760405162461bcd60e51b815260206004820152602960248201527f45524331393637557067726164653a20756e737570706f727465642070726f7860448201527f6961626c655555494400000000000000000000000000000000000000000000006064820152608401610717565b50612caf8383836141ee565b6040516001600160a01b038316602482015260448101829052612caf9084907fa9059cbb00000000000000000000000000000000000000000000000000000000906064015b60408051601f198184030181529190526020810180517bffffffffffffffffffffffffffffffffffffffffffffffffffffffff167fffffffff0000000000000000000000000000000000000000000000000000000090931692909217909152614213565b60608167ffffffffffffffff8111156132a3576132a36149b9565b6040519080825280602002602001820160405280156132cc578160200160208202803683370190505b50905060005b828110156133a8576000600282600681106132ef576132ef6150d9565b01546040516370a0823160e01b81523060048201526001600160a01b03909116906370a082319060240160206040518083038186803b15801561333157600080fd5b505afa158015613345573d6000803e3d6000fd5b505050506040513d601f19601f8201168201806040525081019061336991906151c3565b9050613382816002846006811061273e5761273e6150d9565b838381518110613394576133946150d9565b6020908102919091010152506001016132d2565b50919050565b6000826133bd575060006127fc565b6000808360000b1215613415578260000360000b600a0a84816133e2576133e2615238565b04905080613410576040516311050b1f60e11b815260048101859052600084900b6024820152604401610717565b61342b565b50600082900b600a0a6134288482615219565b90505b671fffffffffffffff8111156127f9576040517f834de34100000000000000000000000000000000000000000000000000000000815260048101859052600084900b6024820152604401610717565b825160609060008167ffffffffffffffff81111561349a5761349a6149b9565b6040519080825280602002602001820160405280156134c3578160200160208202803683370190505b50905063ffffffff851661358457836002670de0b6b3a764000004876001815181106134f1576134f16150d9565b6020026020010151028161350757613507615238565b048160008151811061351b5761351b6150d9565b6020908102919091010152836002670de0b6b3a76400000487600081518110613546576135466150d9565b6020026020010151028161355c5761355c615238565b0481600181518110613570576135706150d9565b602090810291909101015291506136e89050565b600061359287876000613d6b565b90506000806135a8670de0b6b3a76400006142f8565b9150915060005b85811015613600578383029250858a82815181106135cf576135cf6150d9565b60200260200101510283816135e6576135e6615238565b0492506135f38383614367565b90935091506001016135af565b50600061362f600a8360000301600a6001901b8b63ffffffff16036012600a0a026143c390919063ffffffff16565b90506000670de0b6b3a76400006001880185028301049050838502600061366f63ffffffff8d8116670de0b6b3a76400000290600a88850301906143c316565b905060005b898110156136db57838e828151811061368f5761368f6150d9565b602002602001015184816136a5576136a5615238565b048301816136b5576136b5615238565b048982815181106136c8576136c86150d9565b6020908102919091010152600101613674565b5096985050505050505050505b9392505050565b6000806000858460a0015103905060008460a0015182613719876020015188604001516000613d6b565b028161372757613727615238565b0490506000600186600001510360ff1667ffffffffffffffff81111561374f5761374f6149b9565b604051908082528060200260200182016040528015613778578160200160208202803683370190505b50905060005b81518110156137e45760008860ff16821061379c578160010161379e565b815b9050876020015181815181106137b6576137b66150d9565b60200260200101518383815181106137d0576137d06150d9565b60209081029190910101525060010161377e565b506000613817828489604001518a602001518c60ff168151811061380a5761380a6150d9565b6020026020010151613f22565b87602001518960ff1681518110613830576138306150d9565b6020026020010151039050866060015163ffffffff166000146139a357600061385c8860200151614431565b905060008160408a602001518c60ff168151811061387c5761387c6150d9565b60200260200101518403901b8161389557613895615238565b60608b01519190049150600090600160401b9063ffffffff16620f4240036a0f42400000000000000000816138cc576138cc615238565b04039050604081600160401b848202831c01868502816138ee576138ee615238565b0402901c84039850888a602001518c60ff1681518110613910576139106150d9565b6020026020010151038a602001518c60ff1681518110613932576139326150d9565b6020026020010181815250506000866139548c602001518d604001518a613d6b565b03905060008b6060015163ffffffff168c6080015163ffffffff1683028161397e5761397e615238565b04905080828901038982028161399657613996615238565b04995050505050506139a7565b8095505b50505050935093915050565b60008060006139cc846020015185604001516000613d6b565b90506000806000866000015160ff1667ffffffffffffffff8111156139f3576139f36149b9565b604051908082528060200260200182016040528015613a1c578160200160208202803683370190505b50905060005b875160ff16811015613ab457600088602001518281518110613a4657613a466150d9565b6020026020010151905060008a8381518110613a6457613a646150d9565b6020026020010151905060008c613a7d57818303613a81565b8183015b905080858581518110613a9657613a966150d9565b60209081029190910101529590910194939093019250600101613a22565b506000613ad78289604001518686890281613ad157613ad1615238565b04613d6b565b9050876060015163ffffffff16600014613d3557875160009060ff1667ffffffffffffffff811115613b0b57613b0b6149b9565b604051908082528060200260200182016040528015613b34578160200160208202803683370190505b50905060005b895160ff16811015613c7f576000848281518110613b5a57613b5a6150d9565b60200260200101519050600087878d602001518581518110613b7e57613b7e6150d9565b60200260200101510281613b9457613b94615238565b04905060008e613bb457818310613bac576000613bc6565b828203613bc6565b818311613bc2576000613bc6565b8183035b905060008f613bfa5760608e0151829063ffffffff16620f424090810390820281613bf357613bf3615238565b0403613c0e565b60608e0151620f42409063ffffffff168302045b9050808411613c49576040517f1ce2e20400000000000000000000000000000000000000000000000000000000815260040160405180910390fd5b6000818503905080878781518110613c6357613c636150d9565b6020026020010181815250505050505050806001019050613b3a565b506000613c91828b6040015185613d6b565b9050868c613ca157818803613ca5565b8782035b8b60a001510281613cb857613cb8615238565b0498506000818403905060008b6060015163ffffffff168c6080015163ffffffff16830281613ce957613ce9615238565b04905060008e613cff578b8d60a0015103613d07565b8b8d60a00151015b9050818f613d155786613d17565b845b0381830281613d2857613d28615238565b049a505050505050613d5e565b848860a001518b613d4857828703613d4c565b8683035b0281613d5a57613d5a615238565b0496505b5050505050935093915050565b600063ffffffff8316613dca576004905083600081518110613d8f57613d8f6150d9565b60200260200101518102905083600181518110613dae57613dae6150d9565b602002602001015181029050613dc381614467565b90506136e8565b83516000613dd786614431565b905063ffffffff8516808202906103ff190185613df45782613df6565b855b945060005b5084600080613e0a60016142f8565b9150915060005b87811015613e62578883029250878c8281518110613e3157613e316150d9565b6020026020010151028381613e4857613e48615238565b049250613e558383614367565b9093509150600101613e11565b5060091901818702600080613e778385614367565b908c0292509050828501848214613e8d578482031b5b60008060a1871215613ec1576000969096039584613eab8c896143c3565b01915082613eb98b896143c3565b019050613ede565b613ecb85886143c3565b8b019150613ed983886143c3565b8a0190505b808281613eed57613eed615238565b049d5050505050505050506001613f0482886145ce565b11613dfb5760008611613f1657600080fd5b50505050509392505050565b60008063ffffffff8416613f6957848502905085600081518110613f4857613f486150d9565b60200260200101518181613f5e57613f5e615238565b0460021c9050614074565b8551600101600080613f9663ffffffff88168402898002600a1b81613f9057613f90615238565b046142f8565b9150915060005b8951811015613fef578883029250838a8281518110613fbe57613fbe6150d9565b6020026020010151028381613fd557613fd5615238565b049250613fe28383614367565b9093509150600101613f9d565b50613ffa82826143c3565b915060008763ffffffff16600a8a901b8161401757614017615238565b046140218b614431565b019050866140325760028904614034565b865b945060005b508480800284016002820283018b900380828161405857614058615238565b0497505050600161406982886145ce565b116140395750505050505b6000811161408157600080fd5b671fffffffffffffff8111156140c6576040517f0b68fc2600000000000000000000000000000000000000000000000000000000815260048101829052602401610717565b67ffffffffffffffff1695945050505050565b6040516001600160a01b038085166024830152831660448201526064810182905261412a9085907f23b872dd0000000000000000000000000000000000000000000000000000000090608401613224565b50505050565b6001600160a01b0381163b6141ad5760405162461bcd60e51b815260206004820152602d60248201527f455243313936373a206e657720696d706c656d656e746174696f6e206973206e60448201527f6f74206120636f6e7472616374000000000000000000000000000000000000006064820152608401610717565b7f360894a13ba1a3210667c828492db98dca3e2076cc3735a920a3ca505d382bbc80546001600160a01b0319166001600160a01b0392909216919091179055565b6141f7836145e5565b6000825111806142045750805b15612caf5761412a8383614625565b6000614268826040518060400160405280602081526020017f5361666545524332303a206c6f772d6c6576656c2063616c6c206661696c6564815250856001600160a01b031661464a9092919063ffffffff16565b805190915015612caf57808060200190518101906142869190615175565b612caf5760405162461bcd60e51b815260206004820152602a60248201527f5361666545524332303a204552433230206f7065726174696f6e20646964206e60448201527f6f742073756363656564000000000000000000000000000000000000000000006064820152608401610717565b600080600261430a600461010061524e565b614314919061524e565b614321600461010061524e565b61432b9190615201565b83901b600261433d600461010061524e565b614347919061524e565b614354600461010061524e565b61435e9190615201565b91509150915091565b60008077ffffffffffffffffffffffffffffffffffffffffffffffff84111561439b575050604082901c603f1982016143bc565b600160801b8410156143b6575050604082811b9082016143bc565b50829050815b9250929050565b60008082121561442c576000829003610100811015806143eb575080610100036001901b8410155b15614422576040517f4f4afe7f00000000000000000000000000000000000000000000000000000000815260040160405180910390fd5b83901b90506127fc565b501c90565b6000805b82518110156133a857828181518110614450576144506150d9565b602002602001015182019150806001019050614435565b60008161447657506000919050565b816001608082901c1561448e5760809190911c9060401b5b604082901c156144a35760409190911c9060201b5b602082901c156144b85760209190911c9060101b5b601082901c156144cd5760109190911c9060081b5b600882901c156144e25760089190911c9060041b5b600482901c156144f75760049190911c9060021b5b600282901c156145055760011b5b600181858161451657614516615238565b048201901c9050600181858161452e5761452e615238565b048201901c9050600181858161454657614546615238565b048201901c9050600181858161455e5761455e615238565b048201901c9050600181858161457657614576615238565b048201901c9050600181858161458e5761458e615238565b048201901c905060018185816145a6576145a6615238565b048201901c90506145c6818286816145c0576145c0615238565b04614659565b949350505050565b60008183116145df578282036127f9565b50900390565b6145ee81614130565b6040516001600160a01b038216907fbc7cd75a20ee27fd9adebab32041f755214dbc6bffa90cc0225b39da2e5c2d3b90600090a250565b60606127f9838360405180606001604052806027815260200161541d6027913961466f565b60606145c68484600085614763565b600081831061466857816127f9565b5090919050565b60606001600160a01b0384163b6146ee5760405162461bcd60e51b815260206004820152602660248201527f416464726573733a2064656c65676174652063616c6c20746f206e6f6e2d636f60448201527f6e747261637400000000000000000000000000000000000000000000000000006064820152608401610717565b600080856001600160a01b03168560405161470991906153ed565b600060405180830381855af49150503d8060008114614744576040519150601f19603f3d011682016040523d82523d6000602084013e614749565b606091505b509150915061475982828661489c565b9695505050505050565b6060824710156147db5760405162461bcd60e51b815260206004820152602660248201527f416464726573733a20696e73756666696369656e742062616c616e636520666f60448201527f722063616c6c00000000000000000000000000000000000000000000000000006064820152608401610717565b6001600160a01b0385163b6148325760405162461bcd60e51b815260206004820152601d60248201527f416464726573733a2063616c6c20746f206e6f6e2d636f6e74726163740000006044820152606401610717565b600080866001600160a01b0316858760405161484e91906153ed565b60006040518083038185875af1925050503d806000811461488b576040519150601f19603f3d011682016040523d82523d6000602084013e614890565b606091505b5091509150611ff48282865b606083156148ab5750816136e8565b8251156148bb5782518084602001fd5b8160405162461bcd60e51b81526004016107179190615409565b6040518060c0016040528060001515815260200160608152602001614916604051806040016040528060006001600160a01b03168152602001600081525090565b815260200161493b604051806040016040528060008152602001600060ff1681525090565b8152602001614960604051806040016040528060008152602001600060ff1681525090565b8152602001614985604051806040016040528060008152602001600060ff1681525090565b905290565b60006020828403121561499c57600080fd5b5035919050565b803560ff811681146149b457600080fd5b919050565b634e487b7160e01b600052604160045260246000fd5b604051601f8201601f1916810167ffffffffffffffff811182821017156149f8576149f86149b9565b604052919050565b600067ffffffffffffffff821115614a1a57614a1a6149b9565b5060051b60200190565b600082601f830112614a3557600080fd5b81356020614a4a614a4583614a00565b6149cf565b82815260059290921b84018101918181019086841115614a6957600080fd5b8286015b84811015614a845780358352918301918301614a6d565b509695505050505050565b600080600060608486031215614aa457600080fd5b83359250614ab4602085016149a3565b9150604084013567ffffffffffffffff811115614ad057600080fd5b614adc86828701614a24565b9150509250925092565b801515811461138f57600080fd5b600060208284031215614b0657600080fd5b81356127f981614ae6565b600067ffffffffffffffff831115614b2b57614b2b6149b9565b614b3e601f8401601f19166020016149cf565b9050828152838383011115614b5257600080fd5b828260208301376000602084830101529392505050565b600082601f830112614b7a57600080fd5b6127f983833560208501614b11565b80356001600160a01b03811681146149b457600080fd5b8035600081900b81146149b457600080fd5b600082601f830112614bc357600080fd5b81356020614bd3614a4583614a00565b82815260059290921b84018101918181019086841115614bf257600080fd5b8286015b84811015614a8457614c0781614b89565b8352918301918301614bf6565b600082601f830112614c2557600080fd5b81356020614c35614a4583614a00565b82815260059290921b84018101918181019086841115614c5457600080fd5b8286015b84811015614a8457614c6981614ba0565b8352918301918301614c58565b803563ffffffff811681146149b457600080fd5b60008060008060008060008060008060006101608c8e031215614cac57600080fd5b67ffffffffffffffff808d351115614cc357600080fd5b614cd08e8e358f01614b69565b9b508060208e01351115614ce357600080fd5b614cf38e60208f01358f01614b69565b9a50614d0160408e01614b89565b9950614d0f60608e01614ba0565b98508060808e01351115614d2257600080fd5b614d328e60808f01358f01614bb2565b97508060a08e01351115614d4557600080fd5b50614d568d60a08e01358e01614c14565b9550614d6460c08d01614c76565b9450614d7260e08d01614c76565b9350614d816101008d01614c76565b9250614d906101208d01614b89565b9150614d9f6101408d01614b89565b90509295989b509295989b9093969950565b600060208083526101608301845115158285015281850151604061014081870152828251808552610180880191508584019450600093505b80841015614e2357614e0f82865180516001600160a01b03168252602090810151910152565b938501936001939093019290820190614de9565b508782015180516001600160a01b031660608901526020810151608089015294506060880151805160a0890152602081015160ff1660c089015294506080880151805160e0890152602081015160ff16610100890152945060a08801518051610120890152602081015160ff166101408901529450979650505050505050565b60008060408385031215614eb657600080fd5b614ebf83614c76565b9150614ecd60208401614c76565b90509250929050565b600060208284031215614ee857600080fd5b6127f982614b89565b60008060408385031215614f0457600080fd5b614f0d83614b89565b9150602083013567ffffffffffffffff811115614f2957600080fd5b8301601f81018513614f3a57600080fd5b614f4985823560208401614b11565b9150509250929050565b60008060408385031215614f6657600080fd5b82359150602083013567ffffffffffffffff811115614f8457600080fd5b614f4985828601614a24565b6020808252825182820181905260009190848201906040850190845b81811015614fc857835183529284019291840191600101614fac565b50909695505050505050565b600080600060608486031215614fe957600080fd5b833567ffffffffffffffff81111561500057600080fd5b61500c86828701614a24565b93505061501b602085016149a3565b9150604084013590509250925092565b6000806000806080858703121561504157600080fd5b84359350615051602086016149a3565b925061505f604086016149a3565b9396929550929360600135925050565b60008060006060848603121561508457600080fd5b8335925061501b602085016149a3565b600080604083850312156150a757600080fd5b823567ffffffffffffffff8111156150be57600080fd5b6150ca85828601614a24565b95602094909401359450505050565b634e487b7160e01b600052603260045260246000fd5b60005b8381101561510a5781810151838201526020016150f2565b8381111561412a5750506000910152565b600081518084526151338160208601602086016150ef565b601f01601f19169290920160200192915050565b60408152600061515a604083018561511b565b828103602084015261516c818561511b565b95945050505050565b60006020828403121561518757600080fd5b81516127f981614ae6565b634e487b7160e01b600052601160045260246000fd5b60006000198214156151bc576151bc615192565b5060010190565b6000602082840312156151d557600080fd5b5051919050565b600063ffffffff838116908316818110156151f9576151f9615192565b039392505050565b6000821982111561521457615214615192565b500190565b600081600019048311821515161561523357615233615192565b500290565b634e487b7160e01b600052601260045260246000fd5b60008261526b57634e487b7160e01b600052601260045260246000fd5b500490565b6001600160a01b03831681526040602082015260006145c6604083018461511b565b600181815b808511156152cd5781600019048211156152b3576152b3615192565b808516156152c057918102915b93841c9390800290615297565b509250929050565b6000826152e4575060016127fc565b816152f1575060006127fc565b816001811461530757600281146153115761532d565b60019150506127fc565b60ff84111561532257615322615192565b50506001821b6127fc565b5060208310610133831016604e8410600b8410161715615350575081810a6127fc565b61535a8383615292565b806000190482111561536e5761536e615192565b029392505050565b60006127f983836152d5565b600063ffffffff808316818516818304811182151516156153a5576153a5615192565b02949350505050565b600063ffffffff8083168185168083038211156153cd576153cd615192565b01949350505050565b6000828210156153e8576153e8615192565b500390565b600082516153ff8184602087016150ef565b9190910192915050565b6020815260006127f9602083018461511b56fe416464726573733a206c6f772d6c6576656c2064656c65676174652063616c6c206661696c6564a2646970667358221220b3a27da0558aa55b33df6fcb63b7d55e66f91efe7840a1d40a8de873f989609364736f6c63430008090033",
  "devdoc": {
    "kind": "dev",
    "methods": {
      "proxiableUUID()": {
        "details": "Implementation of the ERC1822 {proxiableUUID} function. This returns the storage slot used by the implementation. It is used to validate that the this implementation remains valid after an upgrade. IMPORTANT: A proxy pointing at a proxiable contract should not be considered proxiable itself, because this risks bricking a proxy that upgrades to it, by delegating to itself until out of gas. Thus it is critical that this function revert if invoked through a proxy. This is guaranteed by the `notDelegated` modifier."
      },
      "upgradeTo(address)": {
        "details": "Upgrade the implementation of the proxy to `newImplementation`. Calls {_authorizeUpgrade}. Emits an {Upgraded} event."
      },
      "upgradeToAndCall(address,bytes)": {
        "details": "Upgrade the implementation of the proxy to `newImplementation`, and subsequently execute the function call encoded in `data`. Calls {_authorizeUpgrade}. Emits an {Upgraded} event."
      }
    },
    "version": 1
  },
  "userdoc": {
    "kind": "user",
    "methods": {},
    "version": 1
  },
  "storageLayout": {
    "storage": [
      {
        "astId": 527,
        "contract": "contracts/Pool.sol:Pool",
        "label": "_initialized",
        "offset": 0,
        "slot": "0",
        "type": "t_uint8"
      },
      {
        "astId": 530,
        "contract": "contracts/Pool.sol:Pool",
        "label": "_initializing",
        "offset": 1,
        "slot": "0",
        "type": "t_bool"
      },
      {
        "astId": 5916,
        "contract": "contracts/Pool.sol:Pool",
        "label": "tokenCount",
        "offset": 2,
        "slot": "0",
        "type": "t_uint8"
      },
      {
        "astId": 5918,
        "contract": "contracts/Pool.sol:Pool",
        "label": "paused",
        "offset": 3,
        "slot": "0",
        "type": "t_bool"
      },
      {
        "astId": 5920,
        "contract": "contracts/Pool.sol:Pool",
        "label": "totalFee",
        "offset": 4,
        "slot": "0",
        "type": "t_uint32"
      },
      {
        "astId": 5922,
        "contract": "contracts/Pool.sol:Pool",
        "label": "governanceFee",
        "offset": 8,
        "slot": "0",
        "type": "t_uint32"
      },
      {
        "astId": 5924,
        "contract": "contracts/Pool.sol:Pool",
        "label": "ampInitialValue",
        "offset": 12,
        "slot": "0",
        "type": "t_uint32"
      },
      {
        "astId": 5926,
        "contract": "contracts/Pool.sol:Pool",
        "label": "ampInitialTimestamp",
        "offset": 16,
        "slot": "0",
        "type": "t_uint32"
      },
      {
        "astId": 5928,
        "contract": "contracts/Pool.sol:Pool",
        "label": "ampTargetValue",
        "offset": 20,
        "slot": "0",
        "type": "t_uint32"
      },
      {
        "astId": 5930,
        "contract": "contracts/Pool.sol:Pool",
        "label": "ampTargetTimestamp",
        "offset": 24,
        "slot": "0",
        "type": "t_uint32"
      },
      {
        "astId": 5933,
        "contract": "contracts/Pool.sol:Pool",
        "label": "lpTokenData",
        "offset": 0,
        "slot": "1",
        "type": "t_struct(TokenWithEqualizer)5901_storage"
      },
      {
        "astId": 5938,
        "contract": "contracts/Pool.sol:Pool",
        "label": "poolTokensData",
        "offset": 0,
        "slot": "2",
        "type": "t_array(t_struct(TokenWithEqualizer)5901_storage)6_storage"
      },
      {
        "astId": 5940,
        "contract": "contracts/Pool.sol:Pool",
        "label": "governance",
        "offset": 0,
        "slot": "8",
        "type": "t_address"
      },
      {
        "astId": 5942,
        "contract": "contracts/Pool.sol:Pool",
        "label": "governanceFeeRecipient",
        "offset": 0,
        "slot": "9",
        "type": "t_address"
      }
    ],
    "types": {
      "t_address": {
        "encoding": "inplace",
        "label": "address",
        "numberOfBytes": "20"
      },
      "t_array(t_struct(TokenWithEqualizer)5901_storage)6_storage": {
        "base": "t_struct(TokenWithEqualizer)5901_storage",
        "encoding": "inplace",
        "label": "struct Pool.TokenWithEqualizer[6]",
        "numberOfBytes": "192"
      },
      "t_bool": {
        "encoding": "inplace",
        "label": "bool",
        "numberOfBytes": "1"
      },
      "t_int8": {
        "encoding": "inplace",
        "label": "int8",
        "numberOfBytes": "1"
      },
      "t_struct(TokenWithEqualizer)5901_storage": {
        "encoding": "inplace",
        "label": "struct Pool.TokenWithEqualizer",
        "members": [
          {
            "astId": 5898,
            "contract": "contracts/Pool.sol:Pool",
            "label": "addr",
            "offset": 0,
            "slot": "0",
            "type": "t_address"
          },
          {
            "astId": 5900,
            "contract": "contracts/Pool.sol:Pool",
            "label": "equalizer",
            "offset": 20,
            "slot": "0",
            "type": "t_int8"
          }
        ],
        "numberOfBytes": "32"
      },
      "t_uint32": {
        "encoding": "inplace",
        "label": "uint32",
        "numberOfBytes": "4"
      },
      "t_uint8": {
        "encoding": "inplace",
        "label": "uint8",
        "numberOfBytes": "1"
      }
    }
  }
}