{
  "address": "0xe7f1725E7734CE288F8367e1Bb143E90bb3F0512",
  "abi": [
    {
      "inputs": [],
      "name": "CenterAlignment_NumericOverflow",
      "type": "error"
    },
    {
      "inputs": [
        {
          "internalType": "uint256",
          "name": "value",
          "type": "uint256"
        },
        {
          "internalType": "int8",
          "name": "equalizer",
          "type": "int8"
        }
      ],
      "name": "Equalize_LosingAllPrecision",
      "type": "error"
    },
    {
      "inputs": [
        {
          "internalType": "uint256",
          "name": "amount",
          "type": "uint256"
        },
        {
          "internalType": "int8",
          "name": "equalizer",
          "type": "int8"
        }
      ],
      "name": "Equalize_MaxAmountExceeded",
      "type": "error"
    },
    {
      "inputs": [
        {
          "internalType": "uint256",
          "name": "unknownBalance",
          "type": "uint256"
        }
      ],
      "name": "Invariant_UnknownBalanceTooLarge",
      "type": "error"
    },
    {
      "inputs": [],
      "name": "PoolMath_ImpossibleRemove",
      "type": "error"
    },
    {
      "inputs": [
        {
          "internalType": "uint8",
          "name": "count",
          "type": "uint8"
        },
        {
          "internalType": "uint8",
          "name": "expected",
          "type": "uint8"
        }
      ],
      "name": "Pool_AmountCountMismatch",
      "type": "error"
    },
    {
      "inputs": [
        {
          "internalType": "address",
          "name": "token",
          "type": "address"
        },
        {
          "internalType": "uint256",
          "name": "amount",
          "type": "uint256"
        },
        {
          "internalType": "uint256",
          "name": "poolbalance",
          "type": "uint256"
        }
      ],
      "name": "Pool_AmountExceedsSupply",
      "type": "error"
    },
    {
      "inputs": [],
      "name": "Pool_AmpFactorIsFixedForConstantProductPools",
      "type": "error"
    },
    {
      "inputs": [
        {
          "internalType": "uint32",
          "name": "current",
          "type": "uint32"
        },
        {
          "internalType": "uint32",
          "name": "target",
          "type": "uint32"
        },
        {
          "internalType": "uint32",
          "name": "threshold",
          "type": "uint32"
        }
      ],
      "name": "Pool_AmpFactorRelativeAdjustmentTooLarge",
      "type": "error"
    },
    {
      "inputs": [
        {
          "internalType": "uint32",
          "name": "target",
          "type": "uint32"
        },
        {
          "internalType": "uint32",
          "name": "minimum",
          "type": "uint32"
        }
      ],
      "name": "Pool_AmpFactorTargetTimestampTooSmall",
      "type": "error"
    },
    {
      "inputs": [
        {
          "internalType": "uint32",
          "name": "ampFactor",
          "type": "uint32"
        },
        {
          "internalType": "uint32",
          "name": "maximum",
          "type": "uint32"
        }
      ],
      "name": "Pool_AmpFactorTooLarge",
      "type": "error"
    },
    {
      "inputs": [
        {
          "internalType": "uint32",
          "name": "ampFactor",
          "type": "uint32"
        },
        {
          "internalType": "uint32",
          "name": "minimum",
          "type": "uint32"
        }
      ],
      "name": "Pool_AmpFactorTooSmall",
      "type": "error"
    },
    {
      "inputs": [
        {
          "internalType": "uint8",
          "name": "tokenCount",
          "type": "uint8"
        }
      ],
      "name": "Pool_ConstantProductNotSupportedForTokenCount",
      "type": "error"
    },
    {
      "inputs": [],
      "name": "Pool_GovernanceOnly",
      "type": "error"
    },
    {
      "inputs": [
        {
          "internalType": "uint8",
          "name": "missingAmountIndex",
          "type": "uint8"
        }
      ],
      "name": "Pool_InitialAddMustIncludeAllTokens",
      "type": "error"
    },
    {
      "inputs": [
        {
          "internalType": "uint8",
          "name": "tokenIndex",
          "type": "uint8"
        },
        {
          "internalType": "uint8",
          "name": "tokenCount",
          "type": "uint8"
        }
      ],
      "name": "Pool_InvalidTokenIndex",
      "type": "error"
    },
    {
      "inputs": [],
      "name": "Pool_IsPaused",
      "type": "error"
    },
    {
      "inputs": [],
      "name": "Pool_LpTokenInitializationFailed",
      "type": "error"
    },
    {
      "inputs": [
        {
          "internalType": "uint8",
          "name": "value",
          "type": "uint8"
        },
        {
          "internalType": "uint8",
          "name": "maximum",
          "type": "uint8"
        }
      ],
      "name": "Pool_MaxTokenCountExceeded",
      "type": "error"
    },
    {
      "inputs": [],
      "name": "Pool_NonZeroGovernanceFeeButNoRecipient",
      "type": "error"
    },
    {
      "inputs": [
        {
          "internalType": "uint8",
          "name": "tokenIndex",
          "type": "uint8"
        },
        {
          "internalType": "uint256",
          "name": "amount",
          "type": "uint256"
        }
      ],
      "name": "Pool_RequestedTokenAmountNotZero",
      "type": "error"
    },
    {
      "inputs": [
        {
          "internalType": "address",
          "name": "token",
          "type": "address"
        },
        {
          "internalType": "uint256",
          "name": "amount",
          "type": "uint256"
        },
        {
          "internalType": "uint256",
          "name": "threshold",
          "type": "uint256"
        }
      ],
      "name": "Pool_SlippageExceeded",
      "type": "error"
    },
    {
      "inputs": [
        {
          "internalType": "uint8",
          "name": "count",
          "type": "uint8"
        },
        {
          "internalType": "uint8",
          "name": "expected",
          "type": "uint8"
        }
      ],
      "name": "Pool_TokenEqualizerCountMismatch",
      "type": "error"
    },
    {
      "inputs": [
        {
          "internalType": "int8",
          "name": "equalizer",
          "type": "int8"
        },
        {
          "internalType": "int8",
          "name": "maximum",
          "type": "int8"
        }
      ],
      "name": "Pool_TokenEqualizerTooLarge",
      "type": "error"
    },
    {
      "inputs": [
        {
          "internalType": "int8",
          "name": "equalizer",
          "type": "int8"
        },
        {
          "internalType": "int8",
          "name": "minimum",
          "type": "int8"
        }
      ],
      "name": "Pool_TokenEqualizerTooSmall",
      "type": "error"
    },
    {
      "inputs": [
        {
          "internalType": "uint32",
          "name": "totalFee",
          "type": "uint32"
        },
        {
          "internalType": "uint32",
          "name": "maximum",
          "type": "uint32"
        }
      ],
      "name": "Pool_TotalFeeTooLarge",
      "type": "error"
    },
    {
      "anonymous": false,
      "inputs": [
        {
          "indexed": false,
          "internalType": "address",
          "name": "previousAdmin",
          "type": "address"
        },
        {
          "indexed": false,
          "internalType": "address",
          "name": "newAdmin",
          "type": "address"
        }
      ],
      "name": "AdminChanged",
      "type": "event"
    },
    {
      "anonymous": false,
      "inputs": [
        {
          "indexed": true,
          "internalType": "address",
          "name": "beacon",
          "type": "address"
        }
      ],
      "name": "BeaconUpgraded",
      "type": "event"
    },
    {
      "anonymous": false,
      "inputs": [
        {
          "indexed": false,
          "internalType": "uint8",
          "name": "version",
          "type": "uint8"
        }
      ],
      "name": "Initialized",
      "type": "event"
    },
    {
      "anonymous": false,
      "inputs": [
        {
          "indexed": true,
          "internalType": "address",
          "name": "implementation",
          "type": "address"
        }
      ],
      "name": "Upgraded",
      "type": "event"
    },
    {
      "inputs": [
        {
          "internalType": "uint256[]",
          "name": "inputAmounts",
          "type": "uint256[]"
        },
        {
          "internalType": "uint256",
          "name": "minimumMintAmount",
          "type": "uint256"
        }
      ],
      "name": "add",
      "outputs": [
        {
          "internalType": "uint256",
          "name": "mintAmount",
          "type": "uint256"
        }
      ],
      "stateMutability": "nonpayable",
      "type": "function"
    },
    {
      "inputs": [
        {
          "internalType": "uint32",
          "name": "targetValue",
          "type": "uint32"
        },
        {
          "internalType": "uint32",
          "name": "targetTimestamp",
          "type": "uint32"
        }
      ],
      "name": "adjustAmpFactor",
      "outputs": [],
      "stateMutability": "nonpayable",
      "type": "function"
    },
    {
      "inputs": [],
      "name": "ampInitialTimestamp",
      "outputs": [
        {
          "internalType": "uint32",
          "name": "",
          "type": "uint32"
        }
      ],
      "stateMutability": "view",
      "type": "function"
    },
    {
      "inputs": [],
      "name": "ampTargetTimestamp",
      "outputs": [
        {
          "internalType": "uint32",
          "name": "",
          "type": "uint32"
        }
      ],
      "stateMutability": "view",
      "type": "function"
    },
    {
      "inputs": [
        {
          "internalType": "address",
          "name": "_governanceFeeRecipient",
          "type": "address"
        }
      ],
      "name": "changeGovernanceFeeRecipient",
      "outputs": [],
      "stateMutability": "nonpayable",
      "type": "function"
    },
    {
      "inputs": [],
      "name": "getState",
      "outputs": [
        {
          "components": [
            {
              "internalType": "bool",
              "name": "paused",
              "type": "bool"
            },
            {
              "components": [
                {
                  "internalType": "address",
                  "name": "tokenAddres",
                  "type": "address"
                },
                {
                  "internalType": "uint256",
                  "name": "balance",
                  "type": "uint256"
                }
              ],
              "internalType": "struct TokenBalance[]",
              "name": "balances",
              "type": "tuple[]"
            },
            {
              "components": [
                {
                  "internalType": "address",
                  "name": "tokenAddres",
                  "type": "address"
                },
                {
                  "internalType": "uint256",
                  "name": "balance",
                  "type": "uint256"
                }
              ],
              "internalType": "struct TokenBalance",
              "name": "totalLPSupply",
              "type": "tuple"
            },
            {
              "components": [
                {
                  "internalType": "uint256",
                  "name": "value",
                  "type": "uint256"
                },
                {
                  "internalType": "uint8",
                  "name": "decimals",
                  "type": "uint8"
                }
              ],
              "internalType": "struct Decimal",
              "name": "ampFactor",
              "type": "tuple"
            },
            {
              "components": [
                {
                  "internalType": "uint256",
                  "name": "value",
                  "type": "uint256"
                },
                {
                  "internalType": "uint8",
                  "name": "decimals",
                  "type": "uint8"
                }
              ],
              "internalType": "struct Decimal",
              "name": "lpFee",
              "type": "tuple"
            },
            {
              "components": [
                {
                  "internalType": "uint256",
                  "name": "value",
                  "type": "uint256"
                },
                {
                  "internalType": "uint8",
                  "name": "decimals",
                  "type": "uint8"
                }
              ],
              "internalType": "struct Decimal",
              "name": "governanceFee",
              "type": "tuple"
            }
          ],
          "internalType": "struct PoolState",
          "name": "",
          "type": "tuple"
        }
      ],
      "stateMutability": "view",
      "type": "function"
    },
    {
      "inputs": [],
      "name": "governance",
      "outputs": [
        {
          "internalType": "address",
          "name": "",
          "type": "address"
        }
      ],
      "stateMutability": "view",
      "type": "function"
    },
    {
      "inputs": [],
      "name": "governanceFee",
      "outputs": [
        {
          "internalType": "uint32",
          "name": "",
          "type": "uint32"
        }
      ],
      "stateMutability": "view",
      "type": "function"
    },
    {
      "inputs": [],
      "name": "governanceFeeRecipient",
      "outputs": [
        {
          "internalType": "address",
          "name": "",
          "type": "address"
        }
      ],
      "stateMutability": "view",
      "type": "function"
    },
    {
      "inputs": [
        {
          "internalType": "string",
          "name": "lpTokenName",
          "type": "string"
        },
        {
          "internalType": "string",
          "name": "lpTokenSymbol",
          "type": "string"
        },
        {
          "internalType": "address",
          "name": "lpTokenAddress",
          "type": "address"
        },
        {
          "internalType": "int8",
          "name": "lpTokenEqualizer",
          "type": "int8"
        },
        {
          "internalType": "address[]",
          "name": "poolTokenAddresses",
          "type": "address[]"
        },
        {
          "internalType": "int8[]",
          "name": "poolTokenEqualizers",
          "type": "int8[]"
        },
        {
          "internalType": "uint32",
          "name": "ampFactor",
          "type": "uint32"
        },
        {
          "internalType": "uint32",
          "name": "lpFee",
          "type": "uint32"
        },
        {
          "internalType": "uint32",
          "name": "_governanceFee",
          "type": "uint32"
        },
        {
          "internalType": "address",
          "name": "_governanceFeeRecipient",
          "type": "address"
        }
      ],
      "name": "initialize",
      "outputs": [],
      "stateMutability": "nonpayable",
      "type": "function"
    },
    {
      "inputs": [],
      "name": "lpTokenData",
      "outputs": [
        {
          "internalType": "address",
          "name": "addr",
          "type": "address"
        },
        {
          "internalType": "int8",
          "name": "equalizer",
          "type": "int8"
        }
      ],
      "stateMutability": "view",
      "type": "function"
    },
    {
      "inputs": [],
      "name": "paused",
      "outputs": [
        {
          "internalType": "bool",
          "name": "",
          "type": "bool"
        }
      ],
      "stateMutability": "view",
      "type": "function"
    },
    {
      "inputs": [
        {
          "internalType": "uint256",
          "name": "",
          "type": "uint256"
        }
      ],
      "name": "poolTokensData",
      "outputs": [
        {
          "internalType": "address",
          "name": "addr",
          "type": "address"
        },
        {
          "internalType": "int8",
          "name": "equalizer",
          "type": "int8"
        }
      ],
      "stateMutability": "view",
      "type": "function"
    },
    {
      "inputs": [],
      "name": "proxiableUUID",
      "outputs": [
        {
          "internalType": "bytes32",
          "name": "",
          "type": "bytes32"
        }
      ],
      "stateMutability": "view",
      "type": "function"
    },
    {
      "inputs": [
        {
          "internalType": "uint256",
          "name": "burnAmount",
          "type": "uint256"
        },
        {
          "internalType": "uint8",
          "name": "outputTokenIndex",
          "type": "uint8"
        },
        {
          "internalType": "uint256",
          "name": "minimumOutputAmount",
          "type": "uint256"
        }
      ],
      "name": "removeExactBurn",
      "outputs": [
        {
          "internalType": "uint256",
          "name": "outputAmount",
          "type": "uint256"
        }
      ],
      "stateMutability": "nonpayable",
      "type": "function"
    },
    {
      "inputs": [
        {
          "internalType": "uint256[]",
          "name": "outputAmounts",
          "type": "uint256[]"
        },
        {
          "internalType": "uint256",
          "name": "maximumBurnAmount",
          "type": "uint256"
        }
      ],
      "name": "removeExactOutput",
      "outputs": [
        {
          "internalType": "uint256",
          "name": "burnAmount",
          "type": "uint256"
        }
      ],
      "stateMutability": "nonpayable",
      "type": "function"
    },
    {
      "inputs": [
        {
          "internalType": "uint256",
          "name": "burnAmount",
          "type": "uint256"
        },
        {
          "internalType": "uint256[]",
          "name": "minimumOutputAmounts",
          "type": "uint256[]"
        }
      ],
      "name": "removeUniform",
      "outputs": [
        {
          "internalType": "uint256[]",
          "name": "outputAmounts",
          "type": "uint256[]"
        }
      ],
      "stateMutability": "nonpayable",
      "type": "function"
    },
    {
      "inputs": [
        {
          "internalType": "uint32",
          "name": "lpFee",
          "type": "uint32"
        },
        {
          "internalType": "uint32",
          "name": "_governanceFee",
          "type": "uint32"
        }
      ],
      "name": "setFees",
      "outputs": [],
      "stateMutability": "nonpayable",
      "type": "function"
    },
    {
      "inputs": [
        {
          "internalType": "bool",
          "name": "_paused",
          "type": "bool"
        }
      ],
      "name": "setPaused",
      "outputs": [],
      "stateMutability": "nonpayable",
      "type": "function"
    },
    {
      "inputs": [
        {
          "internalType": "uint256",
          "name": "inputAmount",
          "type": "uint256"
        },
        {
          "internalType": "uint8",
          "name": "inputTokenIndex",
          "type": "uint8"
        },
        {
          "internalType": "uint8",
          "name": "outputTokenIndex",
          "type": "uint8"
        },
        {
          "internalType": "uint256",
          "name": "minimumOutputAmount",
          "type": "uint256"
        }
      ],
      "name": "swap",
      "outputs": [
        {
          "internalType": "uint256",
          "name": "outputAmount",
          "type": "uint256"
        }
      ],
      "stateMutability": "nonpayable",
      "type": "function"
    },
    {
      "inputs": [
        {
          "internalType": "uint256[]",
          "name": "inputAmounts",
          "type": "uint256[]"
        },
        {
          "internalType": "uint8",
          "name": "outputTokenIndex",
          "type": "uint8"
        },
        {
          "internalType": "uint256",
          "name": "minimumOutputAmount",
          "type": "uint256"
        }
      ],
      "name": "swapExactInput",
      "outputs": [
        {
          "internalType": "uint256",
          "name": "outputAmount",
          "type": "uint256"
        }
      ],
      "stateMutability": "nonpayable",
      "type": "function"
    },
    {
      "inputs": [
        {
          "internalType": "uint256",
          "name": "maximumInputAmount",
          "type": "uint256"
        },
        {
          "internalType": "uint8",
          "name": "inputTokenIndex",
          "type": "uint8"
        },
        {
          "internalType": "uint256[]",
          "name": "outputAmounts",
          "type": "uint256[]"
        }
      ],
      "name": "swapExactOutput",
      "outputs": [
        {
          "internalType": "uint256",
          "name": "inputAmount",
          "type": "uint256"
        }
      ],
      "stateMutability": "nonpayable",
      "type": "function"
    },
    {
      "inputs": [],
      "name": "tokenCount",
      "outputs": [
        {
          "internalType": "uint8",
          "name": "",
          "type": "uint8"
        }
      ],
      "stateMutability": "view",
      "type": "function"
    },
    {
      "inputs": [],
      "name": "totalFee",
      "outputs": [
        {
          "internalType": "uint32",
          "name": "",
          "type": "uint32"
        }
      ],
      "stateMutability": "view",
      "type": "function"
    },
    {
      "inputs": [
        {
          "internalType": "address",
          "name": "_governance",
          "type": "address"
        }
      ],
      "name": "transferGovernance",
      "outputs": [],
      "stateMutability": "nonpayable",
      "type": "function"
    },
    {
      "inputs": [
        {
          "internalType": "address",
          "name": "newImplementation",
          "type": "address"
        },
        {
          "internalType": "bytes",
          "name": "data",
          "type": "bytes"
        }
      ],
      "name": "upgradeLpToken",
      "outputs": [],
      "stateMutability": "nonpayable",
      "type": "function"
    },
    {
      "inputs": [
        {
          "internalType": "address",
          "name": "newImplementation",
          "type": "address"
        }
      ],
      "name": "upgradeLpToken",
      "outputs": [],
      "stateMutability": "nonpayable",
      "type": "function"
    },
    {
      "inputs": [
        {
          "internalType": "address",
          "name": "newImplementation",
          "type": "address"
        }
      ],
      "name": "upgradeTo",
      "outputs": [],
      "stateMutability": "nonpayable",
      "type": "function"
    },
    {
      "inputs": [
        {
          "internalType": "address",
          "name": "newImplementation",
          "type": "address"
        },
        {
          "internalType": "bytes",
          "name": "data",
          "type": "bytes"
        }
      ],
      "name": "upgradeToAndCall",
      "outputs": [],
      "stateMutability": "payable",
      "type": "function"
    }
  ],
  "transactionHash": "0xcd27b599b4cc7a63709d30bdf49dee3a8c453aef30418c007f805d93e05bc2fc",
  "args": [],
  "numDeployments": 1,
  "solcInputHash": "9344be4a3fcd7a557291e1f2cc9e062c",
  "bytecode": "0x60a06040523060805234801561001457600080fd5b5060805161513861004c60003960008181610c6d01528181610cf20152818161160001528181611685015261176b01526151386000f3fe6080604052600436106101c25760003560e01c80635c975abb116100f7578063d1bba74d11610095578063e7744e7511610064578063e7744e7514610582578063ee763c58146105a2578063eec21d49146105c2578063fa4d3918146105e257600080fd5b8063d1bba74d14610502578063d38bfff414610522578063dbbc281a14610542578063dc163d4e1461056257600080fd5b80637ea59853116100d15780637ea598531461046857806384435de31461048c578063851c428d146104ac5780639f181b5e146104d057600080fd5b80635c975abb146103ea5780637cb726a61461041b5780637e726dde1461044857600080fd5b80632d94f867116101645780634d98123c1161013e5780634d98123c1461036a5780634f1ef2861461038a57806352d1902d1461039d5780635aa6e675146103b257600080fd5b80632d94f867146102fe5780633659cfe61461032a57806336d340ad1461034a57600080fd5b806316c38b3c116101a057806316c38b3c146102755780631865c57d146102975780631df4ccfc146102b9578063259fc998146102de57600080fd5b806309773522146101c75780630ea90a121461020e57806312f6113714610247575b600080fd5b3480156101d357600080fd5b506101e76101e236600461465d565b610602565b604080516001600160a01b03909316835260009190910b6020830152015b60405180910390f35b34801561021a57600080fd5b5060005461023290600160401b900463ffffffff1681565b60405163ffffffff9091168152602001610205565b34801561025357600080fd5b50610267610262366004614762565b61062d565b604051908152602001610205565b34801561028157600080fd5b506102956102903660046147c7565b61090c565b005b3480156102a357600080fd5b506102ac610955565b60405161020591906147e4565b3480156102c557600080fd5b5060005461023290640100000000900463ffffffff1681565b3480156102ea57600080fd5b506102956102f93660046148ea565b610c29565b34801561030a57600080fd5b506001546101e7906001600160a01b03811690600160a01b900460000b82565b34801561033657600080fd5b50610295610345366004614934565b610c62565b34801561035657600080fd5b50610295610365366004614a9d565b610dde565b34801561037657600080fd5b506102956103853660046148ea565b611382565b610295610398366004614bb0565b6115f5565b3480156103a957600080fd5b5061026761175e565b3480156103be57600080fd5b506008546103d2906001600160a01b031681565b6040516001600160a01b039091168152602001610205565b3480156103f657600080fd5b5060005461040b906301000000900460ff1681565b6040519015158152602001610205565b34801561042757600080fd5b5061043b610436366004614c12565b611823565b6040516102059190614c4f565b34801561045457600080fd5b50610295610463366004614bb0565b611adb565b34801561047457600080fd5b5060005461023290600160c01b900463ffffffff1681565b34801561049857600080fd5b506102676104a7366004614c93565b611b87565b3480156104b857600080fd5b5060005461023290600160801b900463ffffffff1681565b3480156104dc57600080fd5b506000546104f09062010000900460ff1681565b60405160ff9091168152602001610205565b34801561050e57600080fd5b5061029561051d366004614934565b611ced565b34801561052e57600080fd5b5061029561053d366004614934565b611d93565b34801561054e57600080fd5b5061029561055d366004614934565b611de0565b34801561056e57600080fd5b5061026761057d366004614cea565b611e70565b34801561058e57600080fd5b5061026761059d366004614d2e565b611f31565b3480156105ae57600080fd5b506102676105bd366004614d53565b61205f565b3480156105ce57600080fd5b506102676105dd366004614d53565b61222f565b3480156105ee57600080fd5b506009546103d2906001600160a01b031681565b6002816006811061061257600080fd5b01546001600160a01b0381169150600160a01b900460000b82565b600080546301000000900460ff161561065957604051630b96dad560e21b815260040160405180910390fd5b600080600080610667612417565b93509350935093506106798785612689565b858760ff168151811061068e5761068e614d98565b60200260200101516000146107005786868860ff16815181106106b3576106b3614d98565b60209081029190910101516040517fc2d79ffb00000000000000000000000000000000000000000000000000000000815260ff909216600483015260248201526044015b60405180910390fd5b600061070c87866126d2565b905060005b8581101561082b578260200151818151811061072f5761072f614d98565b602002602001015182828151811061074957610749614d98565b602002602001015110610823576002816006811061076957610769614d98565b015488516001600160a01b039091169089908390811061078b5761078b614d98565b60200260200101516107d8856020015184815181106107ac576107ac614d98565b6020026020010151600285600681106107c7576107c7614d98565b0154600160a01b900460000b6127cb565b6040517f199590760000000000000000000000000000000000000000000000000000000081526001600160a01b039093166004840152602483019190915260448201526064016106f7565b600101610711565b5060008061083c6000848c87612851565b9150915061085a8260028c60ff16600681106107c7576107c7614d98565b97508a8811156108af5760028a60ff166006811061087a5761087a614d98565b0154604051639e8eb45960e01b81526001600160a01b03909116600482015260248101899052604481018c90526064016106f7565b6108bc888b60ff16612cd3565b60005b878110156108f2576108ea8a82815181106108dc576108dc614d98565b602002602001015182612d0c565b6001016108bf565b506108fe818787612d3f565b505050505050509392505050565b6008546001600160a01b0316331461093757604051635bbf1d0360e01b815260040160405180910390fd5b6000805491151563010000000263ff00000019909216919091179055565b61095d6145a8565b600080546040805160c0810190915260ff63010000008304811615158252620100009092049091169190602081018367ffffffffffffffff8111156109a4576109a461468c565b6040519080825280602002602001820160405280156109e957816020015b60408051808201909152600080825260208201528152602001906001900390816109c25790505b5081526040805180820182526001546001600160a01b031680825282516318160ddd60e01b815292516020948501949293848401936318160ddd92600480840193829003018186803b158015610a3e57600080fd5b505afa158015610a52573d6000803e3d6000fd5b505050506040513d601f19601f82011682018060405250810190610a769190614dae565b81525081526020016040518060400160405280610aa4610a94612dbf565b63ffffffff166103e802600a1c90565b63ffffffff9081168252600360209283015291835260408051808201909152600054939091019290918291610aeb91600160401b8204811691640100000000900416614ddd565b63ffffffff9081168252600660209283018190529284526040805180820190915260008054600160401b90049092168152808301939093529201529091505b82811015610c2257604051806040016040528060028360068110610b5057610b50614d98565b01546001600160a01b0316815260200160028360068110610b7357610b73614d98565b01546040516370a0823160e01b81523060048201526001600160a01b03909116906370a082319060240160206040518083038186803b158015610bb557600080fd5b505afa158015610bc9573d6000803e3d6000fd5b505050506040513d601f19601f82011682018060405250810190610bed9190614dae565b81525082602001518281518110610c0657610c06614d98565b602002602001018190525080610c1b90614e02565b9050610b2a565b5092915050565b6008546001600160a01b03163314610c5457604051635bbf1d0360e01b815260040160405180910390fd5b610c5e8282612e53565b5050565b306001600160a01b037f0000000000000000000000000000000000000000000000000000000000000000161415610cf05760405162461bcd60e51b815260206004820152602c60248201527f46756e6374696f6e206d7573742062652063616c6c6564207468726f7567682060448201526b19195b1959d85d1958d85b1b60a21b60648201526084016106f7565b7f00000000000000000000000000000000000000000000000000000000000000006001600160a01b0316610d4b7f360894a13ba1a3210667c828492db98dca3e2076cc3735a920a3ca505d382bbc546001600160a01b031690565b6001600160a01b031614610db65760405162461bcd60e51b815260206004820152602c60248201527f46756e6374696f6e206d7573742062652063616c6c6564207468726f7567682060448201526b6163746976652070726f787960a01b60648201526084016106f7565b610dbf81612f6d565b60408051600080825260208201909252610ddb91839190612f98565b50565b600054610100900460ff1615808015610dfe5750600054600160ff909116105b80610e185750303b158015610e18575060005460ff166001145b610e8a5760405162461bcd60e51b815260206004820152602e60248201527f496e697469616c697a61626c653a20636f6e747261637420697320616c72656160448201527f647920696e697469616c697a656400000000000000000000000000000000000060648201526084016106f7565b6000805460ff191660011790558015610ead576000805461ff0019166101001790555b6040517f4cd88b7600000000000000000000000000000000000000000000000000000000815289906001600160a01b03821690634cd88b7690610ef6908f908f90600401614e75565b602060405180830381600087803b158015610f1057600080fd5b505af1158015610f24573d6000803e3d6000fd5b505050506040513d601f19601f82011682018060405250810190610f489190614ea3565b610f7e576040517f3d8c43d800000000000000000000000000000000000000000000000000000000815260040160405180910390fd5b6001805460ff8b16600160a01b027fffffffffffffffffffffff0000000000000000000000000000000000000000009091166001600160a01b038d161717905587516006811115611007576040517f3823958e00000000000000000000000000000000000000000000000000000000815260ff82166004820152600660248201526044016106f7565b808851146110515787516040517feda2625300000000000000000000000000000000000000000000000000000000815260ff918216600482015290821660248201526044016106f7565b6000805462ff000019166201000060ff8416021781555b818110156112405789818151811061108257611082614d98565b60200260200101516002826006811061109d5761109d614d98565b0180546001600160a01b0319166001600160a01b03929092169190911790558851601119908a90839081106110d4576110d4614d98565b602002602001015160000b1215611143578881815181106110f7576110f7614d98565b60209081029190910101516040517f498123bd00000000000000000000000000000000000000000000000000000000815260009190910b600482015260111960248201526044016106f7565b600460000b89828151811061115a5761115a614d98565b602002602001015160000b13156111ca5788818151811061117d5761117d614d98565b602002602001015160046040517f8f038f2c0000000000000000000000000000000000000000000000000000000081526004016106f7929190600092830b8152910b602082015260400190565b8881815181106111dc576111dc614d98565b6020026020010151600282600681106111f7576111f7614d98565b01805460ff92909216600160a01b027fffffffffffffffffffffff00ffffffffffffffffffffffffffffffffffffffff90921691909117905561123981614e02565b9050611068565b5063ffffffff8716611290578060021461128b576040517f9a1b0df600000000000000000000000000000000000000000000000000000000815260ff821660048201526024016106f7565b611299565b61129987613147565b600080547fffffffff00000000000000000000000000000000ffffffffffffffffffffffff16600160a01b6103e86503fffffffc00600a8c901b160463ffffffff160263ffffffff60c01b1916179055600980546001600160a01b0319166001600160a01b03861617905561130e8686612e53565b50506000805463ff00000019169055600880546001600160a01b031916331790558015611375576000805461ff0019169055604051600181527f7f26b83ff96e1f2b6a682f133852f6798a09c465da95921460cefb38474024989060200160405180910390a15b5050505050505050505050565b6008546001600160a01b031633146113ad57604051635bbf1d0360e01b815260040160405180910390fd5b6113b682613147565b63ffffffff811660006113cc6201518042614ec0565b905080821015611418576040517f354b078f00000000000000000000000000000000000000000000000000000000815263ffffffff8085166004830152821660248201526044016106f7565b6000611422612dbf565b63ffffffff16905080611461576040517f6863759300000000000000000000000000000000000000000000000000000000815260040160405180910390fd5b63ffffffff6103e8600a87901b6503fffffffc0016041680821161150057600061148c600a84614ed8565b9050808211156114fa576103e863ffffffff841602600a1c5b6040517f63f6a46300000000000000000000000000000000000000000000000000000000815263ffffffff918216600482015281891660248201528282166103e802600a1c90911660448201526064016106f7565b5061152c565b600061150d600a83614ed8565b90508082101561152a576103e863ffffffff841602600a1c6114a5565b505b600080547fffffffffffffffffffffffff0000000000000000ffffffffffffffffffffffff166c010000000000000000000000004263ffffffff908116919091027fffffffffffffffffffffffff00000000ffffffffffffffffffffffffffffffff1691909117600160801b94821694909402939093177fffffffff0000000000000000ffffffffffffffffffffffffffffffffffffffff16600160a01b9284169290920263ffffffff60c01b191691909117600160c01b959092169490940217909255505050565b306001600160a01b037f00000000000000000000000000000000000000000000000000000000000000001614156116835760405162461bcd60e51b815260206004820152602c60248201527f46756e6374696f6e206d7573742062652063616c6c6564207468726f7567682060448201526b19195b1959d85d1958d85b1b60a21b60648201526084016106f7565b7f00000000000000000000000000000000000000000000000000000000000000006001600160a01b03166116de7f360894a13ba1a3210667c828492db98dca3e2076cc3735a920a3ca505d382bbc546001600160a01b031690565b6001600160a01b0316146117495760405162461bcd60e51b815260206004820152602c60248201527f46756e6374696f6e206d7573742062652063616c6c6564207468726f7567682060448201526b6163746976652070726f787960a01b60648201526084016106f7565b61175282612f6d565b610c5e82826001612f98565b6000306001600160a01b037f000000000000000000000000000000000000000000000000000000000000000016146117fe5760405162461bcd60e51b815260206004820152603860248201527f555550535570677261646561626c653a206d757374206e6f742062652063616c60448201527f6c6564207468726f7567682064656c656761746563616c6c000000000000000060648201526084016106f7565b507f360894a13ba1a3210667c828492db98dca3e2076cc3735a920a3ca505d382bbc90565b60008054600154604080516318160ddd60e01b815290516060946201000090940460ff16936001600160a01b03909316929183916318160ddd91600480820192602092909190829003018186803b15801561187d57600080fd5b505afa158015611891573d6000803e3d6000fd5b505050506040513d601f19601f820116820180604052508101906118b59190614dae565b60405163079cc67960e41b8152336004820152602481018890529091506001600160a01b038316906379cc679090604401600060405180830381600087803b15801561190057600080fd5b505af1158015611914573d6000803e3d6000fd5b505050508267ffffffffffffffff8111156119315761193161468c565b60405190808252806020026020018201604052801561195a578160200160208202803683370190505b50935060005b83811015611ad15760006002826006811061197d5761197d614d98565b01546040516370a0823160e01b81523060048201526001600160a01b03909116915060009082906370a082319060240160206040518083038186803b1580156119c557600080fd5b505afa1580156119d9573d6000803e3d6000fd5b505050506040513d601f19601f820116820180604052508101906119fd9190614dae565b9050600084611a0c8b84614ed8565b611a169190614f0d565b9050888481518110611a2a57611a2a614d98565b6020026020010151811015611a8a5782818a8681518110611a4d57611a4d614d98565b6020908102919091010151604051639e8eb45960e01b81526001600160a01b039093166004840152602483019190915260448201526064016106f7565b611a9e6001600160a01b0384163383613237565b80888581518110611ab157611ab1614d98565b60200260200101818152505050505080611aca90614e02565b9050611960565b5050505092915050565b6008546001600160a01b03163314611b0657604051635bbf1d0360e01b815260040160405180910390fd5b6001546040517f4f1ef2860000000000000000000000000000000000000000000000000000000081526001600160a01b0390911690634f1ef28690611b519085908590600401614f2f565b600060405180830381600087803b158015611b6b57600080fd5b505af1158015611b7f573d6000803e3d6000fd5b505050505050565b600080546301000000900460ff1615611bb357604051630b96dad560e21b815260040160405180910390fd5b600080600080611bc1612417565b9350935093509350611bd38785612689565b878760ff1681518110611be857611be8614d98565b6020026020010151600014611c0d5786888860ff16815181106106b3576106b3614d98565b6000611c1989866126d2565b9050600080611c2b6001848c87612851565b91509150611c498260028c60ff16600681106107c7576107c7614d98565b975088881015611c9e5760028a60ff1660068110611c6957611c69614d98565b0154604051639e8eb45960e01b81526001600160a01b03909116600482015260248101899052604481018a90526064016106f7565b60005b87811015611cd457611ccc8c8281518110611cbe57611cbe614d98565b602002602001015182612cd3565b600101611ca1565b50611ce2888b60ff16612d0c565b6108fe818787612d3f565b6008546001600160a01b03163314611d1857604051635bbf1d0360e01b815260040160405180910390fd5b6001546040517f3659cfe60000000000000000000000000000000000000000000000000000000081526001600160a01b03838116600483015290911690633659cfe690602401600060405180830381600087803b158015611d7857600080fd5b505af1158015611d8c573d6000803e3d6000fd5b5050505050565b6008546001600160a01b03163314611dbe57604051635bbf1d0360e01b815260040160405180910390fd5b600880546001600160a01b0319166001600160a01b0392909216919091179055565b6008546001600160a01b03163314611e0b57604051635bbf1d0360e01b815260040160405180910390fd5b600054600160401b900463ffffffff1615801590611e3057506001600160a01b038116155b15611e4e57604051630161bcd760e51b815260040160405180910390fd5b600980546001600160a01b0319166001600160a01b0392909216919091179055565b600080546301000000900460ff1615611e9c57604051630b96dad560e21b815260040160405180910390fd5b60005462010000900460ff16611eb28582612689565b60008167ffffffffffffffff811115611ecd57611ecd61468c565b604051908082528060200260200182016040528015611ef6578160200160208202803683370190505b50905086818760ff1681518110611f0f57611f0f614d98565b602002602001018181525050611f26818686611b87565b979650505050505050565b600080546301000000900460ff1615611f5d57604051630b96dad560e21b815260040160405180910390fd5b600080600080611f6b612417565b9350935093509350611f7d8785612689565b6000611f8989846132e0565b90508160a001518110611fa65783896107d88460a00151866127cb565b600080611fb4838b866133ac565b91509150611fd28260028c60ff16600681106107c7576107c7614d98565b975088881015611ff25760028a60ff1660068110611c6957611c69614d98565b60405163079cc67960e41b8152336004820152602481018c90526001600160a01b038716906379cc679090604401600060405180830381600087803b15801561203a57600080fd5b505af115801561204e573d6000803e3d6000fd5b50505050611ce2888b60ff16612d0c565b600080546301000000900460ff161561208b57604051630b96dad560e21b815260040160405180910390fd5b600080600080612099612417565b935093509350935060006120ad88866126d2565b905060005b8581101561213457826020015181815181106120d0576120d0614d98565b60200260200101518282815181106120ea576120ea614d98565b60200260200101511061212c576002816006811061210a5761210a614d98565b015489516001600160a01b03909116908a908390811061078b5761078b614d98565b6001016120b2565b506000806121446000848661367a565b9150915061215282866127cb565b97508888111561218e57604051639e8eb45960e01b81526001600160a01b038716600482015260248101899052604481018a90526064016106f7565b60405163079cc67960e41b8152336004820152602481018990526001600160a01b038716906379cc679090604401600060405180830381600087803b1580156121d657600080fd5b505af11580156121ea573d6000803e3d6000fd5b5050505060005b878110156122165761220e8b82815181106108dc576108dc614d98565b6001016121f1565b50612222818787612d3f565b5050505050505092915050565b600080546301000000900460ff161561225b57604051630b96dad560e21b815260040160405180910390fd5b600080600080612269612417565b9350935093509350600061227d88866126d2565b905060008260a001516000141561231c5760005b868110156122fa578981815181106122ab576122ab614d98565b6020026020010151600014156122f2576040517f90c8235d00000000000000000000000000000000000000000000000000000000815260ff821660048201526024016106f7565b600101612291565b50600061231383856040015163ffffffff166000613a44565b915061233c9050565b600061232a6001848661367a565b909250905061233a818787612d3f565b505b61234681856127cb565b96508787101561238257604051639e8eb45960e01b81526001600160a01b038616600482015260248101889052604481018990526064016106f7565b60005b868110156123aa576123a28a8281518110611cbe57611cbe614d98565b600101612385565b506040516340c10f1960e01b8152336004820152602481018890526001600160a01b038616906340c10f1990604401600060405180830381600087803b1580156123f357600080fd5b505af1158015612407573d6000803e3d6000fd5b5050505050505050505092915050565b6040805160c080820183526000808352606060208085018290528486018390529084018290526080840182905260a084018290528154600154865194850190965262010000900460ff16808452946001600160a01b03811694600160a01b90910490920b929081018567ffffffffffffffff8111156124985761249861468c565b6040519080825280602002602001820160405280156124c1578160200160208202803683370190505b5081526020016124cf612dbf565b63ffffffff168152602001600060049054906101000a900463ffffffff1663ffffffff168152602001600060089054906101000a900463ffffffff1663ffffffff168152602001612590856001600160a01b03166318160ddd6040518163ffffffff1660e01b815260040160206040518083038186803b15801561255257600080fd5b505afa158015612566573d6000803e3d6000fd5b505050506040513d601f19601f8201168201806040525081019061258a9190614dae565b856132e0565b9052905060005b84811015612682576000600282600681106125b4576125b4614d98565b01546040516370a0823160e01b81523060048201526001600160a01b03909116906370a082319060240160206040518083038186803b1580156125f657600080fd5b505afa15801561260a573d6000803e3d6000fd5b505050506040513d601f19601f8201168201806040525081019061262e9190614dae565b9050612658816002846006811061264757612647614d98565b0154600160a01b900460000b6132e0565b8360200151838151811061266e5761266e614d98565b602090810291909101015250600101612597565b5090919293565b808260ff1610610c5e576040517f5d92669e00000000000000000000000000000000000000000000000000000000815260ff8084166004830152821660248201526044016106f7565b60608183511461271e5782516040517fd265d30500000000000000000000000000000000000000000000000000000000815260ff918216600482015290831660248201526044016106f7565b8167ffffffffffffffff8111156127375761273761468c565b604051908082528060200260200182016040528015612760578160200160208202803683370190505b50905060005b82811015610c225761279e84828151811061278357612783614d98565b60200260200101516002836006811061264757612647614d98565b8282815181106127b0576127b0614d98565b60209081029190910101526127c481614e02565b9050612766565b600082806127dd57600091505061284b565b60008360000b1215612805576000838103900b600a0a6127fd8183614ed8565b915050612848565b8260000b600a0a818161281a5761281a614ef7565b04905080612848576040516311050b1f60e11b815260048101859052600084900b60248201526044016106f7565b90505b92915050565b60008060006128708460200151856040015163ffffffff166000613a44565b9050600084602001515167ffffffffffffffff8111156128925761289261468c565b6040519080825280602002602001820160405280156128bb578160200160208202803683370190505b50905060005b856020015151811015612950576000866020015182815181106128e6576128e6614d98565b60200260200101519050600089838151811061290457612904614d98565b6020026020010151905060008b61291d57818303612921565b8183015b90508085858151811061293657612936614d98565b6020026020010181815250505050508060010190506128c1565b50600060018660200151510367ffffffffffffffff8111156129745761297461468c565b60405190808252806020026020018201604052801561299d578160200160208202803683370190505b5090508880156129b65750606086015163ffffffff1615155b15612a7c5760005b8151811015612a765760008860ff1682106129dc57816001016129de565b815b905060008a82815181106129f4576129f4614d98565b602002602001015190506000858381518110612a1257612a12614d98565b6020026020010151905060006006600a0a8b6060015163ffffffff16840281612a3d57612a3d614ef7565b0490506000818303905080878781518110612a5a57612a5a614d98565b60200260200101818152505050505050508060010190506129be565b50612ae3565b60005b8151811015612ae15760008860ff168210612a9d5781600101612a9f565b815b9050838181518110612ab357612ab3614d98565b6020026020010151838381518110612acd57612acd614d98565b602090810291909101015250600101612a7f565b505b600089612af1576000612b13565b86602001518860ff1681518110612b0a57612b0a614d98565b60200260200101515b90506000612b2783868a6040015185613bef565b905060008b15612b9b578189602001518b60ff1681518110612b4b57612b4b614d98565b602002602001015103905080858b60ff1681518110612b6c57612b6c614d98565b602002602001015103858b60ff1681518110612b8a57612b8a614d98565b602002602001018181525050612c39565b88602001518a60ff1681518110612bb457612bb4614d98565b602002602001015182039050886060015163ffffffff16600014612bf857606089015163ffffffff16620f424090810390820281612bf457612bf4614ef7565b0490505b80858b60ff1681518110612c0e57612c0e614d98565b602002602001015101858b60ff1681518110612c2c57612c2c614d98565b6020026020010181815250505b809750886060015163ffffffff16600014612cc4576000612c698a602001518b6040015163ffffffff1689613a44565b90506000878203905060008b6060015163ffffffff168c6080015163ffffffff16830281612c9957612c99614ef7565b60a08e015191900491508184039060008282850281612cba57612cba614ef7565b049c505050505050505b50505050505094509492505050565b8115610c5e57600060028260068110612cee57612cee614d98565b01546001600160a01b03169050612d0781333086613da6565b505050565b8115610c5e57600060028260068110612d2757612d27614d98565b01546001600160a01b03169050612d07813385613237565b8215612d07576000612d5184836127cb565b6009546040516340c10f1960e01b81526001600160a01b039182166004820152602481018390529192508416906340c10f1990604401600060405180830381600087803b158015612da157600080fd5b505af1158015612db5573d6000803e3d6000fd5b5050505050505050565b600080544290600160c01b900463ffffffff1680821215612e3b576000805463ffffffff600160801b82048116926c010000000000000000000000008304821692600160a01b9004909116908282039084870390858703908183850281612e2857612e28614ef7565b05959095019850612e4e95505050505050565b600054600160a01b900463ffffffff1692505b505090565b6000612e5f8284614f51565b90506002612e6f6006600a61505d565b612e799190614f0d565b8163ffffffff1610612eec578060016002612e966006600a61505d565b612ea09190614f0d565b612eaa9190615069565b6040517f0157de9600000000000000000000000000000000000000000000000000000000815263ffffffff9283166004820152911660248201526044016106f7565b63ffffffff821615801590612f0a57506009546001600160a01b0316155b15612f2857604051630161bcd760e51b815260040160405180910390fd5b600080546bffffffffffffffff00000000191664010000000063ffffffff938416026bffffffff0000000000000000191617600160401b939092169290920217905550565b6008546001600160a01b03163314610ddb57604051635bbf1d0360e01b815260040160405180910390fd5b7f4910fdfa16fed3260ed0e7147f7cc6da11a60208b5b9406d12a635614ffd91435460ff1615612fcb57612d0783613dfd565b826001600160a01b03166352d1902d6040518163ffffffff1660e01b815260040160206040518083038186803b15801561300457600080fd5b505afa925050508015613034575060408051601f3d908101601f1916820190925261303191810190614dae565b60015b6130a65760405162461bcd60e51b815260206004820152602e60248201527f45524331393637557067726164653a206e657720696d706c656d656e7461746960448201527f6f6e206973206e6f74205555505300000000000000000000000000000000000060648201526084016106f7565b7f360894a13ba1a3210667c828492db98dca3e2076cc3735a920a3ca505d382bbc811461313b5760405162461bcd60e51b815260206004820152602960248201527f45524331393637557067726164653a20756e737570706f727465642070726f7860448201527f6961626c6555554944000000000000000000000000000000000000000000000060648201526084016106f7565b50612d07838383613ebb565b6131536003600a61505d565b61316090620f4240615080565b63ffffffff168163ffffffff1611156131cf57806131806003600a61505d565b61318d90620f4240615080565b6040517f1281907f00000000000000000000000000000000000000000000000000000000815263ffffffff9283166004820152911660248201526044016106f7565b6131db6003600a61505d565b8163ffffffff161015610ddb57806131f56003600a61505d565b6040517fc88e096900000000000000000000000000000000000000000000000000000000815263ffffffff9283166004820152911660248201526044016106f7565b6040516001600160a01b038316602482015260448101829052612d079084907fa9059cbb00000000000000000000000000000000000000000000000000000000906064015b60408051601f198184030181529190526020810180517bffffffffffffffffffffffffffffffffffffffffffffffffffffffff167fffffffff0000000000000000000000000000000000000000000000000000000090931692909217909152613ee0565b6000826132ef5750600061284b565b6000808360000b1215613347578260000360000b600a0a848161331457613314614ef7565b04905080613342576040516311050b1f60e11b815260048101859052600084900b60248201526044016106f7565b61335d565b50600082900b600a0a61335a8482614ed8565b90505b671fffffffffffffff811115612848576040517f834de34100000000000000000000000000000000000000000000000000000000815260048101859052600084900b60248201526044016106f7565b6000806000858460a0015103905060008460a00151826133dc8760200151886040015163ffffffff166000613a44565b02816133ea576133ea614ef7565b049050600060018660200151510367ffffffffffffffff8111156134105761341061468c565b604051908082528060200260200182016040528015613439578160200160208202803683370190505b50905060005b81518110156134a55760008860ff16821061345d578160010161345f565b815b90508760200151818151811061347757613477614d98565b602002602001015183838151811061349157613491614d98565b60209081029190910101525060010161343f565b5060006134d8828489604001518a602001518c60ff16815181106134cb576134cb614d98565b6020026020010151613bef565b87602001518960ff16815181106134f1576134f1614d98565b6020026020010151039050866060015163ffffffff1660001461366a57600061351d8860200151613fc5565b905060008160408a602001518c60ff168151811061353d5761353d614d98565b60200260200101518403901b8161355657613556614ef7565b60608b01519190049150600090600160401b9063ffffffff16620f4240036a0f424000000000000000008161358d5761358d614ef7565b04039050604081600160401b848202831c01868502816135af576135af614ef7565b0402901c84039850888a602001518c60ff16815181106135d1576135d1614d98565b6020026020010151038a602001518c60ff16815181106135f3576135f3614d98565b60200260200101818152505060008661361b8c602001518d6040015163ffffffff168a613a44565b03905060008b6060015163ffffffff168c6080015163ffffffff1683028161364557613645614ef7565b04905080828901038982028161365d5761365d614ef7565b049950505050505061366e565b8095505b50505050935093915050565b60008060006136998460200151856040015163ffffffff166000613a44565b9050600080600086602001515167ffffffffffffffff8111156136be576136be61468c565b6040519080825280602002602001820160405280156136e7578160200160208202803683370190505b50905060005b8760200151518110156137805760008860200151828151811061371257613712614d98565b6020026020010151905060008a838151811061373057613730614d98565b6020026020010151905060008c6137495781830361374d565b8183015b90508085858151811061376257613762614d98565b602090810291909101015295909101949390930192506001016136ed565b5060006137a982896040015163ffffffff1686868902816137a3576137a3614ef7565b04613a44565b9050876060015163ffffffff16600014613a0e57600088602001515167ffffffffffffffff8111156137dd576137dd61468c565b604051908082528060200260200182016040528015613806578160200160208202803683370190505b50905060005b89602001515181101561395257600084828151811061382d5761382d614d98565b60200260200101519050600087878d60200151858151811061385157613851614d98565b6020026020010151028161386757613867614ef7565b04905060008e6138875781831061387f576000613899565b828203613899565b818311613895576000613899565b8183035b905060008f6138cd5760608e0151829063ffffffff16620f4240908103908202816138c6576138c6614ef7565b04036138e1565b60608e0151620f42409063ffffffff168302045b905080841161391c576040517f1ce2e20400000000000000000000000000000000000000000000000000000000815260040160405180910390fd5b600081850390508087878151811061393657613936614d98565b602002602001018181525050505050505080600101905061380c565b50600061396a828b6040015163ffffffff1685613a44565b9050868c61397a5781880361397e565b8782035b8b60a00151028161399157613991614ef7565b0498506000818403905060008b6060015163ffffffff168c6080015163ffffffff168302816139c2576139c2614ef7565b04905060008e6139d8578b8d60a00151036139e0565b8b8d60a00151015b9050818f6139ee57866139f0565b845b0381830281613a0157613a01614ef7565b049a505050505050613a37565b848860a001518b613a2157828703613a25565b8683035b0281613a3357613a33614ef7565b0496505b5050505050935093915050565b600082613a9d576004905083600081518110613a6257613a62614d98565b60200260200101518102905083600181518110613a8157613a81614d98565b602002602001015181029050613a9681614001565b9050613be8565b83516000613aaa86613fc5565b90508481026103ff19860185613ac05782613ac2565b855b945060005b5084600080613ad66001614168565b9150915060005b87811015613b2e578883029250878c8281518110613afd57613afd614d98565b6020026020010151028381613b1457613b14614ef7565b049250613b2183836141d7565b9093509150600101613add565b5060091901818702600080613b4383856141d7565b908c0292509050828501848214613b59578482031b5b60008060a1871215613b8d576000969096039584613b778c89614233565b01915082613b858b89614233565b019050613baa565b613b978588614233565b8b019150613ba58388614233565b8a0190505b808281613bb957613bb9614ef7565b049d5050505050505050506001613bd082886142a1565b11613ac75760008611613be257600080fd5b50505050505b9392505050565b60008063ffffffff8416613c3657848502905085600081518110613c1557613c15614d98565b60200260200101518181613c2b57613c2b614ef7565b0460021c9050613d41565b8551600101600080613c6363ffffffff88168402898002600a1b81613c5d57613c5d614ef7565b04614168565b9150915060005b8951811015613cbc578883029250838a8281518110613c8b57613c8b614d98565b6020026020010151028381613ca257613ca2614ef7565b049250613caf83836141d7565b9093509150600101613c6a565b50613cc78282614233565b915060008763ffffffff16600a8a901b81613ce457613ce4614ef7565b04613cee8b613fc5565b01905086613cff5760028904613d01565b865b945060005b508480800284016002820283018b9003808281613d2557613d25614ef7565b04975050506001613d3682886142a1565b11613d065750505050505b60008111613d4e57600080fd5b671fffffffffffffff811115613d93576040517f0b68fc26000000000000000000000000000000000000000000000000000000008152600481018290526024016106f7565b67ffffffffffffffff1695945050505050565b6040516001600160a01b0380851660248301528316604482015260648101829052613df79085907f23b872dd000000000000000000000000000000000000000000000000000000009060840161327c565b50505050565b6001600160a01b0381163b613e7a5760405162461bcd60e51b815260206004820152602d60248201527f455243313936373a206e657720696d706c656d656e746174696f6e206973206e60448201527f6f74206120636f6e74726163740000000000000000000000000000000000000060648201526084016106f7565b7f360894a13ba1a3210667c828492db98dca3e2076cc3735a920a3ca505d382bbc80546001600160a01b0319166001600160a01b0392909216919091179055565b613ec4836142b8565b600082511180613ed15750805b15612d0757613df783836142f8565b6000613f35826040518060400160405280602081526020017f5361666545524332303a206c6f772d6c6576656c2063616c6c206661696c6564815250856001600160a01b031661431d9092919063ffffffff16565b805190915015612d075780806020019051810190613f539190614ea3565b612d075760405162461bcd60e51b815260206004820152602a60248201527f5361666545524332303a204552433230206f7065726174696f6e20646964206e60448201527f6f7420737563636565640000000000000000000000000000000000000000000060648201526084016106f7565b6000805b8251811015613ffb57828181518110613fe457613fe4614d98565b602002602001015182019150806001019050613fc9565b50919050565b60008161401057506000919050565b816001608082901c156140285760809190911c9060401b5b604082901c1561403d5760409190911c9060201b5b602082901c156140525760209190911c9060101b5b601082901c156140675760109190911c9060081b5b600882901c1561407c5760089190911c9060041b5b600482901c156140915760049190911c9060021b5b600282901c1561409f5760011b5b60018185816140b0576140b0614ef7565b048201901c905060018185816140c8576140c8614ef7565b048201901c905060018185816140e0576140e0614ef7565b048201901c905060018185816140f8576140f8614ef7565b048201901c9050600181858161411057614110614ef7565b048201901c9050600181858161412857614128614ef7565b048201901c9050600181858161414057614140614ef7565b048201901c90506141608182868161415a5761415a614ef7565b0461432c565b949350505050565b600080600261417a6004610100614f0d565b6141849190614f0d565b6141916004610100614f0d565b61419b9190614ec0565b83901b60026141ad6004610100614f0d565b6141b79190614f0d565b6141c46004610100614f0d565b6141ce9190614ec0565b91509150915091565b60008077ffffffffffffffffffffffffffffffffffffffffffffffff84111561420b575050604082901c603f19820161422c565b600160801b841015614226575050604082811b90820161422c565b50829050815b9250929050565b60008082121561429c5760008290036101008110158061425b575080610100036001901b8410155b15614292576040517f4f4afe7f00000000000000000000000000000000000000000000000000000000815260040160405180910390fd5b83901b905061284b565b501c90565b60008183116142b257828203612848565b50900390565b6142c181613dfd565b6040516001600160a01b038216907fbc7cd75a20ee27fd9adebab32041f755214dbc6bffa90cc0225b39da2e5c2d3b90600090a250565b606061284883836040518060600160405280602781526020016150dc60279139614342565b60606141608484600085614436565b600081831061433b5781612848565b5090919050565b60606001600160a01b0384163b6143c15760405162461bcd60e51b815260206004820152602660248201527f416464726573733a2064656c65676174652063616c6c20746f206e6f6e2d636f60448201527f6e7472616374000000000000000000000000000000000000000000000000000060648201526084016106f7565b600080856001600160a01b0316856040516143dc91906150ac565b600060405180830381855af49150503d8060008114614417576040519150601f19603f3d011682016040523d82523d6000602084013e61441c565b606091505b509150915061442c82828661456f565b9695505050505050565b6060824710156144ae5760405162461bcd60e51b815260206004820152602660248201527f416464726573733a20696e73756666696369656e742062616c616e636520666f60448201527f722063616c6c000000000000000000000000000000000000000000000000000060648201526084016106f7565b6001600160a01b0385163b6145055760405162461bcd60e51b815260206004820152601d60248201527f416464726573733a2063616c6c20746f206e6f6e2d636f6e747261637400000060448201526064016106f7565b600080866001600160a01b0316858760405161452191906150ac565b60006040518083038185875af1925050503d806000811461455e576040519150601f19603f3d011682016040523d82523d6000602084013e614563565b606091505b5091509150611f268282865b6060831561457e575081613be8565b82511561458e5782518084602001fd5b8160405162461bcd60e51b81526004016106f791906150c8565b6040518060c00160405280600015158152602001606081526020016145e9604051806040016040528060006001600160a01b03168152602001600081525090565b815260200161460e604051806040016040528060008152602001600060ff1681525090565b8152602001614633604051806040016040528060008152602001600060ff1681525090565b8152602001614658604051806040016040528060008152602001600060ff1681525090565b905290565b60006020828403121561466f57600080fd5b5035919050565b803560ff8116811461468757600080fd5b919050565b634e487b7160e01b600052604160045260246000fd5b604051601f8201601f1916810167ffffffffffffffff811182821017156146cb576146cb61468c565b604052919050565b600067ffffffffffffffff8211156146ed576146ed61468c565b5060051b60200190565b600082601f83011261470857600080fd5b8135602061471d614718836146d3565b6146a2565b82815260059290921b8401810191818101908684111561473c57600080fd5b8286015b848110156147575780358352918301918301614740565b509695505050505050565b60008060006060848603121561477757600080fd5b8335925061478760208501614676565b9150604084013567ffffffffffffffff8111156147a357600080fd5b6147af868287016146f7565b9150509250925092565b8015158114610ddb57600080fd5b6000602082840312156147d957600080fd5b8135612848816147b9565b600060208083526101608301845115158285015281850151604061014081870152828251808552610180880191508584019450600093505b808410156148565761484282865180516001600160a01b03168252602090810151910152565b93850193600193909301929082019061481c565b508782015180516001600160a01b031660608901526020810151608089015294506060880151805160a0890152602081015160ff1660c089015294506080880151805160e0890152602081015160ff16610100890152945060a08801518051610120890152602081015160ff166101408901529450979650505050505050565b803563ffffffff8116811461468757600080fd5b600080604083850312156148fd57600080fd5b614906836148d6565b9150614914602084016148d6565b90509250929050565b80356001600160a01b038116811461468757600080fd5b60006020828403121561494657600080fd5b6128488261491d565b600067ffffffffffffffff8311156149695761496961468c565b61497c601f8401601f19166020016146a2565b905082815283838301111561499057600080fd5b828260208301376000602084830101529392505050565b600082601f8301126149b857600080fd5b6128488383356020850161494f565b8035600081900b811461468757600080fd5b600082601f8301126149ea57600080fd5b813560206149fa614718836146d3565b82815260059290921b84018101918181019086841115614a1957600080fd5b8286015b8481101561475757614a2e8161491d565b8352918301918301614a1d565b600082601f830112614a4c57600080fd5b81356020614a5c614718836146d3565b82815260059290921b84018101918181019086841115614a7b57600080fd5b8286015b8481101561475757614a90816149c7565b8352918301918301614a7f565b6000806000806000806000806000806101408b8d031215614abd57600080fd5b8a3567ffffffffffffffff80821115614ad557600080fd5b614ae18e838f016149a7565b9b5060208d0135915080821115614af757600080fd5b614b038e838f016149a7565b9a50614b1160408e0161491d565b9950614b1f60608e016149c7565b985060808d0135915080821115614b3557600080fd5b614b418e838f016149d9565b975060a08d0135915080821115614b5757600080fd5b50614b648d828e01614a3b565b955050614b7360c08c016148d6565b9350614b8160e08c016148d6565b9250614b906101008c016148d6565b9150614b9f6101208c0161491d565b90509295989b9194979a5092959850565b60008060408385031215614bc357600080fd5b614bcc8361491d565b9150602083013567ffffffffffffffff811115614be857600080fd5b8301601f81018513614bf957600080fd5b614c088582356020840161494f565b9150509250929050565b60008060408385031215614c2557600080fd5b82359150602083013567ffffffffffffffff811115614c4357600080fd5b614c08858286016146f7565b6020808252825182820181905260009190848201906040850190845b81811015614c8757835183529284019291840191600101614c6b565b50909695505050505050565b600080600060608486031215614ca857600080fd5b833567ffffffffffffffff811115614cbf57600080fd5b614ccb868287016146f7565b935050614cda60208501614676565b9150604084013590509250925092565b60008060008060808587031215614d0057600080fd5b84359350614d1060208601614676565b9250614d1e60408601614676565b9396929550929360600135925050565b600080600060608486031215614d4357600080fd5b83359250614cda60208501614676565b60008060408385031215614d6657600080fd5b823567ffffffffffffffff811115614d7d57600080fd5b614d89858286016146f7565b95602094909401359450505050565b634e487b7160e01b600052603260045260246000fd5b600060208284031215614dc057600080fd5b5051919050565b634e487b7160e01b600052601160045260246000fd5b600063ffffffff83811690831681811015614dfa57614dfa614dc7565b039392505050565b6000600019821415614e1657614e16614dc7565b5060010190565b60005b83811015614e38578181015183820152602001614e20565b83811115613df75750506000910152565b60008151808452614e61816020860160208601614e1d565b601f01601f19169290920160200192915050565b604081526000614e886040830185614e49565b8281036020840152614e9a8185614e49565b95945050505050565b600060208284031215614eb557600080fd5b8151612848816147b9565b60008219821115614ed357614ed3614dc7565b500190565b6000816000190483118215151615614ef257614ef2614dc7565b500290565b634e487b7160e01b600052601260045260246000fd5b600082614f2a57634e487b7160e01b600052601260045260246000fd5b500490565b6001600160a01b03831681526040602082015260006141606040830184614e49565b600063ffffffff808316818516808303821115614f7057614f70614dc7565b01949350505050565b600181815b80851115614fb4578160001904821115614f9a57614f9a614dc7565b80851615614fa757918102915b93841c9390800290614f7e565b509250929050565b600082614fcb5750600161284b565b81614fd85750600061284b565b8160018114614fee5760028114614ff857615014565b600191505061284b565b60ff84111561500957615009614dc7565b50506001821b61284b565b5060208310610133831016604e8410600b8410161715615037575081810a61284b565b6150418383614f79565b806000190482111561505557615055614dc7565b029392505050565b60006128488383614fbc565b60008282101561507b5761507b614dc7565b500390565b600063ffffffff808316818516818304811182151516156150a3576150a3614dc7565b02949350505050565b600082516150be818460208701614e1d565b9190910192915050565b6020815260006128486020830184614e4956fe416464726573733a206c6f772d6c6576656c2064656c65676174652063616c6c206661696c6564a26469706673582212207252cd8c2cb2dc41b8207b0b3b5b8a15b4519cc191d0a37b38f5837792ec043a64736f6c63430008090033",
  "devdoc": {
    "kind": "dev",
    "methods": {
      "proxiableUUID()": {
        "details": "Implementation of the ERC1822 {proxiableUUID} function. This returns the storage slot used by the implementation. It is used to validate that the this implementation remains valid after an upgrade. IMPORTANT: A proxy pointing at a proxiable contract should not be considered proxiable itself, because this risks bricking a proxy that upgrades to it, by delegating to itself until out of gas. Thus it is critical that this function revert if invoked through a proxy. This is guaranteed by the `notDelegated` modifier."
      },
      "upgradeTo(address)": {
        "details": "Upgrade the implementation of the proxy to `newImplementation`. Calls {_authorizeUpgrade}. Emits an {Upgraded} event."
      },
      "upgradeToAndCall(address,bytes)": {
        "details": "Upgrade the implementation of the proxy to `newImplementation`, and subsequently execute the function call encoded in `data`. Calls {_authorizeUpgrade}. Emits an {Upgraded} event."
      }
    },
    "version": 1
  },
  "userdoc": {
    "kind": "user",
    "methods": {},
    "version": 1
  },
  "storageLayout": {
    "storage": [
      {
        "astId": 527,
        "contract": "contracts/Pool.sol:Pool",
        "label": "_initialized",
        "offset": 0,
        "slot": "0",
        "type": "t_uint8"
      },
      {
        "astId": 530,
        "contract": "contracts/Pool.sol:Pool",
        "label": "_initializing",
        "offset": 1,
        "slot": "0",
        "type": "t_bool"
      },
      {
        "astId": 5402,
        "contract": "contracts/Pool.sol:Pool",
        "label": "tokenCount",
        "offset": 2,
        "slot": "0",
        "type": "t_uint8"
      },
      {
        "astId": 5404,
        "contract": "contracts/Pool.sol:Pool",
        "label": "paused",
        "offset": 3,
        "slot": "0",
        "type": "t_bool"
      },
      {
        "astId": 5406,
        "contract": "contracts/Pool.sol:Pool",
        "label": "totalFee",
        "offset": 4,
        "slot": "0",
        "type": "t_uint32"
      },
      {
        "astId": 5408,
        "contract": "contracts/Pool.sol:Pool",
        "label": "governanceFee",
        "offset": 8,
        "slot": "0",
        "type": "t_uint32"
      },
      {
        "astId": 5410,
        "contract": "contracts/Pool.sol:Pool",
        "label": "ampInitialValue",
        "offset": 12,
        "slot": "0",
        "type": "t_uint32"
      },
      {
        "astId": 5412,
        "contract": "contracts/Pool.sol:Pool",
        "label": "ampInitialTimestamp",
        "offset": 16,
        "slot": "0",
        "type": "t_uint32"
      },
      {
        "astId": 5414,
        "contract": "contracts/Pool.sol:Pool",
        "label": "ampTargetValue",
        "offset": 20,
        "slot": "0",
        "type": "t_uint32"
      },
      {
        "astId": 5416,
        "contract": "contracts/Pool.sol:Pool",
        "label": "ampTargetTimestamp",
        "offset": 24,
        "slot": "0",
        "type": "t_uint32"
      },
      {
        "astId": 5419,
        "contract": "contracts/Pool.sol:Pool",
        "label": "lpTokenData",
        "offset": 0,
        "slot": "1",
        "type": "t_struct(TokenWithEqualizer)5387_storage"
      },
      {
        "astId": 5424,
        "contract": "contracts/Pool.sol:Pool",
        "label": "poolTokensData",
        "offset": 0,
        "slot": "2",
        "type": "t_array(t_struct(TokenWithEqualizer)5387_storage)6_storage"
      },
      {
        "astId": 5426,
        "contract": "contracts/Pool.sol:Pool",
        "label": "governance",
        "offset": 0,
        "slot": "8",
        "type": "t_address"
      },
      {
        "astId": 5428,
        "contract": "contracts/Pool.sol:Pool",
        "label": "governanceFeeRecipient",
        "offset": 0,
        "slot": "9",
        "type": "t_address"
      }
    ],
    "types": {
      "t_address": {
        "encoding": "inplace",
        "label": "address",
        "numberOfBytes": "20"
      },
      "t_array(t_struct(TokenWithEqualizer)5387_storage)6_storage": {
        "base": "t_struct(TokenWithEqualizer)5387_storage",
        "encoding": "inplace",
        "label": "struct Pool.TokenWithEqualizer[6]",
        "numberOfBytes": "192"
      },
      "t_bool": {
        "encoding": "inplace",
        "label": "bool",
        "numberOfBytes": "1"
      },
      "t_int8": {
        "encoding": "inplace",
        "label": "int8",
        "numberOfBytes": "1"
      },
      "t_struct(TokenWithEqualizer)5387_storage": {
        "encoding": "inplace",
        "label": "struct Pool.TokenWithEqualizer",
        "members": [
          {
            "astId": 5384,
            "contract": "contracts/Pool.sol:Pool",
            "label": "addr",
            "offset": 0,
            "slot": "0",
            "type": "t_address"
          },
          {
            "astId": 5386,
            "contract": "contracts/Pool.sol:Pool",
            "label": "equalizer",
            "offset": 20,
            "slot": "0",
            "type": "t_int8"
          }
        ],
        "numberOfBytes": "32"
      },
      "t_uint32": {
        "encoding": "inplace",
        "label": "uint32",
        "numberOfBytes": "4"
      },
      "t_uint8": {
        "encoding": "inplace",
        "label": "uint8",
        "numberOfBytes": "1"
      }
    }
  }
}