{
  "address": "0xe7f1725E7734CE288F8367e1Bb143E90bb3F0512",
  "abi": [
    {
      "anonymous": false,
      "inputs": [
        {
          "indexed": false,
          "internalType": "address",
          "name": "previousAdmin",
          "type": "address"
        },
        {
          "indexed": false,
          "internalType": "address",
          "name": "newAdmin",
          "type": "address"
        }
      ],
      "name": "AdminChanged",
      "type": "event"
    },
    {
      "anonymous": false,
      "inputs": [
        {
          "indexed": true,
          "internalType": "address",
          "name": "beacon",
          "type": "address"
        }
      ],
      "name": "BeaconUpgraded",
      "type": "event"
    },
    {
      "anonymous": false,
      "inputs": [
        {
          "indexed": false,
          "internalType": "uint8",
          "name": "version",
          "type": "uint8"
        }
      ],
      "name": "Initialized",
      "type": "event"
    },
    {
      "anonymous": false,
      "inputs": [
        {
          "indexed": true,
          "internalType": "address",
          "name": "implementation",
          "type": "address"
        }
      ],
      "name": "Upgraded",
      "type": "event"
    },
    {
      "inputs": [
        {
          "internalType": "uint256[]",
          "name": "inputAmounts",
          "type": "uint256[]"
        },
        {
          "internalType": "uint256",
          "name": "minimumMintAmount",
          "type": "uint256"
        }
      ],
      "name": "add",
      "outputs": [
        {
          "internalType": "uint256",
          "name": "mintAmount",
          "type": "uint256"
        }
      ],
      "stateMutability": "nonpayable",
      "type": "function"
    },
    {
      "inputs": [
        {
          "internalType": "uint32",
          "name": "targetValue",
          "type": "uint32"
        },
        {
          "internalType": "uint32",
          "name": "targetTimestamp",
          "type": "uint32"
        }
      ],
      "name": "adjustAmpFactor",
      "outputs": [],
      "stateMutability": "nonpayable",
      "type": "function"
    },
    {
      "inputs": [],
      "name": "ampInitialTimestamp",
      "outputs": [
        {
          "internalType": "uint32",
          "name": "",
          "type": "uint32"
        }
      ],
      "stateMutability": "view",
      "type": "function"
    },
    {
      "inputs": [],
      "name": "ampInitialValue",
      "outputs": [
        {
          "internalType": "uint32",
          "name": "",
          "type": "uint32"
        }
      ],
      "stateMutability": "view",
      "type": "function"
    },
    {
      "inputs": [],
      "name": "ampTargetTimestamp",
      "outputs": [
        {
          "internalType": "uint32",
          "name": "",
          "type": "uint32"
        }
      ],
      "stateMutability": "view",
      "type": "function"
    },
    {
      "inputs": [],
      "name": "ampTargetValue",
      "outputs": [
        {
          "internalType": "uint32",
          "name": "",
          "type": "uint32"
        }
      ],
      "stateMutability": "view",
      "type": "function"
    },
    {
      "inputs": [
        {
          "internalType": "address",
          "name": "_governanceFeeRecipient",
          "type": "address"
        }
      ],
      "name": "changeGovernanceFeeRecipient",
      "outputs": [],
      "stateMutability": "nonpayable",
      "type": "function"
    },
    {
      "inputs": [],
      "name": "getState",
      "outputs": [
        {
          "components": [
            {
              "internalType": "bool",
              "name": "paused",
              "type": "bool"
            },
            {
              "components": [
                {
                  "internalType": "address",
                  "name": "tokenAddres",
                  "type": "address"
                },
                {
                  "internalType": "uint256",
                  "name": "balance",
                  "type": "uint256"
                }
              ],
              "internalType": "struct TokenBalance[]",
              "name": "balances",
              "type": "tuple[]"
            },
            {
              "components": [
                {
                  "internalType": "address",
                  "name": "tokenAddres",
                  "type": "address"
                },
                {
                  "internalType": "uint256",
                  "name": "balance",
                  "type": "uint256"
                }
              ],
              "internalType": "struct TokenBalance",
              "name": "totalLPSupply",
              "type": "tuple"
            },
            {
              "components": [
                {
                  "internalType": "uint256",
                  "name": "value",
                  "type": "uint256"
                },
                {
                  "internalType": "uint8",
                  "name": "decimals",
                  "type": "uint8"
                }
              ],
              "internalType": "struct Decimal",
              "name": "ampFactor",
              "type": "tuple"
            },
            {
              "components": [
                {
                  "internalType": "uint256",
                  "name": "value",
                  "type": "uint256"
                },
                {
                  "internalType": "uint8",
                  "name": "decimals",
                  "type": "uint8"
                }
              ],
              "internalType": "struct Decimal",
              "name": "lpFee",
              "type": "tuple"
            },
            {
              "components": [
                {
                  "internalType": "uint256",
                  "name": "value",
                  "type": "uint256"
                },
                {
                  "internalType": "uint8",
                  "name": "decimals",
                  "type": "uint8"
                }
              ],
              "internalType": "struct Decimal",
              "name": "governanceFee",
              "type": "tuple"
            }
          ],
          "internalType": "struct PoolState",
          "name": "",
          "type": "tuple"
        }
      ],
      "stateMutability": "view",
      "type": "function"
    },
    {
      "inputs": [],
      "name": "governance",
      "outputs": [
        {
          "internalType": "address",
          "name": "",
          "type": "address"
        }
      ],
      "stateMutability": "view",
      "type": "function"
    },
    {
      "inputs": [],
      "name": "governanceFee",
      "outputs": [
        {
          "internalType": "uint32",
          "name": "",
          "type": "uint32"
        }
      ],
      "stateMutability": "view",
      "type": "function"
    },
    {
      "inputs": [],
      "name": "governanceFeeRecipient",
      "outputs": [
        {
          "internalType": "address",
          "name": "",
          "type": "address"
        }
      ],
      "stateMutability": "view",
      "type": "function"
    },
    {
      "inputs": [
        {
          "internalType": "string",
          "name": "lpTokenName",
          "type": "string"
        },
        {
          "internalType": "string",
          "name": "lpTokenSymbol",
          "type": "string"
        },
        {
          "internalType": "address",
          "name": "lpTokenAddress",
          "type": "address"
        },
        {
          "internalType": "int8",
          "name": "lpTokenEqualizer",
          "type": "int8"
        },
        {
          "internalType": "address[]",
          "name": "poolTokenAddresses",
          "type": "address[]"
        },
        {
          "internalType": "int8[]",
          "name": "poolTokenEqualizers",
          "type": "int8[]"
        },
        {
          "internalType": "uint32",
          "name": "ampFactor",
          "type": "uint32"
        },
        {
          "internalType": "uint32",
          "name": "lpFee",
          "type": "uint32"
        },
        {
          "internalType": "uint32",
          "name": "_governanceFee",
          "type": "uint32"
        },
        {
          "internalType": "address",
          "name": "_governanceFeeRecipient",
          "type": "address"
        }
      ],
      "name": "initialize",
      "outputs": [],
      "stateMutability": "nonpayable",
      "type": "function"
    },
    {
      "inputs": [],
      "name": "lpTokenData",
      "outputs": [
        {
          "internalType": "address",
          "name": "addr",
          "type": "address"
        },
        {
          "internalType": "int8",
          "name": "equalizer",
          "type": "int8"
        }
      ],
      "stateMutability": "view",
      "type": "function"
    },
    {
      "inputs": [],
      "name": "paused",
      "outputs": [
        {
          "internalType": "bool",
          "name": "",
          "type": "bool"
        }
      ],
      "stateMutability": "view",
      "type": "function"
    },
    {
      "inputs": [
        {
          "internalType": "uint256",
          "name": "",
          "type": "uint256"
        }
      ],
      "name": "poolTokensData",
      "outputs": [
        {
          "internalType": "address",
          "name": "addr",
          "type": "address"
        },
        {
          "internalType": "int8",
          "name": "equalizer",
          "type": "int8"
        }
      ],
      "stateMutability": "view",
      "type": "function"
    },
    {
      "inputs": [],
      "name": "proxiableUUID",
      "outputs": [
        {
          "internalType": "bytes32",
          "name": "",
          "type": "bytes32"
        }
      ],
      "stateMutability": "view",
      "type": "function"
    },
    {
      "inputs": [
        {
          "internalType": "uint256",
          "name": "burnAmount",
          "type": "uint256"
        },
        {
          "internalType": "uint8",
          "name": "outputTokenIndex",
          "type": "uint8"
        },
        {
          "internalType": "uint256",
          "name": "minimumOutputAmount",
          "type": "uint256"
        }
      ],
      "name": "removeExactBurn",
      "outputs": [
        {
          "internalType": "uint256",
          "name": "outputAmount",
          "type": "uint256"
        }
      ],
      "stateMutability": "nonpayable",
      "type": "function"
    },
    {
      "inputs": [
        {
          "internalType": "uint256[]",
          "name": "outputAmounts",
          "type": "uint256[]"
        },
        {
          "internalType": "uint256",
          "name": "maximumBurnAmount",
          "type": "uint256"
        }
      ],
      "name": "removeExactOutput",
      "outputs": [
        {
          "internalType": "uint256",
          "name": "burnAmount",
          "type": "uint256"
        }
      ],
      "stateMutability": "nonpayable",
      "type": "function"
    },
    {
      "inputs": [
        {
          "internalType": "uint256",
          "name": "burnAmount",
          "type": "uint256"
        },
        {
          "internalType": "uint256[]",
          "name": "minimumOutputAmounts",
          "type": "uint256[]"
        }
      ],
      "name": "removeUniform",
      "outputs": [
        {
          "internalType": "uint256[]",
          "name": "outputAmounts",
          "type": "uint256[]"
        }
      ],
      "stateMutability": "nonpayable",
      "type": "function"
    },
    {
      "inputs": [
        {
          "internalType": "uint32",
          "name": "lpFee",
          "type": "uint32"
        },
        {
          "internalType": "uint32",
          "name": "_governanceFee",
          "type": "uint32"
        }
      ],
      "name": "setFees",
      "outputs": [],
      "stateMutability": "nonpayable",
      "type": "function"
    },
    {
      "inputs": [
        {
          "internalType": "bool",
          "name": "_paused",
          "type": "bool"
        }
      ],
      "name": "setPaused",
      "outputs": [],
      "stateMutability": "nonpayable",
      "type": "function"
    },
    {
      "inputs": [
        {
          "internalType": "uint256",
          "name": "inputAmount",
          "type": "uint256"
        },
        {
          "internalType": "uint8",
          "name": "inputTokenIndex",
          "type": "uint8"
        },
        {
          "internalType": "uint8",
          "name": "outputTokenIndex",
          "type": "uint8"
        },
        {
          "internalType": "uint256",
          "name": "minimumOutputAmount",
          "type": "uint256"
        }
      ],
      "name": "swap",
      "outputs": [
        {
          "internalType": "uint256",
          "name": "outputAmount",
          "type": "uint256"
        }
      ],
      "stateMutability": "nonpayable",
      "type": "function"
    },
    {
      "inputs": [
        {
          "internalType": "uint256[]",
          "name": "inputAmounts",
          "type": "uint256[]"
        },
        {
          "internalType": "uint8",
          "name": "outputTokenIndex",
          "type": "uint8"
        },
        {
          "internalType": "uint256",
          "name": "minimumOutputAmount",
          "type": "uint256"
        }
      ],
      "name": "swapExactInput",
      "outputs": [
        {
          "internalType": "uint256",
          "name": "outputAmount",
          "type": "uint256"
        }
      ],
      "stateMutability": "nonpayable",
      "type": "function"
    },
    {
      "inputs": [
        {
          "internalType": "uint256",
          "name": "maximumInputAmount",
          "type": "uint256"
        },
        {
          "internalType": "uint8",
          "name": "inputTokenIndex",
          "type": "uint8"
        },
        {
          "internalType": "uint256[]",
          "name": "outputAmounts",
          "type": "uint256[]"
        }
      ],
      "name": "swapExactOutput",
      "outputs": [
        {
          "internalType": "uint256",
          "name": "inputAmount",
          "type": "uint256"
        }
      ],
      "stateMutability": "nonpayable",
      "type": "function"
    },
    {
      "inputs": [],
      "name": "tokenCount",
      "outputs": [
        {
          "internalType": "uint8",
          "name": "",
          "type": "uint8"
        }
      ],
      "stateMutability": "view",
      "type": "function"
    },
    {
      "inputs": [],
      "name": "totalFee",
      "outputs": [
        {
          "internalType": "uint32",
          "name": "",
          "type": "uint32"
        }
      ],
      "stateMutability": "view",
      "type": "function"
    },
    {
      "inputs": [
        {
          "internalType": "address",
          "name": "_governance",
          "type": "address"
        }
      ],
      "name": "transferGovernance",
      "outputs": [],
      "stateMutability": "nonpayable",
      "type": "function"
    },
    {
      "inputs": [
        {
          "internalType": "address",
          "name": "newImplementation",
          "type": "address"
        },
        {
          "internalType": "bytes",
          "name": "data",
          "type": "bytes"
        }
      ],
      "name": "upgradeLpToken",
      "outputs": [],
      "stateMutability": "nonpayable",
      "type": "function"
    },
    {
      "inputs": [
        {
          "internalType": "address",
          "name": "newImplementation",
          "type": "address"
        }
      ],
      "name": "upgradeLpToken",
      "outputs": [],
      "stateMutability": "nonpayable",
      "type": "function"
    },
    {
      "inputs": [
        {
          "internalType": "address",
          "name": "newImplementation",
          "type": "address"
        }
      ],
      "name": "upgradeTo",
      "outputs": [],
      "stateMutability": "nonpayable",
      "type": "function"
    },
    {
      "inputs": [
        {
          "internalType": "address",
          "name": "newImplementation",
          "type": "address"
        },
        {
          "internalType": "bytes",
          "name": "data",
          "type": "bytes"
        }
      ],
      "name": "upgradeToAndCall",
      "outputs": [],
      "stateMutability": "payable",
      "type": "function"
    }
  ],
  "transactionHash": "0xd94160cce7c6813498f78655a54f75059b44d4a87e27f17f40656be336a419d0",
  "args": [],
  "numDeployments": 1,
  "solcInputHash": "d4d7bf844a817be9e744e431f4f7a8aa",
  "bytecode": "0x60a06040523060805234801561001457600080fd5b50608051615c786200004d60003960008181610c7b01528181610d3001528181611ae201528181611b920152611cd70152615c786000f3fe6080604052600436106101d85760003560e01c80637cb726a611610102578063d38bfff411610095578063e7744e7511610064578063e7744e7514610666578063ee763c5814610686578063eec21d49146106a6578063fa4d3918146106c657600080fd5b8063d38bfff4146105d9578063dbbc281a146105f9578063dc163d4e14610619578063e57feaa41461063957600080fd5b8063851c428d116100d1578063851c428d1461052157806389f9d293146105525780639f181b5e14610587578063d1bba74d146105b957600080fd5b80637cb726a61461047b5780637e726dde146104a85780637ea59853146104c857806384435de31461050157600080fd5b80632d94f8671161017a5780634f1ef286116101495780634f1ef286146103d057806352d1902d146103e35780635aa6e675146103f85780635c975abb1461044a57600080fd5b80632d94f867146103265780633659cfe61461037057806336d340ad146103905780634d98123c146103b057600080fd5b806316c38b3c116101b657806316c38b3c1461029d5780631865c57d146102bf5780631df4ccfc146102e1578063259fc9981461030657600080fd5b806309773522146101dd5780630ea90a121461023157806312f611371461026f575b600080fd5b3480156101e957600080fd5b506101fd6101f836600461505d565b6106f3565b6040805173ffffffffffffffffffffffffffffffffffffffff909316835260009190910b6020830152015b60405180910390f35b34801561023d57600080fd5b5060005461025a9068010000000000000000900463ffffffff1681565b60405163ffffffff9091168152602001610228565b34801561027b57600080fd5b5061028f61028a366004615199565b61073c565b604051908152602001610228565b3480156102a957600080fd5b506102bd6102b83660046151fe565b6108c2565b005b3480156102cb57600080fd5b506102d461091f565b604051610228919061521b565b3480156102ed57600080fd5b5060005461025a90640100000000900463ffffffff1681565b34801561031257600080fd5b506102bd61032136600461533b565b610c31565b34801561033257600080fd5b506001546101fd9073ffffffffffffffffffffffffffffffffffffffff81169074010000000000000000000000000000000000000000900460000b82565b34801561037c57600080fd5b506102bd61038b366004615392565b610c63565b34801561039c57600080fd5b506102bd6103ab366004615519565b610e6e565b3480156103bc57600080fd5b506102bd6103cb36600461533b565b6116a4565b6102bd6103de36600461562c565b611aca565b3480156103ef57600080fd5b5061028f611cbd565b34801561040457600080fd5b506008546104259073ffffffffffffffffffffffffffffffffffffffff1681565b60405173ffffffffffffffffffffffffffffffffffffffff9091168152602001610228565b34801561045657600080fd5b5060005461046b906301000000900460ff1681565b6040519015158152602001610228565b34801561048757600080fd5b5061049b61049636600461568e565b611da9565b60405161022891906156cb565b3480156104b457600080fd5b506102bd6104c336600461562c565b612094565b3480156104d457600080fd5b5060005461025a907801000000000000000000000000000000000000000000000000900463ffffffff1681565b34801561050d57600080fd5b5061028f61051c36600461570f565b612146565b34801561052d57600080fd5b5060005461025a90700100000000000000000000000000000000900463ffffffff1681565b34801561055e57600080fd5b5060005461025a9074010000000000000000000000000000000000000000900463ffffffff1681565b34801561059357600080fd5b506000546105a79062010000900460ff1681565b60405160ff9091168152602001610228565b3480156105c557600080fd5b506102bd6105d4366004615392565b612246565b3480156105e557600080fd5b506102bd6105f4366004615392565b6122f2565b34801561060557600080fd5b506102bd610614366004615392565b61235d565b34801561062557600080fd5b5061028f610634366004615766565b612403565b34801561064557600080fd5b5060005461025a906c01000000000000000000000000900463ffffffff1681565b34801561067257600080fd5b5061028f6106813660046157aa565b612577565b34801561069257600080fd5b5061028f6106a13660046157cf565b6126a0565b3480156106b257600080fd5b5061028f6106c13660046157cf565b612825565b3480156106d257600080fd5b506009546104259073ffffffffffffffffffffffffffffffffffffffff1681565b6002816006811061070357600080fd5b015473ffffffffffffffffffffffffffffffffffffffff8116915074010000000000000000000000000000000000000000900460000b82565b600080546301000000900460ff161561075457600080fd5b600080600080610762612a42565b9350935093509350838760ff161061077957600080fd5b858760ff168151811061078e5761078e615814565b60200260200101516000146107a257600080fd5b60006107ae8786612cf4565b905060005b8581101561080557826020015181815181106107d1576107d1615814565b60200260200101518282815181106107eb576107eb615814565b6020026020010151106107fd57600080fd5b6001016107b3565b506000806108166000848c87612e3a565b915091506108568260028c60ff166006811061083457610834615814565b015474010000000000000000000000000000000000000000900460000b6132bf565b97508a88111561086557600080fd5b610872888b60ff166133aa565b60005b878110156108a8576108a08a828151811061089257610892615814565b6020026020010151826133f0565b600101610875565b506108b4818787613430565b505050505050509392505050565b60085473ffffffffffffffffffffffffffffffffffffffff1633146108e657600080fd5b600080549115156301000000027fffffffffffffffffffffffffffffffffffffffffffffffffffffffff00ffffff909216919091179055565b610927614f9b565b6040805160c0810182526000805460ff630100000090910416151582528251600680825260e082019094529092602083019190816020015b604080518082019091526000808252602082015281526020019060019003908161095f575050815260408051808201825260015473ffffffffffffffffffffffffffffffffffffffff1680825282517f18160ddd00000000000000000000000000000000000000000000000000000000815292516020948501949293838501936318160ddd92600480840193829003018186803b1580156109ff57600080fd5b505afa158015610a13573d6000803e3d6000fd5b505050506040513d601f19601f82011682018060405250810190610a379190615843565b81525081526020016040518060400160405280600a6003600a610a5a91906159ab565b610a626134d6565b63ffffffff16610a7291906159b7565b901c815260036020918201529082526040805180820190915260005492909101918190610abb9063ffffffff6801000000000000000082048116916401000000009004166159f4565b63ffffffff90811682526006602092830181905292845260408051808201909152600080546801000000000000000090049092168152808301939093529201529091505b6006811015610c2b57604051806040016040528060028360068110610b2657610b26615814565b015473ffffffffffffffffffffffffffffffffffffffff16815260200160028360068110610b5657610b56615814565b01546040517f70a0823100000000000000000000000000000000000000000000000000000000815230600482015273ffffffffffffffffffffffffffffffffffffffff909116906370a082319060240160206040518083038186803b158015610bbe57600080fd5b505afa158015610bd2573d6000803e3d6000fd5b505050506040513d601f19601f82011682018060405250810190610bf69190615843565b81525082602001518281518110610c0f57610c0f615814565b602002602001018190525080610c2490615a19565b9050610aff565b50919050565b60085473ffffffffffffffffffffffffffffffffffffffff163314610c5557600080fd5b610c5f82826135ae565b5050565b3073ffffffffffffffffffffffffffffffffffffffff7f0000000000000000000000000000000000000000000000000000000000000000161415610d2e576040517f08c379a000000000000000000000000000000000000000000000000000000000815260206004820152602c60248201527f46756e6374696f6e206d7573742062652063616c6c6564207468726f7567682060448201527f64656c656761746563616c6c000000000000000000000000000000000000000060648201526084015b60405180910390fd5b7f000000000000000000000000000000000000000000000000000000000000000073ffffffffffffffffffffffffffffffffffffffff16610da37f360894a13ba1a3210667c828492db98dca3e2076cc3735a920a3ca505d382bbc5473ffffffffffffffffffffffffffffffffffffffff1690565b73ffffffffffffffffffffffffffffffffffffffff1614610e46576040517f08c379a000000000000000000000000000000000000000000000000000000000815260206004820152602c60248201527f46756e6374696f6e206d7573742062652063616c6c6564207468726f7567682060448201527f6163746976652070726f787900000000000000000000000000000000000000006064820152608401610d25565b610e4f8161370b565b60408051600080825260208201909252610e6b9183919061372f565b50565b600054610100900460ff1615808015610e8e5750600054600160ff909116105b80610ea85750303b158015610ea8575060005460ff166001145b610f34576040517f08c379a000000000000000000000000000000000000000000000000000000000815260206004820152602e60248201527f496e697469616c697a61626c653a20636f6e747261637420697320616c72656160448201527f647920696e697469616c697a65640000000000000000000000000000000000006064820152608401610d25565b600080547fffffffffffffffffffffffffffffffffffffffffffffffffffffffffffffff001660011790558015610f9257600080547fffffffffffffffffffffffffffffffffffffffffffffffffffffffffffff00ff166101001790555b6040517f4cd88b76000000000000000000000000000000000000000000000000000000008152899073ffffffffffffffffffffffffffffffffffffffff821690634cd88b7690610fe8908f908f90600401615ac8565b602060405180830381600087803b15801561100257600080fd5b505af1158015611016573d6000803e3d6000fd5b505050506040513d601f19601f8201168201806040525081019061103a9190615af6565b6110a0576040517f08c379a000000000000000000000000000000000000000000000000000000000815260206004820152601d60248201527f4c70546f6b656e20696e697469616c697a6174696f6e206661696c65640000006044820152606401610d25565b6001805460ff8b1674010000000000000000000000000000000000000000027fffffffffffffffffffffff00000000000000000000000000000000000000000090911673ffffffffffffffffffffffffffffffffffffffff8d161717905587516006811115611191576040517f08c379a000000000000000000000000000000000000000000000000000000000815260206004820152602660248201527f6d6178696d756d20737570706f7274656420746f6b656e20636f756e7420657860448201527f63656564656400000000000000000000000000000000000000000000000000006064820152608401610d25565b80885114611221576040517f08c379a000000000000000000000000000000000000000000000000000000000815260206004820152602660248201527f6f6e6520746f6b656e20657175616c697a65722070657220746f6b656e20726560448201527f71756972656400000000000000000000000000000000000000000000000000006064820152608401610d25565b600080547fffffffffffffffffffffffffffffffffffffffffffffffffffffffffff00ffff166201000060ff8416021781555b818110156114295789818151811061126e5761126e615814565b60200260200101516002826006811061128957611289615814565b0180547fffffffffffffffffffffffff00000000000000000000000000000000000000001673ffffffffffffffffffffffffffffffffffffffff9290921691909117905588517fffffffffffffffffffffffffffffffffffffffffffffffffffffffffffffffee908a908390811061130357611303615814565b602002602001015160000b1215801561133c5750600460000b89828151811061132e5761132e615814565b602002602001015160000b13155b6113a2576040517f08c379a000000000000000000000000000000000000000000000000000000000815260206004820152601760248201527f696e76616c696420657175616c697a65722076616c75650000000000000000006044820152606401610d25565b8881815181106113b4576113b4615814565b6020026020010151600282600681106113cf576113cf615814565b01805460ff9290921674010000000000000000000000000000000000000000027fffffffffffffffffffffff00ffffffffffffffffffffffffffffffffffffffff90921691909117905561142281615a19565b9050611254565b50620f424063ffffffff8816111561149d576040517f08c379a000000000000000000000000000000000000000000000000000000000815260206004820152601b60248201527f6d6178696d756d20616d7020666163746f7220657863656564656400000000006044820152606401610d25565b61040063ffffffff88161015806114c3575063ffffffff87161580156114c35750806002145b611529576040517f08c379a000000000000000000000000000000000000000000000000000000000815260206004820152601260248201527f696e76616c696420616d7020666163746f7200000000000000000000000000006044820152606401610d25565b600080547fffffffff00000000000000000000000000000000ffffffffffffffffffffffff1674010000000000000000000000000000000000000000600a8a901b63fffffc0016027fffffffff00000000ffffffffffffffffffffffffffffffffffffffffffffffff16179055600980547fffffffffffffffffffffffff00000000000000000000000000000000000000001673ffffffffffffffffffffffffffffffffffffffff86161790556115e086866135ae565b5050600080547fffffffffffffffffffffffffffffffffffffffffffffffffffffffff00ffffff169055600880547fffffffffffffffffffffffff00000000000000000000000000000000000000001633179055801561169757600080547fffffffffffffffffffffffffffffffffffffffffffffffffffffffffffff00ff169055604051600181527f7f26b83ff96e1f2b6a682f133852f6798a09c465da95921460cefb38474024989060200160405180910390a15b5050505050505050505050565b60085473ffffffffffffffffffffffffffffffffffffffff1633146116c857600080fd5b60006116d26134d6565b63ffffffff16905080611767576040517f08c379a000000000000000000000000000000000000000000000000000000000815260206004820152603060248201527f63616e2774206368616e676520616d7020666163746f72206f6620636f6e737460448201527f616e742070726f6475637420706f6f6c000000000000000000000000000000006064820152608401610d25565b620f424063ffffffff841611156117da576040517f08c379a000000000000000000000000000000000000000000000000000000000815260206004820152601b60248201527f6d6178696d756d20616d7020666163746f7220657863656564656400000000006044820152606401610d25565b6503fffffffc00600a84901b16610400811015611853576040517f08c379a000000000000000000000000000000000000000000000000000000000815260206004820152601860248201527f62656c6f77206d696e696d756d20616d7020666163746f7200000000000000006044820152606401610d25565b6118606201518042615b13565b8363ffffffff16116118f4576040517f08c379a000000000000000000000000000000000000000000000000000000000815260206004820152602d60248201527f7461726765742074696d657374616d70206e6f742066617220656e6f7567682060448201527f696e2074686520667574757265000000000000000000000000000000000000006064820152608401610d25565b80821115801561190e57508061190b600a846159b7565b10155b8061192d5750808211801561192d5750611929600a826159b7565b8211155b6119b9576040517f08c379a000000000000000000000000000000000000000000000000000000000815260206004820152602560248201527f657863656564696e67206d6178696d756d2072656c61746976652061646a757360448201527f746d656e740000000000000000000000000000000000000000000000000000006064820152608401610d25565b600080547fffffffffffffffffffffffff0000000000000000ffffffffffffffffffffffff166c010000000000000000000000004263ffffffff908116919091027fffffffffffffffffffffffff00000000ffffffffffffffffffffffffffffffff169190911770010000000000000000000000000000000094821694909402939093177fffffffff0000000000000000ffffffffffffffffffffffffffffffffffffffff1674010000000000000000000000000000000000000000928416929092027fffffffff00000000ffffffffffffffffffffffffffffffffffffffffffffffff16919091177801000000000000000000000000000000000000000000000000939092169290920217905550565b3073ffffffffffffffffffffffffffffffffffffffff7f0000000000000000000000000000000000000000000000000000000000000000161415611b90576040517f08c379a000000000000000000000000000000000000000000000000000000000815260206004820152602c60248201527f46756e6374696f6e206d7573742062652063616c6c6564207468726f7567682060448201527f64656c656761746563616c6c00000000000000000000000000000000000000006064820152608401610d25565b7f000000000000000000000000000000000000000000000000000000000000000073ffffffffffffffffffffffffffffffffffffffff16611c057f360894a13ba1a3210667c828492db98dca3e2076cc3735a920a3ca505d382bbc5473ffffffffffffffffffffffffffffffffffffffff1690565b73ffffffffffffffffffffffffffffffffffffffff1614611ca8576040517f08c379a000000000000000000000000000000000000000000000000000000000815260206004820152602c60248201527f46756e6374696f6e206d7573742062652063616c6c6564207468726f7567682060448201527f6163746976652070726f787900000000000000000000000000000000000000006064820152608401610d25565b611cb18261370b565b610c5f8282600161372f565b60003073ffffffffffffffffffffffffffffffffffffffff7f00000000000000000000000000000000000000000000000000000000000000001614611d84576040517f08c379a000000000000000000000000000000000000000000000000000000000815260206004820152603860248201527f555550535570677261646561626c653a206d757374206e6f742062652063616c60448201527f6c6564207468726f7567682064656c656761746563616c6c00000000000000006064820152608401610d25565b507f360894a13ba1a3210667c828492db98dca3e2076cc3735a920a3ca505d382bbc90565b60008054600154604080517f18160ddd00000000000000000000000000000000000000000000000000000000815290516060946201000090940460ff169373ffffffffffffffffffffffffffffffffffffffff909316929183916318160ddd91600480820192602092909190829003018186803b158015611e2957600080fd5b505afa158015611e3d573d6000803e3d6000fd5b505050506040513d601f19601f82011682018060405250810190611e619190615843565b6040517f79cc67900000000000000000000000000000000000000000000000000000000081523360048201526024810188905290915073ffffffffffffffffffffffffffffffffffffffff8316906379cc679090604401600060405180830381600087803b158015611ed257600080fd5b505af1158015611ee6573d6000803e3d6000fd5b505050508267ffffffffffffffff811115611f0357611f0361508c565b604051908082528060200260200182016040528015611f2c578160200160208202803683370190505b50935060005b8381101561208a57600060028260068110611f4f57611f4f615814565b01546040517f70a0823100000000000000000000000000000000000000000000000000000000815230600482015273ffffffffffffffffffffffffffffffffffffffff909116915060009082906370a082319060240160206040518083038186803b158015611fbd57600080fd5b505afa158015611fd1573d6000803e3d6000fd5b505050506040513d601f19601f82011682018060405250810190611ff59190615843565b90506000846120048b846159b7565b61200e9190615b5a565b905088848151811061202257612022615814565b602002602001015181101561203657600080fd5b61205773ffffffffffffffffffffffffffffffffffffffff8416338361393d565b8088858151811061206a5761206a615814565b6020026020010181815250505050508061208390615a19565b9050611f32565b5050505092915050565b60085473ffffffffffffffffffffffffffffffffffffffff1633146120b857600080fd5b6001546040517f4f1ef28600000000000000000000000000000000000000000000000000000000815273ffffffffffffffffffffffffffffffffffffffff90911690634f1ef286906121109085908590600401615b95565b600060405180830381600087803b15801561212a57600080fd5b505af115801561213e573d6000803e3d6000fd5b505050505050565b600080546301000000900460ff161561215e57600080fd5b60008060008061216c612a42565b9350935093509350838760ff161061218357600080fd5b878760ff168151811061219857612198615814565b60200260200101516000146121ac57600080fd5b60006121b88986612cf4565b90506000806121ca6001848c87612e3a565b915091506121e88260028c60ff166006811061083457610834615814565b9750888810156121f757600080fd5b60005b8781101561222d576122258c828151811061221757612217615814565b6020026020010151826133aa565b6001016121fa565b5061223b888b60ff166133f0565b6108b4818787613430565b60085473ffffffffffffffffffffffffffffffffffffffff16331461226a57600080fd5b6001546040517f3659cfe600000000000000000000000000000000000000000000000000000000815273ffffffffffffffffffffffffffffffffffffffff838116600483015290911690633659cfe690602401600060405180830381600087803b1580156122d757600080fd5b505af11580156122eb573d6000803e3d6000fd5b5050505050565b60085473ffffffffffffffffffffffffffffffffffffffff16331461231657600080fd5b600880547fffffffffffffffffffffffff00000000000000000000000000000000000000001673ffffffffffffffffffffffffffffffffffffffff92909216919091179055565b60085473ffffffffffffffffffffffffffffffffffffffff16331461238157600080fd5b600054640100000000900463ffffffff1615806123b3575073ffffffffffffffffffffffffffffffffffffffff811615155b6123bc57600080fd5b600980547fffffffffffffffffffffffff00000000000000000000000000000000000000001673ffffffffffffffffffffffffffffffffffffffff92909216919091179055565b600080546301000000900460ff161561241b57600080fd5b600080600080612429612a42565b9350935093509350838860ff161061244057600080fd5b838760ff161061244f57600080fd5b8660ff168860ff16141561246257600080fd5b60008467ffffffffffffffff81111561247d5761247d61508c565b6040519080825280602002602001820160405280156124a6578160200160208202803683370190505b5090506124e58a60028b60ff16600681106124c3576124c3615814565b015474010000000000000000000000000000000000000000900460000b613a11565b818a60ff16815181106124fa576124fa615814565b6020026020010181815250506000806125166001848c87612e3a565b915091506125348260028c60ff166006811061083457610834615814565b97508888101561254357600080fd5b6125508c8c60ff166133aa565b61255d888b60ff166133f0565b612568818787613430565b50505050505050949350505050565b600080546301000000900460ff161561258f57600080fd5b60008060008061259d612a42565b9350935093509350838760ff16106125b457600080fd5b60006125c08984613a11565b90508160a0015181106125d257600080fd5b6000806125e0838b86613b63565b915091506125fe8260028c60ff166006811061083457610834615814565b97508888101561260d57600080fd5b6040517f79cc6790000000000000000000000000000000000000000000000000000000008152336004820152602481018c905273ffffffffffffffffffffffffffffffffffffffff8716906379cc679090604401600060405180830381600087803b15801561267b57600080fd5b505af115801561268f573d6000803e3d6000fd5b5050505061223b888b60ff166133f0565b600080546301000000900460ff16156126b857600080fd5b6000806000806126c6612a42565b935093509350935060006126da8886612cf4565b905060005b8581101561273157826020015181815181106126fd576126fd615814565b602002602001015182828151811061271757612717615814565b60200260200101511061272957600080fd5b6001016126df565b5060008061274160008486613e38565b9150915061274f82866132bf565b97508888111561275e57600080fd5b6040517f79cc67900000000000000000000000000000000000000000000000000000000081523360048201526024810189905273ffffffffffffffffffffffffffffffffffffffff8716906379cc679090604401600060405180830381600087803b1580156127cc57600080fd5b505af11580156127e0573d6000803e3d6000fd5b5050505060005b8781101561280c576128048b828151811061089257610892615814565b6001016127e7565b50612818818787613430565b5050505050505092915050565b600080546301000000900460ff161561283d57600080fd5b60008060008061284b612a42565b9350935093509350600061285f8886612cf4565b905060008260a001516000141561294e5760005b8681101561292c5760008a828151811061288f5761288f615814565b602002602001015111612924576040517f08c379a000000000000000000000000000000000000000000000000000000000815260206004820152602360248201527f496e697469616c20616464206d75737420696e636c75646520616c6c20746f6b60448201527f656e7300000000000000000000000000000000000000000000000000000000006064820152608401610d25565b600101612873565b50600061294583856040015163ffffffff16600061422f565b915061296e9050565b600061295c60018486613e38565b909250905061296c818787613430565b505b61297881856132bf565b96508787101561298757600080fd5b60005b868110156129af576129a78a828151811061221757612217615814565b60010161298a565b506040517f40c10f190000000000000000000000000000000000000000000000000000000081523360048201526024810188905273ffffffffffffffffffffffffffffffffffffffff8616906340c10f1990604401600060405180830381600087803b158015612a1e57600080fd5b505af1158015612a32573d6000803e3d6000fd5b5050505050505050505092915050565b6040805160c080820183526000808352606060208085018290528486018390529084018290526080840182905260a084018290528154600154865194850190965262010000900460ff168084529473ffffffffffffffffffffffffffffffffffffffff8116947401000000000000000000000000000000000000000090910490920b929081018567ffffffffffffffff811115612ae157612ae161508c565b604051908082528060200260200182016040528015612b0a578160200160208202803683370190505b508152602001612b186134d6565b63ffffffff168152602001600060049054906101000a900463ffffffff1663ffffffff168152602001600060089054906101000a900463ffffffff1663ffffffff168152602001612be68573ffffffffffffffffffffffffffffffffffffffff166318160ddd6040518163ffffffff1660e01b815260040160206040518083038186803b158015612ba857600080fd5b505afa158015612bbc573d6000803e3d6000fd5b505050506040513d601f19601f82011682018060405250810190612be09190615843565b85613a11565b9052905060005b84811015612ced57600060028260068110612c0a57612c0a615814565b01546040517f70a0823100000000000000000000000000000000000000000000000000000000815230600482015273ffffffffffffffffffffffffffffffffffffffff909116906370a082319060240160206040518083038186803b158015612c7257600080fd5b505afa158015612c86573d6000803e3d6000fd5b505050506040513d601f19601f82011682018060405250810190612caa9190615843565b9050612cc381600284600681106124c3576124c3615814565b83602001518381518110612cd957612cd9615814565b602090810291909101015250600101612bed565b5090919293565b606081835114612d86576040517f08c379a000000000000000000000000000000000000000000000000000000000815260206004820152602660248201527f696e76616c6964206e756d626572206f662070617373656420746f6b656e206160448201527f6d6f756e747300000000000000000000000000000000000000000000000000006064820152608401610d25565b8167ffffffffffffffff811115612d9f57612d9f61508c565b604051908082528060200260200182016040528015612dc8578160200160208202803683370190505b50905060005b82811015612e3357612e06848281518110612deb57612deb615814565b6020026020010151600283600681106124c3576124c3615814565b828281518110612e1857612e18615814565b6020908102919091010152612e2c81615a19565b9050612dce565b5092915050565b6000806000612e598460200151856040015163ffffffff16600061422f565b9050600084602001515167ffffffffffffffff811115612e7b57612e7b61508c565b604051908082528060200260200182016040528015612ea4578160200160208202803683370190505b50905060005b856020015151811015612f3957600086602001518281518110612ecf57612ecf615814565b602002602001015190506000898381518110612eed57612eed615814565b6020026020010151905060008b612f0657818303612f0a565b8183015b905080858581518110612f1f57612f1f615814565b602002602001018181525050505050806001019050612eaa565b50600060018660200151510367ffffffffffffffff811115612f5d57612f5d61508c565b604051908082528060200260200182016040528015612f86578160200160208202803683370190505b509050888015612f9f5750606086015163ffffffff1615155b156130655760005b815181101561305f5760008860ff168210612fc55781600101612fc7565b815b905060008a8281518110612fdd57612fdd615814565b602002602001015190506000858381518110612ffb57612ffb615814565b6020026020010151905060006006600a0a8b6060015163ffffffff1684028161302657613026615b2b565b049050600081830390508087878151811061304357613043615814565b6020026020010181815250505050505050806001019050612fa7565b506130cc565b60005b81518110156130ca5760008860ff1682106130865781600101613088565b815b905083818151811061309c5761309c615814565b60200260200101518383815181106130b6576130b6615814565b602090810291909101015250600101613068565b505b6000896130da5760006130fc565b86602001518860ff16815181106130f3576130f3615814565b60200260200101515b9050600061311083868a60400151856143e2565b905060008b15613184578189602001518b60ff168151811061313457613134615814565b602002602001015103905080858b60ff168151811061315557613155615814565b602002602001015103858b60ff168151811061317357613173615814565b602002602001018181525050613225565b88602001518a60ff168151811061319d5761319d615814565b602002602001015182039050886060015163ffffffff166000146131e4576060890151819063ffffffff16620f4240908103908202816131df576131df615b2b565b040390505b80858b60ff16815181106131fa576131fa615814565b602002602001015101858b60ff168151811061321857613218615814565b6020026020010181815250505b809750886060015163ffffffff166000146132b05760006132558a602001518b6040015163ffffffff168961422f565b90506000878203905060008b6060015163ffffffff168c6080015163ffffffff1683028161328557613285615b2b565b60a08e0151919004915081840390600082828502816132a6576132a6615b2b565b049c505050505050505b50505050505094509492505050565b600082806132d15760009150506133a4565b60008360000b12156132f9576000838103900b600a0a6132f181836159b7565b9150506133a1565b8260000b600a0a818161330e5761330e615b2b565b049050600081116133a1576040517f08c379a000000000000000000000000000000000000000000000000000000000815260206004820152602660248201527f6c6f73696e6720616c6c20707265636973696f6e207768656e2064656571756160448201527f6c697a696e6700000000000000000000000000000000000000000000000000006064820152608401610d25565b90505b92915050565b8115610c5f576000600282600681106133c5576133c5615814565b015473ffffffffffffffffffffffffffffffffffffffff1690506133eb8133308661460e565b505050565b8115610c5f5760006002826006811061340b5761340b615814565b015473ffffffffffffffffffffffffffffffffffffffff1690506133eb81338561393d565b82156133eb57600061344284836132bf565b6009546040517f40c10f1900000000000000000000000000000000000000000000000000000000815273ffffffffffffffffffffffffffffffffffffffff9182166004820152602481018390529192508416906340c10f1990604401600060405180830381600087803b1580156134b857600080fd5b505af11580156134cc573d6000803e3d6000fd5b5050505050505050565b6000805442907801000000000000000000000000000000000000000000000000900463ffffffff1680821215613585576000805463ffffffff70010000000000000000000000000000000082048116926c01000000000000000000000000830482169274010000000000000000000000000000000000000000900490911690828203908487039085870390818385028161357257613572615b2b565b059590950198506135a995505050505050565b60005474010000000000000000000000000000000000000000900463ffffffff1692505b505090565b60006135ba8284615bc4565b905060026135ca6006600a6159ab565b6135d49190615b5a565b8163ffffffff1610613668576040517f08c379a000000000000000000000000000000000000000000000000000000000815260206004820152602260248201527f746f74616c206665652068617320746f206265206c657373207468616e20353060448201527f20250000000000000000000000000000000000000000000000000000000000006064820152608401610d25565b63ffffffff81161580613692575060095473ffffffffffffffffffffffffffffffffffffffff1615155b61369b57600080fd5b600080547fffffffffffffffffffffffffffffffffffffffff0000000000000000ffffffff1664010000000063ffffffff938416027fffffffffffffffffffffffffffffffffffffffff00000000ffffffffffffffff161768010000000000000000939092169290920217905550565b60085473ffffffffffffffffffffffffffffffffffffffff163314610e6b57600080fd5b7f4910fdfa16fed3260ed0e7147f7cc6da11a60208b5b9406d12a635614ffd91435460ff1615613762576133eb83614672565b8273ffffffffffffffffffffffffffffffffffffffff166352d1902d6040518163ffffffff1660e01b815260040160206040518083038186803b1580156137a857600080fd5b505afa9250505080156137f6575060408051601f3d9081017fffffffffffffffffffffffffffffffffffffffffffffffffffffffffffffffe01682019092526137f391810190615843565b60015b613882576040517f08c379a000000000000000000000000000000000000000000000000000000000815260206004820152602e60248201527f45524331393637557067726164653a206e657720696d706c656d656e7461746960448201527f6f6e206973206e6f7420555550530000000000000000000000000000000000006064820152608401610d25565b7f360894a13ba1a3210667c828492db98dca3e2076cc3735a920a3ca505d382bbc8114613931576040517f08c379a000000000000000000000000000000000000000000000000000000000815260206004820152602960248201527f45524331393637557067726164653a20756e737570706f727465642070726f7860448201527f6961626c655555494400000000000000000000000000000000000000000000006064820152608401610d25565b506133eb83838361477c565b60405173ffffffffffffffffffffffffffffffffffffffff83166024820152604481018290526133eb9084907fa9059cbb00000000000000000000000000000000000000000000000000000000906064015b604080517fffffffffffffffffffffffffffffffffffffffffffffffffffffffffffffffe08184030181529190526020810180517bffffffffffffffffffffffffffffffffffffffffffffffffffffffff167fffffffff00000000000000000000000000000000000000000000000000000000909316929092179091526147a1565b600082613a20575060006133a4565b6000808360000b1215613adc578260000360000b600a0a8481613a4557613a45615b2b565b04905060008111613ad7576040517f08c379a0000000000000000000000000000000000000000000000000000000008152602060048201526024808201527f6c6f73696e6720616c6c20707265636973696f6e207768656e20657175616c6960448201527f7a696e67000000000000000000000000000000000000000000000000000000006064820152608401610d25565b613af2565b50600082900b600a0a613aef84826159b7565b90505b67200000000000000081106133a1576040517f08c379a000000000000000000000000000000000000000000000000000000000815260206004820152601360248201527f4d41585f414d4f554e54206578636565646564000000000000000000000000006044820152606401610d25565b6000806000858460a0015103905060008460a0015182613b938760200151886040015163ffffffff16600061422f565b0281613ba157613ba1615b2b565b049050600060018660200151510367ffffffffffffffff811115613bc757613bc761508c565b604051908082528060200260200182016040528015613bf0578160200160208202803683370190505b50905060005b8151811015613c5c5760008860ff168210613c145781600101613c16565b815b905087602001518181518110613c2e57613c2e615814565b6020026020010151838381518110613c4857613c48615814565b602090810291909101015250600101613bf6565b506000613c8f828489604001518a602001518c60ff1681518110613c8257613c82615814565b60200260200101516143e2565b87602001518960ff1681518110613ca857613ca8615814565b6020026020010151039050866060015163ffffffff16600014613e28576000613cd488602001516148ad565b905060008160408a602001518c60ff1681518110613cf457613cf4615814565b60200260200101518403901b81613d0d57613d0d615b2b565b60608b01519190049150600090680100000000000000009063ffffffff16620f4240036a0f4240000000000000000081613d4957613d49615b2b565b040390506801000000000000000082820260401c0184830281613d6e57613d6e615b2b565b04810284039850888a602001518c60ff1681518110613d8f57613d8f615814565b6020026020010151038a602001518c60ff1681518110613db157613db1615814565b602002602001018181525050600086613dd98c602001518d6040015163ffffffff168a61422f565b03905060008b6060015163ffffffff168c6080015163ffffffff16830281613e0357613e03615b2b565b049050808289010389820281613e1b57613e1b615b2b565b0499505050505050613e2c565b8095505b50505050935093915050565b6000806000613e578460200151856040015163ffffffff16600061422f565b9050600080600086602001515167ffffffffffffffff811115613e7c57613e7c61508c565b604051908082528060200260200182016040528015613ea5578160200160208202803683370190505b50905060005b876020015151811015613f3b57600088602001518281518110613ed057613ed0615814565b6020026020010151905060008a8381518110613eee57613eee615814565b6020026020010151905060008c613f0757818303613f0b565b8183015b905080858581518110613f2057613f20615814565b60209081029190910101529590910194935050600101613eab565b506000613f6482896040015163ffffffff168686890281613f5e57613f5e615b2b565b0461422f565b9050876060015163ffffffff166000146141f957600088602001515167ffffffffffffffff811115613f9857613f9861508c565b604051908082528060200260200182016040528015613fc1578160200160208202803683370190505b50905060005b89602001515181101561413d576000848281518110613fe857613fe8615814565b60200260200101519050600087878d60200151858151811061400c5761400c615814565b6020026020010151028161402257614022615b2b565b04905060008e6140425781831061403a576000614054565b828203614054565b818311614050576000614054565b8183035b905060008f6140885760608e0151829063ffffffff16620f42409081039082028161408157614081615b2b565b040361409c565b60608e0151620f42409063ffffffff168302045b9050808411614107576040517f08c379a000000000000000000000000000000000000000000000000000000000815260206004820152601160248201527f696d706f737369626c652072656d6f76650000000000000000000000000000006044820152606401610d25565b600081850390508087878151811061412157614121615814565b6020026020010181815250505050505050806001019050613fc7565b506000614155828b6040015163ffffffff168561422f565b9050868c61416557818803614169565b8782035b8b60a00151028161417c5761417c615b2b565b0498506000818403905060008b6060015163ffffffff168c6080015163ffffffff168302816141ad576141ad615b2b565b04905060008e6141c3578b8d60a00151036141cb565b8b8d60a00151015b9050818f6141d957866141db565b845b03818302816141ec576141ec615b2b565b049a505050505050614222565b848860a001518b61420c57828703614210565b8683035b028161421e5761421e615b2b565b0496505b5050505050935093915050565b60008261428857600490508360008151811061424d5761424d615814565b6020026020010151810290508360018151811061426c5761426c615814565b602002602001015181029050614281816148e3565b90506143db565b83516000614295866148ad565b90508481027ffffffffffffffffffffffffffffffffffffffffffffffffffffffffffffffc008601856142c857826142ca565b855b945060005b50846000806142de6001614a4a565b9150915060005b87811015614336578883029250878c828151811061430557614305615814565b602002602001015102838161431c5761431c615b2b565b0492506143298383614ab9565b90935091506001016142e5565b507ffffffffffffffffffffffffffffffffffffffffffffffffffffffffffffffff6018187026000806143698385614ab9565b908c029250905061437a8282614b40565b91508285016143898186614b40565b905088830183811161439a57600080fd5b8882018082816143ac576143ac615b2b565b049d50505050505050505060016143c38288614bdc565b116142cf57600086116143d557600080fd5b50505050505b9392505050565b60008063ffffffff84166144295784850290508560008151811061440857614408615814565b6020026020010151818161441e5761441e615b2b565b0460021c9050614557565b60008061443587614a4a565b9150915060005b885181101561449f57878302925088818151811061445c5761445c615814565b6020026020010151838161447257614472615b2b565b0492508851838161448557614485615b2b565b0492506144928383614ab9565b909350915060010161443c565b50908602906144ae8282614ab9565b90925090506144bd8282614b40565b8851600a9190911b925063ffffffff87160282816144dd576144dd615b2b565b04915060008663ffffffff16600a89901b816144fb576144fb615b2b565b046145058a6148ad565b019050856145165760028804614518565b855b935060005b508380800284016002820283018a900380828161453c5761453c615b2b565b0496505050600161454d8287614bdc565b1161451d57505050505b6000811161456457600080fd5b67200000000000000081106145fb576040517f08c379a000000000000000000000000000000000000000000000000000000000815260206004820152602260248201527f756e6b6e6f776e2062616c616e63652065786365656473204d41585f414d4f5560448201527f4e540000000000000000000000000000000000000000000000000000000000006064820152608401610d25565b67ffffffffffffffff1695945050505050565b60405173ffffffffffffffffffffffffffffffffffffffff8085166024830152831660448201526064810182905261466c9085907f23b872dd000000000000000000000000000000000000000000000000000000009060840161398f565b50505050565b73ffffffffffffffffffffffffffffffffffffffff81163b614716576040517f08c379a000000000000000000000000000000000000000000000000000000000815260206004820152602d60248201527f455243313936373a206e657720696d706c656d656e746174696f6e206973206e60448201527f6f74206120636f6e7472616374000000000000000000000000000000000000006064820152608401610d25565b7f360894a13ba1a3210667c828492db98dca3e2076cc3735a920a3ca505d382bbc80547fffffffffffffffffffffffff00000000000000000000000000000000000000001673ffffffffffffffffffffffffffffffffffffffff92909216919091179055565b61478583614bf3565b6000825111806147925750805b156133eb5761466c8383614c40565b6000614803826040518060400160405280602081526020017f5361666545524332303a206c6f772d6c6576656c2063616c6c206661696c65648152508573ffffffffffffffffffffffffffffffffffffffff16614c659092919063ffffffff16565b8051909150156133eb57808060200190518101906148219190615af6565b6133eb576040517f08c379a000000000000000000000000000000000000000000000000000000000815260206004820152602a60248201527f5361666545524332303a204552433230206f7065726174696f6e20646964206e60448201527f6f742073756363656564000000000000000000000000000000000000000000006064820152608401610d25565b6000805b8251811015610c2b578281815181106148cc576148cc615814565b6020026020010151820191508060010190506148b1565b6000816148f257506000919050565b816001608082901c1561490a5760809190911c9060401b5b604082901c1561491f5760409190911c9060201b5b602082901c156149345760209190911c9060101b5b601082901c156149495760109190911c9060081b5b600882901c1561495e5760089190911c9060041b5b600482901c156149735760049190911c9060021b5b600282901c156149815760011b5b600181858161499257614992615b2b565b048201901c905060018185816149aa576149aa615b2b565b048201901c905060018185816149c2576149c2615b2b565b048201901c905060018185816149da576149da615b2b565b048201901c905060018185816149f2576149f2615b2b565b048201901c90506001818581614a0a57614a0a615b2b565b048201901c90506001818581614a2257614a22615b2b565b048201901c9050614a4281828681614a3c57614a3c615b2b565b04614c74565b949350505050565b6000806002614a5c6004610100615b5a565b614a669190615b5a565b614a736004610100615b5a565b614a7d9190615b13565b83901b6002614a8f6004610100615b5a565b614a999190615b5a565b614aa66004610100615b5a565b614ab09190615b13565b91509150915091565b60008077ffffffffffffffffffffffffffffffffffffffffffffffff841115614b0b575050604082901c7fffffffffffffffffffffffffffffffffffffffffffffffffffffffffffffffc08201614b39565b700100000000000000000000000000000000841015614b33575050604082811b908201614b39565b50829050815b9250929050565b600080821215614bd757600082900361010081108015614b67575080610100036001901b84105b614bcd576040517f08c379a000000000000000000000000000000000000000000000000000000000815260206004820152601760248201527f6f766572666c6f77206f6e2066726f6d416c69676e65640000000000000000006044820152606401610d25565b83901b90506133a4565b501c90565b6000818311614bed578282036133a1565b50900390565b614bfc81614672565b60405173ffffffffffffffffffffffffffffffffffffffff8216907fbc7cd75a20ee27fd9adebab32041f755214dbc6bffa90cc0225b39da2e5c2d3b90600090a250565b60606133a18383604051806060016040528060278152602001615c1c60279139614c8a565b6060614a428484600085614db2565b6000818310614c8357816133a1565b5090919050565b606073ffffffffffffffffffffffffffffffffffffffff84163b614d30576040517f08c379a000000000000000000000000000000000000000000000000000000000815260206004820152602660248201527f416464726573733a2064656c65676174652063616c6c20746f206e6f6e2d636f60448201527f6e747261637400000000000000000000000000000000000000000000000000006064820152608401610d25565b6000808573ffffffffffffffffffffffffffffffffffffffff1685604051614d589190615bec565b600060405180830381855af49150503d8060008114614d93576040519150601f19603f3d011682016040523d82523d6000602084013e614d98565b606091505b5091509150614da8828286614f48565b9695505050505050565b606082471015614e44576040517f08c379a000000000000000000000000000000000000000000000000000000000815260206004820152602660248201527f416464726573733a20696e73756666696369656e742062616c616e636520666f60448201527f722063616c6c00000000000000000000000000000000000000000000000000006064820152608401610d25565b73ffffffffffffffffffffffffffffffffffffffff85163b614ec2576040517f08c379a000000000000000000000000000000000000000000000000000000000815260206004820152601d60248201527f416464726573733a2063616c6c20746f206e6f6e2d636f6e74726163740000006044820152606401610d25565b6000808673ffffffffffffffffffffffffffffffffffffffff168587604051614eeb9190615bec565b60006040518083038185875af1925050503d8060008114614f28576040519150601f19603f3d011682016040523d82523d6000602084013e614f2d565b606091505b5091509150614f3d828286614f48565b979650505050505050565b60608315614f575750816143db565b825115614f675782518084602001fd5b816040517f08c379a0000000000000000000000000000000000000000000000000000000008152600401610d259190615c08565b6040518060c0016040528060001515815260200160608152602001614fe96040518060400160405280600073ffffffffffffffffffffffffffffffffffffffff168152602001600081525090565b815260200161500e604051806040016040528060008152602001600060ff1681525090565b8152602001615033604051806040016040528060008152602001600060ff1681525090565b8152602001615058604051806040016040528060008152602001600060ff1681525090565b905290565b60006020828403121561506f57600080fd5b5035919050565b803560ff8116811461508757600080fd5b919050565b7f4e487b7100000000000000000000000000000000000000000000000000000000600052604160045260246000fd5b604051601f82017fffffffffffffffffffffffffffffffffffffffffffffffffffffffffffffffe016810167ffffffffffffffff811182821017156151025761510261508c565b604052919050565b600067ffffffffffffffff8211156151245761512461508c565b5060051b60200190565b600082601f83011261513f57600080fd5b8135602061515461514f8361510a565b6150bb565b82815260059290921b8401810191818101908684111561517357600080fd5b8286015b8481101561518e5780358352918301918301615177565b509695505050505050565b6000806000606084860312156151ae57600080fd5b833592506151be60208501615076565b9150604084013567ffffffffffffffff8111156151da57600080fd5b6151e68682870161512e565b9150509250925092565b8015158114610e6b57600080fd5b60006020828403121561521057600080fd5b81356133a1816151f0565b600060208083526101608301845115158285015281850151604061014081870152828251808552610180880191508584019450600093505b8084101561529a57615286828651805173ffffffffffffffffffffffffffffffffffffffff168252602090810151910152565b938501936001939093019290820190615253565b5087820151805173ffffffffffffffffffffffffffffffffffffffff1660608901526020810151608089015294506060880151805160a0890152602081015160ff1660c089015294506080880151805160e0890152602081015160ff16610100890152945060a08801518051610120890152602081015160ff166101408901529450979650505050505050565b803563ffffffff8116811461508757600080fd5b6000806040838503121561534e57600080fd5b61535783615327565b915061536560208401615327565b90509250929050565b803573ffffffffffffffffffffffffffffffffffffffff8116811461508757600080fd5b6000602082840312156153a457600080fd5b6133a18261536e565b600067ffffffffffffffff8311156153c7576153c761508c565b6153f860207fffffffffffffffffffffffffffffffffffffffffffffffffffffffffffffffe0601f860116016150bb565b905082815283838301111561540c57600080fd5b828260208301376000602084830101529392505050565b600082601f83011261543457600080fd5b6133a1838335602085016153ad565b8035600081900b811461508757600080fd5b600082601f83011261546657600080fd5b8135602061547661514f8361510a565b82815260059290921b8401810191818101908684111561549557600080fd5b8286015b8481101561518e576154aa8161536e565b8352918301918301615499565b600082601f8301126154c857600080fd5b813560206154d861514f8361510a565b82815260059290921b840181019181810190868411156154f757600080fd5b8286015b8481101561518e5761550c81615443565b83529183019183016154fb565b6000806000806000806000806000806101408b8d03121561553957600080fd5b8a3567ffffffffffffffff8082111561555157600080fd5b61555d8e838f01615423565b9b5060208d013591508082111561557357600080fd5b61557f8e838f01615423565b9a5061558d60408e0161536e565b995061559b60608e01615443565b985060808d01359150808211156155b157600080fd5b6155bd8e838f01615455565b975060a08d01359150808211156155d357600080fd5b506155e08d828e016154b7565b9550506155ef60c08c01615327565b93506155fd60e08c01615327565b925061560c6101008c01615327565b915061561b6101208c0161536e565b90509295989b9194979a5092959850565b6000806040838503121561563f57600080fd5b6156488361536e565b9150602083013567ffffffffffffffff81111561566457600080fd5b8301601f8101851361567557600080fd5b615684858235602084016153ad565b9150509250929050565b600080604083850312156156a157600080fd5b82359150602083013567ffffffffffffffff8111156156bf57600080fd5b6156848582860161512e565b6020808252825182820181905260009190848201906040850190845b81811015615703578351835292840192918401916001016156e7565b50909695505050505050565b60008060006060848603121561572457600080fd5b833567ffffffffffffffff81111561573b57600080fd5b6157478682870161512e565b93505061575660208501615076565b9150604084013590509250925092565b6000806000806080858703121561577c57600080fd5b8435935061578c60208601615076565b925061579a60408601615076565b9396929550929360600135925050565b6000806000606084860312156157bf57600080fd5b8335925061575660208501615076565b600080604083850312156157e257600080fd5b823567ffffffffffffffff8111156157f957600080fd5b6158058582860161512e565b95602094909401359450505050565b7f4e487b7100000000000000000000000000000000000000000000000000000000600052603260045260246000fd5b60006020828403121561585557600080fd5b5051919050565b7f4e487b7100000000000000000000000000000000000000000000000000000000600052601160045260246000fd5b600181815b808511156158e457817fffffffffffffffffffffffffffffffffffffffffffffffffffffffffffffffff048211156158ca576158ca61585c565b808516156158d757918102915b93841c9390800290615890565b509250929050565b6000826158fb575060016133a4565b81615908575060006133a4565b816001811461591e576002811461592857615944565b60019150506133a4565b60ff8411156159395761593961585c565b50506001821b6133a4565b5060208310610133831016604e8410600b8410161715615967575081810a6133a4565b615971838361588b565b807fffffffffffffffffffffffffffffffffffffffffffffffffffffffffffffffff048211156159a3576159a361585c565b029392505050565b60006133a183836158ec565b6000817fffffffffffffffffffffffffffffffffffffffffffffffffffffffffffffffff04831182151516156159ef576159ef61585c565b500290565b600063ffffffff83811690831681811015615a1157615a1161585c565b039392505050565b60007fffffffffffffffffffffffffffffffffffffffffffffffffffffffffffffffff821415615a4b57615a4b61585c565b5060010190565b60005b83811015615a6d578181015183820152602001615a55565b8381111561466c5750506000910152565b60008151808452615a96816020860160208601615a52565b601f017fffffffffffffffffffffffffffffffffffffffffffffffffffffffffffffffe0169290920160200192915050565b604081526000615adb6040830185615a7e565b8281036020840152615aed8185615a7e565b95945050505050565b600060208284031215615b0857600080fd5b81516133a1816151f0565b60008219821115615b2657615b2661585c565b500190565b7f4e487b7100000000000000000000000000000000000000000000000000000000600052601260045260246000fd5b600082615b90577f4e487b7100000000000000000000000000000000000000000000000000000000600052601260045260246000fd5b500490565b73ffffffffffffffffffffffffffffffffffffffff83168152604060208201526000614a426040830184615a7e565b600063ffffffff808316818516808303821115615be357615be361585c565b01949350505050565b60008251615bfe818460208701615a52565b9190910192915050565b6020815260006133a16020830184615a7e56fe416464726573733a206c6f772d6c6576656c2064656c65676174652063616c6c206661696c6564a264697066735822122078ccea58095e826c81641d59823d607bb7a90ba96d5b098b59b063c02ac2a4c864736f6c63430008090033",
  "devdoc": {
    "kind": "dev",
    "methods": {
      "proxiableUUID()": {
        "details": "Implementation of the ERC1822 {proxiableUUID} function. This returns the storage slot used by the implementation. It is used to validate that the this implementation remains valid after an upgrade. IMPORTANT: A proxy pointing at a proxiable contract should not be considered proxiable itself, because this risks bricking a proxy that upgrades to it, by delegating to itself until out of gas. Thus it is critical that this function revert if invoked through a proxy. This is guaranteed by the `notDelegated` modifier."
      },
      "upgradeTo(address)": {
        "details": "Upgrade the implementation of the proxy to `newImplementation`. Calls {_authorizeUpgrade}. Emits an {Upgraded} event."
      },
      "upgradeToAndCall(address,bytes)": {
        "details": "Upgrade the implementation of the proxy to `newImplementation`, and subsequently execute the function call encoded in `data`. Calls {_authorizeUpgrade}. Emits an {Upgraded} event."
      }
    },
    "version": 1
  },
  "userdoc": {
    "kind": "user",
    "methods": {},
    "version": 1
  },
  "storageLayout": {
    "storage": [
      {
        "astId": 527,
        "contract": "contracts/Pool.sol:Pool",
        "label": "_initialized",
        "offset": 0,
        "slot": "0",
        "type": "t_uint8"
      },
      {
        "astId": 530,
        "contract": "contracts/Pool.sol:Pool",
        "label": "_initializing",
        "offset": 1,
        "slot": "0",
        "type": "t_bool"
      },
      {
        "astId": 5370,
        "contract": "contracts/Pool.sol:Pool",
        "label": "tokenCount",
        "offset": 2,
        "slot": "0",
        "type": "t_uint8"
      },
      {
        "astId": 5372,
        "contract": "contracts/Pool.sol:Pool",
        "label": "paused",
        "offset": 3,
        "slot": "0",
        "type": "t_bool"
      },
      {
        "astId": 5374,
        "contract": "contracts/Pool.sol:Pool",
        "label": "totalFee",
        "offset": 4,
        "slot": "0",
        "type": "t_uint32"
      },
      {
        "astId": 5376,
        "contract": "contracts/Pool.sol:Pool",
        "label": "governanceFee",
        "offset": 8,
        "slot": "0",
        "type": "t_uint32"
      },
      {
        "astId": 5378,
        "contract": "contracts/Pool.sol:Pool",
        "label": "ampInitialValue",
        "offset": 12,
        "slot": "0",
        "type": "t_uint32"
      },
      {
        "astId": 5380,
        "contract": "contracts/Pool.sol:Pool",
        "label": "ampInitialTimestamp",
        "offset": 16,
        "slot": "0",
        "type": "t_uint32"
      },
      {
        "astId": 5382,
        "contract": "contracts/Pool.sol:Pool",
        "label": "ampTargetValue",
        "offset": 20,
        "slot": "0",
        "type": "t_uint32"
      },
      {
        "astId": 5384,
        "contract": "contracts/Pool.sol:Pool",
        "label": "ampTargetTimestamp",
        "offset": 24,
        "slot": "0",
        "type": "t_uint32"
      },
      {
        "astId": 5387,
        "contract": "contracts/Pool.sol:Pool",
        "label": "lpTokenData",
        "offset": 0,
        "slot": "1",
        "type": "t_struct(TokenWithEqualizer)5347_storage"
      },
      {
        "astId": 5392,
        "contract": "contracts/Pool.sol:Pool",
        "label": "poolTokensData",
        "offset": 0,
        "slot": "2",
        "type": "t_array(t_struct(TokenWithEqualizer)5347_storage)6_storage"
      },
      {
        "astId": 5394,
        "contract": "contracts/Pool.sol:Pool",
        "label": "governance",
        "offset": 0,
        "slot": "8",
        "type": "t_address"
      },
      {
        "astId": 5396,
        "contract": "contracts/Pool.sol:Pool",
        "label": "governanceFeeRecipient",
        "offset": 0,
        "slot": "9",
        "type": "t_address"
      }
    ],
    "types": {
      "t_address": {
        "encoding": "inplace",
        "label": "address",
        "numberOfBytes": "20"
      },
      "t_array(t_struct(TokenWithEqualizer)5347_storage)6_storage": {
        "base": "t_struct(TokenWithEqualizer)5347_storage",
        "encoding": "inplace",
        "label": "struct Pool.TokenWithEqualizer[6]",
        "numberOfBytes": "192"
      },
      "t_bool": {
        "encoding": "inplace",
        "label": "bool",
        "numberOfBytes": "1"
      },
      "t_int8": {
        "encoding": "inplace",
        "label": "int8",
        "numberOfBytes": "1"
      },
      "t_struct(TokenWithEqualizer)5347_storage": {
        "encoding": "inplace",
        "label": "struct Pool.TokenWithEqualizer",
        "members": [
          {
            "astId": 5344,
            "contract": "contracts/Pool.sol:Pool",
            "label": "addr",
            "offset": 0,
            "slot": "0",
            "type": "t_address"
          },
          {
            "astId": 5346,
            "contract": "contracts/Pool.sol:Pool",
            "label": "equalizer",
            "offset": 20,
            "slot": "0",
            "type": "t_int8"
          }
        ],
        "numberOfBytes": "32"
      },
      "t_uint32": {
        "encoding": "inplace",
        "label": "uint32",
        "numberOfBytes": "4"
      },
      "t_uint8": {
        "encoding": "inplace",
        "label": "uint8",
        "numberOfBytes": "1"
      }
    }
  }
}