{
  "address": "0xe7f1725E7734CE288F8367e1Bb143E90bb3F0512",
  "abi": [
    {
      "inputs": [],
      "name": "CenterAlignment_NumericOverflow",
      "type": "error"
    },
    {
      "inputs": [
        {
          "internalType": "uint256",
          "name": "value",
          "type": "uint256"
        },
        {
          "internalType": "int8",
          "name": "equalizer",
          "type": "int8"
        }
      ],
      "name": "Equalize_LosingAllPrecision",
      "type": "error"
    },
    {
      "inputs": [
        {
          "internalType": "uint256",
          "name": "amount",
          "type": "uint256"
        },
        {
          "internalType": "int8",
          "name": "equalizer",
          "type": "int8"
        }
      ],
      "name": "Equalize_MaxAmountExceeded",
      "type": "error"
    },
    {
      "inputs": [
        {
          "internalType": "uint256",
          "name": "unknownBalance",
          "type": "uint256"
        }
      ],
      "name": "Invariant_UnknownBalanceTooLarge",
      "type": "error"
    },
    {
      "inputs": [],
      "name": "PoolMath_ImpossibleRemove",
      "type": "error"
    },
    {
      "inputs": [
        {
          "internalType": "uint8",
          "name": "count",
          "type": "uint8"
        },
        {
          "internalType": "uint8",
          "name": "expected",
          "type": "uint8"
        }
      ],
      "name": "Pool_AmountCountMismatch",
      "type": "error"
    },
    {
      "inputs": [
        {
          "internalType": "address",
          "name": "token",
          "type": "address"
        },
        {
          "internalType": "uint256",
          "name": "amount",
          "type": "uint256"
        },
        {
          "internalType": "uint256",
          "name": "poolbalance",
          "type": "uint256"
        }
      ],
      "name": "Pool_AmountExceedsSupply",
      "type": "error"
    },
    {
      "inputs": [],
      "name": "Pool_AmpFactorIsFixedForConstantProductPools",
      "type": "error"
    },
    {
      "inputs": [
        {
          "internalType": "uint32",
          "name": "current",
          "type": "uint32"
        },
        {
          "internalType": "uint32",
          "name": "target",
          "type": "uint32"
        },
        {
          "internalType": "uint32",
          "name": "threshold",
          "type": "uint32"
        }
      ],
      "name": "Pool_AmpFactorRelativeAdjustmentTooLarge",
      "type": "error"
    },
    {
      "inputs": [
        {
          "internalType": "uint32",
          "name": "target",
          "type": "uint32"
        },
        {
          "internalType": "uint32",
          "name": "minimum",
          "type": "uint32"
        }
      ],
      "name": "Pool_AmpFactorTargetTimestampTooSmall",
      "type": "error"
    },
    {
      "inputs": [
        {
          "internalType": "uint32",
          "name": "ampFactor",
          "type": "uint32"
        },
        {
          "internalType": "uint32",
          "name": "maximum",
          "type": "uint32"
        }
      ],
      "name": "Pool_AmpFactorTooLarge",
      "type": "error"
    },
    {
      "inputs": [
        {
          "internalType": "uint32",
          "name": "ampFactor",
          "type": "uint32"
        },
        {
          "internalType": "uint32",
          "name": "minimum",
          "type": "uint32"
        }
      ],
      "name": "Pool_AmpFactorTooSmall",
      "type": "error"
    },
    {
      "inputs": [
        {
          "internalType": "uint8",
          "name": "tokenCount",
          "type": "uint8"
        }
      ],
      "name": "Pool_ConstantProductNotSupportedForTokenCount",
      "type": "error"
    },
    {
      "inputs": [],
      "name": "Pool_GovernanceOnly",
      "type": "error"
    },
    {
      "inputs": [
        {
          "internalType": "uint8",
          "name": "missingAmountIndex",
          "type": "uint8"
        }
      ],
      "name": "Pool_InitialAddMustIncludeAllTokens",
      "type": "error"
    },
    {
      "inputs": [
        {
          "internalType": "uint8",
          "name": "tokenIndex",
          "type": "uint8"
        },
        {
          "internalType": "uint8",
          "name": "tokenCount",
          "type": "uint8"
        }
      ],
      "name": "Pool_InvalidTokenIndex",
      "type": "error"
    },
    {
      "inputs": [],
      "name": "Pool_IsPaused",
      "type": "error"
    },
    {
      "inputs": [],
      "name": "Pool_LpTokenInitializationFailed",
      "type": "error"
    },
    {
      "inputs": [
        {
          "internalType": "uint8",
          "name": "value",
          "type": "uint8"
        },
        {
          "internalType": "uint8",
          "name": "maximum",
          "type": "uint8"
        }
      ],
      "name": "Pool_MaxTokenCountExceeded",
      "type": "error"
    },
    {
      "inputs": [],
      "name": "Pool_NonZeroGovernanceFeeButNoRecipient",
      "type": "error"
    },
    {
      "inputs": [
        {
          "internalType": "uint8",
          "name": "tokenIndex",
          "type": "uint8"
        },
        {
          "internalType": "uint256",
          "name": "amount",
          "type": "uint256"
        }
      ],
      "name": "Pool_RequestedTokenAmountNotZero",
      "type": "error"
    },
    {
      "inputs": [
        {
          "internalType": "address",
          "name": "token",
          "type": "address"
        },
        {
          "internalType": "uint256",
          "name": "amount",
          "type": "uint256"
        },
        {
          "internalType": "uint256",
          "name": "threshold",
          "type": "uint256"
        }
      ],
      "name": "Pool_SlippageExceeded",
      "type": "error"
    },
    {
      "inputs": [
        {
          "internalType": "uint8",
          "name": "count",
          "type": "uint8"
        },
        {
          "internalType": "uint8",
          "name": "expected",
          "type": "uint8"
        }
      ],
      "name": "Pool_TokenEqualizerCountMismatch",
      "type": "error"
    },
    {
      "inputs": [
        {
          "internalType": "int8",
          "name": "equalizer",
          "type": "int8"
        },
        {
          "internalType": "int8",
          "name": "maximum",
          "type": "int8"
        }
      ],
      "name": "Pool_TokenEqualizerTooLarge",
      "type": "error"
    },
    {
      "inputs": [
        {
          "internalType": "int8",
          "name": "equalizer",
          "type": "int8"
        },
        {
          "internalType": "int8",
          "name": "minimum",
          "type": "int8"
        }
      ],
      "name": "Pool_TokenEqualizerTooSmall",
      "type": "error"
    },
    {
      "inputs": [
        {
          "internalType": "uint32",
          "name": "totalFee",
          "type": "uint32"
        },
        {
          "internalType": "uint32",
          "name": "maximum",
          "type": "uint32"
        }
      ],
      "name": "Pool_TotalFeeTooLarge",
      "type": "error"
    },
    {
      "anonymous": false,
      "inputs": [
        {
          "indexed": false,
          "internalType": "address",
          "name": "previousAdmin",
          "type": "address"
        },
        {
          "indexed": false,
          "internalType": "address",
          "name": "newAdmin",
          "type": "address"
        }
      ],
      "name": "AdminChanged",
      "type": "event"
    },
    {
      "anonymous": false,
      "inputs": [
        {
          "indexed": true,
          "internalType": "address",
          "name": "beacon",
          "type": "address"
        }
      ],
      "name": "BeaconUpgraded",
      "type": "event"
    },
    {
      "anonymous": false,
      "inputs": [
        {
          "indexed": false,
          "internalType": "uint8",
          "name": "version",
          "type": "uint8"
        }
      ],
      "name": "Initialized",
      "type": "event"
    },
    {
      "anonymous": false,
      "inputs": [
        {
          "indexed": true,
          "internalType": "address",
          "name": "implementation",
          "type": "address"
        }
      ],
      "name": "Upgraded",
      "type": "event"
    },
    {
      "inputs": [
        {
          "internalType": "uint256[]",
          "name": "inputAmounts",
          "type": "uint256[]"
        },
        {
          "internalType": "uint256",
          "name": "minimumMintAmount",
          "type": "uint256"
        }
      ],
      "name": "add",
      "outputs": [
        {
          "internalType": "uint256",
          "name": "mintAmount",
          "type": "uint256"
        }
      ],
      "stateMutability": "nonpayable",
      "type": "function"
    },
    {
      "inputs": [
        {
          "internalType": "uint32",
          "name": "targetValue",
          "type": "uint32"
        },
        {
          "internalType": "uint32",
          "name": "targetTimestamp",
          "type": "uint32"
        }
      ],
      "name": "adjustAmpFactor",
      "outputs": [],
      "stateMutability": "nonpayable",
      "type": "function"
    },
    {
      "inputs": [],
      "name": "ampInitialTimestamp",
      "outputs": [
        {
          "internalType": "uint32",
          "name": "",
          "type": "uint32"
        }
      ],
      "stateMutability": "view",
      "type": "function"
    },
    {
      "inputs": [],
      "name": "ampTargetTimestamp",
      "outputs": [
        {
          "internalType": "uint32",
          "name": "",
          "type": "uint32"
        }
      ],
      "stateMutability": "view",
      "type": "function"
    },
    {
      "inputs": [
        {
          "internalType": "address",
          "name": "_governanceFeeRecipient",
          "type": "address"
        }
      ],
      "name": "changeGovernanceFeeRecipient",
      "outputs": [],
      "stateMutability": "nonpayable",
      "type": "function"
    },
    {
      "inputs": [],
      "name": "getMarginalPrices",
      "outputs": [
        {
          "internalType": "uint256[]",
          "name": "",
          "type": "uint256[]"
        }
      ],
      "stateMutability": "view",
      "type": "function"
    },
    {
      "inputs": [],
      "name": "getState",
      "outputs": [
        {
          "components": [
            {
              "internalType": "bool",
              "name": "paused",
              "type": "bool"
            },
            {
              "components": [
                {
                  "internalType": "address",
                  "name": "tokenAddres",
                  "type": "address"
                },
                {
                  "internalType": "uint256",
                  "name": "balance",
                  "type": "uint256"
                }
              ],
              "internalType": "struct TokenBalance[]",
              "name": "balances",
              "type": "tuple[]"
            },
            {
              "components": [
                {
                  "internalType": "address",
                  "name": "tokenAddres",
                  "type": "address"
                },
                {
                  "internalType": "uint256",
                  "name": "balance",
                  "type": "uint256"
                }
              ],
              "internalType": "struct TokenBalance",
              "name": "totalLPSupply",
              "type": "tuple"
            },
            {
              "components": [
                {
                  "internalType": "uint256",
                  "name": "value",
                  "type": "uint256"
                },
                {
                  "internalType": "uint8",
                  "name": "decimals",
                  "type": "uint8"
                }
              ],
              "internalType": "struct Decimal",
              "name": "ampFactor",
              "type": "tuple"
            },
            {
              "components": [
                {
                  "internalType": "uint256",
                  "name": "value",
                  "type": "uint256"
                },
                {
                  "internalType": "uint8",
                  "name": "decimals",
                  "type": "uint8"
                }
              ],
              "internalType": "struct Decimal",
              "name": "lpFee",
              "type": "tuple"
            },
            {
              "components": [
                {
                  "internalType": "uint256",
                  "name": "value",
                  "type": "uint256"
                },
                {
                  "internalType": "uint8",
                  "name": "decimals",
                  "type": "uint8"
                }
              ],
              "internalType": "struct Decimal",
              "name": "governanceFee",
              "type": "tuple"
            }
          ],
          "internalType": "struct PoolState",
          "name": "",
          "type": "tuple"
        }
      ],
      "stateMutability": "view",
      "type": "function"
    },
    {
      "inputs": [],
      "name": "governance",
      "outputs": [
        {
          "internalType": "address",
          "name": "",
          "type": "address"
        }
      ],
      "stateMutability": "view",
      "type": "function"
    },
    {
      "inputs": [],
      "name": "governanceFee",
      "outputs": [
        {
          "internalType": "uint32",
          "name": "",
          "type": "uint32"
        }
      ],
      "stateMutability": "view",
      "type": "function"
    },
    {
      "inputs": [],
      "name": "governanceFeeRecipient",
      "outputs": [
        {
          "internalType": "address",
          "name": "",
          "type": "address"
        }
      ],
      "stateMutability": "view",
      "type": "function"
    },
    {
      "inputs": [
        {
          "internalType": "string",
          "name": "lpTokenName",
          "type": "string"
        },
        {
          "internalType": "string",
          "name": "lpTokenSymbol",
          "type": "string"
        },
        {
          "internalType": "address",
          "name": "lpTokenAddress",
          "type": "address"
        },
        {
          "internalType": "int8",
          "name": "lpTokenEqualizer",
          "type": "int8"
        },
        {
          "internalType": "address[]",
          "name": "poolTokenAddresses",
          "type": "address[]"
        },
        {
          "internalType": "int8[]",
          "name": "poolTokenEqualizers",
          "type": "int8[]"
        },
        {
          "internalType": "uint32",
          "name": "ampFactor",
          "type": "uint32"
        },
        {
          "internalType": "uint32",
          "name": "lpFee",
          "type": "uint32"
        },
        {
          "internalType": "uint32",
          "name": "_governanceFee",
          "type": "uint32"
        },
        {
          "internalType": "address",
          "name": "_governanceFeeRecipient",
          "type": "address"
        }
      ],
      "name": "initialize",
      "outputs": [],
      "stateMutability": "nonpayable",
      "type": "function"
    },
    {
      "inputs": [],
      "name": "lpTokenData",
      "outputs": [
        {
          "internalType": "address",
          "name": "addr",
          "type": "address"
        },
        {
          "internalType": "int8",
          "name": "equalizer",
          "type": "int8"
        }
      ],
      "stateMutability": "view",
      "type": "function"
    },
    {
      "inputs": [],
      "name": "paused",
      "outputs": [
        {
          "internalType": "bool",
          "name": "",
          "type": "bool"
        }
      ],
      "stateMutability": "view",
      "type": "function"
    },
    {
      "inputs": [
        {
          "internalType": "uint256",
          "name": "",
          "type": "uint256"
        }
      ],
      "name": "poolTokensData",
      "outputs": [
        {
          "internalType": "address",
          "name": "addr",
          "type": "address"
        },
        {
          "internalType": "int8",
          "name": "equalizer",
          "type": "int8"
        }
      ],
      "stateMutability": "view",
      "type": "function"
    },
    {
      "inputs": [],
      "name": "proxiableUUID",
      "outputs": [
        {
          "internalType": "bytes32",
          "name": "",
          "type": "bytes32"
        }
      ],
      "stateMutability": "view",
      "type": "function"
    },
    {
      "inputs": [
        {
          "internalType": "uint256",
          "name": "burnAmount",
          "type": "uint256"
        },
        {
          "internalType": "uint8",
          "name": "outputTokenIndex",
          "type": "uint8"
        },
        {
          "internalType": "uint256",
          "name": "minimumOutputAmount",
          "type": "uint256"
        }
      ],
      "name": "removeExactBurn",
      "outputs": [
        {
          "internalType": "uint256",
          "name": "outputAmount",
          "type": "uint256"
        }
      ],
      "stateMutability": "nonpayable",
      "type": "function"
    },
    {
      "inputs": [
        {
          "internalType": "uint256[]",
          "name": "outputAmounts",
          "type": "uint256[]"
        },
        {
          "internalType": "uint256",
          "name": "maximumBurnAmount",
          "type": "uint256"
        }
      ],
      "name": "removeExactOutput",
      "outputs": [
        {
          "internalType": "uint256",
          "name": "burnAmount",
          "type": "uint256"
        }
      ],
      "stateMutability": "nonpayable",
      "type": "function"
    },
    {
      "inputs": [
        {
          "internalType": "uint256",
          "name": "burnAmount",
          "type": "uint256"
        },
        {
          "internalType": "uint256[]",
          "name": "minimumOutputAmounts",
          "type": "uint256[]"
        }
      ],
      "name": "removeUniform",
      "outputs": [
        {
          "internalType": "uint256[]",
          "name": "outputAmounts",
          "type": "uint256[]"
        }
      ],
      "stateMutability": "nonpayable",
      "type": "function"
    },
    {
      "inputs": [
        {
          "internalType": "uint32",
          "name": "lpFee",
          "type": "uint32"
        },
        {
          "internalType": "uint32",
          "name": "_governanceFee",
          "type": "uint32"
        }
      ],
      "name": "setFees",
      "outputs": [],
      "stateMutability": "nonpayable",
      "type": "function"
    },
    {
      "inputs": [
        {
          "internalType": "bool",
          "name": "_paused",
          "type": "bool"
        }
      ],
      "name": "setPaused",
      "outputs": [],
      "stateMutability": "nonpayable",
      "type": "function"
    },
    {
      "inputs": [
        {
          "internalType": "uint256",
          "name": "inputAmount",
          "type": "uint256"
        },
        {
          "internalType": "uint8",
          "name": "inputTokenIndex",
          "type": "uint8"
        },
        {
          "internalType": "uint8",
          "name": "outputTokenIndex",
          "type": "uint8"
        },
        {
          "internalType": "uint256",
          "name": "minimumOutputAmount",
          "type": "uint256"
        }
      ],
      "name": "swap",
      "outputs": [
        {
          "internalType": "uint256",
          "name": "outputAmount",
          "type": "uint256"
        }
      ],
      "stateMutability": "nonpayable",
      "type": "function"
    },
    {
      "inputs": [
        {
          "internalType": "uint256[]",
          "name": "inputAmounts",
          "type": "uint256[]"
        },
        {
          "internalType": "uint8",
          "name": "outputTokenIndex",
          "type": "uint8"
        },
        {
          "internalType": "uint256",
          "name": "minimumOutputAmount",
          "type": "uint256"
        }
      ],
      "name": "swapExactInput",
      "outputs": [
        {
          "internalType": "uint256",
          "name": "outputAmount",
          "type": "uint256"
        }
      ],
      "stateMutability": "nonpayable",
      "type": "function"
    },
    {
      "inputs": [
        {
          "internalType": "uint256",
          "name": "maximumInputAmount",
          "type": "uint256"
        },
        {
          "internalType": "uint8",
          "name": "inputTokenIndex",
          "type": "uint8"
        },
        {
          "internalType": "uint256[]",
          "name": "outputAmounts",
          "type": "uint256[]"
        }
      ],
      "name": "swapExactOutput",
      "outputs": [
        {
          "internalType": "uint256",
          "name": "inputAmount",
          "type": "uint256"
        }
      ],
      "stateMutability": "nonpayable",
      "type": "function"
    },
    {
      "inputs": [],
      "name": "tokenCount",
      "outputs": [
        {
          "internalType": "uint8",
          "name": "",
          "type": "uint8"
        }
      ],
      "stateMutability": "view",
      "type": "function"
    },
    {
      "inputs": [],
      "name": "totalFee",
      "outputs": [
        {
          "internalType": "uint32",
          "name": "",
          "type": "uint32"
        }
      ],
      "stateMutability": "view",
      "type": "function"
    },
    {
      "inputs": [
        {
          "internalType": "address",
          "name": "_governance",
          "type": "address"
        }
      ],
      "name": "transferGovernance",
      "outputs": [],
      "stateMutability": "nonpayable",
      "type": "function"
    },
    {
      "inputs": [
        {
          "internalType": "address",
          "name": "newImplementation",
          "type": "address"
        },
        {
          "internalType": "bytes",
          "name": "data",
          "type": "bytes"
        }
      ],
      "name": "upgradeLpToken",
      "outputs": [],
      "stateMutability": "nonpayable",
      "type": "function"
    },
    {
      "inputs": [
        {
          "internalType": "address",
          "name": "newImplementation",
          "type": "address"
        }
      ],
      "name": "upgradeLpToken",
      "outputs": [],
      "stateMutability": "nonpayable",
      "type": "function"
    },
    {
      "inputs": [
        {
          "internalType": "address",
          "name": "newImplementation",
          "type": "address"
        }
      ],
      "name": "upgradeTo",
      "outputs": [],
      "stateMutability": "nonpayable",
      "type": "function"
    },
    {
      "inputs": [
        {
          "internalType": "address",
          "name": "newImplementation",
          "type": "address"
        },
        {
          "internalType": "bytes",
          "name": "data",
          "type": "bytes"
        }
      ],
      "name": "upgradeToAndCall",
      "outputs": [],
      "stateMutability": "payable",
      "type": "function"
    }
  ],
  "transactionHash": "0xb2a523b20f0bf840d82dd0f3b2d61b5f7f07d404839a2e2b8441ec07a29eaad7",
  "args": [],
  "numDeployments": 1,
  "solcInputHash": "62b001b8c55a294546ddda26ced5f212",
  "bytecode": "0x60a06040523060805234801561001457600080fd5b5060805161547561004c60003960008181610c8d01528181610d1201528181611620015281816116a5015261178b01526154756000f3fe6080604052600436106101cd5760003560e01c80637cb726a6116100f7578063d38bfff411610095578063e7744e7511610064578063e7744e75146105a2578063ee763c58146105c2578063eec21d49146105e2578063fa4d39181461060257600080fd5b8063d38bfff41461052d578063d4b93ad21461054d578063dbbc281a14610562578063dc163d4e1461058257600080fd5b806384435de3116100d157806384435de314610497578063851c428d146104b75780639f181b5e146104db578063d1bba74d1461050d57600080fd5b80637cb726a6146104265780637e726dde146104535780637ea598531461047357600080fd5b80632d94f8671161016f5780634f1ef2861161013e5780634f1ef2861461039557806352d1902d146103a85780635aa6e675146103bd5780635c975abb146103f557600080fd5b80632d94f867146103095780633659cfe61461033557806336d340ad146103555780634d98123c1461037557600080fd5b806316c38b3c116101ab57806316c38b3c146102805780631865c57d146102a25780631df4ccfc146102c4578063259fc998146102e957600080fd5b806309773522146101d25780630ea90a121461021957806312f6113714610252575b600080fd5b3480156101de57600080fd5b506101f26101ed36600461499a565b610622565b604080516001600160a01b03909316835260009190910b6020830152015b60405180910390f35b34801561022557600080fd5b5060005461023d90600160401b900463ffffffff1681565b60405163ffffffff9091168152602001610210565b34801561025e57600080fd5b5061027261026d366004614a9f565b61064d565b604051908152602001610210565b34801561028c57600080fd5b506102a061029b366004614b04565b61092c565b005b3480156102ae57600080fd5b506102b7610975565b6040516102109190614b21565b3480156102d057600080fd5b5060005461023d90640100000000900463ffffffff1681565b3480156102f557600080fd5b506102a0610304366004614c27565b610c49565b34801561031557600080fd5b506001546101f2906001600160a01b03811690600160a01b900460000b82565b34801561034157600080fd5b506102a0610350366004614c71565b610c82565b34801561036157600080fd5b506102a0610370366004614dda565b610dfe565b34801561038157600080fd5b506102a0610390366004614c27565b6113a2565b6102a06103a3366004614eed565b611615565b3480156103b457600080fd5b5061027261177e565b3480156103c957600080fd5b506008546103dd906001600160a01b031681565b6040516001600160a01b039091168152602001610210565b34801561040157600080fd5b50600054610416906301000000900460ff1681565b6040519015158152602001610210565b34801561043257600080fd5b50610446610441366004614f4f565b611843565b6040516102109190614f8c565b34801561045f57600080fd5b506102a061046e366004614eed565b611afb565b34801561047f57600080fd5b5060005461023d90600160c01b900463ffffffff1681565b3480156104a357600080fd5b506102726104b2366004614fd0565b611ba7565b3480156104c357600080fd5b5060005461023d90600160801b900463ffffffff1681565b3480156104e757600080fd5b506000546104fb9062010000900460ff1681565b60405160ff9091168152602001610210565b34801561051957600080fd5b506102a0610528366004614c71565b611d0d565b34801561053957600080fd5b506102a0610548366004614c71565b611db3565b34801561055957600080fd5b50610446611e00565b34801561056e57600080fd5b506102a061057d366004614c71565b611ebe565b34801561058e57600080fd5b5061027261059d366004615027565b611f4e565b3480156105ae57600080fd5b506102726105bd36600461506b565b61200f565b3480156105ce57600080fd5b506102726105dd366004615090565b61213d565b3480156105ee57600080fd5b506102726105fd366004615090565b61230d565b34801561060e57600080fd5b506009546103dd906001600160a01b031681565b6002816006811061063257600080fd5b01546001600160a01b0381169150600160a01b900460000b82565b600080546301000000900460ff161561067957604051630b96dad560e21b815260040160405180910390fd5b6000806000806106876124ef565b93509350935093506106998785612639565b858760ff16815181106106ae576106ae6150d5565b60200260200101516000146107205786868860ff16815181106106d3576106d36150d5565b60209081029190910101516040517fc2d79ffb00000000000000000000000000000000000000000000000000000000815260ff909216600483015260248201526044015b60405180910390fd5b600061072c8786612682565b905060005b8581101561084b578260200151818151811061074f5761074f6150d5565b6020026020010151828281518110610769576107696150d5565b6020026020010151106108435760028160068110610789576107896150d5565b015488516001600160a01b03909116908990839081106107ab576107ab6150d5565b60200260200101516107f8856020015184815181106107cc576107cc6150d5565b6020026020010151600285600681106107e7576107e76150d5565b0154600160a01b900460000b61278c565b6040517f199590760000000000000000000000000000000000000000000000000000000081526001600160a01b03909316600484015260248301919091526044820152606401610717565b600101610731565b5060008061085c6000848c87612812565b9150915061087a8260028c60ff16600681106107e7576107e76150d5565b97508a8811156108cf5760028a60ff166006811061089a5761089a6150d5565b0154604051639e8eb45960e01b81526001600160a01b03909116600482015260248101899052604481018c9052606401610717565b6108dc888b60ff16612c8b565b60005b878110156109125761090a8a82815181106108fc576108fc6150d5565b602002602001015182612cc4565b6001016108df565b5061091e818787612cf7565b505050505050509392505050565b6008546001600160a01b0316331461095757604051635bbf1d0360e01b815260040160405180910390fd5b6000805491151563010000000263ff00000019909216919091179055565b61097d6148e5565b600080546040805160c0810190915260ff63010000008304811615158252620100009092049091169190602081018367ffffffffffffffff8111156109c4576109c46149c9565b604051908082528060200260200182016040528015610a0957816020015b60408051808201909152600080825260208201528152602001906001900390816109e25790505b5081526040805180820182526001546001600160a01b031680825282516318160ddd60e01b815292516020948501949293848401936318160ddd92600480840193829003018186803b158015610a5e57600080fd5b505afa158015610a72573d6000803e3d6000fd5b505050506040513d601f19601f82011682018060405250810190610a9691906150eb565b81525081526020016040518060400160405280610ac4610ab4612d77565b63ffffffff166103e802600a1c90565b63ffffffff9081168252600360209283015291835260408051808201909152600054939091019290918291610b0b91600160401b820481169164010000000090041661511a565b63ffffffff9081168252600660209283018190529284526040805180820190915260008054600160401b90049092168152808301939093529201529091505b82811015610c4257604051806040016040528060028360068110610b7057610b706150d5565b01546001600160a01b0316815260200160028360068110610b9357610b936150d5565b01546040516370a0823160e01b81523060048201526001600160a01b03909116906370a082319060240160206040518083038186803b158015610bd557600080fd5b505afa158015610be9573d6000803e3d6000fd5b505050506040513d601f19601f82011682018060405250810190610c0d91906150eb565b81525082602001518281518110610c2657610c266150d5565b602002602001018190525080610c3b9061513f565b9050610b4a565b5092915050565b6008546001600160a01b03163314610c7457604051635bbf1d0360e01b815260040160405180910390fd5b610c7e8282612e0b565b5050565b306001600160a01b037f0000000000000000000000000000000000000000000000000000000000000000161415610d105760405162461bcd60e51b815260206004820152602c60248201527f46756e6374696f6e206d7573742062652063616c6c6564207468726f7567682060448201526b19195b1959d85d1958d85b1b60a21b6064820152608401610717565b7f00000000000000000000000000000000000000000000000000000000000000006001600160a01b0316610d6b7f360894a13ba1a3210667c828492db98dca3e2076cc3735a920a3ca505d382bbc546001600160a01b031690565b6001600160a01b031614610dd65760405162461bcd60e51b815260206004820152602c60248201527f46756e6374696f6e206d7573742062652063616c6c6564207468726f7567682060448201526b6163746976652070726f787960a01b6064820152608401610717565b610ddf81612f25565b60408051600080825260208201909252610dfb91839190612f50565b50565b600054610100900460ff1615808015610e1e5750600054600160ff909116105b80610e385750303b158015610e38575060005460ff166001145b610eaa5760405162461bcd60e51b815260206004820152602e60248201527f496e697469616c697a61626c653a20636f6e747261637420697320616c72656160448201527f647920696e697469616c697a65640000000000000000000000000000000000006064820152608401610717565b6000805460ff191660011790558015610ecd576000805461ff0019166101001790555b6040517f4cd88b7600000000000000000000000000000000000000000000000000000000815289906001600160a01b03821690634cd88b7690610f16908f908f906004016151b2565b602060405180830381600087803b158015610f3057600080fd5b505af1158015610f44573d6000803e3d6000fd5b505050506040513d601f19601f82011682018060405250810190610f6891906151e0565b610f9e576040517f3d8c43d800000000000000000000000000000000000000000000000000000000815260040160405180910390fd5b6001805460ff8b16600160a01b027fffffffffffffffffffffff0000000000000000000000000000000000000000009091166001600160a01b038d161717905587516006811115611027576040517f3823958e00000000000000000000000000000000000000000000000000000000815260ff8216600482015260066024820152604401610717565b808851146110715787516040517feda2625300000000000000000000000000000000000000000000000000000000815260ff91821660048201529082166024820152604401610717565b6000805462ff000019166201000060ff8416021781555b81811015611260578981815181106110a2576110a26150d5565b6020026020010151600282600681106110bd576110bd6150d5565b0180546001600160a01b0319166001600160a01b03929092169190911790558851601119908a90839081106110f4576110f46150d5565b602002602001015160000b121561116357888181518110611117576111176150d5565b60209081029190910101516040517f498123bd00000000000000000000000000000000000000000000000000000000815260009190910b60048201526011196024820152604401610717565b600460000b89828151811061117a5761117a6150d5565b602002602001015160000b13156111ea5788818151811061119d5761119d6150d5565b602002602001015160046040517f8f038f2c000000000000000000000000000000000000000000000000000000008152600401610717929190600092830b8152910b602082015260400190565b8881815181106111fc576111fc6150d5565b602002602001015160028260068110611217576112176150d5565b01805460ff92909216600160a01b027fffffffffffffffffffffff00ffffffffffffffffffffffffffffffffffffffff9092169190911790556112598161513f565b9050611088565b5063ffffffff87166112b057806002146112ab576040517f9a1b0df600000000000000000000000000000000000000000000000000000000815260ff82166004820152602401610717565b6112b9565b6112b9876130ff565b600080547fffffffff00000000000000000000000000000000ffffffffffffffffffffffff16600160a01b6103e86503fffffffc00600a8c901b160463ffffffff160263ffffffff60c01b1916179055600980546001600160a01b0319166001600160a01b03861617905561132e8686612e0b565b50506000805463ff00000019169055600880546001600160a01b031916331790558015611395576000805461ff0019169055604051600181527f7f26b83ff96e1f2b6a682f133852f6798a09c465da95921460cefb38474024989060200160405180910390a15b5050505050505050505050565b6008546001600160a01b031633146113cd57604051635bbf1d0360e01b815260040160405180910390fd5b6113d6826130ff565b63ffffffff811660006113ec62015180426151fd565b905080821015611438576040517f354b078f00000000000000000000000000000000000000000000000000000000815263ffffffff808516600483015282166024820152604401610717565b6000611442612d77565b63ffffffff16905080611481576040517f6863759300000000000000000000000000000000000000000000000000000000815260040160405180910390fd5b63ffffffff6103e8600a87901b6503fffffffc001604168082116115205760006114ac600a84615215565b90508082111561151a576103e863ffffffff841602600a1c5b6040517f63f6a46300000000000000000000000000000000000000000000000000000000815263ffffffff918216600482015281891660248201528282166103e802600a1c9091166044820152606401610717565b5061154c565b600061152d600a83615215565b90508082101561154a576103e863ffffffff841602600a1c6114c5565b505b600080547fffffffffffffffffffffffff0000000000000000ffffffffffffffffffffffff166c010000000000000000000000004263ffffffff908116919091027fffffffffffffffffffffffff00000000ffffffffffffffffffffffffffffffff1691909117600160801b94821694909402939093177fffffffff0000000000000000ffffffffffffffffffffffffffffffffffffffff16600160a01b9284169290920263ffffffff60c01b191691909117600160c01b959092169490940217909255505050565b306001600160a01b037f00000000000000000000000000000000000000000000000000000000000000001614156116a35760405162461bcd60e51b815260206004820152602c60248201527f46756e6374696f6e206d7573742062652063616c6c6564207468726f7567682060448201526b19195b1959d85d1958d85b1b60a21b6064820152608401610717565b7f00000000000000000000000000000000000000000000000000000000000000006001600160a01b03166116fe7f360894a13ba1a3210667c828492db98dca3e2076cc3735a920a3ca505d382bbc546001600160a01b031690565b6001600160a01b0316146117695760405162461bcd60e51b815260206004820152602c60248201527f46756e6374696f6e206d7573742062652063616c6c6564207468726f7567682060448201526b6163746976652070726f787960a01b6064820152608401610717565b61177282612f25565b610c7e82826001612f50565b6000306001600160a01b037f0000000000000000000000000000000000000000000000000000000000000000161461181e5760405162461bcd60e51b815260206004820152603860248201527f555550535570677261646561626c653a206d757374206e6f742062652063616c60448201527f6c6564207468726f7567682064656c656761746563616c6c00000000000000006064820152608401610717565b507f360894a13ba1a3210667c828492db98dca3e2076cc3735a920a3ca505d382bbc90565b60008054600154604080516318160ddd60e01b815290516060946201000090940460ff16936001600160a01b03909316929183916318160ddd91600480820192602092909190829003018186803b15801561189d57600080fd5b505afa1580156118b1573d6000803e3d6000fd5b505050506040513d601f19601f820116820180604052508101906118d591906150eb565b60405163079cc67960e41b8152336004820152602481018890529091506001600160a01b038316906379cc679090604401600060405180830381600087803b15801561192057600080fd5b505af1158015611934573d6000803e3d6000fd5b505050508267ffffffffffffffff811115611951576119516149c9565b60405190808252806020026020018201604052801561197a578160200160208202803683370190505b50935060005b83811015611af15760006002826006811061199d5761199d6150d5565b01546040516370a0823160e01b81523060048201526001600160a01b03909116915060009082906370a082319060240160206040518083038186803b1580156119e557600080fd5b505afa1580156119f9573d6000803e3d6000fd5b505050506040513d601f19601f82011682018060405250810190611a1d91906150eb565b9050600084611a2c8b84615215565b611a36919061524a565b9050888481518110611a4a57611a4a6150d5565b6020026020010151811015611aaa5782818a8681518110611a6d57611a6d6150d5565b6020908102919091010151604051639e8eb45960e01b81526001600160a01b03909316600484015260248301919091526044820152606401610717565b611abe6001600160a01b03841633836131ef565b80888581518110611ad157611ad16150d5565b60200260200101818152505050505080611aea9061513f565b9050611980565b5050505092915050565b6008546001600160a01b03163314611b2657604051635bbf1d0360e01b815260040160405180910390fd5b6001546040517f4f1ef2860000000000000000000000000000000000000000000000000000000081526001600160a01b0390911690634f1ef28690611b71908590859060040161526c565b600060405180830381600087803b158015611b8b57600080fd5b505af1158015611b9f573d6000803e3d6000fd5b505050505050565b600080546301000000900460ff1615611bd357604051630b96dad560e21b815260040160405180910390fd5b600080600080611be16124ef565b9350935093509350611bf38785612639565b878760ff1681518110611c0857611c086150d5565b6020026020010151600014611c2d5786888860ff16815181106106d3576106d36150d5565b6000611c398986612682565b9050600080611c4b6001848c87612812565b91509150611c698260028c60ff16600681106107e7576107e76150d5565b975088881015611cbe5760028a60ff1660068110611c8957611c896150d5565b0154604051639e8eb45960e01b81526001600160a01b03909116600482015260248101899052604481018a9052606401610717565b60005b87811015611cf457611cec8c8281518110611cde57611cde6150d5565b602002602001015182612c8b565b600101611cc1565b50611d02888b60ff16612cc4565b61091e818787612cf7565b6008546001600160a01b03163314611d3857604051635bbf1d0360e01b815260040160405180910390fd5b6001546040517f3659cfe60000000000000000000000000000000000000000000000000000000081526001600160a01b03838116600483015290911690633659cfe690602401600060405180830381600087803b158015611d9857600080fd5b505af1158015611dac573d6000803e3d6000fd5b5050505050565b6008546001600160a01b03163314611dde57604051635bbf1d0360e01b815260040160405180910390fd5b600880546001600160a01b0319166001600160a01b0392909216919091179055565b600054606090611eb990611e1c9062010000900460ff16613298565b611e24612d77565b600154604080516318160ddd60e01b81529051611eb4926001600160a01b0316916318160ddd916004808301926020929190829003018186803b158015611e6a57600080fd5b505afa158015611e7e573d6000803e3d6000fd5b505050506040513d601f19601f82011682018060405250810190611ea291906150eb565b600154600160a01b900460000b6133be565b61348a565b905090565b6008546001600160a01b03163314611ee957604051635bbf1d0360e01b815260040160405180910390fd5b600054600160401b900463ffffffff1615801590611f0e57506001600160a01b038116155b15611f2c57604051630161bcd760e51b815260040160405180910390fd5b600980546001600160a01b0319166001600160a01b0392909216919091179055565b600080546301000000900460ff1615611f7a57604051630b96dad560e21b815260040160405180910390fd5b60005462010000900460ff16611f908582612639565b60008167ffffffffffffffff811115611fab57611fab6149c9565b604051908082528060200260200182016040528015611fd4578160200160208202803683370190505b50905086818760ff1681518110611fed57611fed6150d5565b602002602001018181525050612004818686611ba7565b979650505050505050565b600080546301000000900460ff161561203b57604051630b96dad560e21b815260040160405180910390fd5b6000806000806120496124ef565b935093509350935061205b8785612639565b600061206789846133be565b90508160a0015181106120845783896107f88460a001518661278c565b600080612092838b866136ff565b915091506120b08260028c60ff16600681106107e7576107e76150d5565b9750888810156120d05760028a60ff1660068110611c8957611c896150d5565b60405163079cc67960e41b8152336004820152602481018c90526001600160a01b038716906379cc679090604401600060405180830381600087803b15801561211857600080fd5b505af115801561212c573d6000803e3d6000fd5b50505050611d02888b60ff16612cc4565b600080546301000000900460ff161561216957604051630b96dad560e21b815260040160405180910390fd5b6000806000806121776124ef565b9350935093509350600061218b8886612682565b905060005b8581101561221257826020015181815181106121ae576121ae6150d5565b60200260200101518282815181106121c8576121c86150d5565b60200260200101511061220a57600281600681106121e8576121e86150d5565b015489516001600160a01b03909116908a90839081106107ab576107ab6150d5565b600101612190565b50600080612222600084866139c3565b91509150612230828661278c565b97508888111561226c57604051639e8eb45960e01b81526001600160a01b038716600482015260248101899052604481018a9052606401610717565b60405163079cc67960e41b8152336004820152602481018990526001600160a01b038716906379cc679090604401600060405180830381600087803b1580156122b457600080fd5b505af11580156122c8573d6000803e3d6000fd5b5050505060005b878110156122f4576122ec8b82815181106108fc576108fc6150d5565b6001016122cf565b50612300818787612cf7565b5050505050505092915050565b600080546301000000900460ff161561233957604051630b96dad560e21b815260040160405180910390fd5b6000806000806123476124ef565b9350935093509350600061235b8886612682565b905060008260a00151600014156123f45760005b868110156123d857898181518110612389576123896150d5565b6020026020010151600014156123d0576040517f90c8235d00000000000000000000000000000000000000000000000000000000815260ff82166004820152602401610717565b60010161236f565b5060006123eb8385604001516000613d7b565b91506124149050565b6000612402600184866139c3565b9092509050612412818787612cf7565b505b61241e818561278c565b96508787101561245a57604051639e8eb45960e01b81526001600160a01b03861660048201526024810188905260448101899052606401610717565b60005b868110156124825761247a8a8281518110611cde57611cde6150d5565b60010161245d565b506040516340c10f1960e01b8152336004820152602481018890526001600160a01b038616906340c10f1990604401600060405180830381600087803b1580156124cb57600080fd5b505af11580156124df573d6000803e3d6000fd5b5050505050505050505092915050565b6040805160c080820183526000808352606060208085018290528486018390529084018290526080840182905260a084018290528154600154865194850190965262010000900460ff16808452946001600160a01b03811694600160a01b90910490920b9290810161256086613298565b815260200161256d612d77565b63ffffffff168152602001600060049054906101000a900463ffffffff1663ffffffff168152602001600060089054906101000a900463ffffffff1663ffffffff16815260200161262e856001600160a01b03166318160ddd6040518163ffffffff1660e01b815260040160206040518083038186803b1580156125f057600080fd5b505afa158015612604573d6000803e3d6000fd5b505050506040513d601f19601f8201168201806040525081019061262891906150eb565b856133be565b815250905090919293565b808260ff1610610c7e576040517f5d92669e00000000000000000000000000000000000000000000000000000000815260ff808416600483015282166024820152604401610717565b6060818351146126ce5782516040517fd265d30500000000000000000000000000000000000000000000000000000000815260ff91821660048201529083166024820152604401610717565b8167ffffffffffffffff8111156126e7576126e76149c9565b604051908082528060200260200182016040528015612710578160200160208202803683370190505b50905060005b82811015610c425761275f848281518110612733576127336150d5565b60200260200101516002836006811061274e5761274e6150d5565b0154600160a01b900460000b6133be565b828281518110612771576127716150d5565b60209081029190910101526127858161513f565b9050612716565b6000828061279e57600091505061280c565b60008360000b12156127c6576000838103900b600a0a6127be8183615215565b915050612809565b8260000b600a0a81816127db576127db615234565b04905080612809576040516311050b1f60e11b815260048101859052600084900b6024820152604401610717565b90505b92915050565b600080600061282b846020015185604001516000613d7b565b90506000846000015160ff1667ffffffffffffffff81111561284f5761284f6149c9565b604051908082528060200260200182016040528015612878578160200160208202803683370190505b50905060005b855160ff1681101561290c576000866020015182815181106128a2576128a26150d5565b6020026020010151905060008983815181106128c0576128c06150d5565b6020026020010151905060008b6128d9578183036128dd565b8183015b9050808585815181106128f2576128f26150d5565b60200260200101818152505050505080600101905061287e565b506000600186600001510360ff1667ffffffffffffffff811115612932576129326149c9565b60405190808252806020026020018201604052801561295b578160200160208202803683370190505b5090508880156129745750606086015163ffffffff1615155b15612a3a5760005b8151811015612a345760008860ff16821061299a578160010161299c565b815b905060008a82815181106129b2576129b26150d5565b6020026020010151905060008583815181106129d0576129d06150d5565b6020026020010151905060006006600a0a8b6060015163ffffffff168402816129fb576129fb615234565b0490506000818303905080878781518110612a1857612a186150d5565b602002602001018181525050505050505080600101905061297c565b50612aa1565b60005b8151811015612a9f5760008860ff168210612a5b5781600101612a5d565b815b9050838181518110612a7157612a716150d5565b6020026020010151838381518110612a8b57612a8b6150d5565b602090810291909101015250600101612a3d565b505b600089612aaf576000612ad1565b86602001518860ff1681518110612ac857612ac86150d5565b60200260200101515b90506000612ae583868a6040015185613f32565b905060008b15612b59578189602001518b60ff1681518110612b0957612b096150d5565b602002602001015103905080858b60ff1681518110612b2a57612b2a6150d5565b602002602001015103858b60ff1681518110612b4857612b486150d5565b602002602001018181525050612bf7565b88602001518a60ff1681518110612b7257612b726150d5565b602002602001015182039050886060015163ffffffff16600014612bb657606089015163ffffffff16620f424090810390820281612bb257612bb2615234565b0490505b80858b60ff1681518110612bcc57612bcc6150d5565b602002602001015101858b60ff1681518110612bea57612bea6150d5565b6020026020010181815250505b809750886060015163ffffffff16600014612c7c576000612c218a602001518b6040015189613d7b565b90506000878203905060008b6060015163ffffffff168c6080015163ffffffff16830281612c5157612c51615234565b60a08e015191900491508184039060008282850281612c7257612c72615234565b049c505050505050505b50505050505094509492505050565b8115610c7e57600060028260068110612ca657612ca66150d5565b01546001600160a01b03169050612cbf813330866140e9565b505050565b8115610c7e57600060028260068110612cdf57612cdf6150d5565b01546001600160a01b03169050612cbf8133856131ef565b8215612cbf576000612d09848361278c565b6009546040516340c10f1960e01b81526001600160a01b039182166004820152602481018390529192508416906340c10f1990604401600060405180830381600087803b158015612d5957600080fd5b505af1158015612d6d573d6000803e3d6000fd5b5050505050505050565b600080544290600160c01b900463ffffffff1680821215612df3576000805463ffffffff600160801b82048116926c010000000000000000000000008304821692600160a01b9004909116908282039084870390858703908183850281612de057612de0615234565b05959095019850612e0695505050505050565b600054600160a01b900463ffffffff1692505b505090565b6000612e17828461528e565b90506002612e276006600a61539a565b612e31919061524a565b8163ffffffff1610612ea4578060016002612e4e6006600a61539a565b612e58919061524a565b612e6291906153a6565b6040517f0157de9600000000000000000000000000000000000000000000000000000000815263ffffffff928316600482015291166024820152604401610717565b63ffffffff821615801590612ec257506009546001600160a01b0316155b15612ee057604051630161bcd760e51b815260040160405180910390fd5b600080546bffffffffffffffff00000000191664010000000063ffffffff938416026bffffffff0000000000000000191617600160401b939092169290920217905550565b6008546001600160a01b03163314610dfb57604051635bbf1d0360e01b815260040160405180910390fd5b7f4910fdfa16fed3260ed0e7147f7cc6da11a60208b5b9406d12a635614ffd91435460ff1615612f8357612cbf83614140565b826001600160a01b03166352d1902d6040518163ffffffff1660e01b815260040160206040518083038186803b158015612fbc57600080fd5b505afa925050508015612fec575060408051601f3d908101601f19168201909252612fe9918101906150eb565b60015b61305e5760405162461bcd60e51b815260206004820152602e60248201527f45524331393637557067726164653a206e657720696d706c656d656e7461746960448201527f6f6e206973206e6f7420555550530000000000000000000000000000000000006064820152608401610717565b7f360894a13ba1a3210667c828492db98dca3e2076cc3735a920a3ca505d382bbc81146130f35760405162461bcd60e51b815260206004820152602960248201527f45524331393637557067726164653a20756e737570706f727465642070726f7860448201527f6961626c655555494400000000000000000000000000000000000000000000006064820152608401610717565b50612cbf8383836141fe565b61310b6003600a61539a565b61311890620f42406153bd565b63ffffffff168163ffffffff16111561318757806131386003600a61539a565b61314590620f42406153bd565b6040517f1281907f00000000000000000000000000000000000000000000000000000000815263ffffffff928316600482015291166024820152604401610717565b6131936003600a61539a565b8163ffffffff161015610dfb57806131ad6003600a61539a565b6040517fc88e096900000000000000000000000000000000000000000000000000000000815263ffffffff928316600482015291166024820152604401610717565b6040516001600160a01b038316602482015260448101829052612cbf9084907fa9059cbb00000000000000000000000000000000000000000000000000000000906064015b60408051601f198184030181529190526020810180517bffffffffffffffffffffffffffffffffffffffffffffffffffffffff167fffffffff0000000000000000000000000000000000000000000000000000000090931692909217909152614223565b60608167ffffffffffffffff8111156132b3576132b36149c9565b6040519080825280602002602001820160405280156132dc578160200160208202803683370190505b50905060005b828110156133b8576000600282600681106132ff576132ff6150d5565b01546040516370a0823160e01b81523060048201526001600160a01b03909116906370a082319060240160206040518083038186803b15801561334157600080fd5b505afa158015613355573d6000803e3d6000fd5b505050506040513d601f19601f8201168201806040525081019061337991906150eb565b9050613392816002846006811061274e5761274e6150d5565b8383815181106133a4576133a46150d5565b6020908102919091010152506001016132e2565b50919050565b6000826133cd5750600061280c565b6000808360000b1215613425578260000360000b600a0a84816133f2576133f2615234565b04905080613420576040516311050b1f60e11b815260048101859052600084900b6024820152604401610717565b61343b565b50600082900b600a0a6134388482615215565b90505b671fffffffffffffff811115612809576040517f834de34100000000000000000000000000000000000000000000000000000000815260048101859052600084900b6024820152604401610717565b825160609060008167ffffffffffffffff8111156134aa576134aa6149c9565b6040519080825280602002602001820160405280156134d3578160200160208202803683370190505b50905063ffffffff851661359457836002670de0b6b3a76400000487600181518110613501576135016150d5565b6020026020010151028161351757613517615234565b048160008151811061352b5761352b6150d5565b6020908102919091010152836002670de0b6b3a76400000487600081518110613556576135566150d5565b6020026020010151028161356c5761356c615234565b0481600181518110613580576135806150d5565b602090810291909101015291506136f89050565b60006135a287876000613d7b565b90506000806135b8670de0b6b3a7640000614308565b9150915060005b85811015613610578383029250858a82815181106135df576135df6150d5565b60200260200101510283816135f6576135f6615234565b0492506136038383614377565b90935091506001016135bf565b50600061363f600a8360000301600a6001901b8b63ffffffff16036012600a0a026143d390919063ffffffff16565b90506000670de0b6b3a76400006001880185028301049050838502600061367f63ffffffff8d8116670de0b6b3a76400000290600a88850301906143d316565b905060005b898110156136eb57838e828151811061369f5761369f6150d5565b602002602001015184816136b5576136b5615234565b048301816136c5576136c5615234565b048982815181106136d8576136d86150d5565b6020908102919091010152600101613684565b5096985050505050505050505b9392505050565b6000806000858460a0015103905060008460a0015182613729876020015188604001516000613d7b565b028161373757613737615234565b0490506000600186600001510360ff1667ffffffffffffffff81111561375f5761375f6149c9565b604051908082528060200260200182016040528015613788578160200160208202803683370190505b50905060005b81518110156137f45760008860ff1682106137ac57816001016137ae565b815b9050876020015181815181106137c6576137c66150d5565b60200260200101518383815181106137e0576137e06150d5565b60209081029190910101525060010161378e565b506000613827828489604001518a602001518c60ff168151811061381a5761381a6150d5565b6020026020010151613f32565b87602001518960ff1681518110613840576138406150d5565b6020026020010151039050866060015163ffffffff166000146139b357600061386c8860200151614441565b905060008160408a602001518c60ff168151811061388c5761388c6150d5565b60200260200101518403901b816138a5576138a5615234565b60608b01519190049150600090600160401b9063ffffffff16620f4240036a0f42400000000000000000816138dc576138dc615234565b04039050604081600160401b848202831c01868502816138fe576138fe615234565b0402901c84039850888a602001518c60ff1681518110613920576139206150d5565b6020026020010151038a602001518c60ff1681518110613942576139426150d5565b6020026020010181815250506000866139648c602001518d604001518a613d7b565b03905060008b6060015163ffffffff168c6080015163ffffffff1683028161398e5761398e615234565b0490508082890103898202816139a6576139a6615234565b04995050505050506139b7565b8095505b50505050935093915050565b60008060006139dc846020015185604001516000613d7b565b90506000806000866000015160ff1667ffffffffffffffff811115613a0357613a036149c9565b604051908082528060200260200182016040528015613a2c578160200160208202803683370190505b50905060005b875160ff16811015613ac457600088602001518281518110613a5657613a566150d5565b6020026020010151905060008a8381518110613a7457613a746150d5565b6020026020010151905060008c613a8d57818303613a91565b8183015b905080858581518110613aa657613aa66150d5565b60209081029190910101529590910194939093019250600101613a32565b506000613ae78289604001518686890281613ae157613ae1615234565b04613d7b565b9050876060015163ffffffff16600014613d4557875160009060ff1667ffffffffffffffff811115613b1b57613b1b6149c9565b604051908082528060200260200182016040528015613b44578160200160208202803683370190505b50905060005b895160ff16811015613c8f576000848281518110613b6a57613b6a6150d5565b60200260200101519050600087878d602001518581518110613b8e57613b8e6150d5565b60200260200101510281613ba457613ba4615234565b04905060008e613bc457818310613bbc576000613bd6565b828203613bd6565b818311613bd2576000613bd6565b8183035b905060008f613c0a5760608e0151829063ffffffff16620f424090810390820281613c0357613c03615234565b0403613c1e565b60608e0151620f42409063ffffffff168302045b9050808411613c59576040517f1ce2e20400000000000000000000000000000000000000000000000000000000815260040160405180910390fd5b6000818503905080878781518110613c7357613c736150d5565b6020026020010181815250505050505050806001019050613b4a565b506000613ca1828b6040015185613d7b565b9050868c613cb157818803613cb5565b8782035b8b60a001510281613cc857613cc8615234565b0498506000818403905060008b6060015163ffffffff168c6080015163ffffffff16830281613cf957613cf9615234565b04905060008e613d0f578b8d60a0015103613d17565b8b8d60a00151015b9050818f613d255786613d27565b845b0381830281613d3857613d38615234565b049a505050505050613d6e565b848860a001518b613d5857828703613d5c565b8683035b0281613d6a57613d6a615234565b0496505b5050505050935093915050565b600063ffffffff8316613dda576004905083600081518110613d9f57613d9f6150d5565b60200260200101518102905083600181518110613dbe57613dbe6150d5565b602002602001015181029050613dd381614477565b90506136f8565b83516000613de786614441565b905063ffffffff8516808202906103ff190185613e045782613e06565b855b945060005b5084600080613e1a6001614308565b9150915060005b87811015613e72578883029250878c8281518110613e4157613e416150d5565b6020026020010151028381613e5857613e58615234565b049250613e658383614377565b9093509150600101613e21565b5060091901818702600080613e878385614377565b908c0292509050828501848214613e9d578482031b5b60008060a1871215613ed1576000969096039584613ebb8c896143d3565b01915082613ec98b896143d3565b019050613eee565b613edb85886143d3565b8b019150613ee983886143d3565b8a0190505b808281613efd57613efd615234565b049d5050505050505050506001613f1482886145de565b11613e0b5760008611613f2657600080fd5b50505050509392505050565b60008063ffffffff8416613f7957848502905085600081518110613f5857613f586150d5565b60200260200101518181613f6e57613f6e615234565b0460021c9050614084565b8551600101600080613fa663ffffffff88168402898002600a1b81613fa057613fa0615234565b04614308565b9150915060005b8951811015613fff578883029250838a8281518110613fce57613fce6150d5565b6020026020010151028381613fe557613fe5615234565b049250613ff28383614377565b9093509150600101613fad565b5061400a82826143d3565b915060008763ffffffff16600a8a901b8161402757614027615234565b046140318b614441565b019050866140425760028904614044565b865b945060005b508480800284016002820283018b900380828161406857614068615234565b0497505050600161407982886145de565b116140495750505050505b6000811161409157600080fd5b671fffffffffffffff8111156140d6576040517f0b68fc2600000000000000000000000000000000000000000000000000000000815260048101829052602401610717565b67ffffffffffffffff1695945050505050565b6040516001600160a01b038085166024830152831660448201526064810182905261413a9085907f23b872dd0000000000000000000000000000000000000000000000000000000090608401613234565b50505050565b6001600160a01b0381163b6141bd5760405162461bcd60e51b815260206004820152602d60248201527f455243313936373a206e657720696d706c656d656e746174696f6e206973206e60448201527f6f74206120636f6e7472616374000000000000000000000000000000000000006064820152608401610717565b7f360894a13ba1a3210667c828492db98dca3e2076cc3735a920a3ca505d382bbc80546001600160a01b0319166001600160a01b0392909216919091179055565b614207836145f5565b6000825111806142145750805b15612cbf5761413a8383614635565b6000614278826040518060400160405280602081526020017f5361666545524332303a206c6f772d6c6576656c2063616c6c206661696c6564815250856001600160a01b031661465a9092919063ffffffff16565b805190915015612cbf578080602001905181019061429691906151e0565b612cbf5760405162461bcd60e51b815260206004820152602a60248201527f5361666545524332303a204552433230206f7065726174696f6e20646964206e60448201527f6f742073756363656564000000000000000000000000000000000000000000006064820152608401610717565b600080600261431a600461010061524a565b614324919061524a565b614331600461010061524a565b61433b91906151fd565b83901b600261434d600461010061524a565b614357919061524a565b614364600461010061524a565b61436e91906151fd565b91509150915091565b60008077ffffffffffffffffffffffffffffffffffffffffffffffff8411156143ab575050604082901c603f1982016143cc565b600160801b8410156143c6575050604082811b9082016143cc565b50829050815b9250929050565b60008082121561443c576000829003610100811015806143fb575080610100036001901b8410155b15614432576040517f4f4afe7f00000000000000000000000000000000000000000000000000000000815260040160405180910390fd5b83901b905061280c565b501c90565b6000805b82518110156133b857828181518110614460576144606150d5565b602002602001015182019150806001019050614445565b60008161448657506000919050565b816001608082901c1561449e5760809190911c9060401b5b604082901c156144b35760409190911c9060201b5b602082901c156144c85760209190911c9060101b5b601082901c156144dd5760109190911c9060081b5b600882901c156144f25760089190911c9060041b5b600482901c156145075760049190911c9060021b5b600282901c156145155760011b5b600181858161452657614526615234565b048201901c9050600181858161453e5761453e615234565b048201901c9050600181858161455657614556615234565b048201901c9050600181858161456e5761456e615234565b048201901c9050600181858161458657614586615234565b048201901c9050600181858161459e5761459e615234565b048201901c905060018185816145b6576145b6615234565b048201901c90506145d6818286816145d0576145d0615234565b04614669565b949350505050565b60008183116145ef57828203612809565b50900390565b6145fe81614140565b6040516001600160a01b038216907fbc7cd75a20ee27fd9adebab32041f755214dbc6bffa90cc0225b39da2e5c2d3b90600090a250565b606061280983836040518060600160405280602781526020016154196027913961467f565b60606145d68484600085614773565b60008183106146785781612809565b5090919050565b60606001600160a01b0384163b6146fe5760405162461bcd60e51b815260206004820152602660248201527f416464726573733a2064656c65676174652063616c6c20746f206e6f6e2d636f60448201527f6e747261637400000000000000000000000000000000000000000000000000006064820152608401610717565b600080856001600160a01b03168560405161471991906153e9565b600060405180830381855af49150503d8060008114614754576040519150601f19603f3d011682016040523d82523d6000602084013e614759565b606091505b50915091506147698282866148ac565b9695505050505050565b6060824710156147eb5760405162461bcd60e51b815260206004820152602660248201527f416464726573733a20696e73756666696369656e742062616c616e636520666f60448201527f722063616c6c00000000000000000000000000000000000000000000000000006064820152608401610717565b6001600160a01b0385163b6148425760405162461bcd60e51b815260206004820152601d60248201527f416464726573733a2063616c6c20746f206e6f6e2d636f6e74726163740000006044820152606401610717565b600080866001600160a01b0316858760405161485e91906153e9565b60006040518083038185875af1925050503d806000811461489b576040519150601f19603f3d011682016040523d82523d6000602084013e6148a0565b606091505b50915091506120048282865b606083156148bb5750816136f8565b8251156148cb5782518084602001fd5b8160405162461bcd60e51b81526004016107179190615405565b6040518060c0016040528060001515815260200160608152602001614926604051806040016040528060006001600160a01b03168152602001600081525090565b815260200161494b604051806040016040528060008152602001600060ff1681525090565b8152602001614970604051806040016040528060008152602001600060ff1681525090565b8152602001614995604051806040016040528060008152602001600060ff1681525090565b905290565b6000602082840312156149ac57600080fd5b5035919050565b803560ff811681146149c457600080fd5b919050565b634e487b7160e01b600052604160045260246000fd5b604051601f8201601f1916810167ffffffffffffffff81118282101715614a0857614a086149c9565b604052919050565b600067ffffffffffffffff821115614a2a57614a2a6149c9565b5060051b60200190565b600082601f830112614a4557600080fd5b81356020614a5a614a5583614a10565b6149df565b82815260059290921b84018101918181019086841115614a7957600080fd5b8286015b84811015614a945780358352918301918301614a7d565b509695505050505050565b600080600060608486031215614ab457600080fd5b83359250614ac4602085016149b3565b9150604084013567ffffffffffffffff811115614ae057600080fd5b614aec86828701614a34565b9150509250925092565b8015158114610dfb57600080fd5b600060208284031215614b1657600080fd5b813561280981614af6565b600060208083526101608301845115158285015281850151604061014081870152828251808552610180880191508584019450600093505b80841015614b9357614b7f82865180516001600160a01b03168252602090810151910152565b938501936001939093019290820190614b59565b508782015180516001600160a01b031660608901526020810151608089015294506060880151805160a0890152602081015160ff1660c089015294506080880151805160e0890152602081015160ff16610100890152945060a08801518051610120890152602081015160ff166101408901529450979650505050505050565b803563ffffffff811681146149c457600080fd5b60008060408385031215614c3a57600080fd5b614c4383614c13565b9150614c5160208401614c13565b90509250929050565b80356001600160a01b03811681146149c457600080fd5b600060208284031215614c8357600080fd5b61280982614c5a565b600067ffffffffffffffff831115614ca657614ca66149c9565b614cb9601f8401601f19166020016149df565b9050828152838383011115614ccd57600080fd5b828260208301376000602084830101529392505050565b600082601f830112614cf557600080fd5b61280983833560208501614c8c565b8035600081900b81146149c457600080fd5b600082601f830112614d2757600080fd5b81356020614d37614a5583614a10565b82815260059290921b84018101918181019086841115614d5657600080fd5b8286015b84811015614a9457614d6b81614c5a565b8352918301918301614d5a565b600082601f830112614d8957600080fd5b81356020614d99614a5583614a10565b82815260059290921b84018101918181019086841115614db857600080fd5b8286015b84811015614a9457614dcd81614d04565b8352918301918301614dbc565b6000806000806000806000806000806101408b8d031215614dfa57600080fd5b8a3567ffffffffffffffff80821115614e1257600080fd5b614e1e8e838f01614ce4565b9b5060208d0135915080821115614e3457600080fd5b614e408e838f01614ce4565b9a50614e4e60408e01614c5a565b9950614e5c60608e01614d04565b985060808d0135915080821115614e7257600080fd5b614e7e8e838f01614d16565b975060a08d0135915080821115614e9457600080fd5b50614ea18d828e01614d78565b955050614eb060c08c01614c13565b9350614ebe60e08c01614c13565b9250614ecd6101008c01614c13565b9150614edc6101208c01614c5a565b90509295989b9194979a5092959850565b60008060408385031215614f0057600080fd5b614f0983614c5a565b9150602083013567ffffffffffffffff811115614f2557600080fd5b8301601f81018513614f3657600080fd5b614f4585823560208401614c8c565b9150509250929050565b60008060408385031215614f6257600080fd5b82359150602083013567ffffffffffffffff811115614f8057600080fd5b614f4585828601614a34565b6020808252825182820181905260009190848201906040850190845b81811015614fc457835183529284019291840191600101614fa8565b50909695505050505050565b600080600060608486031215614fe557600080fd5b833567ffffffffffffffff811115614ffc57600080fd5b61500886828701614a34565b935050615017602085016149b3565b9150604084013590509250925092565b6000806000806080858703121561503d57600080fd5b8435935061504d602086016149b3565b925061505b604086016149b3565b9396929550929360600135925050565b60008060006060848603121561508057600080fd5b83359250615017602085016149b3565b600080604083850312156150a357600080fd5b823567ffffffffffffffff8111156150ba57600080fd5b6150c685828601614a34565b95602094909401359450505050565b634e487b7160e01b600052603260045260246000fd5b6000602082840312156150fd57600080fd5b5051919050565b634e487b7160e01b600052601160045260246000fd5b600063ffffffff8381169083168181101561513757615137615104565b039392505050565b600060001982141561515357615153615104565b5060010190565b60005b8381101561517557818101518382015260200161515d565b8381111561413a5750506000910152565b6000815180845261519e81602086016020860161515a565b601f01601f19169290920160200192915050565b6040815260006151c56040830185615186565b82810360208401526151d78185615186565b95945050505050565b6000602082840312156151f257600080fd5b815161280981614af6565b6000821982111561521057615210615104565b500190565b600081600019048311821515161561522f5761522f615104565b500290565b634e487b7160e01b600052601260045260246000fd5b60008261526757634e487b7160e01b600052601260045260246000fd5b500490565b6001600160a01b03831681526040602082015260006145d66040830184615186565b600063ffffffff8083168185168083038211156152ad576152ad615104565b01949350505050565b600181815b808511156152f15781600019048211156152d7576152d7615104565b808516156152e457918102915b93841c93908002906152bb565b509250929050565b6000826153085750600161280c565b816153155750600061280c565b816001811461532b576002811461533557615351565b600191505061280c565b60ff84111561534657615346615104565b50506001821b61280c565b5060208310610133831016604e8410600b8410161715615374575081810a61280c565b61537e83836152b6565b806000190482111561539257615392615104565b029392505050565b600061280983836152f9565b6000828210156153b8576153b8615104565b500390565b600063ffffffff808316818516818304811182151516156153e0576153e0615104565b02949350505050565b600082516153fb81846020870161515a565b9190910192915050565b602081526000612809602083018461518656fe416464726573733a206c6f772d6c6576656c2064656c65676174652063616c6c206661696c6564a2646970667358221220e9ba9fd0bb0f1c29a7bdb2cbca7ffeb2efc7216141c4a71fb66ead0870a45a0164736f6c63430008090033",
  "devdoc": {
    "kind": "dev",
    "methods": {
      "proxiableUUID()": {
        "details": "Implementation of the ERC1822 {proxiableUUID} function. This returns the storage slot used by the implementation. It is used to validate that the this implementation remains valid after an upgrade. IMPORTANT: A proxy pointing at a proxiable contract should not be considered proxiable itself, because this risks bricking a proxy that upgrades to it, by delegating to itself until out of gas. Thus it is critical that this function revert if invoked through a proxy. This is guaranteed by the `notDelegated` modifier."
      },
      "upgradeTo(address)": {
        "details": "Upgrade the implementation of the proxy to `newImplementation`. Calls {_authorizeUpgrade}. Emits an {Upgraded} event."
      },
      "upgradeToAndCall(address,bytes)": {
        "details": "Upgrade the implementation of the proxy to `newImplementation`, and subsequently execute the function call encoded in `data`. Calls {_authorizeUpgrade}. Emits an {Upgraded} event."
      }
    },
    "version": 1
  },
  "userdoc": {
    "kind": "user",
    "methods": {},
    "version": 1
  },
  "storageLayout": {
    "storage": [
      {
        "astId": 527,
        "contract": "contracts/Pool.sol:Pool",
        "label": "_initialized",
        "offset": 0,
        "slot": "0",
        "type": "t_uint8"
      },
      {
        "astId": 530,
        "contract": "contracts/Pool.sol:Pool",
        "label": "_initializing",
        "offset": 1,
        "slot": "0",
        "type": "t_bool"
      },
      {
        "astId": 5631,
        "contract": "contracts/Pool.sol:Pool",
        "label": "tokenCount",
        "offset": 2,
        "slot": "0",
        "type": "t_uint8"
      },
      {
        "astId": 5633,
        "contract": "contracts/Pool.sol:Pool",
        "label": "paused",
        "offset": 3,
        "slot": "0",
        "type": "t_bool"
      },
      {
        "astId": 5635,
        "contract": "contracts/Pool.sol:Pool",
        "label": "totalFee",
        "offset": 4,
        "slot": "0",
        "type": "t_uint32"
      },
      {
        "astId": 5637,
        "contract": "contracts/Pool.sol:Pool",
        "label": "governanceFee",
        "offset": 8,
        "slot": "0",
        "type": "t_uint32"
      },
      {
        "astId": 5639,
        "contract": "contracts/Pool.sol:Pool",
        "label": "ampInitialValue",
        "offset": 12,
        "slot": "0",
        "type": "t_uint32"
      },
      {
        "astId": 5641,
        "contract": "contracts/Pool.sol:Pool",
        "label": "ampInitialTimestamp",
        "offset": 16,
        "slot": "0",
        "type": "t_uint32"
      },
      {
        "astId": 5643,
        "contract": "contracts/Pool.sol:Pool",
        "label": "ampTargetValue",
        "offset": 20,
        "slot": "0",
        "type": "t_uint32"
      },
      {
        "astId": 5645,
        "contract": "contracts/Pool.sol:Pool",
        "label": "ampTargetTimestamp",
        "offset": 24,
        "slot": "0",
        "type": "t_uint32"
      },
      {
        "astId": 5648,
        "contract": "contracts/Pool.sol:Pool",
        "label": "lpTokenData",
        "offset": 0,
        "slot": "1",
        "type": "t_struct(TokenWithEqualizer)5616_storage"
      },
      {
        "astId": 5653,
        "contract": "contracts/Pool.sol:Pool",
        "label": "poolTokensData",
        "offset": 0,
        "slot": "2",
        "type": "t_array(t_struct(TokenWithEqualizer)5616_storage)6_storage"
      },
      {
        "astId": 5655,
        "contract": "contracts/Pool.sol:Pool",
        "label": "governance",
        "offset": 0,
        "slot": "8",
        "type": "t_address"
      },
      {
        "astId": 5657,
        "contract": "contracts/Pool.sol:Pool",
        "label": "governanceFeeRecipient",
        "offset": 0,
        "slot": "9",
        "type": "t_address"
      }
    ],
    "types": {
      "t_address": {
        "encoding": "inplace",
        "label": "address",
        "numberOfBytes": "20"
      },
      "t_array(t_struct(TokenWithEqualizer)5616_storage)6_storage": {
        "base": "t_struct(TokenWithEqualizer)5616_storage",
        "encoding": "inplace",
        "label": "struct Pool.TokenWithEqualizer[6]",
        "numberOfBytes": "192"
      },
      "t_bool": {
        "encoding": "inplace",
        "label": "bool",
        "numberOfBytes": "1"
      },
      "t_int8": {
        "encoding": "inplace",
        "label": "int8",
        "numberOfBytes": "1"
      },
      "t_struct(TokenWithEqualizer)5616_storage": {
        "encoding": "inplace",
        "label": "struct Pool.TokenWithEqualizer",
        "members": [
          {
            "astId": 5613,
            "contract": "contracts/Pool.sol:Pool",
            "label": "addr",
            "offset": 0,
            "slot": "0",
            "type": "t_address"
          },
          {
            "astId": 5615,
            "contract": "contracts/Pool.sol:Pool",
            "label": "equalizer",
            "offset": 20,
            "slot": "0",
            "type": "t_int8"
          }
        ],
        "numberOfBytes": "32"
      },
      "t_uint32": {
        "encoding": "inplace",
        "label": "uint32",
        "numberOfBytes": "4"
      },
      "t_uint8": {
        "encoding": "inplace",
        "label": "uint8",
        "numberOfBytes": "1"
      }
    }
  }
}