{
  "address": "0x9fE46736679d2D9a65F0992F2272dE9f3c7fa6e0",
  "abi": [
    {
      "inputs": [],
      "name": "InvalidVersion",
      "type": "error"
    },
    {
      "inputs": [
        {
          "internalType": "string",
          "name": "message",
          "type": "string"
        }
      ],
      "name": "Routing__ErrorMessage",
      "type": "error"
    },
    {
      "inputs": [
        {
          "internalType": "bytes20",
          "name": "addressOrTokenNumber",
          "type": "bytes20"
        }
      ],
      "name": "Routing__TokenNotRegistered",
      "type": "error"
    },
    {
      "inputs": [],
      "name": "TooShort",
      "type": "error"
    },
    {
      "anonymous": false,
      "inputs": [
        {
          "indexed": false,
          "internalType": "address",
          "name": "previousAdmin",
          "type": "address"
        },
        {
          "indexed": false,
          "internalType": "address",
          "name": "newAdmin",
          "type": "address"
        }
      ],
      "name": "AdminChanged",
      "type": "event"
    },
    {
      "anonymous": false,
      "inputs": [
        {
          "indexed": true,
          "internalType": "address",
          "name": "beacon",
          "type": "address"
        }
      ],
      "name": "BeaconUpgraded",
      "type": "event"
    },
    {
      "anonymous": false,
      "inputs": [
        {
          "indexed": false,
          "internalType": "uint8",
          "name": "version",
          "type": "uint8"
        }
      ],
      "name": "Initialized",
      "type": "event"
    },
    {
      "anonymous": false,
      "inputs": [
        {
          "indexed": true,
          "internalType": "address",
          "name": "to",
          "type": "address"
        },
        {
          "indexed": true,
          "internalType": "address",
          "name": "fromToken",
          "type": "address"
        },
        {
          "indexed": true,
          "internalType": "address",
          "name": "toToken",
          "type": "address"
        },
        {
          "indexed": false,
          "internalType": "uint256",
          "name": "outputAmount",
          "type": "uint256"
        }
      ],
      "name": "OnChainSwap",
      "type": "event"
    },
    {
      "anonymous": false,
      "inputs": [
        {
          "indexed": true,
          "internalType": "address",
          "name": "previousOwner",
          "type": "address"
        },
        {
          "indexed": true,
          "internalType": "address",
          "name": "newOwner",
          "type": "address"
        }
      ],
      "name": "OwnershipTransferred",
      "type": "event"
    },
    {
      "anonymous": false,
      "inputs": [
        {
          "indexed": false,
          "internalType": "address",
          "name": "account",
          "type": "address"
        }
      ],
      "name": "Paused",
      "type": "event"
    },
    {
      "anonymous": false,
      "inputs": [
        {
          "indexed": true,
          "internalType": "address",
          "name": "from",
          "type": "address"
        },
        {
          "indexed": false,
          "internalType": "uint64",
          "name": "wormholeSequence",
          "type": "uint64"
        },
        {
          "indexed": false,
          "internalType": "address",
          "name": "token",
          "type": "address"
        },
        {
          "indexed": false,
          "internalType": "uint256",
          "name": "amount",
          "type": "uint256"
        }
      ],
      "name": "ReceiveAndSwap",
      "type": "event"
    },
    {
      "anonymous": false,
      "inputs": [
        {
          "indexed": true,
          "internalType": "address",
          "name": "from",
          "type": "address"
        },
        {
          "indexed": false,
          "internalType": "uint64",
          "name": "wormholeSequence",
          "type": "uint64"
        },
        {
          "indexed": false,
          "internalType": "address",
          "name": "token",
          "type": "address"
        },
        {
          "indexed": false,
          "internalType": "uint256",
          "name": "inputAmount",
          "type": "uint256"
        }
      ],
      "name": "SwapAndTransfer",
      "type": "event"
    },
    {
      "anonymous": false,
      "inputs": [
        {
          "indexed": true,
          "internalType": "uint16",
          "name": "tokenId",
          "type": "uint16"
        },
        {
          "indexed": true,
          "internalType": "address",
          "name": "tokenContract",
          "type": "address"
        },
        {
          "indexed": false,
          "internalType": "address",
          "name": "chainPool",
          "type": "address"
        }
      ],
      "name": "TokenRegistered",
      "type": "event"
    },
    {
      "anonymous": false,
      "inputs": [
        {
          "indexed": false,
          "internalType": "address",
          "name": "account",
          "type": "address"
        }
      ],
      "name": "Unpaused",
      "type": "event"
    },
    {
      "anonymous": false,
      "inputs": [
        {
          "indexed": true,
          "internalType": "address",
          "name": "implementation",
          "type": "address"
        }
      ],
      "name": "Upgraded",
      "type": "event"
    },
    {
      "inputs": [
        {
          "internalType": "address[]",
          "name": "poolAddresses",
          "type": "address[]"
        }
      ],
      "name": "getPoolStates",
      "outputs": [
        {
          "components": [
            {
              "internalType": "bool",
              "name": "paused",
              "type": "bool"
            },
            {
              "components": [
                {
                  "internalType": "address",
                  "name": "tokenAddres",
                  "type": "address"
                },
                {
                  "internalType": "uint256",
                  "name": "balance",
                  "type": "uint256"
                }
              ],
              "internalType": "struct TokenBalance[]",
              "name": "balances",
              "type": "tuple[]"
            },
            {
              "components": [
                {
                  "internalType": "address",
                  "name": "tokenAddres",
                  "type": "address"
                },
                {
                  "internalType": "uint256",
                  "name": "balance",
                  "type": "uint256"
                }
              ],
              "internalType": "struct TokenBalance",
              "name": "totalLPSupply",
              "type": "tuple"
            },
            {
              "components": [
                {
                  "internalType": "uint256",
                  "name": "value",
                  "type": "uint256"
                },
                {
                  "internalType": "uint8",
                  "name": "decimals",
                  "type": "uint8"
                }
              ],
              "internalType": "struct Decimal",
              "name": "ampFactor",
              "type": "tuple"
            },
            {
              "components": [
                {
                  "internalType": "uint256",
                  "name": "value",
                  "type": "uint256"
                },
                {
                  "internalType": "uint8",
                  "name": "decimals",
                  "type": "uint8"
                }
              ],
              "internalType": "struct Decimal",
              "name": "lpFee",
              "type": "tuple"
            },
            {
              "components": [
                {
                  "internalType": "uint256",
                  "name": "value",
                  "type": "uint256"
                },
                {
                  "internalType": "uint8",
                  "name": "decimals",
                  "type": "uint8"
                }
              ],
              "internalType": "struct Decimal",
              "name": "governanceFee",
              "type": "tuple"
            }
          ],
          "internalType": "struct PoolState[]",
          "name": "",
          "type": "tuple[]"
        }
      ],
      "stateMutability": "view",
      "type": "function"
    },
    {
      "inputs": [
        {
          "internalType": "address",
          "name": "tokenBridgeAddress",
          "type": "address"
        }
      ],
      "name": "initialize",
      "outputs": [],
      "stateMutability": "nonpayable",
      "type": "function"
    },
    {
      "inputs": [
        {
          "internalType": "address",
          "name": "fromToken",
          "type": "address"
        },
        {
          "internalType": "uint256",
          "name": "inputAmount",
          "type": "uint256"
        },
        {
          "internalType": "address",
          "name": "toOwner",
          "type": "address"
        },
        {
          "internalType": "address",
          "name": "toToken",
          "type": "address"
        },
        {
          "internalType": "uint256",
          "name": "minimumOutputAmount",
          "type": "uint256"
        }
      ],
      "name": "onChainSwap",
      "outputs": [
        {
          "internalType": "uint256",
          "name": "outputAmount",
          "type": "uint256"
        }
      ],
      "stateMutability": "payable",
      "type": "function"
    },
    {
      "inputs": [],
      "name": "owner",
      "outputs": [
        {
          "internalType": "address",
          "name": "",
          "type": "address"
        }
      ],
      "stateMutability": "view",
      "type": "function"
    },
    {
      "inputs": [],
      "name": "pause",
      "outputs": [],
      "stateMutability": "nonpayable",
      "type": "function"
    },
    {
      "inputs": [],
      "name": "paused",
      "outputs": [
        {
          "internalType": "bool",
          "name": "",
          "type": "bool"
        }
      ],
      "stateMutability": "view",
      "type": "function"
    },
    {
      "inputs": [],
      "name": "proxiableUUID",
      "outputs": [
        {
          "internalType": "bytes32",
          "name": "",
          "type": "bytes32"
        }
      ],
      "stateMutability": "view",
      "type": "function"
    },
    {
      "inputs": [
        {
          "internalType": "bytes",
          "name": "encodedVm",
          "type": "bytes"
        },
        {
          "internalType": "address",
          "name": "toToken",
          "type": "address"
        },
        {
          "internalType": "uint256",
          "name": "minimumOutputAmount",
          "type": "uint256"
        }
      ],
      "name": "receiveAndSwap",
      "outputs": [
        {
          "internalType": "uint256",
          "name": "outputAmount",
          "type": "uint256"
        },
        {
          "internalType": "address",
          "name": "outputToken",
          "type": "address"
        }
      ],
      "stateMutability": "nonpayable",
      "type": "function"
    },
    {
      "inputs": [
        {
          "internalType": "bytes",
          "name": "encodedVm",
          "type": "bytes"
        }
      ],
      "name": "receiveAndSwap",
      "outputs": [
        {
          "internalType": "uint256",
          "name": "outputAmount",
          "type": "uint256"
        },
        {
          "internalType": "address",
          "name": "outputToken",
          "type": "address"
        }
      ],
      "stateMutability": "nonpayable",
      "type": "function"
    },
    {
      "inputs": [
        {
          "internalType": "uint16",
          "name": "tokenNumber",
          "type": "uint16"
        },
        {
          "internalType": "address",
          "name": "tokenAddress",
          "type": "address"
        },
        {
          "internalType": "address",
          "name": "poolAddress",
          "type": "address"
        },
        {
          "internalType": "uint8",
          "name": "tokenIndexInPool",
          "type": "uint8"
        }
      ],
      "name": "registerToken",
      "outputs": [],
      "stateMutability": "nonpayable",
      "type": "function"
    },
    {
      "inputs": [],
      "name": "renounceOwnership",
      "outputs": [],
      "stateMutability": "nonpayable",
      "type": "function"
    },
    {
      "inputs": [
        {
          "internalType": "address",
          "name": "fromToken",
          "type": "address"
        },
        {
          "internalType": "uint256",
          "name": "inputAmount",
          "type": "uint256"
        },
        {
          "internalType": "uint256",
          "name": "firstMinimumOutputAmount",
          "type": "uint256"
        },
        {
          "internalType": "uint16",
          "name": "wormholeRecipientChain",
          "type": "uint16"
        },
        {
          "internalType": "bytes32",
          "name": "toOwner",
          "type": "bytes32"
        }
      ],
      "name": "swapAndTransfer",
      "outputs": [
        {
          "internalType": "uint64",
          "name": "wormholeSequence",
          "type": "uint64"
        }
      ],
      "stateMutability": "payable",
      "type": "function"
    },
    {
      "inputs": [],
      "name": "swimUsdAddress",
      "outputs": [
        {
          "internalType": "address",
          "name": "",
          "type": "address"
        }
      ],
      "stateMutability": "view",
      "type": "function"
    },
    {
      "inputs": [],
      "name": "tokenBridge",
      "outputs": [
        {
          "internalType": "contract ITokenBridge",
          "name": "",
          "type": "address"
        }
      ],
      "stateMutability": "view",
      "type": "function"
    },
    {
      "inputs": [
        {
          "internalType": "address",
          "name": "newOwner",
          "type": "address"
        }
      ],
      "name": "transferOwnership",
      "outputs": [],
      "stateMutability": "nonpayable",
      "type": "function"
    },
    {
      "inputs": [],
      "name": "unpause",
      "outputs": [],
      "stateMutability": "nonpayable",
      "type": "function"
    },
    {
      "inputs": [
        {
          "internalType": "address",
          "name": "newImplementation",
          "type": "address"
        }
      ],
      "name": "upgradeTo",
      "outputs": [],
      "stateMutability": "nonpayable",
      "type": "function"
    },
    {
      "inputs": [
        {
          "internalType": "address",
          "name": "newImplementation",
          "type": "address"
        },
        {
          "internalType": "bytes",
          "name": "data",
          "type": "bytes"
        }
      ],
      "name": "upgradeToAndCall",
      "outputs": [],
      "stateMutability": "payable",
      "type": "function"
    },
    {
      "inputs": [],
      "name": "wormhole",
      "outputs": [
        {
          "internalType": "contract IWormhole",
          "name": "",
          "type": "address"
        }
      ],
      "stateMutability": "view",
      "type": "function"
    }
  ],
  "transactionHash": "0xae71b6e0cac1d36edea290cbf41ee9071ca49e4995518a84e2ddd32765b59e4c",
  "args": [],
  "numDeployments": 1,
  "solcInputHash": "d4d7bf844a817be9e744e431f4f7a8aa",
  "bytecode": "0x60a06040523060805234801561001457600080fd5b5060805161426e61004c60003960008181610438015281816104ed01528181610a8501528181610b350152610c7e015261426e6000f3fe6080604052600436106101445760003560e01c806384acd1bb116100c0578063c6328a4611610074578063f2fde38b11610059578063f2fde38b146103cd578063f6bf28b5146103ed578063fe4bc67a1461040d57600080fd5b8063c6328a4614610355578063cd5af9ae1461038357600080fd5b8063a174e5b7116100a5578063a174e5b7146102d3578063b1719a5714610309578063c4d66de81461033557600080fd5b806384acd1bb146102555780638da5cb5b146102a857600080fd5b806352d1902d116101175780636bde354a116100fc5780636bde354a146101fe578063715018a61461022b5780638456cb591461024057600080fd5b806352d1902d146101b35780635c975abb146101db57600080fd5b80633659cfe6146101495780633954802a1461016b5780633f4ba83a1461018b5780634f1ef286146101a0575b600080fd5b34801561015557600080fd5b506101696101643660046135aa565b610420565b005b34801561017757600080fd5b506101696101863660046135e6565b61062b565b34801561019757600080fd5b50610169610a5b565b6101696101ae3660046137ef565b610a6d565b3480156101bf57600080fd5b506101c8610c64565b6040519081526020015b60405180910390f35b3480156101e757600080fd5b5060335460ff1660405190151581526020016101d2565b34801561020a57600080fd5b5061021e610219366004613863565b610d50565b6040516101d291906138f2565b34801561023757600080fd5b50610169610ea8565b34801561024c57600080fd5b50610169610eba565b34801561026157600080fd5b5061012f546102839073ffffffffffffffffffffffffffffffffffffffff1681565b60405173ffffffffffffffffffffffffffffffffffffffff90911681526020016101d2565b3480156102b457600080fd5b5060655473ffffffffffffffffffffffffffffffffffffffff16610283565b3480156102df57600080fd5b5061012d5461028390640100000000900473ffffffffffffffffffffffffffffffffffffffff1681565b61031c610317366004613a64565b610eca565b60405167ffffffffffffffff90911681526020016101d2565b34801561034157600080fd5b506101696103503660046135aa565b6112c7565b34801561036157600080fd5b5061012e546102839073ffffffffffffffffffffffffffffffffffffffff1681565b34801561038f57600080fd5b506103a361039e366004613ab6565b61167c565b6040805192835273ffffffffffffffffffffffffffffffffffffffff9091166020830152016101d2565b3480156103d957600080fd5b506101696103e83660046135aa565b611814565b3480156103f957600080fd5b506103a3610408366004613b10565b6118c8565b6101c861041b366004613b45565b6119ee565b3073ffffffffffffffffffffffffffffffffffffffff7f00000000000000000000000000000000000000000000000000000000000000001614156104eb576040517f08c379a000000000000000000000000000000000000000000000000000000000815260206004820152602c60248201527f46756e6374696f6e206d7573742062652063616c6c6564207468726f7567682060448201527f64656c656761746563616c6c000000000000000000000000000000000000000060648201526084015b60405180910390fd5b7f000000000000000000000000000000000000000000000000000000000000000073ffffffffffffffffffffffffffffffffffffffff166105607f360894a13ba1a3210667c828492db98dca3e2076cc3735a920a3ca505d382bbc5473ffffffffffffffffffffffffffffffffffffffff1690565b73ffffffffffffffffffffffffffffffffffffffff1614610603576040517f08c379a000000000000000000000000000000000000000000000000000000000815260206004820152602c60248201527f46756e6374696f6e206d7573742062652063616c6c6564207468726f7567682060448201527f6163746976652070726f7879000000000000000000000000000000000000000060648201526084016104e2565b61060c81611cbe565b6040805160008082526020820190925261062891839190611cc6565b50565b610633611ed9565b600061013060008661ffff1661ffff1681526020019081526020016000206040518060800160405290816000820160009054906101000a900461ffff1661ffff1661ffff1681526020016000820160029054906101000a900473ffffffffffffffffffffffffffffffffffffffff1673ffffffffffffffffffffffffffffffffffffffff1673ffffffffffffffffffffffffffffffffffffffff1681526020016001820160009054906101000a900473ffffffffffffffffffffffffffffffffffffffff1673ffffffffffffffffffffffffffffffffffffffff1673ffffffffffffffffffffffffffffffffffffffff1681526020016001820160149054906101000a900460ff1660ff1660ff1681525050905084816000019061ffff16908161ffff168152505083816020019073ffffffffffffffffffffffffffffffffffffffff16908173ffffffffffffffffffffffffffffffffffffffff168152505082816040019073ffffffffffffffffffffffffffffffffffffffff16908173ffffffffffffffffffffffffffffffffffffffff168152505081816060019060ff16908160ff16815250508061013060008761ffff1661ffff16815260200190815260200160002060008201518160000160006101000a81548161ffff021916908361ffff16021790555060208201518160000160026101000a81548173ffffffffffffffffffffffffffffffffffffffff021916908373ffffffffffffffffffffffffffffffffffffffff16021790555060408201518160010160006101000a81548173ffffffffffffffffffffffffffffffffffffffff021916908373ffffffffffffffffffffffffffffffffffffffff16021790555060608201518160010160146101000a81548160ff021916908360ff1602179055509050508061013160008673ffffffffffffffffffffffffffffffffffffffff1673ffffffffffffffffffffffffffffffffffffffff16815260200190815260200160002060008201518160000160006101000a81548161ffff021916908361ffff16021790555060208201518160000160026101000a81548173ffffffffffffffffffffffffffffffffffffffff021916908373ffffffffffffffffffffffffffffffffffffffff16021790555060408201518160010160006101000a81548173ffffffffffffffffffffffffffffffffffffffff021916908373ffffffffffffffffffffffffffffffffffffffff16021790555060608201518160010160146101000a81548160ff021916908360ff1602179055509050508373ffffffffffffffffffffffffffffffffffffffff168561ffff167f639dd7678d262a54d13718f5d54a4cf4c9289b611fee8ea5cc905c1518157e0685604051610a4c919073ffffffffffffffffffffffffffffffffffffffff91909116815260200190565b60405180910390a35050505050565b610a63611ed9565b610a6b611f5a565b565b3073ffffffffffffffffffffffffffffffffffffffff7f0000000000000000000000000000000000000000000000000000000000000000161415610b33576040517f08c379a000000000000000000000000000000000000000000000000000000000815260206004820152602c60248201527f46756e6374696f6e206d7573742062652063616c6c6564207468726f7567682060448201527f64656c656761746563616c6c000000000000000000000000000000000000000060648201526084016104e2565b7f000000000000000000000000000000000000000000000000000000000000000073ffffffffffffffffffffffffffffffffffffffff16610ba87f360894a13ba1a3210667c828492db98dca3e2076cc3735a920a3ca505d382bbc5473ffffffffffffffffffffffffffffffffffffffff1690565b73ffffffffffffffffffffffffffffffffffffffff1614610c4b576040517f08c379a000000000000000000000000000000000000000000000000000000000815260206004820152602c60248201527f46756e6374696f6e206d7573742062652063616c6c6564207468726f7567682060448201527f6163746976652070726f7879000000000000000000000000000000000000000060648201526084016104e2565b610c5482611cbe565b610c6082826001611cc6565b5050565b60003073ffffffffffffffffffffffffffffffffffffffff7f00000000000000000000000000000000000000000000000000000000000000001614610d2b576040517f08c379a000000000000000000000000000000000000000000000000000000000815260206004820152603860248201527f555550535570677261646561626c653a206d757374206e6f742062652063616c60448201527f6c6564207468726f7567682064656c656761746563616c6c000000000000000060648201526084016104e2565b507f360894a13ba1a3210667c828492db98dca3e2076cc3735a920a3ca505d382bbc90565b805160609060008167ffffffffffffffff811115610d7057610d70613642565b604051908082528060200260200182016040528015610da957816020015b610d966134c6565b815260200190600190039081610d8e5790505b50905060005b82811015610ea057848181518110610dc957610dc9613b8f565b602002602001015173ffffffffffffffffffffffffffffffffffffffff16631865c57d6040518163ffffffff1660e01b815260040160006040518083038186803b158015610e1657600080fd5b505afa158015610e2a573d6000803e3d6000fd5b505050506040513d6000823e601f3d9081017fffffffffffffffffffffffffffffffffffffffffffffffffffffffffffffffe0168201604052610e709190810190613c52565b828281518110610e8257610e82613b8f565b60200260200101819052508080610e9890613da8565b915050610daf565b509392505050565b610eb0611ed9565b610a6b6000611fd7565b610ec2611ed9565b610a6b61204e565b6000610ed46120a9565b600080610ee088612116565b91509150610eee88886121d2565b61012d54879073ffffffffffffffffffffffffffffffffffffffff8a81166401000000009092041614610fe057610f26838a8a6121f4565b6040517fdc163d4e0000000000000000000000000000000000000000000000000000000081526004810189905260ff83166024820152600060448201526064810188905273ffffffffffffffffffffffffffffffffffffffff84169063dc163d4e90608401602060405180830381600087803b158015610fa557600080fd5b505af1158015610fb9573d6000803e3d6000fd5b505050506040513d601f19601f82011682018060405250810190610fdd9190613de1565b90505b61012e5461012d546110149173ffffffffffffffffffffffffffffffffffffffff90811691640100000000900416836121f4565b61ffff8616600114156111085761012e5461012d546040517f0f5287b000000000000000000000000000000000000000000000000000000000815273ffffffffffffffffffffffffffffffffffffffff64010000000083048116600483015260248201859052600160448301526064820189905260006084830181905263ffffffff90931660a483015291929190911690630f5287b09060c401602060405180830381600087803b1580156110c857600080fd5b505af11580156110dc573d6000803e3d6000fd5b505050506040513d601f19601f820116820180604052508101906111009190613e12565b945050611223565b600061115386604080517f0100000000000000000000000000000000000000000000000000000000000000602082015260218082019390935281518082039093018352604101905290565b61012e5461012d546040517fc5a5ebda000000000000000000000000000000000000000000000000000000008152929350309273ffffffffffffffffffffffffffffffffffffffff9283169263c5a5ebda926111cc9264010000000082049092169188918e91889163ffffffff16908a90600401613ea3565b602060405180830381600087803b1580156111e657600080fd5b505af11580156111fa573d6000803e3d6000fd5b505050506040513d601f19601f8201168201806040525081019061121e9190613e12565b955050505b61012d805460009061123a9063ffffffff16613f00565b825463ffffffff9182166101009390930a92830291909202199091161790556040805167ffffffffffffffff8616815273ffffffffffffffffffffffffffffffffffffffff8b16602082015290810189905233907f3d75c465c33301aa387417fd1ee8a2d936ac3157c21ac3eccbd830b1a4609faa9060600160405180910390a250505095945050505050565b600054610100900460ff16158080156112e75750600054600160ff909116105b806113015750303b158015611301575060005460ff166001145b61138d576040517f08c379a000000000000000000000000000000000000000000000000000000000815260206004820152602e60248201527f496e697469616c697a61626c653a20636f6e747261637420697320616c72656160448201527f647920696e697469616c697a656400000000000000000000000000000000000060648201526084016104e2565b600080547fffffffffffffffffffffffffffffffffffffffffffffffffffffffffffffff0016600117905580156113eb57600080547fffffffffffffffffffffffffffffffffffffffffffffffffffffffffffff00ff166101001790555b6113f3612215565b6113fb6122b4565b611403612353565b61140b6123ea565b61012d80547fffffffffffffffffffffffffffffffffffffffffffffffffffffffff0000000016905561012e80547fffffffffffffffffffffffff00000000000000000000000000000000000000001673ffffffffffffffffffffffffffffffffffffffff8416908117909155604080517f84acd1bb00000000000000000000000000000000000000000000000000000000815290516384acd1bb91600480820192602092909190829003018186803b1580156114c757600080fd5b505afa1580156114db573d6000803e3d6000fd5b505050506040513d601f19601f820116820180604052508101906114ff9190613f24565b61012f80547fffffffffffffffffffffffff00000000000000000000000000000000000000001673ffffffffffffffffffffffffffffffffffffffff92831617905561012e546040517f1ff1e2860000000000000000000000000000000000000000000000000000000081526001600482015260006024820152911690631ff1e2869060440160206040518083038186803b15801561159d57600080fd5b505afa1580156115b1573d6000803e3d6000fd5b505050506040513d601f19601f820116820180604052508101906115d59190613f24565b61012d60046101000a81548173ffffffffffffffffffffffffffffffffffffffff021916908373ffffffffffffffffffffffffffffffffffffffff1602179055508015610c6057600080547fffffffffffffffffffffffffffffffffffffffffffffffffffffffffffff00ff169055604051600181527f7f26b83ff96e1f2b6a682f133852f6798a09c465da95921460cefb38474024989060200160405180910390a15050565b6000806116876120a9565b61012e546040517fc3f511c100000000000000000000000000000000000000000000000000000000815260009173ffffffffffffffffffffffffffffffffffffffff169063c3f511c1906116df908990600401613f41565b600060405180830381600087803b1580156116f957600080fd5b505af115801561170d573d6000803e3d6000fd5b505050506040513d6000823e601f3d9081017fffffffffffffffffffffffffffffffffffffffffffffffffffffffffffffffe01682016040526117539190810190613f99565b905061175e81612489565b611767816124f5565b73ffffffffffffffffffffffffffffffffffffffff163373ffffffffffffffffffffffffffffffffffffffff16146117fb576040517fa2bd777200000000000000000000000000000000000000000000000000000000815260206004820152601860248201527f53656e646572206973206e6f7420746865206f776e657221000000000000000060448201526064016104e2565b6118078633878761250a565b9250925050935093915050565b61181c611ed9565b73ffffffffffffffffffffffffffffffffffffffff81166118bf576040517f08c379a000000000000000000000000000000000000000000000000000000000815260206004820152602660248201527f4f776e61626c653a206e6577206f776e657220697320746865207a65726f206160448201527f646472657373000000000000000000000000000000000000000000000000000060648201526084016104e2565b61062881611fd7565b6000806118d36120a9565b61012e546040517fc3f511c100000000000000000000000000000000000000000000000000000000815260009173ffffffffffffffffffffffffffffffffffffffff169063c3f511c19061192b908790600401613f41565b600060405180830381600087803b15801561194557600080fd5b505af1158015611959573d6000803e3d6000fd5b505050506040513d6000823e601f3d9081017fffffffffffffffffffffffffffffffffffffffffffffffffffffffffffffffe016820160405261199f9190810190613f99565b90506119aa81612489565b60006119b5826124f5565b90506000806119c38461287e565b9150915060006119d2836128e4565b90506119e08885838561250a565b965096505050505050915091565b60006119f86120a9565b600080611a0488612116565b91509150600080611a1487612116565b91509150611a228a8a6121d2565b61012d5489955073ffffffffffffffffffffffffffffffffffffffff8b81166401000000009092041614611b1557611a5b848b8b6121f4565b6040517fdc163d4e000000000000000000000000000000000000000000000000000000008152600481018a905260ff84166024820152600060448201819052606482015273ffffffffffffffffffffffffffffffffffffffff85169063dc163d4e90608401602060405180830381600087803b158015611ada57600080fd5b505af1158015611aee573d6000803e3d6000fd5b505050506040513d601f19601f82011682018060405250810190611b129190613de1565b94505b61012d5473ffffffffffffffffffffffffffffffffffffffff8881166401000000009092041614611c285761012d54611b6e908390640100000000900473ffffffffffffffffffffffffffffffffffffffff16876121f4565b6040517fdc163d4e000000000000000000000000000000000000000000000000000000008152600481018690526000602482015260ff821660448201526064810187905273ffffffffffffffffffffffffffffffffffffffff83169063dc163d4e90608401602060405180830381600087803b158015611bed57600080fd5b505af1158015611c01573d6000803e3d6000fd5b505050506040513d601f19601f82011682018060405250810190611c259190613de1565b94505b611c33878987612968565b8673ffffffffffffffffffffffffffffffffffffffff168a73ffffffffffffffffffffffffffffffffffffffff168973ffffffffffffffffffffffffffffffffffffffff167ff2e2a58c01dc9b89916a15f9d426d4df34390782f1fc1786a7ae826bc414abd988604051611ca991815260200190565b60405180910390a45050505095945050505050565b610628611ed9565b7f4910fdfa16fed3260ed0e7147f7cc6da11a60208b5b9406d12a635614ffd91435460ff1615611cfe57611cf983612989565b505050565b8273ffffffffffffffffffffffffffffffffffffffff166352d1902d6040518163ffffffff1660e01b815260040160206040518083038186803b158015611d4457600080fd5b505afa925050508015611d92575060408051601f3d9081017fffffffffffffffffffffffffffffffffffffffffffffffffffffffffffffffe0168201909252611d8f91810190613de1565b60015b611e1e576040517f08c379a000000000000000000000000000000000000000000000000000000000815260206004820152602e60248201527f45524331393637557067726164653a206e657720696d706c656d656e7461746960448201527f6f6e206973206e6f74205555505300000000000000000000000000000000000060648201526084016104e2565b7f360894a13ba1a3210667c828492db98dca3e2076cc3735a920a3ca505d382bbc8114611ecd576040517f08c379a000000000000000000000000000000000000000000000000000000000815260206004820152602960248201527f45524331393637557067726164653a20756e737570706f727465642070726f7860448201527f6961626c6555554944000000000000000000000000000000000000000000000060648201526084016104e2565b50611cf9838383612a93565b60655473ffffffffffffffffffffffffffffffffffffffff163314610a6b576040517f08c379a000000000000000000000000000000000000000000000000000000000815260206004820181905260248201527f4f776e61626c653a2063616c6c6572206973206e6f7420746865206f776e657260448201526064016104e2565b611f62612abe565b603380547fffffffffffffffffffffffffffffffffffffffffffffffffffffffffffffff001690557f5db9ee0a495bf2e6ff9c91a7834c1ba4fdd244a5e8aa4e537bd38aeae4b073aa335b60405173ffffffffffffffffffffffffffffffffffffffff909116815260200160405180910390a1565b6065805473ffffffffffffffffffffffffffffffffffffffff8381167fffffffffffffffffffffffff0000000000000000000000000000000000000000831681179093556040519116919082907f8be0079c531659141344cd1fd0a4f28419497f9722a3daafe3b4186f6b6457e090600090a35050565b6120566120a9565b603380547fffffffffffffffffffffffffffffffffffffffffffffffffffffffffffffff001660011790557f62e78cea01bee320cd4e420270b5ea74000d11b0c9f74754ebdbfc544b05a258611fad3390565b60335460ff1615610a6b576040517f08c379a000000000000000000000000000000000000000000000000000000000815260206004820152601060248201527f5061757361626c653a207061757365640000000000000000000000000000000060448201526064016104e2565b73ffffffffffffffffffffffffffffffffffffffff80821660009081526101316020526040812060018101549192839216806121a6576040517f8de147840000000000000000000000000000000000000000000000000000000081527fffffffffffffffffffffffffffffffffffffffff000000000000000000000000606087901b1660048201526024016104e2565b6001919091015490947401000000000000000000000000000000000000000090910460ff169350915050565b610c6073ffffffffffffffffffffffffffffffffffffffff8316333084612b2a565b611cf973ffffffffffffffffffffffffffffffffffffffff83168483612c06565b600054610100900460ff166122ac576040517f08c379a000000000000000000000000000000000000000000000000000000000815260206004820152602b60248201527f496e697469616c697a61626c653a20636f6e7472616374206973206e6f74206960448201527f6e697469616c697a696e6700000000000000000000000000000000000000000060648201526084016104e2565b610a6b612d97565b600054610100900460ff1661234b576040517f08c379a000000000000000000000000000000000000000000000000000000000815260206004820152602b60248201527f496e697469616c697a61626c653a20636f6e7472616374206973206e6f74206960448201527f6e697469616c697a696e6700000000000000000000000000000000000000000060648201526084016104e2565b610a6b612e58565b600054610100900460ff16610a6b576040517f08c379a000000000000000000000000000000000000000000000000000000000815260206004820152602b60248201527f496e697469616c697a61626c653a20636f6e7472616374206973206e6f74206960448201527f6e697469616c697a696e6700000000000000000000000000000000000000000060648201526084016104e2565b600054610100900460ff16612481576040517f08c379a000000000000000000000000000000000000000000000000000000000815260206004820152602b60248201527f496e697469616c697a61626c653a20636f6e7472616374206973206e6f74206960448201527f6e697469616c697a696e6700000000000000000000000000000000000000000060648201526084016104e2565b610a6b612ef8565b61249e8161249960016000613fce565b612f96565b600160ff16816000815181106124b6576124b6613b8f565b016020015160f81c14610628576040517fa9146eeb00000000000000000000000000000000000000000000000000000000815260040160405180910390fd5b6000612502826021612f96565b506021015190565b60008060008061251986612116565b61012d546040517f70a0823100000000000000000000000000000000000000000000000000000000815230600482015292945090925060009164010000000090910473ffffffffffffffffffffffffffffffffffffffff16906370a082319060240160206040518083038186803b15801561259357600080fd5b505afa1580156125a7573d6000803e3d6000fd5b505050506040513d601f19601f820116820180604052508101906125cb9190613de1565b61012d5487965088955090915073ffffffffffffffffffffffffffffffffffffffff80861664010000000090920416146127315761012d5461262d908490640100000000900473ffffffffffffffffffffffffffffffffffffffff16836121f4565b6040517fdc163d4e000000000000000000000000000000000000000000000000000000008152600481018290526000602482015260ff831660448201526064810187905273ffffffffffffffffffffffffffffffffffffffff84169063dc163d4e90608401602060405180830381600087803b1580156126ac57600080fd5b505af19250505080156126fa575060408051601f3d9081017fffffffffffffffffffffffffffffffffffffffffffffffffffffffffffffffe01682019092526126f791810190613de1565b60015b61272b5761012d54909450640100000000900473ffffffffffffffffffffffffffffffffffffffff16925083612731565b94508693505b61273c878987612968565b61012f546040517fa9e1189300000000000000000000000000000000000000000000000000000000815260009173ffffffffffffffffffffffffffffffffffffffff169063a9e1189390612794908d90600401613f41565b60006040518083038186803b1580156127ac57600080fd5b505afa1580156127c0573d6000803e3d6000fd5b505050506040513d6000823e601f3d9081017fffffffffffffffffffffffffffffffffffffffffffffffffffffffffffffffe016820160405261280691908101906140b5565b60a001516040805167ffffffffffffffff8316815273ffffffffffffffffffffffffffffffffffffffff88811660208301529181018990529192508a16907f9634e0407482c730e10f73eecc33308988a787cbb548b5585ff97fdebf9fd3cd9060600160405180910390a25050505094509492505050565b60008061288c836043612f96565b8251600090849060229081106128a4576128a4613b8f565b0160200151845160f89190911c90600890869060219081106128c8576128c8613b8f565b01602001516043969096015160f89690961c901b019492505050565b61ffff81166000908152610130602052604081205462010000900473ffffffffffffffffffffffffffffffffffffffff1680612962576040517f8de147840000000000000000000000000000000000000000000000000000000081526dffff000000000000000000000000606085901b1660048201526024016104e2565b92915050565b611cf973ffffffffffffffffffffffffffffffffffffffff84168383612fd1565b73ffffffffffffffffffffffffffffffffffffffff81163b612a2d576040517f08c379a000000000000000000000000000000000000000000000000000000000815260206004820152602d60248201527f455243313936373a206e657720696d706c656d656e746174696f6e206973206e60448201527f6f74206120636f6e74726163740000000000000000000000000000000000000060648201526084016104e2565b7f360894a13ba1a3210667c828492db98dca3e2076cc3735a920a3ca505d382bbc80547fffffffffffffffffffffffff00000000000000000000000000000000000000001673ffffffffffffffffffffffffffffffffffffffff92909216919091179055565b612a9c83613027565b600082511180612aa95750805b15611cf957612ab88383613074565b50505050565b60335460ff16610a6b576040517f08c379a000000000000000000000000000000000000000000000000000000000815260206004820152601460248201527f5061757361626c653a206e6f742070617573656400000000000000000000000060448201526064016104e2565b60405173ffffffffffffffffffffffffffffffffffffffff80851660248301528316604482015260648101829052612ab89085907f23b872dd00000000000000000000000000000000000000000000000000000000906084015b604080517fffffffffffffffffffffffffffffffffffffffffffffffffffffffffffffffe08184030181529190526020810180517bffffffffffffffffffffffffffffffffffffffffffffffffffffffff167fffffffff00000000000000000000000000000000000000000000000000000000909316929092179091526131b3565b801580612cb557506040517fdd62ed3e00000000000000000000000000000000000000000000000000000000815230600482015273ffffffffffffffffffffffffffffffffffffffff838116602483015284169063dd62ed3e9060440160206040518083038186803b158015612c7b57600080fd5b505afa158015612c8f573d6000803e3d6000fd5b505050506040513d601f19601f82011682018060405250810190612cb39190613de1565b155b612d41576040517f08c379a000000000000000000000000000000000000000000000000000000000815260206004820152603660248201527f5361666545524332303a20617070726f76652066726f6d206e6f6e2d7a65726f60448201527f20746f206e6f6e2d7a65726f20616c6c6f77616e63650000000000000000000060648201526084016104e2565b60405173ffffffffffffffffffffffffffffffffffffffff8316602482015260448101829052611cf99084907f095ea7b30000000000000000000000000000000000000000000000000000000090606401612b84565b600054610100900460ff16612e2e576040517f08c379a000000000000000000000000000000000000000000000000000000000815260206004820152602b60248201527f496e697469616c697a61626c653a20636f6e7472616374206973206e6f74206960448201527f6e697469616c697a696e6700000000000000000000000000000000000000000060648201526084016104e2565b603380547fffffffffffffffffffffffffffffffffffffffffffffffffffffffffffffff00169055565b600054610100900460ff16612eef576040517f08c379a000000000000000000000000000000000000000000000000000000000815260206004820152602b60248201527f496e697469616c697a61626c653a20636f6e7472616374206973206e6f74206960448201527f6e697469616c697a696e6700000000000000000000000000000000000000000060648201526084016104e2565b610a6b33611fd7565b600054610100900460ff16612f8f576040517f08c379a000000000000000000000000000000000000000000000000000000000815260206004820152602b60248201527f496e697469616c697a61626c653a20636f6e7472616374206973206e6f74206960448201527f6e697469616c697a696e6700000000000000000000000000000000000000000060648201526084016104e2565b6001609755565b8082511015610c60576040517f82e6504400000000000000000000000000000000000000000000000000000000815260040160405180910390fd5b60405173ffffffffffffffffffffffffffffffffffffffff8316602482015260448101829052611cf99084907fa9059cbb0000000000000000000000000000000000000000000000000000000090606401612b84565b61303081612989565b60405173ffffffffffffffffffffffffffffffffffffffff8216907fbc7cd75a20ee27fd9adebab32041f755214dbc6bffa90cc0225b39da2e5c2d3b90600090a250565b606073ffffffffffffffffffffffffffffffffffffffff83163b61311a576040517f08c379a000000000000000000000000000000000000000000000000000000000815260206004820152602660248201527f416464726573733a2064656c65676174652063616c6c20746f206e6f6e2d636f60448201527f6e7472616374000000000000000000000000000000000000000000000000000060648201526084016104e2565b6000808473ffffffffffffffffffffffffffffffffffffffff168460405161314291906141da565b600060405180830381855af49150503d806000811461317d576040519150601f19603f3d011682016040523d82523d6000602084013e613182565b606091505b50915091506131aa8282604051806060016040528060278152602001614212602791396132bf565b95945050505050565b6000613215826040518060400160405280602081526020017f5361666545524332303a206c6f772d6c6576656c2063616c6c206661696c65648152508573ffffffffffffffffffffffffffffffffffffffff166133199092919063ffffffff16565b805190915015611cf9578080602001905181019061323391906141f6565b611cf9576040517f08c379a000000000000000000000000000000000000000000000000000000000815260206004820152602a60248201527f5361666545524332303a204552433230206f7065726174696f6e20646964206e60448201527f6f7420737563636565640000000000000000000000000000000000000000000060648201526084016104e2565b606083156132ce575081613312565b8251156132de5782518084602001fd5b816040517f08c379a00000000000000000000000000000000000000000000000000000000081526004016104e29190613f41565b9392505050565b60606133288484600085613330565b949350505050565b6060824710156133c2576040517f08c379a000000000000000000000000000000000000000000000000000000000815260206004820152602660248201527f416464726573733a20696e73756666696369656e742062616c616e636520666f60448201527f722063616c6c000000000000000000000000000000000000000000000000000060648201526084016104e2565b73ffffffffffffffffffffffffffffffffffffffff85163b613440576040517f08c379a000000000000000000000000000000000000000000000000000000000815260206004820152601d60248201527f416464726573733a2063616c6c20746f206e6f6e2d636f6e747261637400000060448201526064016104e2565b6000808673ffffffffffffffffffffffffffffffffffffffff16858760405161346991906141da565b60006040518083038185875af1925050503d80600081146134a6576040519150601f19603f3d011682016040523d82523d6000602084013e6134ab565b606091505b50915091506134bb8282866132bf565b979650505050505050565b6040518060c00160405280600015158152602001606081526020016135146040518060400160405280600073ffffffffffffffffffffffffffffffffffffffff168152602001600081525090565b8152602001613539604051806040016040528060008152602001600060ff1681525090565b815260200161355e604051806040016040528060008152602001600060ff1681525090565b8152602001613583604051806040016040528060008152602001600060ff1681525090565b905290565b73ffffffffffffffffffffffffffffffffffffffff8116811461062857600080fd5b6000602082840312156135bc57600080fd5b813561331281613588565b61ffff8116811461062857600080fd5b60ff8116811461062857600080fd5b600080600080608085870312156135fc57600080fd5b8435613607816135c7565b9350602085013561361781613588565b9250604085013561362781613588565b91506060850135613637816135d7565b939692955090935050565b7f4e487b7100000000000000000000000000000000000000000000000000000000600052604160045260246000fd5b6040805190810167ffffffffffffffff8111828210171561369457613694613642565b60405290565b60405160c0810167ffffffffffffffff8111828210171561369457613694613642565b6040516080810167ffffffffffffffff8111828210171561369457613694613642565b604051610160810167ffffffffffffffff8111828210171561369457613694613642565b604051601f82017fffffffffffffffffffffffffffffffffffffffffffffffffffffffffffffffe016810167ffffffffffffffff8111828210171561374b5761374b613642565b604052919050565b600067ffffffffffffffff82111561376d5761376d613642565b50601f017fffffffffffffffffffffffffffffffffffffffffffffffffffffffffffffffe01660200190565b600082601f8301126137aa57600080fd5b81356137bd6137b882613753565b613704565b8181528460208386010111156137d257600080fd5b816020850160208301376000918101602001919091529392505050565b6000806040838503121561380257600080fd5b823561380d81613588565b9150602083013567ffffffffffffffff81111561382957600080fd5b61383585828601613799565b9150509250929050565b600067ffffffffffffffff82111561385957613859613642565b5060051b60200190565b6000602080838503121561387657600080fd5b823567ffffffffffffffff81111561388d57600080fd5b8301601f8101851361389e57600080fd5b80356138ac6137b88261383f565b81815260059190911b820183019083810190878311156138cb57600080fd5b928401925b828410156134bb5783356138e381613588565b825292840192908401906138d0565b60006020808301818452808551808352604092508286019150828160051b8701018488016000805b84811015613a55578984037fffffffffffffffffffffffffffffffffffffffffffffffffffffffffffffffc00186528251805115158552888101516101408a870181905281519087018190526101608701918b019085905b808210156139b9576139a5848451805173ffffffffffffffffffffffffffffffffffffffff168252602090810151910152565b928b0192918c019160019190910190613972565b505050888201516139ec8a880182805173ffffffffffffffffffffffffffffffffffffffff168252602090810151910152565b5060608201516080613a0d818901838051825260209081015160ff16910152565b830151805160c089015260209081015160ff90811660e08a015260a09094015180516101008a015201519092166101209096019590955250948701949187019160010161391a565b50919998505050505050505050565b600080600080600060a08688031215613a7c57600080fd5b8535613a8781613588565b945060208601359350604086013592506060860135613aa5816135c7565b949793965091946080013592915050565b600080600060608486031215613acb57600080fd5b833567ffffffffffffffff811115613ae257600080fd5b613aee86828701613799565b9350506020840135613aff81613588565b929592945050506040919091013590565b600060208284031215613b2257600080fd5b813567ffffffffffffffff811115613b3957600080fd5b61332884828501613799565b600080600080600060a08688031215613b5d57600080fd5b8535613b6881613588565b9450602086013593506040860135613b7f81613588565b92506060860135613aa581613588565b7f4e487b7100000000000000000000000000000000000000000000000000000000600052603260045260246000fd5b80518015158114613bce57600080fd5b919050565b600060408284031215613be557600080fd5b613bed613671565b90508151613bfa81613588565b808252506020820151602082015292915050565b8051613bce816135d7565b600060408284031215613c2b57600080fd5b613c33613671565b9050815181526020820151613c47816135d7565b602082015292915050565b60006020808385031215613c6557600080fd5b825167ffffffffffffffff80821115613c7d57600080fd5b908401906101408287031215613c9257600080fd5b613c9a61369a565b613ca383613bbe565b81528383015182811115613cb657600080fd5b83019150601f82018713613cc957600080fd5b8151613cd76137b88261383f565b81815260069190911b83018501908581019089831115613cf657600080fd5b938601935b82851015613d1f57613d0d8a86613bd3565b82528682019150604085019450613cfb565b8387015250613d3390508760408501613bd3565b6040820152613d458760808501613c19565b6060820152613d578760c08501613c19565b6080820152613d6a876101008501613c19565b60a08201529695505050505050565b7f4e487b7100000000000000000000000000000000000000000000000000000000600052601160045260246000fd5b60007fffffffffffffffffffffffffffffffffffffffffffffffffffffffffffffffff821415613dda57613dda613d79565b5060010190565b600060208284031215613df357600080fd5b5051919050565b805167ffffffffffffffff81168114613bce57600080fd5b600060208284031215613e2457600080fd5b61331282613dfa565b60005b83811015613e48578181015183820152602001613e30565b83811115612ab85750506000910152565b60008151808452613e71816020860160208601613e2d565b601f017fffffffffffffffffffffffffffffffffffffffffffffffffffffffffffffffe0169290920160200192915050565b73ffffffffffffffffffffffffffffffffffffffff8716815285602082015261ffff8516604082015283606082015263ffffffff8316608082015260c060a08201526000613ef460c0830184613e59565b98975050505050505050565b600063ffffffff80831681811415613f1a57613f1a613d79565b6001019392505050565b600060208284031215613f3657600080fd5b815161331281613588565b6020815260006133126020830184613e59565b600082601f830112613f6557600080fd5b8151613f736137b882613753565b818152846020838601011115613f8857600080fd5b613328826020830160208701613e2d565b600060208284031215613fab57600080fd5b815167ffffffffffffffff811115613fc257600080fd5b61332884828501613f54565b60008219821115613fe157613fe1613d79565b500190565b805163ffffffff81168114613bce57600080fd5b8051613bce816135c7565b600082601f83011261401657600080fd5b815160206140266137b88361383f565b82815260079290921b8401810191818101908684111561404557600080fd5b8286015b848110156140aa57608081890312156140625760008081fd5b61406a6136bd565b815181528482015185820152604080830151614085816135d7565b90820152606082810151614098816135d7565b90820152835291830191608001614049565b509695505050505050565b6000602082840312156140c757600080fd5b815167ffffffffffffffff808211156140df57600080fd5b9083019061016082860312156140f457600080fd5b6140fc6136e0565b61410583613c0e565b815261411360208401613fe6565b602082015261412460408401613fe6565b604082015261413560608401613ffa565b60608201526080830151608082015261415060a08401613dfa565b60a082015261416160c08401613c0e565b60c082015260e08301518281111561417857600080fd5b61418487828601613f54565b60e083015250610100614198818501613fe6565b9082015261012083810151838111156141b057600080fd5b6141bc88828701614005565b91830191909152506101409283015192810192909252509392505050565b600082516141ec818460208701613e2d565b9190910192915050565b60006020828403121561420857600080fd5b61331282613bbe56fe416464726573733a206c6f772d6c6576656c2064656c65676174652063616c6c206661696c6564a2646970667358221220a0a6359ccda94ce8423ff362fefd0f43fea7bc74c9a74e431ce1e3dd8594be3564736f6c63430008090033",
  "devdoc": {
    "kind": "dev",
    "methods": {
      "getPoolStates(address[])": {
        "details": "TODO : when pools are done",
        "params": {
          "poolAddresses": "Addresses of pools"
        },
        "returns": {
          "_0": "PoolState List of objects of pool details"
        }
      },
      "onChainSwap(address,uint256,address,address,uint256)": {
        "params": {
          "fromToken": "the token the user wants to swap from",
          "inputAmount": "the amount of tokens the user wants to swap from",
          "minimumOutputAmount": "the min amount the user would like to receive, or revert",
          "toOwner": "the address of token beneficiary",
          "toToken": "the token the user wants to swap to"
        },
        "returns": {
          "outputAmount": "The amount of tokent that will be received"
        }
      },
      "owner()": {
        "details": "Returns the address of the current owner."
      },
      "paused()": {
        "details": "Returns true if the contract is paused, and false otherwise."
      },
      "proxiableUUID()": {
        "details": "Implementation of the ERC1822 {proxiableUUID} function. This returns the storage slot used by the implementation. It is used to validate that the this implementation remains valid after an upgrade. IMPORTANT: A proxy pointing at a proxiable contract should not be considered proxiable itself, because this risks bricking a proxy that upgrades to it, by delegating to itself until out of gas. Thus it is critical that this function revert if invoked through a proxy. This is guaranteed by the `notDelegated` modifier."
      },
      "receiveAndSwap(bytes)": {
        "params": {
          "encodedVm": "A byte array containing a VAA signed by the guardians."
        },
        "returns": {
          "outputAmount": "Amount that user will receive",
          "outputToken": "Type of token that user will receive"
        }
      },
      "receiveAndSwap(bytes,address,uint256)": {
        "details": "The transaction can only be redeemed by the recipient, logical owner.",
        "params": {
          "encodedVm": "A byte array containing a VAA signed by the guardians.",
          "minimumOutputAmount": "Minimum output amount expected",
          "toToken": "the token address user wants to swap from"
        },
        "returns": {
          "outputAmount": "Amount that user will receive"
        }
      },
      "registerToken(uint16,address,address,uint8)": {
        "details": "Only contract deployer can register tokens and pools",
        "params": {
          "poolAddress": "Contract address of pool on current chain",
          "tokenAddress": "Token contract address",
          "tokenIndexInPool": "Token index in given pool on current chain",
          "tokenNumber": "Token ID on current chain"
        }
      },
      "renounceOwnership()": {
        "details": "Leaves the contract without owner. It will not be possible to call `onlyOwner` functions anymore. Can only be called by the current owner. NOTE: Renouncing ownership will leave the contract without an owner, thereby removing any functionality that is only available to the owner."
      },
      "swapAndTransfer(address,uint256,uint256,uint16,bytes32)": {
        "params": {
          "fromToken": "the token user wants to swap from",
          "inputAmount": "the amount of tokens user wants to swap from",
          "toOwner": "the address of token beneficiary",
          "wormholeRecipientChain": "Wormhole receiver chain"
        },
        "returns": {
          "wormholeSequence": "Wormhole Sequence"
        }
      },
      "transferOwnership(address)": {
        "details": "Transfers ownership of the contract to a new account (`newOwner`). Can only be called by the current owner."
      },
      "upgradeTo(address)": {
        "details": "Upgrade the implementation of the proxy to `newImplementation`. Calls {_authorizeUpgrade}. Emits an {Upgraded} event."
      },
      "upgradeToAndCall(address,bytes)": {
        "details": "Upgrade the implementation of the proxy to `newImplementation`, and subsequently execute the function call encoded in `data`. Calls {_authorizeUpgrade}. Emits an {Upgraded} event."
      }
    },
    "version": 1
  },
  "userdoc": {
    "kind": "user",
    "methods": {
      "getPoolStates(address[])": {
        "notice": "Gets liquidities for all given pool adresses"
      },
      "onChainSwap(address,uint256,address,address,uint256)": {
        "notice": "Swap two tokens using one chain"
      },
      "receiveAndSwap(bytes)": {
        "notice": "Complete a contract-controlled transfer of an ERC20 token and swaps for token address in payload. If swap fails, user receives swimUsd token."
      },
      "receiveAndSwap(bytes,address,uint256)": {
        "notice": "Complete a contract-controlled transfer of  an ERC20 token and swaps for toToken in parameters. If swap fails, user receives swimUsd token"
      },
      "registerToken(uint16,address,address,uint8)": {
        "notice": "Registers token and pool details"
      },
      "swapAndTransfer(address,uint256,uint256,uint16,bytes32)": {
        "notice": "Swap and send ERC20 token through portal"
      }
    },
    "version": 1
  },
  "storageLayout": {
    "storage": [
      {
        "astId": 527,
        "contract": "contracts/Routing.sol:Routing",
        "label": "_initialized",
        "offset": 0,
        "slot": "0",
        "type": "t_uint8"
      },
      {
        "astId": 530,
        "contract": "contracts/Routing.sol:Routing",
        "label": "_initializing",
        "offset": 1,
        "slot": "0",
        "type": "t_bool"
      },
      {
        "astId": 2055,
        "contract": "contracts/Routing.sol:Routing",
        "label": "__gap",
        "offset": 0,
        "slot": "1",
        "type": "t_array(t_uint256)50_storage"
      },
      {
        "astId": 828,
        "contract": "contracts/Routing.sol:Routing",
        "label": "_paused",
        "offset": 0,
        "slot": "51",
        "type": "t_bool"
      },
      {
        "astId": 933,
        "contract": "contracts/Routing.sol:Routing",
        "label": "__gap",
        "offset": 0,
        "slot": "52",
        "type": "t_array(t_uint256)49_storage"
      },
      {
        "astId": 10,
        "contract": "contracts/Routing.sol:Routing",
        "label": "_owner",
        "offset": 0,
        "slot": "101",
        "type": "t_address"
      },
      {
        "astId": 130,
        "contract": "contracts/Routing.sol:Routing",
        "label": "__gap",
        "offset": 0,
        "slot": "102",
        "type": "t_array(t_uint256)49_storage"
      },
      {
        "astId": 948,
        "contract": "contracts/Routing.sol:Routing",
        "label": "_status",
        "offset": 0,
        "slot": "151",
        "type": "t_uint256"
      },
      {
        "astId": 992,
        "contract": "contracts/Routing.sol:Routing",
        "label": "__gap",
        "offset": 0,
        "slot": "152",
        "type": "t_array(t_uint256)49_storage"
      },
      {
        "astId": 509,
        "contract": "contracts/Routing.sol:Routing",
        "label": "__gap",
        "offset": 0,
        "slot": "201",
        "type": "t_array(t_uint256)50_storage"
      },
      {
        "astId": 806,
        "contract": "contracts/Routing.sol:Routing",
        "label": "__gap",
        "offset": 0,
        "slot": "251",
        "type": "t_array(t_uint256)50_storage"
      },
      {
        "astId": 8318,
        "contract": "contracts/Routing.sol:Routing",
        "label": "wormholeNonce",
        "offset": 0,
        "slot": "301",
        "type": "t_uint32"
      },
      {
        "astId": 8320,
        "contract": "contracts/Routing.sol:Routing",
        "label": "swimUsdAddress",
        "offset": 4,
        "slot": "301",
        "type": "t_address"
      },
      {
        "astId": 8323,
        "contract": "contracts/Routing.sol:Routing",
        "label": "tokenBridge",
        "offset": 0,
        "slot": "302",
        "type": "t_contract(ITokenBridge)9678"
      },
      {
        "astId": 8326,
        "contract": "contracts/Routing.sol:Routing",
        "label": "wormhole",
        "offset": 0,
        "slot": "303",
        "type": "t_contract(IWormhole)9805"
      },
      {
        "astId": 8340,
        "contract": "contracts/Routing.sol:Routing",
        "label": "tokenNumberMapping",
        "offset": 0,
        "slot": "304",
        "type": "t_mapping(t_uint16,t_struct(TokenInfo)8335_storage)"
      },
      {
        "astId": 8345,
        "contract": "contracts/Routing.sol:Routing",
        "label": "tokenAddressMapping",
        "offset": 0,
        "slot": "305",
        "type": "t_mapping(t_address,t_struct(TokenInfo)8335_storage)"
      }
    ],
    "types": {
      "t_address": {
        "encoding": "inplace",
        "label": "address",
        "numberOfBytes": "20"
      },
      "t_array(t_uint256)49_storage": {
        "base": "t_uint256",
        "encoding": "inplace",
        "label": "uint256[49]",
        "numberOfBytes": "1568"
      },
      "t_array(t_uint256)50_storage": {
        "base": "t_uint256",
        "encoding": "inplace",
        "label": "uint256[50]",
        "numberOfBytes": "1600"
      },
      "t_bool": {
        "encoding": "inplace",
        "label": "bool",
        "numberOfBytes": "1"
      },
      "t_contract(ITokenBridge)9678": {
        "encoding": "inplace",
        "label": "contract ITokenBridge",
        "numberOfBytes": "20"
      },
      "t_contract(IWormhole)9805": {
        "encoding": "inplace",
        "label": "contract IWormhole",
        "numberOfBytes": "20"
      },
      "t_mapping(t_address,t_struct(TokenInfo)8335_storage)": {
        "encoding": "mapping",
        "key": "t_address",
        "label": "mapping(address => struct Routing.TokenInfo)",
        "numberOfBytes": "32",
        "value": "t_struct(TokenInfo)8335_storage"
      },
      "t_mapping(t_uint16,t_struct(TokenInfo)8335_storage)": {
        "encoding": "mapping",
        "key": "t_uint16",
        "label": "mapping(uint16 => struct Routing.TokenInfo)",
        "numberOfBytes": "32",
        "value": "t_struct(TokenInfo)8335_storage"
      },
      "t_struct(TokenInfo)8335_storage": {
        "encoding": "inplace",
        "label": "struct Routing.TokenInfo",
        "members": [
          {
            "astId": 8328,
            "contract": "contracts/Routing.sol:Routing",
            "label": "tokenNumber",
            "offset": 0,
            "slot": "0",
            "type": "t_uint16"
          },
          {
            "astId": 8330,
            "contract": "contracts/Routing.sol:Routing",
            "label": "tokenAddress",
            "offset": 2,
            "slot": "0",
            "type": "t_address"
          },
          {
            "astId": 8332,
            "contract": "contracts/Routing.sol:Routing",
            "label": "poolAddress",
            "offset": 0,
            "slot": "1",
            "type": "t_address"
          },
          {
            "astId": 8334,
            "contract": "contracts/Routing.sol:Routing",
            "label": "tokenIndexInPool",
            "offset": 20,
            "slot": "1",
            "type": "t_uint8"
          }
        ],
        "numberOfBytes": "64"
      },
      "t_uint16": {
        "encoding": "inplace",
        "label": "uint16",
        "numberOfBytes": "2"
      },
      "t_uint256": {
        "encoding": "inplace",
        "label": "uint256",
        "numberOfBytes": "32"
      },
      "t_uint32": {
        "encoding": "inplace",
        "label": "uint32",
        "numberOfBytes": "4"
      },
      "t_uint8": {
        "encoding": "inplace",
        "label": "uint8",
        "numberOfBytes": "1"
      }
    }
  }
}