{
  "_format": "hh-sol-artifact-1",
  "contractName": "Equalize",
  "sourceName": "contracts/Equalize.sol",
  "abi": [
    {
      "inputs": [],
      "name": "MAX_AMOUNT",
      "outputs": [
        {
          "internalType": "uint256",
          "name": "",
          "type": "uint256"
        }
      ],
      "stateMutability": "view",
      "type": "function"
    }
  ],
  "bytecode": "0x608e610038600b82828239805160001a607314602b57634e487b7160e01b600052600060045260246000fd5b30600052607381538281f3fe730000000000000000000000000000000000000000301460806040526004361060335760003560e01c8063d40dc870146038575b600080fd5b6046671fffffffffffffff81565b60405190815260200160405180910390f3fea2646970667358221220ea94e1382a9091b040ee1c98399b3892c6093b0cd6bbd812b6fad44462cb894364736f6c63430008090033",
  "linkReferences": {},
  "deployedLinkReferences": {}
}