{
  "_format": "hh-sol-artifact-1",
  "contractName": "Routing",
  "sourceName": "contracts/Routing.sol",
  "abi": [
    {
      "inputs": [],
      "name": "InvalidVersion",
      "type": "error"
    },
    {
      "inputs": [
        {
          "internalType": "string",
          "name": "message",
          "type": "string"
        }
      ],
      "name": "Routing__ErrorMessage",
      "type": "error"
    },
    {
      "inputs": [
        {
          "internalType": "bytes20",
          "name": "addressOrTokenNumber",
          "type": "bytes20"
        }
      ],
      "name": "Routing__TokenNotRegistered",
      "type": "error"
    },
    {
      "inputs": [],
      "name": "TooShort",
      "type": "error"
    },
    {
      "anonymous": false,
      "inputs": [
        {
          "indexed": false,
          "internalType": "address",
          "name": "previousAdmin",
          "type": "address"
        },
        {
          "indexed": false,
          "internalType": "address",
          "name": "newAdmin",
          "type": "address"
        }
      ],
      "name": "AdminChanged",
      "type": "event"
    },
    {
      "anonymous": false,
      "inputs": [
        {
          "indexed": true,
          "internalType": "address",
          "name": "beacon",
          "type": "address"
        }
      ],
      "name": "BeaconUpgraded",
      "type": "event"
    },
    {
      "anonymous": false,
      "inputs": [
        {
          "indexed": false,
          "internalType": "uint8",
          "name": "version",
          "type": "uint8"
        }
      ],
      "name": "Initialized",
      "type": "event"
    },
    {
      "anonymous": false,
      "inputs": [
        {
          "indexed": true,
          "internalType": "address",
          "name": "to",
          "type": "address"
        },
        {
          "indexed": true,
          "internalType": "address",
          "name": "fromToken",
          "type": "address"
        },
        {
          "indexed": true,
          "internalType": "address",
          "name": "toToken",
          "type": "address"
        },
        {
          "indexed": false,
          "internalType": "uint256",
          "name": "outputAmount",
          "type": "uint256"
        }
      ],
      "name": "OnChainSwap",
      "type": "event"
    },
    {
      "anonymous": false,
      "inputs": [
        {
          "indexed": true,
          "internalType": "address",
          "name": "previousOwner",
          "type": "address"
        },
        {
          "indexed": true,
          "internalType": "address",
          "name": "newOwner",
          "type": "address"
        }
      ],
      "name": "OwnershipTransferred",
      "type": "event"
    },
    {
      "anonymous": false,
      "inputs": [
        {
          "indexed": false,
          "internalType": "address",
          "name": "account",
          "type": "address"
        }
      ],
      "name": "Paused",
      "type": "event"
    },
    {
      "anonymous": false,
      "inputs": [
        {
          "indexed": true,
          "internalType": "address",
          "name": "from",
          "type": "address"
        },
        {
          "indexed": false,
          "internalType": "uint64",
          "name": "wormholeSequence",
          "type": "uint64"
        },
        {
          "indexed": false,
          "internalType": "address",
          "name": "token",
          "type": "address"
        },
        {
          "indexed": false,
          "internalType": "uint256",
          "name": "amount",
          "type": "uint256"
        }
      ],
      "name": "ReceiveAndSwap",
      "type": "event"
    },
    {
      "anonymous": false,
      "inputs": [
        {
          "indexed": true,
          "internalType": "address",
          "name": "from",
          "type": "address"
        },
        {
          "indexed": false,
          "internalType": "uint64",
          "name": "wormholeSequence",
          "type": "uint64"
        },
        {
          "indexed": false,
          "internalType": "address",
          "name": "token",
          "type": "address"
        },
        {
          "indexed": false,
          "internalType": "uint256",
          "name": "inputAmount",
          "type": "uint256"
        }
      ],
      "name": "SwapAndTransfer",
      "type": "event"
    },
    {
      "anonymous": false,
      "inputs": [
        {
          "indexed": true,
          "internalType": "uint16",
          "name": "tokenId",
          "type": "uint16"
        },
        {
          "indexed": true,
          "internalType": "address",
          "name": "tokenContract",
          "type": "address"
        },
        {
          "indexed": false,
          "internalType": "address",
          "name": "chainPool",
          "type": "address"
        }
      ],
      "name": "TokenRegistered",
      "type": "event"
    },
    {
      "anonymous": false,
      "inputs": [
        {
          "indexed": false,
          "internalType": "address",
          "name": "account",
          "type": "address"
        }
      ],
      "name": "Unpaused",
      "type": "event"
    },
    {
      "anonymous": false,
      "inputs": [
        {
          "indexed": true,
          "internalType": "address",
          "name": "implementation",
          "type": "address"
        }
      ],
      "name": "Upgraded",
      "type": "event"
    },
    {
      "inputs": [
        {
          "internalType": "address[]",
          "name": "poolAddresses",
          "type": "address[]"
        }
      ],
      "name": "getPoolStates",
      "outputs": [
        {
          "components": [
            {
              "internalType": "bool",
              "name": "paused",
              "type": "bool"
            },
            {
              "components": [
                {
                  "internalType": "address",
                  "name": "tokenAddres",
                  "type": "address"
                },
                {
                  "internalType": "uint256",
                  "name": "balance",
                  "type": "uint256"
                }
              ],
              "internalType": "struct TokenBalance[]",
              "name": "balances",
              "type": "tuple[]"
            },
            {
              "components": [
                {
                  "internalType": "address",
                  "name": "tokenAddres",
                  "type": "address"
                },
                {
                  "internalType": "uint256",
                  "name": "balance",
                  "type": "uint256"
                }
              ],
              "internalType": "struct TokenBalance",
              "name": "totalLPSupply",
              "type": "tuple"
            },
            {
              "components": [
                {
                  "internalType": "uint256",
                  "name": "value",
                  "type": "uint256"
                },
                {
                  "internalType": "uint8",
                  "name": "decimals",
                  "type": "uint8"
                }
              ],
              "internalType": "struct Decimal",
              "name": "ampFactor",
              "type": "tuple"
            },
            {
              "components": [
                {
                  "internalType": "uint256",
                  "name": "value",
                  "type": "uint256"
                },
                {
                  "internalType": "uint8",
                  "name": "decimals",
                  "type": "uint8"
                }
              ],
              "internalType": "struct Decimal",
              "name": "lpFee",
              "type": "tuple"
            },
            {
              "components": [
                {
                  "internalType": "uint256",
                  "name": "value",
                  "type": "uint256"
                },
                {
                  "internalType": "uint8",
                  "name": "decimals",
                  "type": "uint8"
                }
              ],
              "internalType": "struct Decimal",
              "name": "governanceFee",
              "type": "tuple"
            }
          ],
          "internalType": "struct PoolState[]",
          "name": "",
          "type": "tuple[]"
        }
      ],
      "stateMutability": "view",
      "type": "function"
    },
    {
      "inputs": [
        {
          "internalType": "address",
          "name": "tokenBridgeAddress",
          "type": "address"
        }
      ],
      "name": "initialize",
      "outputs": [],
      "stateMutability": "nonpayable",
      "type": "function"
    },
    {
      "inputs": [
        {
          "internalType": "address",
          "name": "fromToken",
          "type": "address"
        },
        {
          "internalType": "uint256",
          "name": "inputAmount",
          "type": "uint256"
        },
        {
          "internalType": "address",
          "name": "toOwner",
          "type": "address"
        },
        {
          "internalType": "address",
          "name": "toToken",
          "type": "address"
        },
        {
          "internalType": "uint256",
          "name": "minimumOutputAmount",
          "type": "uint256"
        }
      ],
      "name": "onChainSwap",
      "outputs": [
        {
          "internalType": "uint256",
          "name": "outputAmount",
          "type": "uint256"
        }
      ],
      "stateMutability": "payable",
      "type": "function"
    },
    {
      "inputs": [],
      "name": "owner",
      "outputs": [
        {
          "internalType": "address",
          "name": "",
          "type": "address"
        }
      ],
      "stateMutability": "view",
      "type": "function"
    },
    {
      "inputs": [],
      "name": "pause",
      "outputs": [],
      "stateMutability": "nonpayable",
      "type": "function"
    },
    {
      "inputs": [],
      "name": "paused",
      "outputs": [
        {
          "internalType": "bool",
          "name": "",
          "type": "bool"
        }
      ],
      "stateMutability": "view",
      "type": "function"
    },
    {
      "inputs": [],
      "name": "proxiableUUID",
      "outputs": [
        {
          "internalType": "bytes32",
          "name": "",
          "type": "bytes32"
        }
      ],
      "stateMutability": "view",
      "type": "function"
    },
    {
      "inputs": [
        {
          "internalType": "bytes",
          "name": "encodedVm",
          "type": "bytes"
        },
        {
          "internalType": "address",
          "name": "toToken",
          "type": "address"
        },
        {
          "internalType": "uint256",
          "name": "minimumOutputAmount",
          "type": "uint256"
        }
      ],
      "name": "receiveAndSwap",
      "outputs": [
        {
          "internalType": "uint256",
          "name": "outputAmount",
          "type": "uint256"
        },
        {
          "internalType": "address",
          "name": "outputToken",
          "type": "address"
        }
      ],
      "stateMutability": "nonpayable",
      "type": "function"
    },
    {
      "inputs": [
        {
          "internalType": "bytes",
          "name": "encodedVm",
          "type": "bytes"
        }
      ],
      "name": "receiveAndSwap",
      "outputs": [
        {
          "internalType": "uint256",
          "name": "outputAmount",
          "type": "uint256"
        },
        {
          "internalType": "address",
          "name": "outputToken",
          "type": "address"
        }
      ],
      "stateMutability": "nonpayable",
      "type": "function"
    },
    {
      "inputs": [
        {
          "internalType": "uint16",
          "name": "tokenNumber",
          "type": "uint16"
        },
        {
          "internalType": "address",
          "name": "tokenAddress",
          "type": "address"
        },
        {
          "internalType": "address",
          "name": "poolAddress",
          "type": "address"
        },
        {
          "internalType": "uint8",
          "name": "tokenIndexInPool",
          "type": "uint8"
        }
      ],
      "name": "registerToken",
      "outputs": [],
      "stateMutability": "nonpayable",
      "type": "function"
    },
    {
      "inputs": [],
      "name": "renounceOwnership",
      "outputs": [],
      "stateMutability": "nonpayable",
      "type": "function"
    },
    {
      "inputs": [
        {
          "internalType": "address",
          "name": "fromToken",
          "type": "address"
        },
        {
          "internalType": "uint256",
          "name": "inputAmount",
          "type": "uint256"
        },
        {
          "internalType": "uint256",
          "name": "firstMinimumOutputAmount",
          "type": "uint256"
        },
        {
          "internalType": "uint16",
          "name": "wormholeRecipientChain",
          "type": "uint16"
        },
        {
          "internalType": "bytes32",
          "name": "toOwner",
          "type": "bytes32"
        }
      ],
      "name": "swapAndTransfer",
      "outputs": [
        {
          "internalType": "uint64",
          "name": "wormholeSequence",
          "type": "uint64"
        }
      ],
      "stateMutability": "payable",
      "type": "function"
    },
    {
      "inputs": [],
      "name": "swimUsdAddress",
      "outputs": [
        {
          "internalType": "address",
          "name": "",
          "type": "address"
        }
      ],
      "stateMutability": "view",
      "type": "function"
    },
    {
      "inputs": [],
      "name": "tokenBridge",
      "outputs": [
        {
          "internalType": "contract ITokenBridge",
          "name": "",
          "type": "address"
        }
      ],
      "stateMutability": "view",
      "type": "function"
    },
    {
      "inputs": [
        {
          "internalType": "address",
          "name": "newOwner",
          "type": "address"
        }
      ],
      "name": "transferOwnership",
      "outputs": [],
      "stateMutability": "nonpayable",
      "type": "function"
    },
    {
      "inputs": [],
      "name": "unpause",
      "outputs": [],
      "stateMutability": "nonpayable",
      "type": "function"
    },
    {
      "inputs": [
        {
          "internalType": "address",
          "name": "newImplementation",
          "type": "address"
        }
      ],
      "name": "upgradeTo",
      "outputs": [],
      "stateMutability": "nonpayable",
      "type": "function"
    },
    {
      "inputs": [
        {
          "internalType": "address",
          "name": "newImplementation",
          "type": "address"
        },
        {
          "internalType": "bytes",
          "name": "data",
          "type": "bytes"
        }
      ],
      "name": "upgradeToAndCall",
      "outputs": [],
      "stateMutability": "payable",
      "type": "function"
    },
    {
      "inputs": [],
      "name": "wormhole",
      "outputs": [
        {
          "internalType": "contract IWormhole",
          "name": "",
          "type": "address"
        }
      ],
      "stateMutability": "view",
      "type": "function"
    }
  ],
  "bytecode": "0x60a06040523060805234801561001457600080fd5b506080516136da61004c600039600081816103dd01528181610467015281816108820152818161090701526109f101526136da6000f3fe6080604052600436106101445760003560e01c806384acd1bb116100c0578063c6328a4611610074578063f2fde38b11610059578063f2fde38b1461037f578063f6bf28b51461039f578063fe4bc67a146103bf57600080fd5b8063c6328a4614610321578063cd5af9ae1461034257600080fd5b8063a174e5b7116100a5578063a174e5b7146102ac578063b1719a57146102d5578063c4d66de81461030157600080fd5b806384acd1bb146102555780638da5cb5b1461028e57600080fd5b806352d1902d116101175780636bde354a116100fc5780636bde354a146101fe578063715018a61461022b5780638456cb591461024057600080fd5b806352d1902d146101b35780635c975abb146101db57600080fd5b80633659cfe6146101495780633954802a1461016b5780633f4ba83a1461018b5780634f1ef286146101a0575b600080fd5b34801561015557600080fd5b50610169610164366004612b16565b6103d2565b005b34801561017757600080fd5b50610169610186366004612b52565b610553565b34801561019757600080fd5b50610169610865565b6101696101ae366004612d06565b610877565b3480156101bf57600080fd5b506101c86109e4565b6040519081526020015b60405180910390f35b3480156101e757600080fd5b5060335460ff1660405190151581526020016101d2565b34801561020a57600080fd5b5061021e610219366004612d7a565b610aa9565b6040516101d29190612e09565b34801561023757600080fd5b50610169610bd6565b34801561024c57600080fd5b50610169610be8565b34801561026157600080fd5b5061012f54610276906001600160a01b031681565b6040516001600160a01b0390911681526020016101d2565b34801561029a57600080fd5b506065546001600160a01b0316610276565b3480156102b857600080fd5b5061012d546102769064010000000090046001600160a01b031681565b6102e86102e3366004612f43565b610bf8565b60405167ffffffffffffffff90911681526020016101d2565b34801561030d57600080fd5b5061016961031c366004612b16565b610fa3565b34801561032d57600080fd5b5061012e54610276906001600160a01b031681565b34801561034e57600080fd5b5061036261035d366004612f95565b6112a0565b604080519283526001600160a01b039091166020830152016101d2565b34801561038b57600080fd5b5061016961039a366004612b16565b6113da565b3480156103ab57600080fd5b506103626103ba366004612fef565b611467565b6101c86103cd36600461302c565b611549565b306001600160a01b037f00000000000000000000000000000000000000000000000000000000000000001614156104655760405162461bcd60e51b815260206004820152602c60248201527f46756e6374696f6e206d7573742062652063616c6c6564207468726f7567682060448201526b19195b1959d85d1958d85b1b60a21b60648201526084015b60405180910390fd5b7f00000000000000000000000000000000000000000000000000000000000000006001600160a01b03166104c07f360894a13ba1a3210667c828492db98dca3e2076cc3735a920a3ca505d382bbc546001600160a01b031690565b6001600160a01b03161461052b5760405162461bcd60e51b815260206004820152602c60248201527f46756e6374696f6e206d7573742062652063616c6c6564207468726f7567682060448201526b6163746976652070726f787960a01b606482015260840161045c565b6105348161179c565b60408051600080825260208201909252610550918391906117a4565b50565b61055b611958565b600061013060008661ffff1661ffff1681526020019081526020016000206040518060800160405290816000820160009054906101000a900461ffff1661ffff1661ffff1681526020016000820160029054906101000a90046001600160a01b03166001600160a01b03166001600160a01b031681526020016001820160009054906101000a90046001600160a01b03166001600160a01b03166001600160a01b031681526020016001820160149054906101000a900460ff1660ff1660ff1681525050905084816000019061ffff16908161ffff16815250508381602001906001600160a01b031690816001600160a01b0316815250508281604001906001600160a01b031690816001600160a01b03168152505081816060019060ff16908160ff16815250508061013060008761ffff1661ffff16815260200190815260200160002060008201518160000160006101000a81548161ffff021916908361ffff16021790555060208201518160000160026101000a8154816001600160a01b0302191690836001600160a01b0316021790555060408201518160010160006101000a8154816001600160a01b0302191690836001600160a01b0316021790555060608201518160010160146101000a81548160ff021916908360ff160217905550905050806101316000866001600160a01b03166001600160a01b0316815260200190815260200160002060008201518160000160006101000a81548161ffff021916908361ffff16021790555060208201518160000160026101000a8154816001600160a01b0302191690836001600160a01b0316021790555060408201518160010160006101000a8154816001600160a01b0302191690836001600160a01b0316021790555060608201518160010160146101000a81548160ff021916908360ff160217905550905050836001600160a01b03168561ffff167f639dd7678d262a54d13718f5d54a4cf4c9289b611fee8ea5cc905c1518157e068560405161085691906001600160a01b0391909116815260200190565b60405180910390a35050505050565b61086d611958565b6108756119b2565b565b306001600160a01b037f00000000000000000000000000000000000000000000000000000000000000001614156109055760405162461bcd60e51b815260206004820152602c60248201527f46756e6374696f6e206d7573742062652063616c6c6564207468726f7567682060448201526b19195b1959d85d1958d85b1b60a21b606482015260840161045c565b7f00000000000000000000000000000000000000000000000000000000000000006001600160a01b03166109607f360894a13ba1a3210667c828492db98dca3e2076cc3735a920a3ca505d382bbc546001600160a01b031690565b6001600160a01b0316146109cb5760405162461bcd60e51b815260206004820152602c60248201527f46756e6374696f6e206d7573742062652063616c6c6564207468726f7567682060448201526b6163746976652070726f787960a01b606482015260840161045c565b6109d48261179c565b6109e0828260016117a4565b5050565b6000306001600160a01b037f00000000000000000000000000000000000000000000000000000000000000001614610a845760405162461bcd60e51b815260206004820152603860248201527f555550535570677261646561626c653a206d757374206e6f742062652063616c60448201527f6c6564207468726f7567682064656c656761746563616c6c0000000000000000606482015260840161045c565b507f360894a13ba1a3210667c828492db98dca3e2076cc3735a920a3ca505d382bbc90565b805160609060008167ffffffffffffffff811115610ac957610ac9612bae565b604051908082528060200260200182016040528015610b0257816020015b610aef612a4c565b815260200190600190039081610ae75790505b50905060005b82811015610bce57848181518110610b2257610b22613076565b60200260200101516001600160a01b0316631865c57d6040518163ffffffff1660e01b815260040160006040518083038186803b158015610b6257600080fd5b505afa158015610b76573d6000803e3d6000fd5b505050506040513d6000823e601f3d908101601f19168201604052610b9e9190810190613120565b828281518110610bb057610bb0613076565b60200260200101819052508080610bc69061325d565b915050610b08565b509392505050565b610bde611958565b6108756000611a04565b610bf0611958565b610875611a63565b6000610c02611aa0565b600080610c0e88611af3565b9092509050610c286001600160a01b03891633308a611b76565b61012d5487906001600160a01b038a81166401000000009092041614610cf057610c5c6001600160a01b038a16848a611c2d565b604051636e0b1ea760e11b81526004810189905260ff8316602482015260006044820152606481018890526001600160a01b0384169063dc163d4e90608401602060405180830381600087803b158015610cb557600080fd5b505af1158015610cc9573d6000803e3d6000fd5b505050506040513d601f19601f82011682018060405250810190610ced9190613278565b90505b61012e5461012d54610d17916001600160a01b036401000000009092048216911683611c2d565b61ffff861660011415610dfe5761012e5461012d546040517f0f5287b00000000000000000000000000000000000000000000000000000000081526001600160a01b0364010000000083048116600483015260248201859052600160448301526064820189905260006084830181905263ffffffff90931660a483015291929190911690630f5287b09060c401602060405180830381600087803b158015610dbe57600080fd5b505af1158015610dd2573d6000803e3d6000fd5b505050506040513d601f19601f82011682018060405250810190610df691906132a9565b945050610f0c565b6000610e4986604080517f0100000000000000000000000000000000000000000000000000000000000000602082015260218082019390935281518082039093018352604101905290565b61012e5461012d546040517fc5a5ebda00000000000000000000000000000000000000000000000000000000815292935030926001600160a01b039283169263c5a5ebda92610eb59264010000000082049092169188918e91889163ffffffff16908a9060040161331c565b602060405180830381600087803b158015610ecf57600080fd5b505af1158015610ee3573d6000803e3d6000fd5b505050506040513d601f19601f82011682018060405250810190610f0791906132a9565b955050505b61012d8054600090610f239063ffffffff1661336c565b825463ffffffff9182166101009390930a92830291909202199091161790556040805167ffffffffffffffff861681526001600160a01b038b16602082015290810189905233907f3d75c465c33301aa387417fd1ee8a2d936ac3157c21ac3eccbd830b1a4609faa9060600160405180910390a250505095945050505050565b600054610100900460ff1615808015610fc35750600054600160ff909116105b80610fdd5750303b158015610fdd575060005460ff166001145b61104f5760405162461bcd60e51b815260206004820152602e60248201527f496e697469616c697a61626c653a20636f6e747261637420697320616c72656160448201527f647920696e697469616c697a6564000000000000000000000000000000000000606482015260840161045c565b6000805460ff191660011790558015611072576000805461ff0019166101001790555b61107a611d8a565b611082611dfd565b61108a611e70565b611092611edb565b61012d805463ffffffff1916905561012e805473ffffffffffffffffffffffffffffffffffffffff19166001600160a01b038416908117909155604080517f84acd1bb00000000000000000000000000000000000000000000000000000000815290516384acd1bb91600480820192602092909190829003018186803b15801561111b57600080fd5b505afa15801561112f573d6000803e3d6000fd5b505050506040513d601f19601f820116820180604052508101906111539190613390565b61012f805473ffffffffffffffffffffffffffffffffffffffff19166001600160a01b0392831617905561012e546040517f1ff1e286000000000000000000000000000000000000000000000000000000008152600160048201527f44a0a063099540e87e0163a6e27266a364c35930208cfaded5b79377713906e96024820152911690631ff1e2869060440160206040518083038186803b1580156111f857600080fd5b505afa15801561120c573d6000803e3d6000fd5b505050506040513d601f19601f820116820180604052508101906112309190613390565b61012d60046101000a8154816001600160a01b0302191690836001600160a01b0316021790555080156109e0576000805461ff0019169055604051600181527f7f26b83ff96e1f2b6a682f133852f6798a09c465da95921460cefb38474024989060200160405180910390a15050565b6000806112ab611aa0565b61012e5460405163c3f511c160e01b81526000916001600160a01b03169063c3f511c1906112dd9089906004016133ad565b600060405180830381600087803b1580156112f757600080fd5b505af115801561130b573d6000803e3d6000fd5b505050506040513d6000823e601f3d908101601f191682016040526113339190810190613405565b905061133e81611f4e565b61134781611fba565b6001600160a01b0316336001600160a01b0316146113c1576040517fa2bd777200000000000000000000000000000000000000000000000000000000815260206004820152601860248201527f53656e646572206973206e6f7420746865206f776e6572210000000000000000604482015260640161045c565b6113cd86338787611fcf565b9250925050935093915050565b6113e2611958565b6001600160a01b03811661145e5760405162461bcd60e51b815260206004820152602660248201527f4f776e61626c653a206e6577206f776e657220697320746865207a65726f206160448201527f6464726573730000000000000000000000000000000000000000000000000000606482015260840161045c565b61055081611a04565b600080611472611aa0565b61012e5460405163c3f511c160e01b81526000916001600160a01b03169063c3f511c1906114a49087906004016133ad565b600060405180830381600087803b1580156114be57600080fd5b505af11580156114d2573d6000803e3d6000fd5b505050506040513d6000823e601f3d908101601f191682016040526114fa9190810190613405565b905061150581611f4e565b600061151082611fba565b905060008061151e8461229b565b91509150600061152d83612301565b905061153b88858385611fcf565b965096505050505050915091565b6000611553611aa0565b60008061155f88611af3565b9150915060008061156f87611af3565b90925090506115896001600160a01b038b1633308c611b76565b61012d548995506001600160a01b038b81166401000000009092041614611652576115be6001600160a01b038b16858b611c2d565b604051636e0b1ea760e11b8152600481018a905260ff8416602482015260006044820181905260648201526001600160a01b0385169063dc163d4e90608401602060405180830381600087803b15801561161757600080fd5b505af115801561162b573d6000803e3d6000fd5b505050506040513d601f19601f8201168201806040525081019061164f9190613278565b94505b61012d546001600160a01b0388811664010000000090920416146117245761012d546116909064010000000090046001600160a01b03168387611c2d565b604051636e0b1ea760e11b8152600481018690526000602482015260ff82166044820152606481018790526001600160a01b0383169063dc163d4e90608401602060405180830381600087803b1580156116e957600080fd5b505af11580156116fd573d6000803e3d6000fd5b505050506040513d601f19601f820116820180604052508101906117219190613278565b94505b6117386001600160a01b038816898761235f565b866001600160a01b03168a6001600160a01b0316896001600160a01b03167ff2e2a58c01dc9b89916a15f9d426d4df34390782f1fc1786a7ae826bc414abd98860405161178791815260200190565b60405180910390a45050505095945050505050565b610550611958565b7f4910fdfa16fed3260ed0e7147f7cc6da11a60208b5b9406d12a635614ffd91435460ff16156117dc576117d7836123a8565b505050565b826001600160a01b03166352d1902d6040518163ffffffff1660e01b815260040160206040518083038186803b15801561181557600080fd5b505afa925050508015611845575060408051601f3d908101601f1916820190925261184291810190613278565b60015b6118b75760405162461bcd60e51b815260206004820152602e60248201527f45524331393637557067726164653a206e657720696d706c656d656e7461746960448201527f6f6e206973206e6f742055555053000000000000000000000000000000000000606482015260840161045c565b7f360894a13ba1a3210667c828492db98dca3e2076cc3735a920a3ca505d382bbc811461194c5760405162461bcd60e51b815260206004820152602960248201527f45524331393637557067726164653a20756e737570706f727465642070726f7860448201527f6961626c65555549440000000000000000000000000000000000000000000000606482015260840161045c565b506117d7838383612473565b6065546001600160a01b031633146108755760405162461bcd60e51b815260206004820181905260248201527f4f776e61626c653a2063616c6c6572206973206e6f7420746865206f776e6572604482015260640161045c565b6119ba612498565b6033805460ff191690557f5db9ee0a495bf2e6ff9c91a7834c1ba4fdd244a5e8aa4e537bd38aeae4b073aa335b6040516001600160a01b03909116815260200160405180910390a1565b606580546001600160a01b0383811673ffffffffffffffffffffffffffffffffffffffff19831681179093556040519116919082907f8be0079c531659141344cd1fd0a4f28419497f9722a3daafe3b4186f6b6457e090600090a35050565b611a6b611aa0565b6033805460ff191660011790557f62e78cea01bee320cd4e420270b5ea74000d11b0c9f74754ebdbfc544b05a2586119e73390565b60335460ff16156108755760405162461bcd60e51b815260206004820152601060248201527f5061757361626c653a2070617573656400000000000000000000000000000000604482015260640161045c565b6001600160a01b038082166000908152610131602052604081206001810154919283921680611b4a5760405163237851e160e21b81526bffffffffffffffffffffffff19606087901b16600482015260240161045c565b6001919091015490947401000000000000000000000000000000000000000090910460ff169350915050565b6040516001600160a01b0380851660248301528316604482015260648101829052611c279085907f23b872dd00000000000000000000000000000000000000000000000000000000906084015b60408051601f198184030181529190526020810180517bffffffffffffffffffffffffffffffffffffffffffffffffffffffff167fffffffff00000000000000000000000000000000000000000000000000000000909316929092179091526124ea565b50505050565b801580611ccf57506040517fdd62ed3e0000000000000000000000000000000000000000000000000000000081523060048201526001600160a01b03838116602483015284169063dd62ed3e9060440160206040518083038186803b158015611c9557600080fd5b505afa158015611ca9573d6000803e3d6000fd5b505050506040513d601f19601f82011682018060405250810190611ccd9190613278565b155b611d415760405162461bcd60e51b815260206004820152603660248201527f5361666545524332303a20617070726f76652066726f6d206e6f6e2d7a65726f60448201527f20746f206e6f6e2d7a65726f20616c6c6f77616e636500000000000000000000606482015260840161045c565b6040516001600160a01b0383166024820152604481018290526117d79084907f095ea7b30000000000000000000000000000000000000000000000000000000090606401611bc3565b600054610100900460ff16611df55760405162461bcd60e51b815260206004820152602b60248201527f496e697469616c697a61626c653a20636f6e7472616374206973206e6f74206960448201526a6e697469616c697a696e6760a81b606482015260840161045c565b6108756125cf565b600054610100900460ff16611e685760405162461bcd60e51b815260206004820152602b60248201527f496e697469616c697a61626c653a20636f6e7472616374206973206e6f74206960448201526a6e697469616c697a696e6760a81b606482015260840161045c565b610875612646565b600054610100900460ff166108755760405162461bcd60e51b815260206004820152602b60248201527f496e697469616c697a61626c653a20636f6e7472616374206973206e6f74206960448201526a6e697469616c697a696e6760a81b606482015260840161045c565b600054610100900460ff16611f465760405162461bcd60e51b815260206004820152602b60248201527f496e697469616c697a61626c653a20636f6e7472616374206973206e6f74206960448201526a6e697469616c697a696e6760a81b606482015260840161045c565b6108756126ba565b611f6381611f5e6001600061343a565b61272c565b600160ff1681600081518110611f7b57611f7b613076565b016020015160f81c14610550576040517fa9146eeb00000000000000000000000000000000000000000000000000000000815260040160405180910390fd5b6000611fc782602161272c565b506021015190565b600080600080611fde86611af3565b61012d546040517f70a082310000000000000000000000000000000000000000000000000000000081523060048201529294509092506000916401000000009091046001600160a01b0316906370a082319060240160206040518083038186803b15801561204b57600080fd5b505afa15801561205f573d6000803e3d6000fd5b505050506040513d601f19601f820116820180604052508101906120839190613278565b61012d548796508895509091506001600160a01b03808616640100000000909204161461217d5761012d546120ca9064010000000090046001600160a01b03168483611c2d565b604051636e0b1ea760e11b8152600481018290526000602482015260ff83166044820152606481018790526001600160a01b0384169063dc163d4e90608401602060405180830381600087803b15801561212357600080fd5b505af1925050508015612153575060408051601f3d908101601f1916820190925261215091810190613278565b60015b6121775761012d5490945064010000000090046001600160a01b031692508361217d565b94508693505b6121916001600160a01b038816898761235f565b61012f546040517fa9e118930000000000000000000000000000000000000000000000000000000081526000916001600160a01b03169063a9e11893906121dc908d906004016133ad565b60006040518083038186803b1580156121f457600080fd5b505afa158015612208573d6000803e3d6000fd5b505050506040513d6000823e601f3d908101601f191682016040526122309190810190613521565b60a001516040805167ffffffffffffffff831681526001600160a01b0388811660208301529181018990529192508a16907f9634e0407482c730e10f73eecc33308988a787cbb548b5585ff97fdebf9fd3cd9060600160405180910390a25050505094509492505050565b6000806122a983604361272c565b8251600090849060229081106122c1576122c1613076565b0160200151845160f89190911c90600890869060219081106122e5576122e5613076565b01602001516043969096015160f89690961c901b019492505050565b61ffff8116600090815261013060205260408120546201000090046001600160a01b0316806123595760405163237851e160e21b81526dffff000000000000000000000000606085901b16600482015260240161045c565b92915050565b6040516001600160a01b0383166024820152604481018290526117d79084907fa9059cbb0000000000000000000000000000000000000000000000000000000090606401611bc3565b6001600160a01b0381163b6124255760405162461bcd60e51b815260206004820152602d60248201527f455243313936373a206e657720696d706c656d656e746174696f6e206973206e60448201527f6f74206120636f6e747261637400000000000000000000000000000000000000606482015260840161045c565b7f360894a13ba1a3210667c828492db98dca3e2076cc3735a920a3ca505d382bbc805473ffffffffffffffffffffffffffffffffffffffff19166001600160a01b0392909216919091179055565b61247c83612767565b6000825111806124895750805b156117d757611c2783836127a7565b60335460ff166108755760405162461bcd60e51b815260206004820152601460248201527f5061757361626c653a206e6f7420706175736564000000000000000000000000604482015260640161045c565b600061253f826040518060400160405280602081526020017f5361666545524332303a206c6f772d6c6576656c2063616c6c206661696c6564815250856001600160a01b03166128b29092919063ffffffff16565b8051909150156117d7578080602001905181019061255d9190613646565b6117d75760405162461bcd60e51b815260206004820152602a60248201527f5361666545524332303a204552433230206f7065726174696f6e20646964206e60448201527f6f74207375636365656400000000000000000000000000000000000000000000606482015260840161045c565b600054610100900460ff1661263a5760405162461bcd60e51b815260206004820152602b60248201527f496e697469616c697a61626c653a20636f6e7472616374206973206e6f74206960448201526a6e697469616c697a696e6760a81b606482015260840161045c565b6033805460ff19169055565b600054610100900460ff166126b15760405162461bcd60e51b815260206004820152602b60248201527f496e697469616c697a61626c653a20636f6e7472616374206973206e6f74206960448201526a6e697469616c697a696e6760a81b606482015260840161045c565b61087533611a04565b600054610100900460ff166127255760405162461bcd60e51b815260206004820152602b60248201527f496e697469616c697a61626c653a20636f6e7472616374206973206e6f74206960448201526a6e697469616c697a696e6760a81b606482015260840161045c565b6001609755565b80825110156109e0576040517f82e6504400000000000000000000000000000000000000000000000000000000815260040160405180910390fd5b612770816123a8565b6040516001600160a01b038216907fbc7cd75a20ee27fd9adebab32041f755214dbc6bffa90cc0225b39da2e5c2d3b90600090a250565b60606001600160a01b0383163b6128265760405162461bcd60e51b815260206004820152602660248201527f416464726573733a2064656c65676174652063616c6c20746f206e6f6e2d636f60448201527f6e74726163740000000000000000000000000000000000000000000000000000606482015260840161045c565b600080846001600160a01b0316846040516128419190613661565b600060405180830381855af49150503d806000811461287c576040519150601f19603f3d011682016040523d82523d6000602084013e612881565b606091505b50915091506128a9828260405180606001604052806027815260200161367e602791396128cb565b95945050505050565b60606128c18484600085612904565b90505b9392505050565b606083156128da5750816128c4565b8251156128ea5782518084602001fd5b8160405162461bcd60e51b815260040161045c91906133ad565b60608247101561297c5760405162461bcd60e51b815260206004820152602660248201527f416464726573733a20696e73756666696369656e742062616c616e636520666f60448201527f722063616c6c0000000000000000000000000000000000000000000000000000606482015260840161045c565b6001600160a01b0385163b6129d35760405162461bcd60e51b815260206004820152601d60248201527f416464726573733a2063616c6c20746f206e6f6e2d636f6e7472616374000000604482015260640161045c565b600080866001600160a01b031685876040516129ef9190613661565b60006040518083038185875af1925050503d8060008114612a2c576040519150601f19603f3d011682016040523d82523d6000602084013e612a31565b606091505b5091509150612a418282866128cb565b979650505050505050565b6040518060c0016040528060001515815260200160608152602001612a8d604051806040016040528060006001600160a01b03168152602001600081525090565b8152602001612ab2604051806040016040528060008152602001600060ff1681525090565b8152602001612ad7604051806040016040528060008152602001600060ff1681525090565b8152602001612afc604051806040016040528060008152602001600060ff1681525090565b905290565b6001600160a01b038116811461055057600080fd5b600060208284031215612b2857600080fd5b81356128c481612b01565b61ffff8116811461055057600080fd5b60ff8116811461055057600080fd5b60008060008060808587031215612b6857600080fd5b8435612b7381612b33565b93506020850135612b8381612b01565b92506040850135612b9381612b01565b91506060850135612ba381612b43565b939692955090935050565b634e487b7160e01b600052604160045260246000fd5b6040805190810167ffffffffffffffff81118282101715612be757612be7612bae565b60405290565b60405160c0810167ffffffffffffffff81118282101715612be757612be7612bae565b6040516080810167ffffffffffffffff81118282101715612be757612be7612bae565b604051610160810167ffffffffffffffff81118282101715612be757612be7612bae565b604051601f8201601f1916810167ffffffffffffffff81118282101715612c8057612c80612bae565b604052919050565b600067ffffffffffffffff821115612ca257612ca2612bae565b50601f01601f191660200190565b600082601f830112612cc157600080fd5b8135612cd4612ccf82612c88565b612c57565b818152846020838601011115612ce957600080fd5b816020850160208301376000918101602001919091529392505050565b60008060408385031215612d1957600080fd5b8235612d2481612b01565b9150602083013567ffffffffffffffff811115612d4057600080fd5b612d4c85828601612cb0565b9150509250929050565b600067ffffffffffffffff821115612d7057612d70612bae565b5060051b60200190565b60006020808385031215612d8d57600080fd5b823567ffffffffffffffff811115612da457600080fd5b8301601f81018513612db557600080fd5b8035612dc3612ccf82612d56565b81815260059190911b82018301908381019087831115612de257600080fd5b928401925b82841015612a41578335612dfa81612b01565b82529284019290840190612de7565b60006020808301818452808551808352604092508286019150828160051b8701018488016000805b84811015612f3457898403603f190186528251805115158552888101516101408a870181905281519087018190526101608701918b019085905b80821015612ea557612e9184845180516001600160a01b03168252602090810151910152565b928b0192918c019160019190910190612e6b565b50505088820151612ecb8a88018280516001600160a01b03168252602090810151910152565b5060608201516080612eec818901838051825260209081015160ff16910152565b830151805160c089015260209081015160ff90811660e08a015260a09094015180516101008a0152015190921661012090960195909552509487019491870191600101612e31565b50919998505050505050505050565b600080600080600060a08688031215612f5b57600080fd5b8535612f6681612b01565b945060208601359350604086013592506060860135612f8481612b33565b949793965091946080013592915050565b600080600060608486031215612faa57600080fd5b833567ffffffffffffffff811115612fc157600080fd5b612fcd86828701612cb0565b9350506020840135612fde81612b01565b929592945050506040919091013590565b60006020828403121561300157600080fd5b813567ffffffffffffffff81111561301857600080fd5b61302484828501612cb0565b949350505050565b600080600080600060a0868803121561304457600080fd5b853561304f81612b01565b945060208601359350604086013561306681612b01565b92506060860135612f8481612b01565b634e487b7160e01b600052603260045260246000fd5b8051801515811461309c57600080fd5b919050565b6000604082840312156130b357600080fd5b6130bb612bc4565b905081516130c881612b01565b808252506020820151602082015292915050565b805161309c81612b43565b6000604082840312156130f957600080fd5b613101612bc4565b905081518152602082015161311581612b43565b602082015292915050565b6000602080838503121561313357600080fd5b825167ffffffffffffffff8082111561314b57600080fd5b90840190610140828703121561316057600080fd5b613168612bed565b6131718361308c565b8152838301518281111561318457600080fd5b83019150601f8201871361319757600080fd5b81516131a5612ccf82612d56565b81815260069190911b830185019085810190898311156131c457600080fd5b938601935b828510156131ed576131db8a866130a1565b825286820191506040850194506131c9565b8387015250613201905087604085016130a1565b604082015261321387608085016130e7565b60608201526132258760c085016130e7565b60808201526132388761010085016130e7565b60a08201529695505050505050565b634e487b7160e01b600052601160045260246000fd5b600060001982141561327157613271613247565b5060010190565b60006020828403121561328a57600080fd5b5051919050565b805167ffffffffffffffff8116811461309c57600080fd5b6000602082840312156132bb57600080fd5b6128c482613291565b60005b838110156132df5781810151838201526020016132c7565b83811115611c275750506000910152565b600081518084526133088160208601602086016132c4565b601f01601f19169290920160200192915050565b6001600160a01b038716815285602082015261ffff8516604082015283606082015263ffffffff8316608082015260c060a0820152600061336060c08301846132f0565b98975050505050505050565b600063ffffffff8083168181141561338657613386613247565b6001019392505050565b6000602082840312156133a257600080fd5b81516128c481612b01565b6020815260006128c460208301846132f0565b600082601f8301126133d157600080fd5b81516133df612ccf82612c88565b8181528460208386010111156133f457600080fd5b6130248260208301602087016132c4565b60006020828403121561341757600080fd5b815167ffffffffffffffff81111561342e57600080fd5b613024848285016133c0565b6000821982111561344d5761344d613247565b500190565b805163ffffffff8116811461309c57600080fd5b805161309c81612b33565b600082601f83011261348257600080fd5b81516020613492612ccf83612d56565b82815260079290921b840181019181810190868411156134b157600080fd5b8286015b8481101561351657608081890312156134ce5760008081fd5b6134d6612c10565b8151815284820151858201526040808301516134f181612b43565b9082015260608281015161350481612b43565b908201528352918301916080016134b5565b509695505050505050565b60006020828403121561353357600080fd5b815167ffffffffffffffff8082111561354b57600080fd5b90830190610160828603121561356057600080fd5b613568612c33565b613571836130dc565b815261357f60208401613452565b602082015261359060408401613452565b60408201526135a160608401613466565b6060820152608083015160808201526135bc60a08401613291565b60a08201526135cd60c084016130dc565b60c082015260e0830151828111156135e457600080fd5b6135f0878286016133c0565b60e083015250610100613604818501613452565b90820152610120838101518381111561361c57600080fd5b61362888828701613471565b91830191909152506101409283015192810192909252509392505050565b60006020828403121561365857600080fd5b6128c48261308c565b600082516136738184602087016132c4565b919091019291505056fe416464726573733a206c6f772d6c6576656c2064656c65676174652063616c6c206661696c6564a2646970667358221220bdadc29ea589590a0b657789eaa3f7075596d0707672ef78856db61305e29f3b64736f6c63430008090033",
  "linkReferences": {},
  "deployedLinkReferences": {}
}